:020000040800F2
:1000000000040020B9010008BB010008BB01000882
:10001000BB010008BB010008BB010008BB010008D0
:10002000BB010008BB010008BB01000895F40008F3
:10003000BB010008BB010008BB010008EF08010874
:10004000BB010008BB010008BB010008BB010008A0
:10005000BB010008BB010008E10501080906010811
:10006000310601085906010881060108BB01000894
:10007000BB010008BB010008810F0108BB0100089B
:10008000A9060108BB010008BB010008BB0100086C
:10009000BB010008BB010008BB010008BB01000850
:1000A000BB010008BB010008950B0108A90B010862
:1000B000BB010008BB010008BB010008BB01000830
:1000C0000D0901080D070108BB010008BB0100086C
:1000D000BB010008BB010008BB010008BB01000810
:1000E00072B6264880F30888254880F30988254899
:1000F00025490860022080F31488BFF36F8F0EF04B
:10010000FDFE0EF0B5FA4FF0553020491B4A9142E2
:100110003CBF41F8040BFAE71D49194A91423CBF24
:1001200041F8040BFAE71B491B4A1C4B9A423EBF9D
:1001300051F8040B42F8040BF8E700201849194A5B
:1001400091423CBF41F8040BFAE70EF0DBFE0EF0E3
:10015000D6FE154C154DAC4203DA54F8041B884703
:10016000F9E709F0CFF9124C124DAC4203DA54F81A
:10017000041B8847F9E70EF0C3BE0000000400200E
:10018000000C00200000000808ED00E00000002046
:100190000004002094260108000C002020150020F7
:1001A0002015002068490020E0000008E000000859
:1001B000E0000008E000000892E700F000F8FEE729
:1001C0002DE9F04FC1F80CD0C3689D46BDE8F08F13
:1001D000002383F311882846A04700200FF060F821
:1001E000FEE70EF0B7FF00DFFEE7000053B94AB9A3
:1001F000002908BF00281CBF4FF0FF314FF0FF302F
:1002000000F09AB9ADF1080C6DE904CE00F01AF8CF
:10021000DDF804E0DDE9022304B07047430803F091
:100220005533C01A830803F0333300F033301844D9
:1002300000EB101000F00F3000EB002000EB00404E
:10024000000E70472DE9F047089D0F4604468E4684
:10025000002B48D18A42164661D9B2FA82F24AB1DD
:10026000C2F1200301FA02FE20FA03F3964043EAAA
:100270000E0E94404FEA164CBEFBFCF1B7B20CFBDD
:1002800011EE01FB07F0230C43EA0E43984209D913
:10029000F31801F1FF3E80F0ED80984240F2EA80D1
:1002A000023933441B1AB3FBFCF00CFB103300FB88
:1002B00007F7A4B244EA0344A74209D9341900F16C
:1002C000FF3380F0D980A74240F2D6803444023810
:1002D00040EA01400021E41B1DB10023D440C5E9E0
:1002E0000043BDE8F0878B4206D90DB1C5E9000196
:1002F00000210846BDE8F087B3FA83F1002947D111
:10030000BB4202D3824200F20481841A67EB0302EB
:1003100001209646002DE4D0C5E9004EE1E7002A11
:1003200000F09080B2FA82F2002A40F0A780881B89
:100330000121370C1FFA86FEB0FBF7FC07FB1C00FF
:10034000230C43EA00430EFB0CF0984207D9F31844
:100350000CF1FF3802D2984200F2E080C4461B1A2A
:10036000B3FBF7F007FB10330EFB00FEA4B244EA28
:100370000344A64507D9341900F1FF3302D2A6453C
:1003800000F2C9801846A4EB0E0440EA0C40A3E733
:10039000C1F120068B4022FA06FC4CEA030C27FA36
:1003A00006FA4FEA1C49BAFBF9F88F4020FA06F327
:1003B00009FB18AA1FFA8CFE3B4300FA01F708FB61
:1003C0000EF01C0C44EA0A44A04202FA01F20BD9D6
:1003D0001CEB040408F1FF3A80F09980A04240F23F
:1003E0009680A8F102086444241A98B2B4FBF9F389
:1003F00009FB134403FB0EFE40EA0444A64508D95A
:100400001CEB040403F1FF307FD2A6457DD9023BEB
:10041000644443EA0840A4EB0E04A0FB028E74453A
:100420004346F14661D35ED055B1FA1A64EB090434
:1004300004FA06F622FA01F31E43CC40C5E9006433
:1004400000214EE743084FEA510C43EAC1710A0C00
:1004500042EA0C428BB2C407B2FBF6F143EA024314
:10046000BCFBF6FCB646304637461F22181A41EA56
:100470000C4161E7714615E7184629E7C2F12003F0
:1004800021FA03F0964024FA03F397403B43370CDC
:10049000B0FBF7F807FB18001FFA86FE190C41EABB
:1004A000004108FB0EF0884204FA02F43AD97118B0
:1004B00008F1FF3C01D288421ED8091AB1FBF7F8B7
:1004C00008FB0EF007FB18119BB243EA014383427D
:1004D0002FD2F31808F1FF31C8D28342C6D2A8F157
:1004E00002013344C2E747459ED2B8EB02036EEBEC
:1004F0000C0E0138F14697E7301A0144A8F1020CBE
:10050000B1FBF7F808FB0EF0DCE7034681E7D046C5
:100510006AE70846FEE63444023834E7ACF1020CE0
:1005200033441CE7091AC446B1FBF7F808FB0EF088
:10053000C8E741469AE700BF704700BF38B5124B85
:1005400004461D682A6B1AB10023C2E9044338BD72
:10055000182000F039FA0246286378B100210B23F5
:1005600001209381C2E90401084B0949094DC2E900
:10057000011300231560C2E9044338BD4621064B30
:10058000064800F0FFF800BF000C0020ECDE05007C
:1005900034126DE60E33CDABCC250108E4250108FD
:1005A00038B5194B1C68226B8AB113691749546915
:1005B00003FB01F1164800FB0411A3FB00300133DB
:1005C00041EB0001C2E9043121F0004038BD1820A0
:1005D00000F0FAF90246206388B1012400250B23BC
:1005E0000A480C49C2E90445116001460A4D0B4C0A
:1005F00093810B4BC2E90154C2E9043138BD522149
:10060000084B094800F0BEF8000C00202DF45158AA
:100610002D7F954C0E33CDAB34126DE6ECDE05002C
:100620002E7F954CCC250108E425010820F003011C
:1006300010F00300C0F1000051F8043B00F1040C7D
:100640004FEACC0C6FF000021CBF22FA0CF21343ED
:100650004FF0010C4CEA0C2C4CEA0C4CA3EB0C02B6
:1006600022EA030212EACC1204BF51F8043B043020
:10067000F4D0C2F1000102EA0102B2FA82F2C2F140
:100680001F0200EBD200704788420ED98B188342BC
:100690000BD900EB020C002A6DD0624613F801CD95
:1006A000994202F801CDF9D170470F2A0FD80346BD
:1006B00002F1FF3C002A5ED00CF1010C013B8C449E
:1006C00011F8012B614503F8012FF9D1704740EA79
:1006D00001039B0750D1A2F1100370B501F1200C6A
:1006E00023F00F0501F1100E00F11004AC441B09BA
:1006F0005EF8105C0EF1100E44F8105C5EF81C5CA5
:10070000103444F81C5C5EF8185C44F8185C5EF821
:10071000145CE64544F8145CEAD1013312F00C0F86
:1007200001EB031102F00F0400EB031328D08E46F7
:10073000043C24F003064FEA940C1E441C1F5EF890
:10074000045B44F8045FB442F9D10CF1010402F0F7
:10075000030203EB840301EB840102F1FF3C4AB185
:100760000CF1010C013B8C4411F8012B614503F89D
:10077000012FF9D170BD7047034602F1FF3C9BE7A2
:100780002246EAE7144600B51A460A4B0D461B6896
:1007900085B0DE6803464CB10749019130460749F0
:1007A0000294009500F02EF900F090F804490C46F0
:1007B000F3E700BF000C00201026010820260108E6
:1007C0001C26010808B513460022FFF7DBFF00BF17
:1007D00070B5860747D0541E002A3ED00346CAB2E1
:1007E00001E0013C39D303F8012B9D07F9D1032C1B
:1007F0002CD9CDB205EB05250F2C1A4605EB054586
:1008000034D9A4F1100C2CF00F0603F1100EB644ED
:100810004FEA1C1CC2E90055C2E90255103272456C
:10082000F8D10CF1010214F00C0F03EB021204F0EA
:100830000F0C13D0ACF1040323F00303043313446F
:1008400042F8045B9342FBD10CF003042CB1C9B213
:100850001C4403F8011BA342FBD170BD6446134640
:10086000002CF4D1F9E703461446C0E7A446E1E7BB
:10087000032A30B415D941EA0004A40784460B4684
:1008800004D0541E0FE0043A032A08D919466046E2
:1008900053F8044B5CF8045BA542F4D0F1E76046E2
:1008A0001946541E7AB1431E0139021901E09A42D9
:1008B00009D013F8010F11F801CF6045F7D0A0EB74
:1008C0000C0030BC7047002030BC7047062008B5D3
:1008D00000F042F901200FF005FD00BF844641EA17
:1008E000000313F0030349D1403A23D30B6803609C
:1008F0004B6843608B688360CB68C3600B6903619E
:100900004B6943618B698361CB69C3610B6A036285
:100910004B6A43628B6A8362CB6AC3620B6B03636D
:100920004B6B43638B6B8363CB6BC3634030403152
:10093000403ADBD230320BD30B6803604B68436024
:100940008B688360CB68C36010301031103AF3D2EB
:100950000C3205D351F8043B40F8043B043AF9D279
:10096000043208D0D2071CBF11F8013B00F8013B4C
:1009700001D30B8803806046704700BF082A13D359
:100980008B07B1D010F00303AED0C3F10403D21A29
:10099000DB071CBF11F8013B00F8013BA4D331F881
:1009A000023B20F8023B9FE7043AD9D3013A11F801
:1009B000013B00F8013BF9D20B7803704B78437090
:1009C0008B78837060467047024B0146186800F0D0
:1009D000FDBE00BF000C0020024B0146186800F06D
:1009E00075BF00BF000C00200CB400B583B004AB91
:1009F00053F8042B019300F087F903B05DF804EB82
:100A000002B070470EB400B5074A82B003AB01468E
:100A1000106853F8042B019300F076F902B05DF8EA
:100A200004EB03B0704700BF000C002038B5C46B66
:100A30000CB1002038BD8021054600F0C7FE0246FB
:100A4000E86330B1031F7C3243F8044F9342FBD17B
:100A5000EFE74FF0FF3038BD30B51F29054683B0B2
:100A600008D8C36B0C4653B153F8240043F8242034
:100A700003B030BD162303604FF0FF30F8E780214C
:100A8000019200F0A3FE019A0346E8630028F3D028
:100A9000011F00F17C05002041F8040FA942FBD1A1
:100AA000E2E700BF1F2938B505461ED8C26B0C46C9
:100AB0006AB152F8213053B1012B06D0591C10D025
:100AC0000021204642F824109847002038BD2846CF
:100AD00001F070FA224601462846BDE8384001F090
:100AE00055BA162301202B6038BD16234FF0FF3076
:100AF0002B6038BD1F292BD838B5C36B0C46054673
:100B0000A3B153F8242003EB84034AB1511C0BD04A
:100B1000012A07D0002520461D609047284638BD91
:100B2000012038BD032038BD022038BD802100F0EF
:100B30004DFE0346E86340B100201A1F03F17C011B
:100B400042F8040F8A42FBD1DBE74FF0FF3038BD9B
:100B50004FF0FF30704700BF38B5134B1F281D689A
:100B60001DD8EA6B044662B152F820304BB1012B1C
:100B700005D0591C0FD0002142F8201098470020C2
:100B800038BD284601F016FA224601462846BDE83F
:100B9000384001F0FBB9162301202B6038BD162325
:100BA0004FF0FF302B6038BD000C0020114B1F2888
:100BB00070B51E6808D8F36B04460D464BB153F868
:100BC000240043F8245070BD162333604FF0FF30EB
:100BD00070BD8021304600F0F9FD0346F063002827
:100BE000F4D00021021F7C3042F8041F8242FBD166
:100BF000E5E700BF000C002038B50B4B1D68EC6B1F
:100C00000CB1002038BD8021284600F0DFFDE863EC
:100C100038B1031F00F17C0243F8044F9342FBD12B
:100C2000EFE74FF0FF3038BD000C002038B5174B10
:100C30001F281D6826D80446E86BA0B150F8242070
:100C400000EB84034AB1511C0BD0012A07D00025C8
:100C500020461D609047284638BD012038BD03203E
:100C600038BD022038BD8021284600F0AFFDE86382
:100C700040B10021031F00F17C0243F8041F93429E
:100C8000FBD1DBE74FF0FF3038BD00BF000C002088
:100C90009368013B002B936005DAD2F818C06345D6
:100CA00007DB0A2905D01368581C10600846197024
:100CB000704700F069BE00BF9BB1F8B5134406460B
:100CC0000F46541E5D1E01E0AC4208D03A46304645
:100CD00014F8011FFFF7DCFF431CF5D1F8BD00201D
:100CE000F8BD0020704700BF936810B514461BB9CB
:100CF00018460023636010BD00F08CF90023A36048
:100D00000023636010BD00BF2DE9F04FA1B08B46FA
:100D100091461C46049018B1036A002B00F0138121
:100D2000BBF80C30180740F18E80DBF81030002B38
:100D300000F08980002343F220020D9399F80030DF
:100D40000127824E0794ADF83920002B73D04D4611
:100D500003E015F8013F002B7FD0252BF9D1B5EB2F
:100D6000090A7DD12B78002B65D000234FF0FF328C
:100D70000135CDE9092308930B938DF863301E9359
:100D800006E02546089B801B07FA00F00343089302
:100D90002C46052214F8011B304600F0EFF8A1465E
:100DA0000028EED1089BD90644BF20228DF863208D
:100DB0001A0748BF2B22297848BF8DF863202A29BB
:100DC00064D1079A1168043200290792C0F2968014
:100DD0000B9169782E296FD05D4C0322204600F0DC
:100DE000CDF838B14022089B001B8240134309F123
:100DF0000109089319F8011B062256488DF838108E
:100E000000F0BCF800287FD0534B002B69D007A915
:100E100000915A460498514B08A9AFF30080039003
:100E2000039B013307D00D9B039A13440D9399F84C
:100E30000030002B8BD1BBF80C305B060AD40D9828
:100E400021B0BDE8F08F5946049800F037FC002827
:100E50003FF470AF4FF0FF30F2E7B5EB090AEAD08C
:100E600009F1FF3805954546DDF8108001E0A245FF
:100E70003ED92C465A46404615F8011FFFF708FF99
:100E800002340130A4EB0904F1D1D4E7A1F130021E
:100E9000092A88BFA9469DD80B9B00E00134217820
:100EA00003EB830302EB4303A1F13002092AF5D9D6
:100EB0002E29A1460B938FD199F801102A292DD103
:100EC000079B09F102001A680433002A0793B8BF90
:100ED0004FF0FF3399F8021009928146B8BF099389
:100EE0007AE7079B073323F00703083307939AE752
:100EF0000D99059D51442B780D9134E7494243F0FB
:100F000002030B91089364E707A900915A460498DD
:100F1000124B08A900F06CFE039081E70023A1F1B9
:100F20003002092A09F1010909933FF655AF19F872
:100F3000011F03EB830302EB4303A1F13002092AF3
:100F4000F5D9099348E700F0C5FAE9E6502601080B
:100F5000582601085C26010800000000B90C0008B2
:100F60008C4600B586461346034A714610685DF804
:100F700004EB6246FFF7C8BE000C00205FFA81FC5C
:100F8000810744D00346511E22B909E09A0709D0CF
:100F9000013905D31846027801336245F6D170470E
:100FA00000207047184603290CD80029F8D00346C2
:100FB000014401E08B42F3D0184613F8012B62453F
:100FC000F8D1704710B50CEB0C24024604EB044436
:100FD00002E00439032915D9104652F8043B634056
:100FE000A3F1013E2EEA030313F0803FF1D0034644
:100FF000014401E08B4208D0184613F8012B6245EA
:10100000F8D110BD10460029F1D1002010BD1146C5
:10101000C9E700BF9368002B00F0F0802DE9F04F86
:10102000B1F90CC090461CF0080F81460C4683B005
:101030002BD00B694BB31CF00207D8F8006032D0FC
:101040004FF0000A5546D4F828B0216AAB4FC5B11D
:10105000BD422B46524628BF3B464846D84700284B
:1010600040F3C280D8F8083082441B1A2D1AC8F801
:101070000830002B00F0AE80D4F828B0216A002D93
:10108000E6D1D6E900A50836E1E72146484600F05A
:1010900015FB002840F0AD80B4F90CC0D8F8006012
:1010A0001CF00207CCD11CF0010A63D1574623681B
:1010B000A16818468B46002F58D01CF4007F00F022
:1010C000B180B9420A4600F2DD801CF4906F2FD047
:1010D000216962695D1A02EB420202EBD2726B1C5B
:1010E00052103B44934292BF93469B461A461CF4CF
:1010F000806F00F0E6801146484600F067FB00284C
:1011000000F0F5802A4621690190FFF7E7FBA289EC
:10111000019B22F4906242F08002A2815819C4F827
:1011200014B0ABEB05053A46BB462361A5602060D1
:101130003D46002751460192FFF7A6FAA1682368B1
:10114000019AA1EB0B011A44A1602260D8F8083083
:10115000AA445B1BC8F80830002B3BD02368A16869
:1011600018468B46B4F90CC0002FA6D1D6E900A7CB
:1011700008369EE73846BB463D46002D40D0002845
:1011800045D03A46D4E904C32068AA4228BF2A467B
:101190006045A16804D901EB030A524500F382803F
:1011A000934272DC5A464846216AD4F828C0E04788
:1011B000B0F1000A18DDB7EB0A070FD00120D8F80C
:1011C0000830D344A3EB0A03A5EB0A05C8F808309E
:1011D000002BD2D1002003B0BDE8F08F2146484655
:1011E00000F02AFA0028EAD0B4F90C3043F04003AA
:1011F000A3814FF0FF3003B0BDE8F08F00207047AF
:10120000756833460836002DFAD0D3F800B02A4668
:101210000A215846FFF7B2FE002865D00130A0EB46
:101220000B07AEE722699A4214D36569BD4211D813
:101230006FF00043BB4228BF3B4693FBF5F3524699
:1012400005FB03F34846A56A216AA847051ECBDDC6
:101250007F1B7BE7B94228BF39460D4618465146E9
:101260002A46FFF711FAA1682368491B2B44A160A5
:1012700023600029ECD12146484600F0DDF9002822
:10128000E6D0B1E7BB463A4652E759460192FFF72E
:10129000FBF9019AA36892469B1AA3602368134442
:1012A000236088E759465246FFF7EEF92368214646
:1012B00053444846236000F0BFF900283FF47BAF59
:1012C00092E7484600F0D0FB034600287FF426AFA3
:1012D0004846216900F0FAFA0C22B4F90C30C9F83A
:1012E000002023F0800381E76A1C17464AE70C229E
:1012F000B4F90C30C9F8002078E700BF00FCFF7F8C
:1013000000207047024A0349034800F08BBB00BF2E
:10131000500C002039160008040C00200C4B4168CA
:1013200010B59942044601D000F086F9A168094B36
:10133000994202D0204600F07FF9E168064B9942BD
:1013400004D02046BDE8104000F076B910BD00BFC3
:101350002015002088150020F0150020002070477F
:101360002DE9F84300250423294C2A490822C4F812
:10137000381104F15C002946DFF89C90DFF89C806E
:10138000274F284EC4E90335C4E90055C4E9055583
:10139000A5606566FFF71CFA234B0822294604F175
:1013A000C4006367C4E90849C4E90A87C4E91A5557
:1013B000C4E91E5526632567C4F8CC50C4F8805094
:1013C000FFF706FA194B2946C4F8DC30082204F16D
:1013D000680304F59670C4F88830C4E92398C4E91A
:1013E0002576C4E93455C4E93855C4F8D850C4F852
:1013F0003451C4F8E850FFF7EBF904F1D003C4E925
:101400003D98C4E93F76C4F8F030BDE8F88300BFEA
:101410002015002005130008B91F0008E11F00086F
:1014200021200008452000080900010012000200E8
:10143000F8B5254B0646D3F83831002B3CD0234F66
:10144000D7E90134013B04D51DE05A1C04F16804BE
:1014500019D0B4F90C50013B002DF6D11C4B0822D9
:101460002946C4E90155C4E90455E3606566256071
:10147000A56104F15C00FFF7ABF9C4E90D55C4E9BF
:1014800012552046F8BD3D680DB12F46D8E74FF400
:10149000D671304600F09AF9044680B10423056005
:1014A000294625460C304FF4D072A0606360FFF7E8
:1014B0008FF93C602F46C3E7FFF752FFBFE70C23CD
:1014C00038603360DDE700BF20150020500C00209D
:1014D0000100FFFF036A03B17047044B044AD3F8CD
:1014E00038310262002BF7D13AE700BF2015002007
:1014F0001D130008704700BF704700BF0020024A5C
:10150000024900F08FBA00BF500C00200113000800
:101510000020024A024900F085BA00BF500C0020AA
:101520005D130008F8B5B1F90C300C461E070746EC
:1015300039D44A68002A53DDE56A002D31D00022F3
:101540003E683A6013F48052216A55D1012338462F
:10155000A847451C024663D0B4F90C30E56A216AFD
:10156000580705D56368D21A636B0BB1236CD21A86
:1015700000233846A847421C40D0002223696260FD
:101580002360A389DB0400D56065616B3E6041B1D7
:1015900004F14403994202D0384600F097F9002341
:1015A00063630020F8BD0E69002EFAD09B0718BFB8
:1015B00000230D6808BF4B690E60AD1B8B600CE00B
:1015C0002B463246D4F828C03846216AE047B0F1AD
:1015D000000CA5EB0C05664406DD002DF0DCE0E711
:1015E0000A6C002AA8DCDCE7B4F90C3043F04003B5
:1015F0004FF0FF30A381F8BD626DB1E73968B4F9EF
:101600000C301D29F2D80B4ACA40D507EED500226E
:10161000626022692260DA04B7D50029B4D0B4E749
:101620003B68002B98D01D2B01D0162BDCD13E60DF
:10163000B7E700BF010040200B69B3B110B5044605
:1016400082B008B1036A5BB1B1F90C3013B9002064
:1016500002B010BD204602B0BDE81040FFF762BFE7
:101660000191FFF737FF0199EEE70020704700BFB7
:10167000B8B138B50D4A0369044615682BB10DB1F0
:101680002B6A53B1B4F90C300BB9002038BD214698
:101690002846BDE83840FFF745BF2846FFF71AFF48
:1016A000F0E7034A0349044800F0BCB9000C0020ED
:1016B000500C002039160008040C002038B52F4BC0
:1016C00005461B680C4613B11A6A002A4BD0B4F9C0
:1016D0000C3018071CD5226922B313F0010107D082
:1016E00000206169A0604942A1613AB1002038BD83
:1016F000980758BF6169A160002AF7D1190658BF41
:101700001046F4D543F04003A3814FF0FF3038BDBD
:10171000D9062CD55A0712D4226943F00803A381B5
:10172000002ADAD103F42071B1F5007FD5D021462B
:10173000284600F0A3FBB4F90C302269CDE7616BB9
:1017400051B104F14402914204D0284600F0BEF8A1
:10175000B4F90C30002262630021226923F02403D3
:10176000C4E90021D9E71846FFF7B4FEAFE7092224
:1017700043F040032A60A381C7E700BF000C0020AC
:1017800070B5114E054633680C46BBB1214628465C
:101790000EF08CFD431C01460CD0C41C24F0030445
:1017A000A04205D02846611A0EF080FD013001D01C
:1017B000204670BD4FF0FF34204670BD19460EF034
:1017C00075FD3060E2E700BF5C1600202DE9F843AC
:1017D000CD1C25F0030508350C2D38BF0C25002D38
:1017E000064618DBA94216D8DFF8DC8000F042FB81
:1017F000D8F80420A2B1144603E0636822467BB106
:101800001C4623685B1BF8D40B2B1FD894426368DB
:1018100054D053600CE00C2333600020BDE8F88303
:1018200029463046FFF7ACFF431C044619D005603B
:10183000304600F021FB04F10B00231D20F00700CF
:10184000C21A1CBF1B1AA350BDE8F8836119944249
:10185000256014BF5160C8F80410635163684B6081
:10186000E6E7D8F804701FB33C467F68002FFBD131
:1018700023683946304604EB03090EF017FD814515
:1018800016D123683046ED1A2946FFF779FF01305B
:101890000ED02368D8F804202B442360536883B10A
:1018A000A34203D01A465B689C42FBD10023B0E7F9
:1018B0000C233046336000F0DFFAAEE7C8F804309E
:1018C000B6E7C8F80470B3E75C160020002950D0D2
:1018D00038B551F8043C0C1F002BB8BFE41805467E
:1018E00000F0C8FA274A13682BB1A3420CD921682B
:1018F000601883422CD0284663601460BDE83840ED
:1019000000F0BABAA3420FD81A465B68002BF9D18F
:1019100011685018844217D02CD363605460284655
:10192000BDE8384000F0A8BA11685018A04214D0A1
:1019300020D8216860188342EFD118685B6808449A
:10194000C4E900035460EAE723680B441360E6E748
:1019500018685B6808442060CDE72068014450188F
:1019600083421160DBD1D3E900040144C2E90014D1
:10197000D5E770470C2328462B60BDE8384000F0BF
:101980007BBA00BF60160020F8B506460D46144627
:1019900010B1036A002B37D0A269A389A2601A078D
:1019A00019D52369BBB122686169D31AEDB2994296
:1019B0002F4620DD0133A1680139A160511C21604F
:1019C000157062699A420DD0A389DB0701D50A2DF3
:1019D00008D03846F8BD21463046FFF76FFE38B9CB
:1019E0002369E0E721463046FFF726FE0028F0D0C5
:1019F0004FF0FF37EDE721463046FFF71DFE002888
:101A0000F6D101232268D6E7FFF764FDC4E700BFE3
:101A100003460A46024908681946FFF7B5BF00BFEA
:101A2000000C00202DE9F8434FF0000980460F46D6
:101A30001646D6E90154013D10D4A389012B08D9DB
:101A4000B4F90E30013304D021464046B84749EA84
:101A50000009013D6B1C04F16804EED13668002ECC
:101A6000E7D14846BDE8F8832DE9F041144641B37B
:101A70000AB306460D4600F0E9FA8442074602D84A
:101A8000B4EB500F13D821463046FFF79FFE804637
:101A900050B1BC422246294628BF3A46FEF71EFFF7
:101AA00029463046FFF712FF4046BDE8F081A846C0
:101AB0004046BDE8F081A046FFF708FF4046BDE87C
:101AC000F0811146BDE8F041FFF780BE2DE9F84FE7
:101AD00092461F460A698B680C469A42B8BF1A465E
:101AE000CAF8002091F843300646DDF8289013B17B
:101AF0000132CAF80020226891065FD5DAF800307A
:101B00000233CAF80030226812F0060F11461DD1C8
:101B1000E1689942D8BF114618DD4FF0000804F182
:101B2000190B05E0E568DAF80030ED1A45450CDDE3
:101B300001235A4639463046C847013008F10108AA
:101B4000F0D14FF0FF30BDE8F88F216894F84330B2
:101B5000003B18BF01238A060AD53021E21882F81B
:101B6000431094F845105A1C2244023382F8431063
:101B70003946304604F14302C8470130E1D0D4E988
:101B800002202368DAF8005003F00603042B2169D1
:101B90001BD08A4220DD4FF00008521A90440025E5
:101BA0001A3401E0454517DA01232246394630460A
:101BB000C847013005F10105F4D1C2E712F0060F64
:101BC0000DD0003B18BF0123D2E7401B8A4220EA18
:101BD000E078E2DC0028E2DC0020BDE8F88FE16874
:101BE000DAF800309942D8BF114696DCAEE700BF64
:101BF0002DE9F04717460A7E84B00C460646984603
:101C00000C9D01F1430C002A35D0A2F15803D9B242
:101C1000202969D8202B67D8DFE813F0E60066009A
:101C20006600660066006600660066006600660084
:101C30006600AC007000660066006600660070001A
:101C4000660066006600660021008300C60066002C
:101C50006600B6006600830066006600EC002B6834
:101C60002268181D6169286010061B6802D452069C
:101C700000F1E08019600023E14623613B462146E4
:101C80003046CDF8008003AAFFF720FF013020D0B6
:101C90004A46394630462369C047013019D0236887
:101CA000E0689B07DDF80C9018D5484516DD002547
:101CB00004F1190A04E0E068A0EB0903AB420DDD72
:101CC0000123524639463046C047013005F101052F
:101CD000F1D14FF0FF3004B0BDE8F0874845B8BF00
:101CE000484604B0BDE8F087012084F8422004F1A2
:101CF00042090023206184F84330BFE72A68236843
:101D0000111D1806296002D4590600F1958010684B
:101D1000014600286268C0F293804FF00A0E5348D3
:101D200015E020682B6810F0800F53F8041B02D1D7
:101D3000400648BF89B26F2A14BF4FF00A0E4FF019
:101D4000080E4A482B600023626884F84330002A5A
:101D5000A26051DB236823F00403236000294BD1E8
:101D6000002A7BD1E146BEF1080F56D0ACEB090347
:101D7000236183E72A680120116804322A6004F194
:101D8000420984F84210B4E72B6800211A1D2A602A
:101D9000D3F8009062684846FFF7F0F8002863D057
:101DA000A0EB09006060A4E7236843F020032360F0
:101DB00078222F4884F845202A6813F0800F52F8C3
:101DC000041B03D113F0400F18BF89B22A60DA0751
:101DD00044BF43F02003236019B9236823F0200394
:101DE00023604FF0100EAEE75823204884F84530AA
:101DF0002368E1E72368DBE77546E146B1FBF5F3CD
:101E00000A4605FB131A194610F80A30AA4209F8C7
:101E1000013DF3D2BEF1080FA8D12368DD07A5D597
:101E2000626823699A42A1DC302309F1FF3989F8FD
:101E300000309BE719801EE7B2F90010084668E7FA
:101E40002D20002AA26084F8430002DB23F0040363
:101E500023600A250548AE464942CEE7037804F1DF
:101E6000420984F842307EE7606842E76426010850
:101E700078260108704700BF704700BF70B5B1F900
:101E80000C300C46990796B007D5012204F14703A0
:101E9000C4E90432236016B070BDB4F90E100546D3
:101EA000002929DB6A460EF00EFA002822DB4FF4E7
:101EB00080612846019EFFF789FC88B3A38906F458
:101EC000704643F08003A3814FF48063B6F5005F52
:101ED000C4E904032060DED12846B4F90E100EF0E8
:101EE000FEF90028D7D0A38923F0030343F00103B0
:101EF000A381D0E7B4F90C3013F0800F14BF402653
:101F00004FF4806628463146FFF760FC40B1A38954
:101F1000C4E9040643F080032060A38116B070BDBD
:101F2000B4F90C309A05B6D4012123F0030304F16F
:101F3000470243F00203C4E90421A3812260AAE717
:101F400070B50C46B1F90E10154600291E4696B024
:101F50000FDB6A460EF0B7F900280ADB019B4FF44D
:101F6000806203F47043A3F50053B3FA83F35B0973
:101F700007E0A289002312F0800F14BF40224FF423
:101F80008062002033602A6016B070BD70B50026F4
:101F9000074D0446084611462E600EF0ABF9431C6F
:101FA00000D070BD2B68002BFBD0236070BD00BF3C
:101FB000641600200EF0A6B910B50C46B1F90E104B
:101FC0000EF069F9002803DB636D0344636510BDFF
:101FD000A38923F48053A38110BD00BF0020704764
:101FE0002DE9F0410C46B1F90C101F46CB05054612
:101FF00016460BD421F48051A1813B463246284637
:10200000B4F90E10BDE8F0410EF04CB9B4F90E1061
:10201000022300220EF044F9B4F90C10EAE700BFE5
:1020200010B50C46B1F90E100EF03AF9B4F90C30B7
:10203000421C0EBF23F4805343F480536065A38198
:1020400010BD00BFB1F90E100EF02EB951F8043CCE
:10205000181F002BBCBF0B58C0187047372875D805
:10206000032803D800207047042070470438332821
:10207000F8D801A353F820F04D22000831220008BF
:102080003D2200083D22000831220008652000089A
:1020900049210008312200084D22000831220008A1
:1020A0003122000831220008652000086520000860
:1020B0004D220008752200086520000865200008F0
:1020C0007D220008652000085922000851220008DE
:1020D00031220008612200083D2200086520000826
:1020E0004522000845220008452200084522000834
:1020F0004522000845220008452200084522000824
:102100004522000885220008652000086520000897
:10211000652000086520000865200008652000088B
:10212000652000086520000865200008652000087B
:10213000652000086520000865200008652000086B
:10214000652000085522000806207047A0F50170A0
:1021500083B2332B86D8332884D801A353F820F0D8
:102160004D22000831220008692200086D22000873
:10217000312200086520000835220008652000088B
:102180004D2200085D220008652000086520000837
:1021900065200008652000084D220008792200080B
:1021A0006520000865200008492200086520000815
:1021B000652000085122000831220008652200082D
:1021C00071220008392200086520000865200008F7
:1021D00065200008692000086520000881220008A9
:1021E00065200008652000086520000865200008BB
:1021F00065200008652000086520000865200008AB
:10220000652000086520000865200008652000089A
:10221000652000086520000865200008652000088A
:1022200065200008652000084122000841220008BE
:10223000012070470520704707207047082070472D
:10224000092070470A2070470C2070470D20704706
:102250000E2070470F2070471020704711207047E4
:1022600012207047132070471420704715207047C4
:1022700016207047172070471820704719207047A4
:102280000320704702207047A0F11E03092B01D9DB
:10229000FFF7E4BE0B20704708B5FFF7DFFE0038FC
:1022A00018BF012008BD0023036043608360838161
:1022B000704700680128B8BF0120704710B5094C6D
:1022C0002268FF2A0CDC084B1B6813445942C9B230
:1022D000DBB258BF4B420549013221F8130022609E
:1022E00010BD00BF74160020781600207C16002058
:1022F00030B40C4C226892B10B4D0C492B68013A5A
:1023000031F8130001335942C9B2DBB258BF4B4216
:102310002B60074B22601B680BB130BC184730BCE8
:10232000704700BF74160020781600207C1600202D
:1023300068160020014B1860704700BF6816002027
:102340000023034A1360034A1360034A1370704763
:1023500074160020781600206C160020FFF7AEBF20
:1023600038B50C460025A54200DB38BDFFF7A6FFB7
:102370000135F8E7074B1B685BB1074B074A197833
:1023800011B11168814204D0106001221A70FFF768
:10239000AFBF7047741600206C1600207016002026
:1023A0000129B8BF012170B50E460025441E0E2C30
:1023B0000CD8DFE804F0080F1113151518181515BF
:1023C0001B1B1D1F22005020FFF7C8FF0135AE4226
:1023D000EDD170BD5120F7E75220F5E74F20F3E72C
:1023E00040F24F10F0E74FF4A870EDE74A20EBE71A
:1023F0004D20E9E740F24D10E6E74FF4A570E3E722
:102400004B1EDBB20E2B10B5044608D8012AB8BF0C
:1024100001221146094A32F81300FFF7A1FF062CEA
:1024200005D140F21B10BDE81040FFF797BF072C05
:1024300040F21B1018BF4FF48370F4E7AA1601088E
:10244000012938B50D46B8BF01251C280C464FF0B0
:102450004A000FD1FFF782FF4A20FFF77FFF40F2CB
:1024600051202946FFF77CFF4FF48370BDE83840C8
:10247000FFF774BFFFF772FF4A20FFF76FFF40F2CC
:102480004D20FFF76BFF012C04DD40F25120691E47
:10249000FFF766FF40F21B10FFF760FF2A20E5E719
:1024A0000B461146A3F10B02012A10B504460AD8C7
:1024B00040F22B2040F237239C4208BF2B20BDE87E
:1024C0001040FFF74BBF013BDBB20E2BF0D8044AA4
:1024D0000129B8BF012132F81300FFF741FFE7E7F8
:1024E000AA16010838B50C4605464A20FFF736FF04
:1024F0004A20FFF733FF012C04DD40F25120611E1A
:10250000FFF72EFF40F2372340F22B209D4208BFF9
:102510002B20BDE83840FFF721BF1A2837D00DD84F
:10252000053883B20A2B41D80A283FD8DFE800F0EB
:10253000323E3E2F3E3E223E26292C0040F20A2308
:10254000984230D009D840F20523984222D0B0F505
:10255000027F1CD0272820D0704740F221239842C8
:102560001ED040F22323984217D040F21A239842FB
:102570000DD070474FF41470FFF7F0BE40F25120B9
:10258000FAE740F25220F7E740F24F20F4E740F23A
:102590004F30F1E74FF45470EEE740F24A20EBE79A
:1025A00040F24D20E8E740F24D30E5E770474C201F
:1025B000FFF7D4BE2A20FFF7D1BE08B540F24F2066
:1025C000FFF7CCFEBDE808404C20FFF7C7BE08B5BA
:1025D00040F24D20FFF7C2FEBDE8084040F21B105C
:1025E000FFF7BCBEFFF7F3BF08B540F24D20FFF781
:1025F000B5FEBDE808404FF48370FFF7AFBE08B5E5
:1026000010B15020FFF7AAFEBDE8084040F21910B3
:10261000FFF7A4BE08B54D20FFF7A0FEBDE80840B7
:102620004C20FFF79BBE40F21D10FFF797BE4FF402
:102630008B70FFF793BEB0F5017F08B51CD004D8AE
:10264000042817D0122819D008BDB0F5037F0CD08C
:1026500040F212239842F7D14A20FFF77FFE4FF451
:102660000A70FFF77BFE522000E04A20BDE80840D8
:10267000FFF774BE4F20F9E74D20F7E74D20FFF735
:102680006DFE4FF40A70F1E727283CD015D80F28CB
:102690000ED8042839D905380A2836D8DFE800F0E2
:1026A0002F35353135350635372B2D000120704754
:1026B0001A2814BF00200520704740F21A239842C0
:1026C00027D00DD8B0F5027F25D040F20A239842DA
:1026D00023D040F20523C31A58425841C000704726
:1026E00040F2212398421AD040F2232398420CBF93
:1026F0000C200020704703207047042070470720FB
:102700007047092070470B20704700207047022057
:102710007047062070470A2070470E2070470D2032
:102720007047000008B50348FFF7BDFD0022024BCB
:102730001A7008BDA8180020B818002010B5002491
:10274000074B1C70074B1C70FFF7ECFF064B1C601F
:10275000064B1C60064B1C70BDE81040FFF7F0BD37
:10276000BA180020B9180020941800208018002002
:102770007C180020FFF7DEBD9D4B2DE9F0471B784C
:102780000446002B00F0E8829A4E9B4F33785A1E85
:10279000022A00F2E182023B012B5FFA84F846D85C
:1027A0002046FFF75BFCB8F1290F02D101233370FB
:1027B0002CE01C2C05D8122C0AD8062C2CD0072C67
:1027C00022D00138042821D82046FFF7A6FE1DE0BC
:1027D000A4F11303092BF4D801A252F823F000BF8F
:1027E00027280008C3270008C3270008212800085D
:1027F000C3270008C3270008C3270008C327000811
:102800000928000813280008FFF7ECFE0020BDE8A7
:10281000F087FFF7E9FEF9E7FFF7D9FE0023C6E7E7
:10282000FFF7CBFEFAE70020FFF7E9FEEEE73A7884
:102830002046052A29D82A23D340DA0725D5FFF7D1
:1028400023FDB8F1290F05463B7821D1002B00F07C
:102850007D82FFF767FF0022684B1A603B7873B9EF
:10286000664D2C68002C0ADD654B1F783FB9654921
:1028700065486200FEF732F8644B2F601C603378C5
:10288000002BC3D15D4A1360C0E7FFF7E7FBD8E731
:10289000072B00F25F81DFE813F00800E00032014F
:1028A0007E01B201EB0137024902431E182B00F2F0
:1028B0004D82DFE813F054005400540054005B00D4
:1028C0004F0052002400480019004B025E006500D2
:1028D0006900B1007000700070007000700070003E
:1028E00070007000700070000123272C3B7008BF3F
:1028F0000023474A18BFA4F11D03136005E002231B
:1029000001223B70424B1C811A732046FFF7C4FC26
:102910000028A3D02046FFF7A1FB0138C0B2182839
:102920009CD83C4BC340DB0798D5354B1B78002B1C
:1029300094D1324A1368072BDFBF591C1160314A0A
:1029400022F813408AE7042301223B70304B5C815C
:102950005A73DAE706233B70D7E70723FBE72046E5
:10296000FFF792FE0121FFF71BFDCEE701210E20AC
:10297000F9E701210620FFF763FD00233370C4E768
:102980002046FFF758FEF8E740F219239C4214BF97
:1029900002230323F2E7A0F111054FF00008082DF0
:1029A00023D8DFE805F01F0508101316191D0B00CA
:1029B000FFF7FDFDA9E7FFF7FDFDA6E7FFF7FDFD2A
:1029C00086F80080A1E7FFF702FEF9E7FFF70AFEAD
:1029D0009BE7FFF709FE98E70020FFF710FE94E75A
:1029E0000120FAE7FFF716FE8FE7FFF71CFE8CE7E2
:1029F000BA180020B9180020B81800209418002038
:102A00007C180020981800208418002080180020CE
:102A1000A8180020FF0BFF01DFF81CA39AF8005054
:102A2000002D7FF472AFDFF81483D8F80030002B4C
:102A30003FF46BAF0123DFF808938AF80030D8F831
:102A400000309D4203DB00238AF800305DE739F84F
:102A5000020BFFF791FE0135F1E7BA48FFF729FCB9
:102A6000013D01460D2D75D801A353F825F000BF97
:102A7000C72A0008C72A0008C72A0008C72A000872
:102A8000D32A0008552900085B290008FF28000800
:102A900047290008552B0008A92A0008D92A000850
:102AA000E92A0008F12A0008A64A1368092B3FF713
:102AB0002CAF0A21272C01FB03F30CBF0021A4F14A
:102AC0001D010B4419E72046FFF7DEFDFFF768FC08
:102AD00007E001210E20F9E70620FFF7B1FC0023F3
:102AE0003370FFF71FFE10E72046FFF7A4FDF6E75F
:102AF00040F219239C4214BF02230323F0E79148BC
:102B0000FFF7D7FB013D0246092D23D801A353F857
:102B100025F000BF612B0008772B0008612B00080F
:102B2000612B0008F72B000855290008552B0008D9
:102B30003D2B0008552B0008812B0008814D2B8967
:102B40009C4207D101462046FFF77AFC2B89062BD1
:102B5000C7D1C4E7FFF7E6FD00227B4B1A6015E6FC
:102B60002046FFF791FD774D0146B5F808804046B5
:102B7000FFF746FCEAE701220B21724D2889F7E7AF
:102B80000323272C3B7008BF00236E4A18BFA4F113
:102B90001D035360B9E6451E0A2DDBD801A353F887
:102BA00025F000BFD12B0008F32C0008D12B000822
:102BB000D12B0008F72B000855290008552B0008D9
:102BC000552B0008552B0008552B0008AD2C00088C
:102BD0002046FFF759FD5B4D80462846B5F8089022
:102BE000FFF767FB6B68414603FB00F2632AA8BF4F
:102BF00063224846BCE701220E21524DBEE75148F0
:102C0000FFF757FB013D0246092DA3D801A353F856
:102C100025F000BF4F2C0008632C00084F2C000843
:102C20004F2C0008032D000855290008552B0008DB
:102C3000552B00083D2C00086D2C0008414B5B898A
:102C40009C4287D101462046FFF74CFC49E73D4BAB
:102C500020465D89FFF718FD01462846FFF720FC56
:102C60003FE701220B21374B5889F7E7052388E717
:102C7000451E0A2D3FF66EAF01A353F825F000BFA5
:102C8000CB2C0008F32C0008CB2C0008CB2C000820
:102C9000032D000855290008552B0008552B000866
:102CA000552B0008552B0008AD2C0008254A536809
:102CB000092B3FF72AAE0A21272C01FB03F30CBF97
:102CC0000021A4F11D010B4463E72046FFF7DCFC63
:102CD000DFF8709005464846B9F80A80FFF7E9FA30
:102CE000D9F8042029464243632AA8BF63224046FC
:102CF000B4E7144A5368092B3FF707AE0A214B4348
:102D000047E701220E21AEE706287FF423AF0D4DE1
:102D10002B7B13B101220F2130E76B7B1BB101220A
:102D20000F2168899AE701210F20CFE607287FF459
:102D300011AFFFF77CFCD4E67C180020801800203F
:102D400084180020A818002094180020034B1A684B
:102D5000002AC4BF00221A60012058E59418002000
:102D6000FFF708BB014B1878704700BFB918002067
:102D7000014B1878704700BFBA180020024B187832
:102D8000003818BF01207047B818002008B5044B60
:102D90001870FFF7C7FC0022024B1A6008BD00BF85
:102DA000B918002094180020012208B5044B1A70AD
:102DB000FFF7B8FC0023034A1360034A137008BDF1
:102DC000BA18002094180020B918002010B500246B
:102DD000044B1C70FFF7A6FC034B1C60BDE81040C1
:102DE000FFF7AEBABA1800209418002008B5FFF714
:102DF00099FC0022014B1A6008BD00BF9418002006
:102E000070B5C5B2C4042A464FEA102321D503F099
:102E10000F03013BDBB2072B54D82F49CC5C502A5F
:102E200046D0512A46D0522A46D04F2A21D10326D5
:102E3000FCB92A4B9C5DE4B10022294C9A55A35D54
:102E400033B9284B13F8160004F094FE0123A35560
:102E500070BD03F00104980748BF44F0020459070D
:102E600048BF44F004041B07D9D5502D44F0080492
:102E70002ED105F02FFD20EA04068443F6B202D0DD
:102E8000204604F01DFF16B1304604F022FF28460C
:102E900004F070FE284604F0B5FE16B1304604F08A
:102EA0000FFF002CD4D02046BDE8704004F011BFC5
:102EB0000026BDE70126BBE70226B9E70026B8E7F2
:102EC0000126B6E7502DF9D0512DF9D00024AAE7FC
:102ED000512DA8D1CDE700BFC8160108E018002089
:102EE000DC180020D81601080E4970B500220D46E6
:102EF00004460D480378D6B2B34206D8102B0AD048
:102F00005A1C027025F8134004E031F8026B0132BC
:102F1000A642F0D170BD05491E22881EFDF7B4FB04
:102F2000EC83F7E7BC180020BB180020BE18002077
:102F3000E03880B207280BD8064B1B5C43B106482B
:102F4000027811B113430370704722EA0302027042
:102F5000704700BFD0160108E4180020014B187814
:102F6000704700BFE41800202DE9F04100242746F7
:102F7000094D0A4EDFF8288015F8013B2BB118F8EF
:102F8000140004F03FFE05F8017C0134042C06F81F
:102F9000017BF1D1BDE8F081DC180020E0180020B1
:102FA000D8160108FFF7A0BF08B5FFF7C7FB0C480C
:102FB000FFF7E0FBFFF7F8FE0020FFF7E7FE002336
:102FC000084A09491370094A0B701370084A4B707C
:102FD000137053708B709370CB70D37008BD00BFAB
:102FE000012E0008E4180020E0180020BB18002083
:102FF000DC180020FFF7B4BE0B282DE9F041044691
:1030000031D00D2831D00E2831D00F2814BF4FF009
:10301000FF3503254E7976BB6A1C0AD0324B334FFD
:103020005E557B5D2BB1324B13F8150004F0EAFDC1
:103030007E55304900220D462F480378D7B29F4273
:103040000CD231F802CB571C644512D10126013B4A
:10305000DBB2037035F8133025F8123086F0010624
:103060003046BDE8F0810025D4E70125D2E70225EE
:10307000D0E73A46E2E7FFF77BFE0028F0D0A4F164
:10308000E003072BECD91D4B1B7813F0DD0F06D0A6
:10309000FFF774FE0028E3D0FFF7A8FEE0E713F087
:1030A000220F0CBFA04644F400784046FFF7F4F826
:1030B00008B9292CECD1FFF761FE07464046FFF71F
:1030C0005BFB0028CCD12046FFF70EFF6B1C01D123
:1030D0000026C5E7002FFBD1FFF744FE0128F7D1FA
:1030E000014B5855F4E700BFE0180020DC18002021
:1030F000D8160108BC180020BB180020E4180020D6
:1031000038B505460C4612B90024204638BD904714
:103110000028F9D06479002CF6D02846FFF742FF4A
:10312000F3E70000044B1A68044B11781878044B3D
:103130001B78184305F08CB8FC1800209824002058
:103140009924002070B5042400260E4D35F8020B9A
:1031500020B1C0B204F056FD25F8026C013CF5D157
:10316000D12004F04FFDD22004F04CFD064B1C7022
:10317000064B1C80064B1878FFF708FEBDE8704030
:10318000FFF7F2BEE8180020F0180020F218002027
:10319000FA18002008B50AF0AFFE012838BF012058
:1031A00080B208BD10B50C4628B10AF0AAFEA042B4
:1031B00034BF0020012010BDA0F58043B3F5955F1A
:1031C00007D3A0F5A54040381F288CBF0020012060
:1031D00070470120704738B5054605F07BFB044673
:1031E00005F094FB284604F05BFB2046BDE8384020
:1031F00005F086BB4B20FFF7EEBF4E20FFF7EBBF7D
:1032000040F20910FFF7E7BF08B55120FFF7E3FFD1
:10321000BDE808404A20FFF7DEBF08B55220FFF79F
:10322000DAFFBDE808404A20FFF7D5BF4F20FFF77F
:10323000D2BF5020FFF7CFBF2DE9F84304460D461B
:103240001746A34E49793260FFF772FE29462046A1
:10325000BA69FFF755FF18BB2046FFF7ADFF58B915
:10326000FFF760FF40B133681B6A0BB320469847F5
:10327000F0B133685B6AB3B929462046FA69FFF7B3
:103280003FFF804660B933686F795B88A34241D1C4
:10329000904D914C8FB1FFF77DFF84F8008028801E
:1032A0000020BDE8F8832046697998470028E3D0DC
:1032B0006B79002BE0D0204689E023785BB1874E04
:1032C000308810B1C0B204F09DFC0023338000238D
:1032D0002B802370E4E72B88002BF8D0FFF742FD0A
:1032E000042802D1FFF72EFFF1E73368DB686BB9E2
:1032F000FFF73EFD0028EAD0FFF734FD784B187049
:10330000FFF732FE0420FFF741FDE0E79847002871
:10331000EED1DCE7FFF726FD04280AD1A4F1E00393
:10332000072B2AD82FB124F00403E12BC3D0FFF7D9
:1033300009FFFFF71DFD6F79002800F0E180336879
:103340009B7C002B00F0DC80292C40F0D980002FE2
:1033500000F01981FFF706FD002840F01481FFF707
:10336000FDFD10F0DD0F40F00E81830740F1C480B9
:1033700040F23520FFF72FFF9DE7FFF7EFFD002F0D
:1033800047D00F2C14D80A2CD1D9A4F10B0300F08C
:103390002200042BCBD801A252F823F0C33300083B
:1033A0002F330008D5330008E9330008FD33000847
:1033B000282C2AD02C2CBAD1FFF7ECFE494B1880D0
:1033C00079E7CF20484B188004F0D4FB0B20FFF79F
:1033D000E9FD65E700280CBFCE20DA20424B58807B
:1033E00004F0C8FB0D20F2E700280CBFCD20D92047
:1033F0003D4B988004F0BEFB0E20E8E7D0203A4B0E
:10340000D88004F0B7FB0F20E1E7D22004F0B2FB34
:1034100051E70F2C12D80A2C8BD9A4F10B03042BE3
:1034200087D801A252F823F069340008333300082A
:103430007F34000895340008AB340008282C57D09E
:103440002C2C7FF476AFDFF8A490DFF8988099F801
:103450000030002B34D0D12004F0D4FB89F8007068
:103460000023A8F8003064E71F4F388800283FF495
:1034700060AFC0B204F0C6FB00233B8059E71A4F8F
:10348000788800283FF455AFC0B204F0BBFB00239E
:103490007B804EE7144FB88800283FF44AAFC0B293
:1034A00004F0B0FB0023BB8043E70F4FF8880028EF
:1034B0003FF43FAFC0B204F0A5FB0023FB8038E728
:1034C000B8F80030002BCBD0D12004F0F1FBC7E7D7
:1034D000FC180020F8180020F6180020F41800202E
:1034E000FA180020F2180020E8180020F018002038
:1034F000D22004F087FB1CE7002844D0352039E7B0
:10350000392C40D14FB3FFF70DFEA8B12046FFF78D
:1035100049FDFFF72DFC336880F001009B6AC0B2C3
:103520001BB19847FFF720FDBAE610B1FFF73CFC4E
:10353000F8E7FFF74BFCF5E7FFF71AFC18B3FFF7C6
:1035400011FC284B1870FFF725FE274B188001202F
:10355000FFF71CFCFFF708FDADE6DFF88C80B8F83C
:10356000000080B13368198AFFF71CFE1D4BA8F8D4
:1035700000701B7828B11846FFF708FCFFF7F4FC31
:1035800001E0012BF8D06B792BB929462046BDE824
:10359000F843FFF731BDFFF7EBFB0028F5D0FFF74D
:1035A000E1FB0128F1D13368DB6A002BEDD0FFF796
:1035B000D5FC3368DE6A3788002FE6D0BC420ED1D6
:1035C000F378B278034032B94BB9FFF70FFC736858
:1035D00098473846FBE6134201D09343F5D00836AE
:1035E000E9E700BFE5180020E618002038B51C4CBC
:1035F000FFF700FD2368002B30D01A4A1088A0B1D5
:10360000194D2A788AB9198AFFF7CCFD68B10123D0
:103610002B7023689B68F3B19847E0B12368D88882
:10362000124B1880C0B204F0A5FAFFF79BFB0428E8
:1036300014D10F4B188888B10E4D2B7873B92368BD
:10364000198AFFF7AFFD48B10123D1202B70BDE8E7
:10365000384004F08FBA23689888E1E738BD00BF8E
:10366000FC180020F8180020F6180020F41800209C
:10367000F2180020F01800209BB9A8B1012906D04B
:103680000239012913D880221846134602E08AB96C
:103690001046FF2300990A70019A1070029A137065
:1036A00070470022FF20F4E7FF220346F2E71A46A4
:1036B000FF20EAE7FF221046ECE70000032806D8C7
:1036C000B422504300F12401014805F083BF704744
:1036D00000190020032838B50FD80A4C2378012B95
:1036E0004FF0000309D16578A84208D1237009B9C9
:1036F000012038BDFFF7E2FFFAE70020F9E718469E
:10370000F7E700BF5C0C0020F7B504460D4608F053
:10371000E5FC2B4E2B4F7080E0B285424ED9002144
:10372000294A0FE01CF801EBBEF1FF0F01D08645DE
:1037300018D00133DBB20F2BF4D10131062902F18D
:103740000F0239D094460023ECE7012906D1012B62
:1037500004D100227388ADF8002015E07388ADF81D
:10376000000011E03A683AB31E2000FB012232F853
:10377000131032F81300090A12F8133040BAE4D1DA
:10378000002BEBD1ADF800308DF80230009806F038
:10379000A1FAC0F307238DF80400C0F307408DF8A9
:1037A00005308DF806009DF8063020469DF804206F
:1037B0009DF8051006F096FF0134ADE703B0F0BDAB
:1037C0005C0C0020B4190020EE0D00202DE9F04122
:1037D00005460E461746002400F12408B44201D1E4
:1037E000BDE8F0812B19B3F5347F06D208EB040055
:1037F00005F0A2FE38550134F0E70020FAE72DE984
:10380000F04105460E461746002400F12408B44254
:1038100001D1BDE8F0812B19B3F5347F04D2395DB5
:1038200008EB040005F0F0FE0134F0E741EA020382
:1038300070B40D4650EA030104D170BCB4220A48AA
:10384000FCF7C6BF00241E260F2306FB04F1064822
:10385000013B13F0FF03057042700844F8D10134B6
:10386000062CF1D170BC704700190020032806D83F
:10387000B422504300F12401014805F0F3BE704723
:1038800000190020074B084A10B51A600023074CA6
:103890002370607008F022FC60806078BDE8104002
:1038A000FFF7E4BFB4190020001900205C0C0020D1
:1038B000032808B50CD8074A5070FFF7D7FF08F067
:1038C000A3FB2D2802D02D2008F09BFB012008BD72
:1038D0000020FCE75C0C0020032808B511D80A4A38
:1038E000117871B9012150701170FFF7BFFF08F016
:1038F0008BFB2D2801D1012008BD2D2008F081FB74
:10390000F9E70020F8E700BF5C0C0020024B1878B4
:10391000431E5842584170475C0C002070B5114B53
:103920001B78012B1CD1104A126892B11E244878D2
:10393000097804FB00220D4832F81140054630F8A2
:10394000026BA64207D103F0070335F8133022F8C3
:103950001130012070BD0133092BF0D10023F6E7AF
:103960000020F7E75C0C0020B4190020B417010810
:103970004FF434722421014805F02CBE4C19010883
:1039800038B50024064D08F03FFB15F8013B98427E
:1039900004D00134192CF6D1002038BDE0B2FCE788
:1039A0009B17010808B5FFF7EBFF00F53E7005F027
:1039B000C3FD082828BF002008BD000038B5044614
:1039C000FFF7DEFF104B1B78012B07D01922431C99
:1039D000DBB2B3FBF2F102FB1133D8B20B4B185C34
:1039E000207008F00EFBFFF7DDFF094B13F81040C5
:1039F00003EB40035D7808F071FB29460246204640
:103A0000BDE8384008F043BB5C0C00209B17010860
:103A100086170108032810B504460AD8FFF726FFC9
:103A200020460121FFF756FE2046BDE81040FFF773
:103A30003FBF10BDB4235843C1EB011111442430E2
:103A400000EB41007047032838B510D805290ED87F
:103A50000E2A0CD8FFF7EEFF054605F06DFD044673
:103A6000681C05F069FD44EA002080B238BD0020E2
:103A7000FCE7032870B51C460FD805290DD80E2A7F
:103A80000BD8FFF7D7FF0546E1B205F0BDFD210ACF
:103A9000681CBDE8704005F0B7BD70BD08B54FF4B7
:103AA0003E7005F049FD082828BF002008BD000031
:103AB00070B508F0A9FA0723144A12F8011B8142D5
:103AC00021D0013B13F0FF03F7D10724FFF7E6FFF6
:103AD0000130C0B2B0FBF4F304FB13000C4BC4B2D2
:103AE00013F8105003EB40035E7808F0F7FA314604
:103AF0000246284608F0CBFA21464FF43E7005F006
:103B000046FD204670BD0624E0E700BF941701087B
:103B10008617010870B5FFF745FF044607281CBF4C
:103B20000B4B1C5C0B4B13F8145003EB44035E78F7
:103B300008F0D4FA31460246284608F0A8FAFFF702
:103B40001FFF2146BDE8704000F53E7005F01FBD27
:103B50007F1701088617010870B5FFF723FF044699
:103B600007281CBF0B4B1C5C0B4B13F8145003EBCA
:103B700044035E7808F0B2FA31460246284608F05F
:103B800086FAFFF7FDFE2146BDE8704000F53E7065
:103B900005F0FDBC78170108861701087FB51E4B9C
:103BA0001B78002B33D000221146104606F006FE8B
:103BB00000250A2601AC0A22184901A8FCF78EFE4E
:103BC00001F09AF90378EAB2B3FBF6F3934200D816
:103BD000FDB901F091F90378312B04D90023962225
:103BE000194620780CE001F087F903461B7820780D
:103BF0001D2B4FF0000387BF962219461A469621C7
:103C0000013506F06FFD0A2D04F10104D3D104B093
:103C100070BD00231A46E3E7144400202017010872
:103C20002DE9F0430D46144689B00C2848D8DFE84A
:103C300010F00D004A008100C100460151015F01F2
:103C40006D0178018301A501B301BF01C04FC14ED1
:103C500038680AF05DF90E2805D90AF015F933889D
:103C600038600333338004EB84042C446FF007087E
:103C70004725FF27E4B208FB05F3328803F5966376
:103C80001344B3FBF7F213448DF804308DF805703C
:103C90008DF80640019806F01DF8C0F30721C0F327
:103CA00007438DF808008DF809108DF80A30C2B26C
:103CB000DBB22846C9B2013506F014FD972DDAD1E2
:103CC00009B0BDE8F083A44FA44E38680AF020F98B
:103CD0000E2805D90AF0D8F83388386003333380CA
:103CE00004EB84042C44FF270025E4B233888DF8CC
:103CF000057003EBC503B3FBF7F213448DF80430F2
:103D00008DF80640019805F0E5FFC0F30721C0F3E8
:103D100007438DF808008DF809108DF80A30C2B2FB
:103D2000DBB205F14700C9B2013506F0DBFC502DCE
:103D3000DCD1C5E78A4F8B4E38680AF0E9F80E28C7
:103D400005D90AF0A1F8338838600333338004EBD7
:103D500084042C444FF00C080025FF27E4B2282DE2
:103D6000EBB28CBF283BC3F128033288DBB208FBDF
:103D70000323B3FBF7F213448DF804308DF805707C
:103D80008DF80640019805F0A5FFC0F30721C0F3A8
:103D900007438DF808008DF809108DF80A30C2B27B
:103DA000DBB205F14700C9B2013506F09BFC502D8E
:103DB000D5D185E705220023B1FBF2F2032C8DF863
:103DC00009308DF80A308DF80D30ADF810308DF8CF
:103DD00013308DF814308DF817308DF818308DF8B9
:103DE0001B30614F4FEA51038DF80C208DF81D30C8
:103DF000A1EB44028DF81E308DF81F3098BF5B4B4D
:103E0000D2B238688CBF0F241C5D8DF808108DF875
:103E10000B108DF80E208DF80F208DF812108DF8F4
:103E200015208DF816208DF819108DF81A208DF8B0
:103E30001C200AF06DF8A0424D4E4E4C0FD30AF0F4
:103E400023F84D4A23781178386069B30133DBB227
:103E5000AB4201D2237002E00023257013704FF0B3
:103E60004709337803EB430320336B4413F8186C92
:103E700013F8177C13F8168C2178484601FB08F3D9
:103E800001FB07F27143B3FBF5F3B2FBF5F2B1FBB3
:103E9000F5F1DBB2D2B2C9B209F1010906F022FC98
:103EA000B9F1970FE8D10BE70BB1013BD2E7012144
:103EB000337811700B4403F007033370CFE74724C6
:103EC000002320461A462946013406F00BFC972CA5
:103ED000F6D1F5E605264724B1FBF6F62046002389
:103EE00032462946013406F0FDFB972CF6D1E7E671
:103EF0004725A1EB8204E4B228460023224621464E
:103F0000013506F0EFFB972DF6D1D9E647240023C3
:103F100020462A461946013406F0E4FB972CF6D1D8
:103F2000CEE6472420462B462A460021013406F0DF
:103F3000D9FB972CF6D1C3E64724002220462B4616
:103F40001146013406F0CEFB972CF6D1B8E600BF3F
:103F5000D4190020D0190020CC190020C819002045
:103F6000C4190020C0190020BC190020C417010882
:103F7000B8190020B9190020600C00204725A1EBDA
:103F80008204E4B22846234600222146013506F089
:103F9000A9FB972DF6D193E647254C0828462346E2
:103FA00022462146013506F09DFB972DF6D187E686
:103FB0004724002320461A461946013406F092FB96
:103FC000972CF6D17CE600BF38B50C460D4D78B184
:103FD00009F05AFF0C4B28601B7883B100F0C2FA3D
:103FE00058B100F0BFFA0022114600F001FA04E0D7
:103FF000286809F08DFF3228EAD8002038BD2370E8
:10400000FBE700BFDC19002044240020014B1860AE
:10401000704700BFE019002070B500F069FF454C03
:10402000027823789A4206D000F062FF00220378DB
:104030002370414B1A6001F04FFD0138C0B20628D1
:1040400096BF3E4B002653F8206000F051FF0378E6
:10405000032B06D8DFE803F0024C33070022364B6F
:104060001A60012070BD344D2C6894B909F00CFF22
:10407000334B28601A78002AF3D01C7000F072FAD3
:10408000054600F06FFA22460146284602F058F82D
:10409000E7E7204647F22F5609F03AFFB042E0D951
:1040A000FFF734FC0028DCD109F0EEFE2860112077
:1040B00001F0D4F844F620600BF0F7F814E0012585
:1040C0001D4C1F4B20681D7018B909F0DDFE2060E3
:1040D000C7E709F01DFFB042C3D3FFF717FC002864
:1040E000BFD109F0D1FE2060012000F073FCB8E7D9
:1040F000114C2368002BE8D000F034FA062809D0D0
:1041000000F030FA012805D000F02CFA022801D086
:1041100000F028FA206809F0FBFE47F22F5398427E
:104120009FD9FFF7F3FB00289BD109F0ADFE20607B
:10413000BDE700BFD9190020E0190020C817010809
:10414000D819002007B58DF807100DF10701FFF70A
:104150003BFFFFF761FF002003B05DF804FB0000A8
:104160002B4B2DE9F0411B78BBB10F254FF0010817
:10417000284E56F8041B4B1C0BD021F00F0701F002
:104180000F0108FA01F40122214638460CF03EFBEB
:10419000BC61013D15F0FF05EBD1002280214FF0FD
:1041A00080400CF033FB00BF00BF00BF00BF00BF6A
:1041B00000BF00BF00BF00BF00BF00BF00BF00BF07
:1041C00000BF00BF00BF00BF00BF00BF00BF00BFF7
:1041D00000BF00BF00BF302585F3118801220721F1
:1041E0004FF080400CF032FB002484F3118885F3FB
:1041F000118801220C214FF080400CF027FB84F342
:104200001188BDE8F041062123200CF07EB800BFE4
:1042100043240020E4170108072804D0122804D101
:10422000042000F0B7BB0320FBE7704708B54FF050
:1042300080724FF080439A614FF0007240219A6182
:104240000F4800220CF0E2FA002280210C480CF00A
:10425000DDFA4FF480030A4A93610022094B1A7079
:10426000094B1B785BB1112000F0F8FF44F6206089
:104270000BF01BF8BDE80840022000F08BBB08BD26
:10428000000400402D2400204324002010B5084CD9
:10429000237863B100F084FB033801289DBF00231D
:1042A000032023700220BDE8104000F065BB10BD64
:1042B0004324002010B5044609F0E6FD3B4B18608E
:1042C00023780A2B66D006D8072B36D0082B10D0BF
:1042D000FF23237018E0212BFAD16278344B002A97
:1042E0005FD0A1781A78002958D042F080021A7065
:1042F0000AE0A378013B032BEAD8DFE803F00206CB
:10430000091201F0E9FBE07010BD0423E370FBE744
:1043100062792179E078FFF796FBA071000AE071DD
:10432000F2E7E0782379617940EA032040BAA21DE0
:1043300080B2BDE81040FFF749BAA378013B032BD8
:10434000C6D8DFE803F0020B101BE0780728DBD8A3
:1043500001F0CAFBBDE8104001F0CEBAE078BDE83C
:104360001040FFF757BBE279A3792179E07843EA5F
:1043700002236279BDE81040FFF77BBBE078237928
:10438000617940EA032040BAA21D80B2BDE8104026
:10439000FFF735BABDE8104002F062BA61F3C71208
:1043A000A5E71B78C3F3C013A370ADE7E0190020A5
:1043B0003644002010B5044609F066FD044B186031
:1043C00023780A2B01D102F04BFA002010BD00BF68
:1043D000E019002008B500F08BFD0378022B03D113
:1043E00000F08EFD007808BD0020FCE700F070BDF5
:1043F000F8B51546B0FA80F3B1FA81F25B095209BB
:104400009A4206460C4605D000290CBF0120022026
:1044100000F03EFA0F4F3B78A34200D13DB100F0CF
:1044200067FD0323037000F06BFD002303703C70F5
:1044300004F042FC2946204600F0D6FF2A462146D9
:10444000304601F07DFE2A462146304603F05AF8F8
:10445000F8BD00BFF719002037B5044600F048FD4D
:104460000378012B0DD00025CDE9005500F040FD6B
:104470000378022B07D0094B2A4619780846FFF724
:10448000B7FF03B030BD24B1082221466846FCF7CF
:1044900025FA684600F04AFEF3E700BFF71900204E
:1044A00037B5044600F024FD0378012B0ED000251B
:1044B00000958DF8045000F01BFD0378022B07D007
:1044C0000D4B2A4619780846FFF792FF03B030BD1E
:1044D00074B163788DF80030A3788DF80130E378FB
:1044E0008DF8023063798DF8033023798DF804302C
:1044F000684600F077FEE9E7F719002037B5044673
:1045000000F0F6FC0378012B0DD00025ADF8065025
:1045100000F0EEFC0378022B07D0114B2A461978E5
:104520000846FFF765FF03B030BD002CFBD0A27832
:10453000637843EA0223ADF80630813B022B09D8A9
:1045400001220DF1060002FA03F3ADF8063000F087
:1045500035FEE8E70DF1060000F01AFEE3E700BFC4
:10456000F7190020014B1878704700BFF719002099
:1045700010B5174C00232278032A26D8DFE802F072
:10458000020C151E0A2213490846CB708A7009F0E6
:10459000B3FA0123237010BD0E4A9370F623104620
:1045A000D37009F0A9FA0223F4E7F6220949084674
:1045B000CB708A7009F0A0FA0323EBE7054A9370E9
:1045C0000A231046D37009F097FA0023E2E700BFF0
:1045D000EE190020E81900207047000010B5FFF721
:1045E000FBFF00F0BBFA00F095FC01F057FB00F078
:1045F0006BF9012803D1BDE8104000F06BB900F061
:10460000B5F968B9074C206809F082FC40F6B73369
:10461000984205D900F04EFF10B109F035FC20603A
:1046200010BD00BFE41900202DE9F04F8FB00E221D
:104630000021814602A8FCF7CBF800F059FC037872
:10464000012B0AD000F054FC0378022B08D05C4BFD
:10465000002219780846FFF7CBFE0FB0BDE8F08FB7
:10466000B9F1000F00F0A3804FF01E0800262022B1
:10467000494606A8FCF732F9524F9DF819300DF162
:1046800019043B7014F8010FFBF7C8FD08F1FF385F
:10469000304418F0FF08C6B2F4D14B4D4FF0060B72
:1046A000AA461AF8013F93B300242246D3B29E4291
:1046B0000BD89AF80030A34218BF8AF8008021E096
:1046C00001331E2B04D11C4607E000230DF1190114
:1046D00011F8010F0028F3D0DCB238336B4413F823
:1046E0001E0C019203F0D1F940EAC404E4B2214661
:1046F00006A809F0CAFA9AF80030019AA34202F11A
:104700000102D3D10BF1FF3B1BF0FF0BC9D149468E
:10471000202206A8FCF7E2F84FF000084FF001094C
:104720005FFA88F39E420FD800F0D8FA002844D1EF
:10473000244809F0CFF902A800F011FD8DE70133FC
:104740001E2B04D11C4607E000230DF1190212F8BC
:10475000011F0029F3D0DCB238336B4413F81E0C70
:1047600003F093F940EAC404E4B2214606A809F034
:104770008CFA2A46002312F8011FA14202D021B967
:104780003B449C7008F10108CAE70133062BF2D1C3
:104790006F2CF7D80EAB03EBD40313F8302C04F0D6
:1047A000070409FA04F4144303F8304CEAE708223A
:1047B00049460448FCF70CF8B6E7FFF70FFFB3E7EC
:1047C000F7190020EF190020F019002008B5064B5A
:1047D0001B7823B9054B1B780BB1FFF7C9FEBDE869
:1047E0000840FFF7FBBE00BFF7190020154400206A
:1047F00070B5044658B109F05BF90C4B834205D003
:10480000184609F04FF90122094B1A7070BD00F0EB
:104810006FFB0378022BF9D1044D20466B68984753
:104820002046AB68BDE87040184700BF640C00200C
:104830003810002038B5044688B109F039F9114C18
:1048400084421ED00122104B1A7001F0A1F90F48CA
:1048500009F08AFE2046BDE8384009F023B90B4B29
:104860001B78042B05D1074D6B6898472046AB6831
:10487000984706480BF085FA04480BF091FE01F0CA
:104880008FF938BD3C1000205A4000201449002008
:1048900010B50C4B04461A78824204D001281870D7
:1048A00002D0022807D010BD0020FFF7A1FF20464C
:1048B000FFF7C0FFF7E70020FFF7BCFF0120FFF77D
:1048C00097FFF0E7780C0020014B1878704700BF85
:1048D000780C002010B50E4B0E4C1B78052B13D115
:1048E000206810B909F0D0FA206009F011FB41F6F8
:1048F000573398420AD9002301202360064BBDE8B4
:104900001040187000F066B80023236010BD00BF8F
:1049100014490020F81900201644002010B50B4C53
:104920002378052B10D1B4F84C309B0708D509F03B
:104930005BFA28B120460BF0AFFA05480AF0B5FC47
:10494000BDE8104009F072BA10BD00BF1449002044
:10495000A086010008B5044B1B78012B01D1FFF79D
:10496000DDFF012008BD00BF780C0020014B187846
:10497000704700BF041A0020014B1870704700BF39
:10498000041A002008B509F07FFA014B186008BD31
:10499000001A0020014B1870704700BFFE1900205C
:1049A000014B1878704700BFFE190020302310B566
:1049B00083F3118800F0AEFD002484F3118872B6F1
:1049C00000F0DEFE00F034FE04F0AEFC84F311884B
:1049D00062B610BD014B1870704700BFFD19002072
:1049E00010B5074C237828B11BB1FFF7CBFF032389
:1049F000237010BD002BFCD10122024B1A70F8E786
:104A0000041A0020FD1900200F4B70B51E6801F03C
:104A10001FF90E4D044618B900232B7000240AE03C
:104A2000FFF7A0FD18B90A4B1B78042BF4D02B78A4
:104A30001BB100232B70204670BD002EEED004F079
:104A400035F9B042EAD3F4E77C0C0020FD190020D0
:104A50001449002008B501F00DF938B1044B18686D
:104A600009F056FAC72894BF0020012008BD00BFF6
:104A7000001A00200120704708B5FFF7FBFF38B18E
:104A8000044B186809F044FAC72894BF002001209D
:104A900008BD00BF001A002070B5FFF763FD044693
:104AA00068B9084E3578012D09D101F071F830460A
:104AB00009F05AFD224621462846FFF799FC0120BD
:104AC00070BD00BF1449002008B5FFF7E5FF38B1FD
:104AD000044B186809F01CFAC72894BF0020012075
:104AE00008BD00BF001A00207047000008B507F09D
:104AF0005FFA003818BF0120044B187007F048FA1D
:104B000009F08BF9FFF7F0FF08BD00BFFC1900208A
:104B1000002310B5074C2370FFF788FBFFF746FF13
:104B20002378054A022B18BF03231370FFF7AEFB4F
:104B300010BD00BFFE190020041A002008B5064B66
:104B40001B780BB107F012FA09F070F901F02EFD95
:104B5000BDE8084004F0B0B8FC19002010B5154CB1
:104B60002378032B1BD8DFE803F0020A131BFFF79F
:104B70004BFFA0B1FFF706FF012323700FE0FFF703
:104B800069FF60B1FFF7B2FFFFF7FCFE0223F4E715
:104B9000FFF772FF18B1FFF7F5FEFFF7B9FF10BD81
:104BA000FFF792FF0028FAD0FFF7C8FFFFF7EAFEF1
:104BB0000023E2E7041A0020202938B505460C46F8
:104BC00010D1FFF781FE012806D122462946BDE813
:104BD0003840022009F010BD21462846BDE8384083
:104BE00000F0E2BB38BD08F07CBE0000054A064B71
:104BF00006495A60116051609A60DA6000221961BA
:104C00001A707047EC210020081A00201C1A00209E
:104C10002DE9F041174C0E466768A56807F59C78AA
:104C20004545E36804D19F4206D10020BDE8F081EC
:104C300005F108029342F7E70F4B22699A1A312ACD
:104C40009CBFA3F2CF732361322EEED823690146B5
:104C500032461846FBF742FE03464545334428607A
:104C600023616B6002D1A7600120DFE70835A560F2
:104C7000FAE700BF081A0020EB210020074A10B510
:104C8000D3689268934207D0D3E90014641A22468D
:104C9000FBF724FE204610BD0024FBE7081A002085
:104CA000074BDA6899688A4208D0596801F59C7008
:104CB000824201D1D96070470832DA60704700BF84
:104CC000081A0020014B1878704700BF081A00200E
:104CD000014B1870704700BF081A0020034BD868BA
:104CE0009B68C01A18BF0120704700BF081A002037
:104CF000104900230A4610B50C7C844212D11C21B5
:104D000059435018806850B1FF28515808D0484383
:104D10004000411C1C2000FB03220120516010BDFB
:104D20000131F7E701330A2B01F11C01E4D1002026
:104D3000F5E700BFD00C0020F0B50A4E0025344640
:104D4000377C874207D11C2000FB05404176027664
:104D500083760120F0BD01350A2D06F11C06EFD146
:104D60000020F7E7D00C0020094A30B50023144694
:104D7000157C854205D11C22012002FB0344A16061
:104D800030BD01330A2B02F11C02F1D10020F7E7FC
:104D9000D00C0020094A30B500231446157C85420A
:104DA00005D11C22012002FB0344616030BD0133A8
:104DB0000A2B02F11C02F1D10020F7E7D00C0020F1
:104DC00070B50B4C00232546267C864209D11C2059
:104DD0004343E818E95000238260C3604374012014
:104DE00070BD01330A2B04F11C04EDD10020F7E75C
:104DF000D00C002070B500252E462B4C6368002B8C
:104E00004FD0E06808BB637CB3FA83F35B0963743B
:104E100009F03AF8D4E900239342E0602BD26660AF
:104E20006674E66063690BB1207C9847207CFF289C
:104E300024D100221146104605F0C0FC0735462D4E
:104E400004F11C04DAD1012070BD09F061F8236877
:104E50009842D8D26368002BE4D0204600F01EFDB3
:104E60000028EBD0637C207CB3B1FF280CD1A27E5C
:104E7000217E607EE0E79B1A6360EBE79628DDD831
:104E800000231A46194604E09628D7D8A37E227E2E
:104E9000617E05F027FCD1E7FF28CAD09628CDD83F
:104EA000EFE76374E360C9E7D00C002002460023FB
:104EB00030B50C1812F8015B2B44A242DBB2F9D1D9
:104EC000435430BD0120704708B5FFF7FBFF08BD14
:104ED00008B54FF4E13009F025F9FFF787FEBDE88A
:104EE0000840242200210148FBF772BC80230020E7
:104EF00000487047800C002000487047830C002059
:104F000000487047810C002018B111B189B209F036
:104F100039B9704773B5FFF7D5FE03280FD8DFE81E
:104F200000F040022D3B774B186808F0F1FF0A288B
:104F300005D900220220744B1A70FFF7C9FE734D89
:104F4000734C09F029F9002856D009F011F92A68A4
:104F5000012A38D0022A3ED0002A5BD161282FD8FE
:104F60005F2804D8A0F15A03DBB2032BE9D8012350
:104F700002222B60674B20701A70E2E7624A1378B6
:104F80000133DBB2282B02D813700020D5E70023B1
:104F90001370FFF785FEF8E7FFF782FE0020FFF7AA
:104FA00097FE5D48FFF76AFE01460028C7D05A48C1
:104FB000FFF7AAFF08F068FF524B18600120BCE71A
:104FC000AF28BED1D3E70223524A2B60137860701A
:104FD000013B1370B5E72378612B0FD163780D2B5C
:104FE00018D10A2816D1FFF76DFE012802D103203F
:104FF000FFF76EFE00232B6002B070BDAF2B09D10E
:105000006378602B06D103232B60424BA0700130E4
:10501000187096E73F49531C2B600B78A054013B56
:10502000DBB20B70002B8CD11946394810F8016B9C
:10503000013133448A42DBB2F8D8A25C9A422AD1C9
:105040000322364901A8FBF749FC032101A809F016
:1050500099F820462978FFF737FF0028CCD023782D
:10506000602B0AD8592B16D95A3B062B13D8DFE8E8
:1050700003F015193A3E12124200AF2B0BD1A6785D
:10508000202E08D1264932462648FBF727FC314618
:105090002448FFF7A8FD00232B6052E76278224BDB
:1050A0005A70F8E76378313B052BF4D801A252F827
:1050B00023F000BFCD500008D5500008DB50000899
:1050C0009750000897500008E15000080122164B45
:1050D0001A70E0E70222144BFAE70322124BF7E7BB
:1050E0000422114BF4E762780F4BDA70D3E7627851
:1050F0000D4B9A70CFE76078431E58425841FFF736
:105100006FFCC8E738230020342300203023002020
:105110005C2300202C230020802300202B17010873
:105120005F2300203C230020800C00201FB50023BB
:1051300001930293ADF80C30A123082201460DF132
:1051400005008DF80430FBF7C9FB01A80921FFF722
:10515000ADFE0A21FFF75CFD05B05DF804FB1FB54D
:105160000446102200216846FBF732FBA2230E22E0
:1051700021460DF101008DF80030FBF7AFFB6846CA
:105180000F21FFF793FE1021FFF742FD04B010BD81
:10519000002307B50193A323022201460DF1050068
:1051A0008DF80430FBF79AFB01A80321FFF77EFE80
:1051B0000421FFF72DFD03B05DF804FB002307B5C4
:1051C0008DF80630A4238DF804300378022101A85D
:1051D0008DF80530FFF76AFE0321FFF719FD03B0D4
:1051E0005DF804FB002307B50093ADF804308DF89B
:1051F0000630A823052201460DF101008DF800308C
:10520000FBF76CFB68460621FFF750FE0721FFF70E
:10521000FFFC03B05DF804FB30B5054687B01522EE
:1052200000216846FBF7D4FA2846FBF7FFF9C4B221
:10523000122C11D8A923224629460DF102008DF81F
:1052400000308DF80140FBF749FBA11C6846FFF7D1
:105250002DFE1521FFF7DCFC07B030BD002307B59C
:105260008DF80630A6238DF80500022101A88DF8DF
:105270000430FFF71BFE0321FFF7CAFC03B05DF803
:1052800004FB002307B58DF80630A7238DF8050031
:10529000022101A88DF80430FFF708FE0321FFF773
:1052A000B7FC03B05DF804FBB32307B58DF803200A
:1052B0009A1A8DF8010010448DF802108DF8040040
:1052C000052168468DF80030FFF7A2FC03B05DF8B9
:1052D00004FB000007B50322054901A8FBF7FEFA0D
:1052E000032101A8FFF794FC03B05DF804FB00BFA5
:1052F0001815010830B50C468FB005463122002143
:1053000001A8FBF765FA2E2C11D8AB2322462946BB
:105310000DF106008DF804308DF80540FBF7DEFA3C
:10532000A11C01A8FFF7C2FDE11CFFF771FC0FB043
:1053300030BD30B50C468FB005463122002101A8A2
:10534000FBF746FA2E2C11D8AC23224629460DF144
:1053500006008DF804308DF80540FBF7BFFAA11C5C
:1053600001A8FFF7A3FDE11CFFF752FC0FB030BD11
:105370001FB5002304220293ADF80C30AD2340EAA0
:10538000014001900DEB02010DF109008DF808308C
:10539000FBF7A4FA02A80521FFF788FD0621FFF715
:1053A00037FC05B05DF804FB30B50C468BB0054604
:1053B0002422002101A8FBF70BFA202C12D146F27F
:1053C000AF13224629460DF10700ADF804308DF8E1
:1053D0000640FBF783FA232101A8FFF767FD24218C
:1053E000FFF716FC0BB030BD10B50C46062851D89F
:1053F000DFE800F004212C353E4709001120BDE80C
:105400001040FFF72BBF3020FFF728FF002C41D0C2
:105410000A212148FFF76EFF28212048FFF789FF66
:1054200043F22D404EF21A51FFF7A2FF5220FFF730
:1054300015FF5120E3E73120FFF710FF54B352204E
:10544000FFF70CFF1648FFF7E7FEF2E73220FFF701
:1054500005FFFCB15220FFF701FF1248F3E73320AC
:10546000FFF7FCFEB4B15220FFF7F8FE0E48EAE762
:105470003420FFF7F3FE6CB15220FFF7EFFE0B482C
:10548000E1E73520FFF7EAFE24B15220FFF7E6FE00
:105490000748D8E710BD00BF201801082A180108E6
:1054A0002F17010839170108431701084D17010884
:1054B0005717010808B5FFF711FC20B95320FFF773
:1054C000CDFE012008BD0020FCE7000010B5C4B2ED
:1054D0000B2C0CBF02200120FFF75CFA2046FEF7E0
:1054E0009BFE0BF06CF94FF0FF32014B5A6110BD7F
:1054F000001800400023054A0549C2E900130133A2
:10550000102B02F10802F8D1704700BFD0460020EE
:10551000CD5400082DE9F041FFF7ECFF00254FF0D6
:1055200001083F4E56F8041B4A1C0CD021F00F070F
:1055300001F00F0108FA01F421460522384624043F
:105540000BF064F9BC610135EDB20F2DEAD10624F0
:1055500001263027334D55F8040B431C2ED000F0A4
:105560000F01202206FA01F120F00F000BF04EF996
:1055700000BF00BF00BF00BF00BF00BF00BF00BF33
:1055800000BF00BF00BF00BF00BF00BF00BF00BF23
:1055900000BF00BF00BF00BF00BF00BF00BF00BF13
:1055A00087F3118855F8040C022200F00F0120F057
:1055B0000F000BF04BF9002383F31188013C14F02A
:1055C000FF04C8D122464FF4006117480BF01EF9C2
:1055D00000BF00BF00BF00BF00BF00BF00BF00BFD3
:1055E00000BF00BF00BF00BF00BF00BF00BF00BFC3
:1055F00000BF00BF00BF00BF00BF00BF00BF00BFB3
:10560000302383F3118803220B2107480BF01EF986
:1056100084F31188FEF7A4FDBDE8F0410BF0B0B8AB
:10562000B0180108EC18010800080040704700009D
:1056300008B509F01DF80322214B22499A620C2279
:10564000DA62D1F89020204822F01802C1F89020A8
:1056500000229A62DA62D3F8402C03F5406342F4E8
:1056600080721A641A6C4FF4006142F002021A64EC
:1056700001225A63DA67DA6608225A615A695A6166
:105680005A6942F001025A619A6C42F4C0629A640B
:105690009A6CDA6C42F00802DA64DA6C9A6C42F4C2
:1056A00080529A649A6CDA6C42F01002DA6440F22A
:1056B0008232DB6C0BF0AAF8FFF7B8FF08BD00BF21
:1056C0000000014000040140000800404FF0E022CB
:1056D000136910B523F001031361234A234B0124FE
:1056E0005A6100220021930003F1604303F56143F6
:1056F000D3F80001012994BF002000F0010008B197
:10570000C3F8804101312029F2D10132082AE9D1C0
:10571000174C636843F000736360164B1A6802F01D
:1057200009021A601A6842F46C3242F004021A60EC
:1057300040F2B3321A62104B43F0010398472369D9
:1057400043F00403236130BF0C4B43F0010398473F
:105750004FF0E022236923F004032361136943F02F
:105760000103136110BD00BFFFFF070000180040D8
:1057700000ED00E0000001408818010854180108FD
:10578000FFF7A4BF7047000038B51A4D04462B78C8
:10579000042B1BD8DFE803F003280E1F280000238A
:1057A0001A461946FFF7C8FAFF2232212046FFF7B2
:1057B00007FB0BE0FF231A461946FFF7BDFA032249
:1057C000FA212046FFF7FCFA01232B702046BDE8A2
:1057D0003840FFF78DBAFF231A461946FFF7ACFA97
:1057E00001224FF4FA71E1E700232B70FFF7CCFFA1
:1057F000ECE700BF2E240020FF2810B504461CD182
:105800000E4BD3F8143123F07F43B3F5405F0DD135
:10581000002230231146FFF78FFA20460121FFF7BF
:10582000A3FA2046BDE81040FFF762BAB3F5401F67
:1058300003D1002330221946EDE710BDD00C002023
:1058400070B51D460C4B0E465B781446DB060DD535
:105850000A4B187802F019F9022808BF3446E0B262
:105860006B792BB1BDE8704002F084B9C0B2F7E7A4
:10587000BDE8704002F0C6B91C4400209924002005
:1058800008B5054B00211870FB20FFF783FABDE82F
:105890000840FB20FFF778BF2E24002008B5037CCA
:1058A000FA2B13D0FB2B16D1104B1B78012B0FD0EA
:1058B000033B012B0AD80E4B1B783BB1437C2BB129
:1058C000837E027E417E502004F00CFF002008BD44
:1058D000FEF71CF8FAE7074B1B78002BF6D1FEF712
:1058E00015F880F00100C0B2F1E700BF2E240020BF
:1058F0001844002048240020014B186803F05CB9CC
:105900001C4400200B8813B5A3F5FC430A2B28D8B0
:10591000DFE803F0062A435C27272727A92774001E
:10592000684B01201A780DF10701C2F342035209B6
:105930008DF80730FEF748FB9DF80720042A10D8A1
:105940001523D340D9070CD5FEF70CFE01221146D2
:10595000FEF74EFD01225C4B1A7008F095FAFEF737
:1059600055FB002002B010BD564B01201A780DF1F6
:105970000701C2F3420352098DF80730FEF724FBFA
:105980009DF80720042AECD81523D340DA07E8D580
:10599000FEF7E8FD01220221DAE74A4B01201A78DE
:1059A0000DF10701C2F3420352098DF80730FEF7EB
:1059B0000BFB9DF80720042AD3D81523D340DB071F
:1059C000CFD5FEF7CFFD01220321C1E73D4B0120DA
:1059D0001A780DF10701C2F3420352098DF807301E
:1059E000FEF7F2FA9DF80730DA1E012A01D9002BE2
:1059F000B7D1FEF7B7FD01220621A9E7334B18788E
:105A000002F043F802280CBF01220022304B1A702A
:105A10001BD1002001F09BFF002002F022FC00229D
:105A2000FF2311461A20FFF787F98120FFF729FC91
:105A300000211A20FFF7AEF90322FA211A20FFF7FE
:105A4000BFF91A20FFF754F98BE7022001F07FFF1E
:105A5000002002F006FCFF231A201A461946FFF721
:105A60006BF98020E2E7174A5178C1F3C00383F055
:105A7000010363F3C30111F00804164B517016D0F3
:105A800001221A800023FF211A462420FFF754F92F
:105A900000212420FFF77EF90322FA212420FFF7BA
:105AA0008FF92420FFF724F9FFF726FF59E7082292
:105AB0001A80FF23242019461A46FFF73DF9214694
:105AC000E7E700BF1C4400202D240020992400207B
:105AD00046240020EC0D0020024B587800F007000F
