:020000040800F2
:1000000000040020B9010008BB010008BB01000882
:10001000BB010008BB010008BB010008BB010008D0
:10002000BB010008BB010008BB010008650801080E
:10003000BB010008BB010008BB010008BF1C010890
:10004000BB010008BB010008BB010008BB010008A0
:10005000BB010008BB010008B1190108D91901084A
:10006000011A0108291A0108511A0108BB010008E8
:10007000BB010008BB01000851230108BB010008B7
:10008000791A0108BB010008BB010008BB01000888
:10009000BB010008BB010008BB010008BB01000850
:1000A000BB010008BB010008651F0108791F01089A
:1000B000BB010008BB010008BB010008BB01000830
:1000C000DD1C0108DD1A0108BB010008BB010008A6
:1000D000BB010008BB010008BB010008BB01000810
:1000E00072B6264880F30888254880F30988254899
:1000F00025490860022080F31488BFF36F8F10F049
:10010000E5F80FF09DFC4FF0553020491B4A914215
:100110003CBF41F8040BFAE71D49194A91423CBF24
:1001200041F8040BFAE71B491B4A1C4B9A423EBF9D
:1001300051F8040B42F8040BF8E700201849194A5B
:1001400091423CBF41F8040BFAE710F0C3F810F0FD
:10015000BEF8154C154DAC4203DA54F8041B884721
:10016000F9E70AF0B9FB124C124DAC4203DA54F82D
:10017000041B8847F9E710F0ABB80000000400202A
:10018000000C00200000000808ED00E00000002046
:10019000000400205C3A0108000C0020201500201B
:1001A00020150020A8490020E0000008E000000819
:1001B000E0000008E000000892E700F000F8FEE729
:1001C0002DE9F04FC1F80CD0C3689D46BDE8F08F13
:1001D000002383F311882846A047002010F048FA36
:1001E000FEE710F09FF900DFFEE7000053B94AB9BF
:1001F000002908BF00281CBF4FF0FF314FF0FF302F
:1002000000F09AB9ADF1080C6DE904CE00F01AF8CF
:10021000DDF804E0DDE9022304B07047430803F091
:100220005533C01A830803F0333300F033301844D9
:1002300000EB101000F00F3000EB002000EB00404E
:10024000000E70472DE9F047089D0F4604468E4684
:10025000002B48D18A42164661D9B2FA82F24AB1DD
:10026000C2F1200301FA02FE20FA03F3964043EAAA
:100270000E0E94404FEA164CBEFBFCF1B7B20CFBDD
:1002800011EE01FB07F0230C43EA0E43984209D913
:10029000F31801F1FF3E80F0ED80984240F2EA80D1
:1002A000023933441B1AB3FBFCF00CFB103300FB88
:1002B00007F7A4B244EA0344A74209D9341900F16C
:1002C000FF3380F0D980A74240F2D6803444023810
:1002D00040EA01400021E41B1DB10023D440C5E9E0
:1002E0000043BDE8F0878B4206D90DB1C5E9000196
:1002F00000210846BDE8F087B3FA83F1002947D111
:10030000BB4202D3824200F20481841A67EB0302EB
:1003100001209646002DE4D0C5E9004EE1E7002A11
:1003200000F09080B2FA82F2002A40F0A780881B89
:100330000121370C1FFA86FEB0FBF7FC07FB1C00FF
:10034000230C43EA00430EFB0CF0984207D9F31844
:100350000CF1FF3802D2984200F2E080C4461B1A2A
:10036000B3FBF7F007FB10330EFB00FEA4B244EA28
:100370000344A64507D9341900F1FF3302D2A6453C
:1003800000F2C9801846A4EB0E0440EA0C40A3E733
:10039000C1F120068B4022FA06FC4CEA030C27FA36
:1003A00006FA4FEA1C49BAFBF9F88F4020FA06F327
:1003B00009FB18AA1FFA8CFE3B4300FA01F708FB61
:1003C0000EF01C0C44EA0A44A04202FA01F20BD9D6
:1003D0001CEB040408F1FF3A80F09980A04240F23F
:1003E0009680A8F102086444241A98B2B4FBF9F389
:1003F00009FB134403FB0EFE40EA0444A64508D95A
:100400001CEB040403F1FF307FD2A6457DD9023BEB
:10041000644443EA0840A4EB0E04A0FB028E74453A
:100420004346F14661D35ED055B1FA1A64EB090434
:1004300004FA06F622FA01F31E43CC40C5E9006433
:1004400000214EE743084FEA510C43EAC1710A0C00
:1004500042EA0C428BB2C407B2FBF6F143EA024314
:10046000BCFBF6FCB646304637461F22181A41EA56
:100470000C4161E7714615E7184629E7C2F12003F0
:1004800021FA03F0964024FA03F397403B43370CDC
:10049000B0FBF7F807FB18001FFA86FE190C41EABB
:1004A000004108FB0EF0884204FA02F43AD97118B0
:1004B00008F1FF3C01D288421ED8091AB1FBF7F8B7
:1004C00008FB0EF007FB18119BB243EA014383427D
:1004D0002FD2F31808F1FF31C8D28342C6D2A8F157
:1004E00002013344C2E747459ED2B8EB02036EEBEC
:1004F0000C0E0138F14697E7301A0144A8F1020CBE
:10050000B1FBF7F808FB0EF0DCE7034681E7D046C5
:100510006AE70846FEE63444023834E7ACF1020CE0
:1005200033441CE7091AC446B1FBF7F808FB0EF088
:10053000C8E741469AE700BF704700BF38B5124B85
:1005400004461D682A6B1AB10023C2E9044338BD72
:10055000182000F039FA0246286378B100210B23F5
:1005600001209381C2E90401084B0949094DC2E900
:10057000011300231560C2E9044338BD4621064B30
:10058000064800F0FFF800BF000C0020ECDE05007C
:1005900034126DE60E33CDAB94390108AC39010845
:1005A00038B5194B1C68226B8AB113691749546915
:1005B00003FB01F1164800FB0411A3FB00300133DB
:1005C00041EB0001C2E9043121F0004038BD1820A0
:1005D00000F0FAF90246206388B1012400250B23BC
:1005E0000A480C49C2E90445116001460A4D0B4C0A
:1005F00093810B4BC2E90154C2E9043138BD522149
:10060000084B094800F0BEF8000C00202DF45158AA
:100610002D7F954C0E33CDAB34126DE6ECDE05002C
:100620002E7F954C94390108AC39010820F0030164
:1006300010F00300C0F1000051F8043B00F1040C7D
:100640004FEACC0C6FF000021CBF22FA0CF21343ED
:100650004FF0010C4CEA0C2C4CEA0C4CA3EB0C02B6
:1006600022EA030212EACC1204BF51F8043B043020
:10067000F4D0C2F1000102EA0102B2FA82F2C2F140
:100680001F0200EBD200704788420ED98B188342BC
:100690000BD900EB020C002A6DD0624613F801CD95
:1006A000994202F801CDF9D170470F2A0FD80346BD
:1006B00002F1FF3C002A5ED00CF1010C013B8C449E
:1006C00011F8012B614503F8012FF9D1704740EA79
:1006D00001039B0750D1A2F1100370B501F1200C6A
:1006E00023F00F0501F1100E00F11004AC441B09BA
:1006F0005EF8105C0EF1100E44F8105C5EF81C5CA5
:10070000103444F81C5C5EF8185C44F8185C5EF821
:10071000145CE64544F8145CEAD1013312F00C0F86
:1007200001EB031102F00F0400EB031328D08E46F7
:10073000043C24F003064FEA940C1E441C1F5EF890
:10074000045B44F8045FB442F9D10CF1010402F0F7
:10075000030203EB840301EB840102F1FF3C4AB185
:100760000CF1010C013B8C4411F8012B614503F89D
:10077000012FF9D170BD7047034602F1FF3C9BE7A2
:100780002246EAE7144600B51A460A4B0D461B6896
:1007900085B0DE6803464CB10749019130460749F0
:1007A0000294009500F02EF900F090F804490C46F0
:1007B000F3E700BF000C0020D8390108E839010830
:1007C000E439010808B513460022FFF7DBFF00BF3C
:1007D00070B5860747D0541E002A3ED00346CAB2E1
:1007E00001E0013C39D303F8012B9D07F9D1032C1B
:1007F0002CD9CDB205EB05250F2C1A4605EB054586
:1008000034D9A4F1100C2CF00F0603F1100EB644ED
:100810004FEA1C1CC2E90055C2E90255103272456C
:10082000F8D10CF1010214F00C0F03EB021204F0EA
:100830000F0C13D0ACF1040323F00303043313446F
:1008400042F8045B9342FBD10CF003042CB1C9B213
:100850001C4403F8011BA342FBD170BD6446134640
:10086000002CF4D1F9E703461446C0E7A446E1E7BB
:10087000032A30B415D941EA0004A40784460B4684
:1008800004D0541E0FE0043A032A08D919466046E2
:1008900053F8044B5CF8045BA542F4D0F1E76046E2
:1008A0001946541E7AB1431E0139021901E09A42D9
:1008B00009D013F8010F11F801CF6045F7D0A0EB74
:1008C0000C0030BC7047002030BC7047062008B5D3
:1008D00000F042F9012010F0EDFE00BF844641EA2D
:1008E000000313F0030349D1403A23D30B6803609C
:1008F0004B6843608B688360CB68C3600B6903619E
:100900004B6943618B698361CB69C3610B6A036285
:100910004B6A43628B6A8362CB6AC3620B6B03636D
:100920004B6B43638B6B8363CB6BC3634030403152
:10093000403ADBD230320BD30B6803604B68436024
:100940008B688360CB68C36010301031103AF3D2EB
:100950000C3205D351F8043B40F8043B043AF9D279
:10096000043208D0D2071CBF11F8013B00F8013B4C
:1009700001D30B8803806046704700BF082A13D359
:100980008B07B1D010F00303AED0C3F10403D21A29
:10099000DB071CBF11F8013B00F8013BA4D331F881
:1009A000023B20F8023B9FE7043AD9D3013A11F801
:1009B000013B00F8013BF9D20B7803704B78437090
:1009C0008B78837060467047024B0146186800F0D0
:1009D000FDBE00BF000C0020024B0146186800F06D
:1009E00075BF00BF000C00200CB400B583B004AB91
:1009F00053F8042B019300F087F903B05DF804EB82
:100A000002B070470EB400B5074A82B003AB01468E
:100A1000106853F8042B019300F076F902B05DF8EA
:100A200004EB03B0704700BF000C002038B5C46B66
:100A30000CB1002038BD8021054600F0C7FE0246FB
:100A4000E86330B1031F7C3243F8044F9342FBD17B
:100A5000EFE74FF0FF3038BD30B51F29054683B0B2
:100A600008D8C36B0C4653B153F8240043F8242034
:100A700003B030BD162303604FF0FF30F8E780214C
:100A8000019200F0A3FE019A0346E8630028F3D028
:100A9000011F00F17C05002041F8040FA942FBD1A1
:100AA000E2E700BF1F2938B505461ED8C26B0C46C9
:100AB0006AB152F8213053B1012B06D0591C10D025
:100AC0000021204642F824109847002038BD2846CF
:100AD00001F070FA224601462846BDE8384001F090
:100AE00055BA162301202B6038BD16234FF0FF3076
:100AF0002B6038BD1F292BD838B5C36B0C46054673
:100B0000A3B153F8242003EB84034AB1511C0BD04A
:100B1000012A07D0002520461D609047284638BD91
:100B2000012038BD032038BD022038BD802100F0EF
:100B30004DFE0346E86340B100201A1F03F17C011B
:100B400042F8040F8A42FBD1DBE74FF0FF3038BD9B
:100B50004FF0FF30704700BF38B5134B1F281D689A
:100B60001DD8EA6B044662B152F820304BB1012B1C
:100B700005D0591C0FD0002142F8201098470020C2
:100B800038BD284601F016FA224601462846BDE83F
:100B9000384001F0FBB9162301202B6038BD162325
:100BA0004FF0FF302B6038BD000C0020114B1F2888
:100BB00070B51E6808D8F36B04460D464BB153F868
:100BC000240043F8245070BD162333604FF0FF30EB
:100BD00070BD8021304600F0F9FD0346F063002827
:100BE000F4D00021021F7C3042F8041F8242FBD166
:100BF000E5E700BF000C002038B50B4B1D68EC6B1F
:100C00000CB1002038BD8021284600F0DFFDE863EC
:100C100038B1031F00F17C0243F8044F9342FBD12B
:100C2000EFE74FF0FF3038BD000C002038B5174B10
:100C30001F281D6826D80446E86BA0B150F8242070
:100C400000EB84034AB1511C0BD0012A07D00025C8
:100C500020461D609047284638BD012038BD03203E
:100C600038BD022038BD8021284600F0AFFDE86382
:100C700040B10021031F00F17C0243F8041F93429E
:100C8000FBD1DBE74FF0FF3038BD00BF000C002088
:100C90009368013B002B936005DAD2F818C06345D6
:100CA00007DB0A2905D01368581C10600846197024
:100CB000704700F069BE00BF9BB1F8B5134406460B
:100CC0000F46541E5D1E01E0AC4208D03A46304645
:100CD00014F8011FFFF7DCFF431CF5D1F8BD00201D
:100CE000F8BD0020704700BF936810B514461BB9CB
:100CF00018460023636010BD00F08CF90023A36048
:100D00000023636010BD00BF2DE9F04FA1B08B46FA
:100D100091461C46049018B1036A002B00F0138121
:100D2000BBF80C30180740F18E80DBF81030002B38
:100D300000F08980002343F220020D9399F80030DF
:100D40000127824E0794ADF83920002B73D04D4611
:100D500003E015F8013F002B7FD0252BF9D1B5EB2F
:100D6000090A7DD12B78002B65D000234FF0FF328C
:100D70000135CDE9092308930B938DF863301E9359
:100D800006E02546089B801B07FA00F00343089302
:100D90002C46052214F8011B304600F0EFF8A1465E
:100DA0000028EED1089BD90644BF20228DF863208D
:100DB0001A0748BF2B22297848BF8DF863202A29BB
:100DC00064D1079A1168043200290792C0F2968014
:100DD0000B9169782E296FD05D4C0322204600F0DC
:100DE000CDF838B14022089B001B8240134309F123
:100DF0000109089319F8011B062256488DF838108E
:100E000000F0BCF800287FD0534B002B69D007A915
:100E100000915A460498514B08A9AFF30080039003
:100E2000039B013307D00D9B039A13440D9399F84C
:100E30000030002B8BD1BBF80C305B060AD40D9828
:100E400021B0BDE8F08F5946049800F037FC002827
:100E50003FF470AF4FF0FF30F2E7B5EB090AEAD08C
:100E600009F1FF3805954546DDF8108001E0A245FF
:100E70003ED92C465A46404615F8011FFFF708FF99
:100E800002340130A4EB0904F1D1D4E7A1F130021E
:100E9000092A88BFA9469DD80B9B00E00134217820
:100EA00003EB830302EB4303A1F13002092AF5D9D6
:100EB0002E29A1460B938FD199F801102A292DD103
:100EC000079B09F102001A680433002A0793B8BF90
:100ED0004FF0FF3399F8021009928146B8BF099389
:100EE0007AE7079B073323F00703083307939AE752
:100EF0000D99059D51442B780D9134E7494243F0FB
:100F000002030B91089364E707A900915A460498DD
:100F1000124B08A900F06CFE039081E70023A1F1B9
:100F20003002092A09F1010909933FF655AF19F872
:100F3000011F03EB830302EB4303A1F13002092AF3
:100F4000F5D9099348E700F0C5FAE9E6183A01082F
:100F5000203A0108243A010800000000B90C0008FA
:100F60008C4600B586461346034A714610685DF804
:100F700004EB6246FFF7C8BE000C00205FFA81FC5C
:100F8000810744D00346511E22B909E09A0709D0CF
:100F9000013905D31846027801336245F6D170470E
:100FA00000207047184603290CD80029F8D00346C2
:100FB000014401E08B42F3D0184613F8012B62453F
:100FC000F8D1704710B50CEB0C24024604EB044436
:100FD00002E00439032915D9104652F8043B634056
:100FE000A3F1013E2EEA030313F0803FF1D0034644
:100FF000014401E08B4208D0184613F8012B6245EA
:10100000F8D110BD10460029F1D1002010BD1146C5
:10101000C9E700BF9368002B00F0F0802DE9F04F86
:10102000B1F90CC090461CF0080F81460C4683B005
:101030002BD00B694BB31CF00207D8F8006032D0FC
:101040004FF0000A5546D4F828B0216AAB4FC5B11D
:10105000BD422B46524628BF3B464846D84700284B
:1010600040F3C280D8F8083082441B1A2D1AC8F801
:101070000830002B00F0AE80D4F828B0216A002D93
:10108000E6D1D6E900A50836E1E72146484600F05A
:1010900015FB002840F0AD80B4F90CC0D8F8006012
:1010A0001CF00207CCD11CF0010A63D1574623681B
:1010B000A16818468B46002F58D01CF4007F00F022
:1010C000B180B9420A4600F2DD801CF4906F2FD047
:1010D000216962695D1A02EB420202EBD2726B1C5B
:1010E00052103B44934292BF93469B461A461CF4CF
:1010F000806F00F0E6801146484600F067FB00284C
:1011000000F0F5802A4621690190FFF7E7FBA289EC
:10111000019B22F4906242F08002A2815819C4F827
:1011200014B0ABEB05053A46BB462361A5602060D1
:101130003D46002751460192FFF7A6FAA1682368B1
:10114000019AA1EB0B011A44A1602260D8F8083083
:10115000AA445B1BC8F80830002B3BD02368A16869
:1011600018468B46B4F90CC0002FA6D1D6E900A7CB
:1011700008369EE73846BB463D46002D40D0002845
:1011800045D03A46D4E904C32068AA4228BF2A467B
:101190006045A16804D901EB030A524500F382803F
:1011A000934272DC5A464846216AD4F828C0E04788
:1011B000B0F1000A18DDB7EB0A070FD00120D8F80C
:1011C0000830D344A3EB0A03A5EB0A05C8F808309E
:1011D000002BD2D1002003B0BDE8F08F2146484655
:1011E00000F02AFA0028EAD0B4F90C3043F04003AA
:1011F000A3814FF0FF3003B0BDE8F08F00207047AF
:10120000756833460836002DFAD0D3F800B02A4668
:101210000A215846FFF7B2FE002865D00130A0EB46
:101220000B07AEE722699A4214D36569BD4211D813
:101230006FF00043BB4228BF3B4693FBF5F3524699
:1012400005FB03F34846A56A216AA847051ECBDDC6
:101250007F1B7BE7B94228BF39460D4618465146E9
:101260002A46FFF711FAA1682368491B2B44A160A5
:1012700023600029ECD12146484600F0DDF9002822
:10128000E6D0B1E7BB463A4652E759460192FFF72E
:10129000FBF9019AA36892469B1AA3602368134442
:1012A000236088E759465246FFF7EEF92368214646
:1012B00053444846236000F0BFF900283FF47BAF59
:1012C00092E7484600F0D0FB034600287FF426AFA3
:1012D0004846216900F0FAFA0C22B4F90C30C9F83A
:1012E000002023F0800381E76A1C17464AE70C229E
:1012F000B4F90C30C9F8002078E700BF00FCFF7F8C
:1013000000207047024A0349034800F08BBB00BF2E
:10131000500C002039160008040C00200C4B4168CA
:1013200010B59942044601D000F086F9A168094B36
:10133000994202D0204600F07FF9E168064B9942BD
:1013400004D02046BDE8104000F076B910BD00BFC3
:101350002015002088150020F0150020002070477F
:101360002DE9F84300250423294C2A490822C4F812
:10137000381104F15C002946DFF89C90DFF89C806E
:10138000274F284EC4E90335C4E90055C4E9055583
:10139000A5606566FFF71CFA234B0822294604F175
:1013A000C4006367C4E90849C4E90A87C4E91A5557
:1013B000C4E91E5526632567C4F8CC50C4F8805094
:1013C000FFF706FA194B2946C4F8DC30082204F16D
:1013D000680304F59670C4F88830C4E92398C4E91A
:1013E0002576C4E93455C4E93855C4F8D850C4F852
:1013F0003451C4F8E850FFF7EBF904F1D003C4E925
:101400003D98C4E93F76C4F8F030BDE8F88300BFEA
:101410002015002005130008B91F0008E11F00086F
:1014200021200008452000080900010012000200E8
:10143000F8B5254B0646D3F83831002B3CD0234F66
:10144000D7E90134013B04D51DE05A1C04F16804BE
:1014500019D0B4F90C50013B002DF6D11C4B0822D9
:101460002946C4E90155C4E90455E3606566256071
:10147000A56104F15C00FFF7ABF9C4E90D55C4E9BF
:1014800012552046F8BD3D680DB12F46D8E74FF400
:10149000D671304600F09AF9044680B10423056005
:1014A000294625460C304FF4D072A0606360FFF7E8
:1014B0008FF93C602F46C3E7FFF752FFBFE70C23CD
:1014C00038603360DDE700BF20150020500C00209D
:1014D0000100FFFF036A03B17047044B044AD3F8CD
:1014E00038310262002BF7D13AE700BF2015002007
:1014F0001D130008704700BF704700BF0020024A5C
:10150000024900F08FBA00BF500C00200113000800
:101510000020024A024900F085BA00BF500C0020AA
:101520005D130008F8B5B1F90C300C461E070746EC
:1015300039D44A68002A53DDE56A002D31D00022F3
:101540003E683A6013F48052216A55D1012338462F
:10155000A847451C024663D0B4F90C30E56A216AFD
:10156000580705D56368D21A636B0BB1236CD21A86
:1015700000233846A847421C40D0002223696260FD
:101580002360A389DB0400D56065616B3E6041B1D7
:1015900004F14403994202D0384600F097F9002341
:1015A00063630020F8BD0E69002EFAD09B0718BFB8
:1015B00000230D6808BF4B690E60AD1B8B600CE00B
:1015C0002B463246D4F828C03846216AE047B0F1AD
:1015D000000CA5EB0C05664406DD002DF0DCE0E711
:1015E0000A6C002AA8DCDCE7B4F90C3043F04003B5
:1015F0004FF0FF30A381F8BD626DB1E73968B4F9EF
:101600000C301D29F2D80B4ACA40D507EED500226E
:10161000626022692260DA04B7D50029B4D0B4E749
:101620003B68002B98D01D2B01D0162BDCD13E60DF
:10163000B7E700BF010040200B69B3B110B5044605
:1016400082B008B1036A5BB1B1F90C3013B9002064
:1016500002B010BD204602B0BDE81040FFF762BFE7
:101660000191FFF737FF0199EEE70020704700BFB7
:10167000B8B138B50D4A0369044615682BB10DB1F0
:101680002B6A53B1B4F90C300BB9002038BD214698
:101690002846BDE83840FFF745BF2846FFF71AFF48
:1016A000F0E7034A0349044800F0BCB9000C0020ED
:1016B000500C002039160008040C002038B52F4BC0
:1016C00005461B680C4613B11A6A002A4BD0B4F9C0
:1016D0000C3018071CD5226922B313F0010107D082
:1016E00000206169A0604942A1613AB1002038BD83
:1016F000980758BF6169A160002AF7D1190658BF41
:101700001046F4D543F04003A3814FF0FF3038BDBD
:10171000D9062CD55A0712D4226943F00803A381B5
:10172000002ADAD103F42071B1F5007FD5D021462B
:10173000284600F0A3FBB4F90C302269CDE7616BB9
:1017400051B104F14402914204D0284600F0BEF8A1
:10175000B4F90C30002262630021226923F02403D3
:10176000C4E90021D9E71846FFF7B4FEAFE7092224
:1017700043F040032A60A381C7E700BF000C0020AC
:1017800070B5114E054633680C46BBB1214628465C
:101790000FF074FF431C01460CD0C41C24F003045A
:1017A000A04205D02846611A0FF068FF013001D031
:1017B000204670BD4FF0FF34204670BD19460FF033
:1017C0005DFF3060E2E700BF5C1600202DE9F843C2
:1017D000CD1C25F0030508350C2D38BF0C25002D38
:1017E000064618DBA94216D8DFF8DC8000F042FB81
:1017F000D8F80420A2B1144603E0636822467BB106
:101800001C4623685B1BF8D40B2B1FD894426368DB
:1018100054D053600CE00C2333600020BDE8F88303
:1018200029463046FFF7ACFF431C044619D005603B
:10183000304600F021FB04F10B00231D20F00700CF
:10184000C21A1CBF1B1AA350BDE8F8836119944249
:10185000256014BF5160C8F80410635163684B6081
:10186000E6E7D8F804701FB33C467F68002FFBD131
:1018700023683946304604EB03090FF0FFFE81452B
:1018800016D123683046ED1A2946FFF779FF01305B
:101890000ED02368D8F804202B442360536883B10A
:1018A000A34203D01A465B689C42FBD10023B0E7F9
:1018B0000C233046336000F0DFFAAEE7C8F804309E
:1018C000B6E7C8F80470B3E75C160020002950D0D2
:1018D00038B551F8043C0C1F002BB8BFE41805467E
:1018E00000F0C8FA274A13682BB1A3420CD921682B
:1018F000601883422CD0284663601460BDE83840ED
:1019000000F0BABAA3420FD81A465B68002BF9D18F
:1019100011685018844217D02CD363605460284655
:10192000BDE8384000F0A8BA11685018A04214D0A1
:1019300020D8216860188342EFD118685B6808449A
:10194000C4E900035460EAE723680B441360E6E748
:1019500018685B6808442060CDE72068014450188F
:1019600083421160DBD1D3E900040144C2E90014D1
:10197000D5E770470C2328462B60BDE8384000F0BF
:101980007BBA00BF60160020F8B506460D46144627
:1019900010B1036A002B37D0A269A389A2601A078D
:1019A00019D52369BBB122686169D31AEDB2994296
:1019B0002F4620DD0133A1680139A160511C21604F
:1019C000157062699A420DD0A389DB0701D50A2DF3
:1019D00008D03846F8BD21463046FFF76FFE38B9CB
:1019E0002369E0E721463046FFF726FE0028F0D0C5
:1019F0004FF0FF37EDE721463046FFF71DFE002888
:101A0000F6D101232268D6E7FFF764FDC4E700BFE3
:101A100003460A46024908681946FFF7B5BF00BFEA
:101A2000000C00202DE9F8434FF0000980460F46D6
:101A30001646D6E90154013D10D4A389012B08D9DB
:101A4000B4F90E30013304D021464046B84749EA84
:101A50000009013D6B1C04F16804EED13668002ECC
:101A6000E7D14846BDE8F8832DE9F041144641B37B
:101A70000AB306460D4600F0E9FA8442074602D84A
:101A8000B4EB500F13D821463046FFF79FFE804637
:101A900050B1BC422246294628BF3A46FEF71EFFF7
:101AA00029463046FFF712FF4046BDE8F081A846C0
:101AB0004046BDE8F081A046FFF708FF4046BDE87C
:101AC000F0811146BDE8F041FFF780BE2DE9F84FE7
:101AD00092461F460A698B680C469A42B8BF1A465E
:101AE000CAF8002091F843300646DDF8289013B17B
:101AF0000132CAF80020226891065FD5DAF800307A
:101B00000233CAF80030226812F0060F11461DD1C8
:101B1000E1689942D8BF114618DD4FF0000804F182
:101B2000190B05E0E568DAF80030ED1A45450CDDE3
:101B300001235A4639463046C847013008F10108AA
:101B4000F0D14FF0FF30BDE8F88F216894F84330B2
:101B5000003B18BF01238A060AD53021E21882F81B
:101B6000431094F845105A1C2244023382F8431063
:101B70003946304604F14302C8470130E1D0D4E988
:101B800002202368DAF8005003F00603042B2169D1
:101B90001BD08A4220DD4FF00008521A90440025E5
:101BA0001A3401E0454517DA01232246394630460A
:101BB000C847013005F10105F4D1C2E712F0060F64
:101BC0000DD0003B18BF0123D2E7401B8A4220EA18
:101BD000E078E2DC0028E2DC0020BDE8F88FE16874
:101BE000DAF800309942D8BF114696DCAEE700BF64
:101BF0002DE9F04717460A7E84B00C460646984603
:101C00000C9D01F1430C002A35D0A2F15803D9B242
:101C1000202969D8202B67D8DFE813F0E60066009A
:101C20006600660066006600660066006600660084
:101C30006600AC007000660066006600660070001A
:101C4000660066006600660021008300C60066002C
:101C50006600B6006600830066006600EC002B6834
:101C60002268181D6169286010061B6802D452069C
:101C700000F1E08019600023E14623613B462146E4
:101C80003046CDF8008003AAFFF720FF013020D0B6
:101C90004A46394630462369C047013019D0236887
:101CA000E0689B07DDF80C9018D5484516DD002547
:101CB00004F1190A04E0E068A0EB0903AB420DDD72
:101CC0000123524639463046C047013005F101052F
:101CD000F1D14FF0FF3004B0BDE8F0874845B8BF00
:101CE000484604B0BDE8F087012084F8422004F1A2
:101CF00042090023206184F84330BFE72A68236843
:101D0000111D1806296002D4590600F1958010684B
:101D1000014600286268C0F293804FF00A0E5348D3
:101D200015E020682B6810F0800F53F8041B02D1D7
:101D3000400648BF89B26F2A14BF4FF00A0E4FF019
:101D4000080E4A482B600023626884F84330002A5A
:101D5000A26051DB236823F00403236000294BD1E8
:101D6000002A7BD1E146BEF1080F56D0ACEB090347
:101D7000236183E72A680120116804322A6004F194
:101D8000420984F84210B4E72B6800211A1D2A602A
:101D9000D3F8009062684846FFF7F0F8002863D057
:101DA000A0EB09006060A4E7236843F020032360F0
:101DB00078222F4884F845202A6813F0800F52F8C3
:101DC000041B03D113F0400F18BF89B22A60DA0751
:101DD00044BF43F02003236019B9236823F0200394
:101DE00023604FF0100EAEE75823204884F84530AA
:101DF0002368E1E72368DBE77546E146B1FBF5F3CD
:101E00000A4605FB131A194610F80A30AA4209F8C7
:101E1000013DF3D2BEF1080FA8D12368DD07A5D597
:101E2000626823699A42A1DC302309F1FF3989F8FD
:101E300000309BE719801EE7B2F90010084668E7FA
:101E40002D20002AA26084F8430002DB23F0040363
:101E500023600A250548AE464942CEE7037804F1DF
:101E6000420984F842307EE7606842E72C3A010874
:101E7000403A0108704700BF704700BF70B5B1F924
:101E80000C300C46990796B007D5012204F14703A0
:101E9000C4E90432236016B070BDB4F90E100546D3
:101EA000002929DB6A460FF0F6FB002822DB4FF4FD
:101EB00080612846019EFFF789FC88B3A38906F458
:101EC000704643F08003A3814FF48063B6F5005F52
:101ED000C4E904032060DED12846B4F90E100FF0E7
:101EE000E6FB0028D7D0A38923F0030343F00103C6
:101EF000A381D0E7B4F90C3013F0800F14BF402653
:101F00004FF4806628463146FFF760FC40B1A38954
:101F1000C4E9040643F080032060A38116B070BDBD
:101F2000B4F90C309A05B6D4012123F0030304F16F
:101F3000470243F00203C4E90421A3812260AAE717
:101F400070B50C46B1F90E10154600291E4696B024
:101F50000FDB6A460FF09FFB00280ADB019B4FF462
:101F6000806203F47043A3F50053B3FA83F35B0973
:101F700007E0A289002312F0800F14BF40224FF423
:101F80008062002033602A6016B070BD70B50026F4
:101F9000074D0446084611462E600FF093FB431C84
:101FA00000D070BD2B68002BFBD0236070BD00BF3C
:101FB000641600200FF08EBB10B50C46B1F90E1060
:101FC0000FF051FB002803DB636D0344636510BD14
:101FD000A38923F48053A38110BD00BF0020704764
:101FE0002DE9F0410C46B1F90C101F46CB05054612
:101FF00016460BD421F48051A1813B463246284637
:10200000B4F90E10BDE8F0410FF034BBB4F90E1076
:10201000022300220FF02CFBB4F90C10EAE700BFFA
:1020200010B50C46B1F90E100FF022FBB4F90C30CC
:10203000421C0EBF23F4805343F480536065A38198
:1020400010BD00BFB1F90E100FF016BB51F8043CE3
:10205000181F002BBCBF0B58C0187047372875D805
:10206000032803D800207047042070470438332821
:10207000F8D801A353F820F04D22000831220008BF
:102080003D2200083D22000831220008652000089A
:1020900049210008312200084D22000831220008A1
:1020A0003122000831220008652000086520000860
:1020B0004D220008752200086520000865200008F0
:1020C0007D220008652000085922000851220008DE
:1020D00031220008612200083D2200086520000826
:1020E0004522000845220008452200084522000834
:1020F0004522000845220008452200084522000824
:102100004522000885220008652000086520000897
:10211000652000086520000865200008652000088B
:10212000652000086520000865200008652000087B
:10213000652000086520000865200008652000086B
:10214000652000085522000806207047A0F50170A0
:1021500083B2332B86D8332884D801A353F820F0D8
:102160004D22000831220008692200086D22000873
:10217000312200086520000835220008652000088B
:102180004D2200085D220008652000086520000837
:1021900065200008652000084D220008792200080B
:1021A0006520000865200008492200086520000815
:1021B000652000085122000831220008652200082D
:1021C00071220008392200086520000865200008F7
:1021D00065200008692000086520000881220008A9
:1021E00065200008652000086520000865200008BB
:1021F00065200008652000086520000865200008AB
:10220000652000086520000865200008652000089A
:10221000652000086520000865200008652000088A
:1022200065200008652000084122000841220008BE
:10223000012070470520704707207047082070472D
:10224000092070470A2070470C2070470D20704706
:102250000E2070470F2070471020704711207047E4
:1022600012207047132070471420704715207047C4
:1022700016207047172070471820704719207047A4
:102280000320704702207047A0F11E03092B01D9DB
:10229000FFF7E4BE0B20704708B5FFF7DFFE0038FC
:1022A00018BF012008BD0023036043608360838161
:1022B000704700680128B8BF0120704710B5094C6D
:1022C0002268FF2A0CDC084B1B6813445942C9B230
:1022D000DBB258BF4B420549013221F8130022609E
:1022E00010BD00BF74160020781600207C16002058
:1022F00030B40C4C226892B10B4D0C492B68013A5A
:1023000031F8130001335942C9B2DBB258BF4B4216
:102310002B60074B22601B680BB130BC184730BCE8
:10232000704700BF74160020781600207C1600202D
:1023300068160020014B1860704700BF6816002027
:102340000023034A1360034A1360034A1370704763
:1023500074160020781600206C160020FFF7AEBF20
:1023600038B50C460025A54200DB38BDFFF7A6FFB7
:102370000135F8E7074B1B685BB1074B074A197833
:1023800011B11168814204D0106001221A70FFF768
:10239000AFBF7047741600206C1600207016002026
:1023A000014B1868704700BF74160020013810B543
:1023B0000C460E2845D8DFE800F03B0C163E080816
:1023C0004141080823232629320040F24F3021469C
:1023D00005E04A20FFF7C2FF40F25120611CBDE832
:1023E0001040FFF7BDBF4A20FFF7B8FF4D20FFF7B1
:1023F000B5FF4F20FFF7B2FF40F25220611CEEE71D
:1024000040F24A20E3E740F24D20E0E74A20FFF7A0
:10241000A5FF40F24D30BDE81040FFF79FBF4D20B3
:10242000FFF79CFF4F20FFF799FF40F24A30F2E799
:102430004FF41470CBE740F24F20C8E74FF45470CC
:10244000C5E710BD10B5044640F24D20FFF786FFEA
:10245000012C0ADD40F25120611EFFF781FFBDE82B
:10246000104040F24D20FFF779BF10BD0022014B14
:102470001A7070477C1800200129B8BF012170B57F
:102480000E460025441E0E2C0CD8DFE804F0080F81
:1024900011131515181815151B1B1D1F2200502090
:1024A000FFF75CFF0135AE42EDD170BD5120F7E77B
:1024B0005220F5E74F20F3E740F24F10F0E74FF4DA
:1024C000A870EDE74A20EBE74D20E9E740F24D1018
:1024D000E6E74FF4A570E3E7012AB8BF01222DE932
:1024E000F0418F1E5FFA87F8B8F1010F06460C46DF
:1024F000154620D9A1F10E03012B8CBF0023012327
:10250000214A294620461370FFF750FF062E14D1AA
:1025100040F21B10FFF722FFB8F1010F02D90E3C69
:10252000012C2ED84FF40A70FFF718FF5020BDE899
:10253000F041FFF713BF0123E2E71C2E1ED14FF439
:102540008370FFF70BFF2920FFF708FF0B2F18D828
:10255000DFE807F01111060C0C17170C0C17170FFA
:1025600029465020BDE8F041FFF7FABE4FF4A870AD
:10257000DDE74A20DBE75220691CF3E740F21B103D
:10258000D5E7BDE8F08100BF7C18002070B5044697
:1025900001220129224B0E46B8BF01261C2C0D46F4
:1025A0004FF04A001A7016D1FFF7D8FE4A20FFF705
:1025B000D5FE314640F25120FFF7D2FE4FF4837032
:1025C000FFF7CCFE2920FFF7C9FE3146BDE8704079
:1025D0005220FFF7C5BEFFF7C1FE4A20FFF7BEFE3F
:1025E00040F24D20FFF7BAFE40F24F20FFF7B6FE53
:1025F000012D04DD40F25120711EFFF7B1FE40F2C3
:102600001B10FFF7ABFE062C08D14FF40A70FFF742
:10261000A5FEBDE870405020FFF7A0BE70BD00BF12
:102620007C180020F8B540F2372640F22B2501290E
:102630000F46B8BF0127B04208BF2B250129044629
:102640004FF04A0006DCFFF789FE2846BDE8F84057
:10265000FFF784BEFFF782FE4A20FFF77FFE394670
:1026600040F25120FFF77CFE2846FFF777FE292035
:10267000FFF774FE39465220FFF772FE4A20FFF73B
:102680006DFEB44201D14F20E0E7F8BD012AB8BF8A
:10269000012238B5154640F22B2440F237229042F1
:1026A00008BF2B244A1E0B460E2A39D8DFE802F059
:1026B000080F110838383838383808080D32270024
:1026C0000121BDE83840FFF7ADBF2946F9E7691C95
:1026D000F7E74A20FFF742FE4D20FFF73FFE4F206D
:1026E000FFF73CFE40F25220691CFFF739FE2046FE
:1026F000FFF734FEBDE838402920FFF72FBE4D20FC
:10270000FFF72CFE4F20FFF729FE40F24A30FFF77B
:1027100025FEECE74A20FFF721FE40F24D30F6E7B8
:1027200029461846FFF742FEE1E708B54A20FFF7C1
:1027300015FEBDE8084040F24D20FFF70FBE01290D
:10274000B8BF012100F25120FFF70ABE40F24D2030
:10275000FFF704BE40F24A20FFF700BE10B5144652
:10276000A8B101290EDD52200139FFF7F9FD4A20F9
:10277000FFF7F4FDC4F1010140F25220BDE8104022
:10278000FFF7EEBDF3D05120C1F10101EDE70029C3
:1027900003DA51204942FFF7E3FD4A20FFF7DEFD4F
:1027A000002C04DD214640F25120FFF7D9FDBDE8A1
:1027B000104040F24D20FFF7D1BD08B540B90129C6
:1027C0000CDD52200139FFF7CBFD4A20FFF7C6FD93
:1027D000BDE8084040F24A30FFF7C0BDF5D05120B7
:1027E000C1F10101EFE710B50C4658B14D20FFF7DC
:1027F000B5FD002C03DA51206142FFF7B1FD4A20FC
:10280000FFF7ACFDBDE8104040F24D30FFF7A6BD2C
:102810001C2810B5044602D0831F012B08D80122C2
:10282000154B1A7041B940F24F20FFF797FD01E0B8
:102830000029F8D0132C1BD0132C04D8062C10D050
:10284000072C08D010BD1C2CFCD14FF48370FFF76F
:1028500085FD292001E040F21B10BDE81040FFF784
:102860007DBD40F21B10FFF779FD4FF40A70F4E7CD
:1028700040F21910EBE700BF7C1800201A2808B5B9
:1028800029D00DD8053883B20A2B17D80A2815D8B5
:10289000DFE800F030141421141424142A2D3A0017
:1028A00040F20A23984232D009D840F205239842D8
:1028B00020D0B0F5027F0ED027281ED008BD40F2F0
:1028C000212398421CD040F22323984215D040F295
:1028D0001A239842F2D140F24F3001E04FF41470C5
:1028E000BDE80840FFF73ABD40F25120F8E740F25A
:1028F0005220F5E74FF45470F2E740F24A20EFE738
:1029000040F24D20FFF72AFD40F24F20E8E740F269
:102910004D30E5E738B505460C462920FFF71EFD8A
:10292000691E5020FFF71CFD611B4FF41470BDE8B9
:1029300038400231FFF714BD38B505460C46292052
:10294000FFF70CFD691E4F20FFF70AFD611B40F2E7
:102950004F20BDE838400231FFF702BD10B50446F4
:102960002920FFF7FBFC5020611EFFF7F9FCBDE8B2
:10297000104040F24A20FFF7F1BC10B50446292070
:10298000FFF7ECFC611E4F20BDE81040FFF7E8BCEC
:1029900008B54FF41470FFF7E1FC40F24F30FFF739
:1029A000DDFCBDE8084040F24F20FFF7D7BC10B572
:1029B00004462920FFF7D2FC4FF41470FFF7CEFC39
:1029C000012C2146BDE81040B8BF01214FF45470DE
:1029D000FFF7C6BC002208B50128074B014640F2AC
:1029E0004F20B8BF01211A70FFF7BAFCBDE80840BC
:1029F00040F21B10FFF7B2BC7C1800200120FFF74B
:102A0000E9BF0000002208B50128094B0146B8BF04
:102A100001214FF414701A70FFF7A2FC4FF4837079
:102A2000FFF79CFCBDE808402A20FFF797BC00BFD9
:102A30007C1800200120FFF7E5BFFFF7CBBFFFF7B1
:102A4000DDBF0000002208B5054B40F24D201A7092
:102A5000FFF784FCBDE8084040F21B10FFF77EBC86
:102A60007C180020FFF7EEBF002208B50128064BB6
:102A7000B8BF01201A70FFF7E5FCBDE8084040F23E
:102A80001B10FFF76BBC00BF7C180020FFF7ECBFEA
:102A900040F24F20FFF762BC0022034B40F21B10B4
:102AA0001A70FFF75BBC00BF7C180020002208B53D
:102AB000054B4FF483701A70FFF750FCBDE80840D7
:102AC0002920FFF74BBC00BF7C180020FFF7E4BFB4
:102AD00008B540F21910FFF741FCBDE80840292075
:102AE000FFF73CBC0129B8BF012110B50C4640B925
:102AF000074B1B7813B14D20FFF730FC4F20FFF739
:102B00002DFC2146BDE8104040F21910FFF728BC0B
:102B10007C1800200121FFF7E5BF08B54D20FFF725
:102B20001DFC2C20FFF71AFC4C20FFF717FCBDE81A
:102B300008405020FFF712BC0228B8BF022038B569
:102B4000441EFFF72DFCC0F1FA03032BD4BF012371
:102B50009B109C42A8BF1C4600250135FFF7DDFFF6
:102B6000AC42FAD138BD40F21D10FFF7F7BB4FF46D
:102B70008B70FFF7F3BBB0F5017F08B51CD004D80C
:102B8000042817D0122819D008BDB0F5037F0CD047
:102B900040F212239842F7D14A20FFF7DFFB4FF4AF
:102BA0000A70FFF7DBFB522000E04A20BDE8084036
:102BB000FFF7D4BB4F20F9E74D20F7E74D20FFF793
:102BC000CDFB4FF40A70F1E70022074B07491A606A
:102BD00001230B6006490B7006490A70064A137000
:102BE000064A1370704700BF881800208418002020
:102BF000801800207F1800207E1800207D180020FB
:102C000000230A4A0A4913600A4A13700A4A1370D9
:102C10000A4A13600A4A136001220A7009490A70BD
:102C2000094A1370094A1370704700BF90180020BA
:102C3000801800208D1800208C1800208818002093
:102C4000841800207F1800207E1800207D180020A6
:102C500027283CD015D80F280ED8042839D9053894
:102C60000A2836D8DFE800F02F35353135350635FE
:102C7000372B2D00012070471A2814BF0020052093
:102C8000704740F21A23984227D00DD8B0F5027F42
:102C900025D040F20A23984223D040F20523C31ADC
:102CA00058425841C000704740F2212398421AD040
:102CB00040F2232398420CBF0C20002070470320D1
:102CC00070470420704707207047092070470B2089
:102CD00070470020704702207047062070470A2086
:102CE00070470E2070470D20704700000023024AF5
:102CF0001360024A13707047B0180020AC1800200F
:102D000008B50548FFF7CFFA0023044A1370044AB8
:102D10001370044A137008BDC4180020D418002092
:102D200095180020941800206329F8B50B46A8BF19
:102D300063232549012B0978B8BF012369B11946DE
:102D4000FFF7FDFC214B1B781BB1BDE8F840FFF7F6
:102D500001BDBDE8F840FFF7F9BC00B15B426FF080
:102D600063041B4F3D682B449C42B8BF1C46642C37
:102D7000A8BF6424611B00291AD0144E307805DBEB
:102D800040B9FFF7DCFCFFF7E1FC10E0291B80B144
:102D900001200AE0002B07DD224629460020FFF72C
:102DA000DDFC0023337002E00020FFF7C8FC3C602C
:102DB000F8BD002B01DB0120E3E722462946012074
:102DC000FFF7CCFC0123EDE78C1800208D180020C4
:102DD000901800202DE9F84F00246329A8BF632133
:102DE0003C4B01291C703C4B89461A788246B8BF7F
:102DF0004FF001095AB1A04214BF0F250B252846F8
:102E00000134FFF73BFDA145F9D1BDE8F88F334E02
:102E1000DFF8CC803468D8F80050324F281B3B785C
:102E2000BAF1000F29D07BB14D44642DEDDC14467E
:102E30000F200134FFF722FDA145F9D1C8F8005059
:102E40003A78294B1A70E0E74C44AC4208DA1D4648
:102E50000F200135FFF712FDA945F9D13460EFE7E6
:102E60000134642CD1DC4946FFF766FD0123013DA6
:102E70003560C8F800403B70E2E763B9A4EB090491
:102E800014F1640FC1DB1D460B200135FFF7F6FC82
:102E9000A945F9D1E2E7A5EB090BA34509DD0B2014
:102EA0000AF1010AFFF7EAFCD145F8D1C8F800B0F1
:102EB000C6E7013DA5EB090515F1640FA5DB494601
:102EC0000134FFF727FDC8F80040356087F800A0FF
:102ED000B6E700BF7D1800207F180020881800206A
:102EE00084180020801800207E18002010B50024CF
:102EF000094B1C70094B1C70FFF782FEFFF700FFA7
:102F0000FFF7F4FE064B1C60064B1C70FFF718FA27
:102F1000BDE81040FFF7AABAD6180020D518002047
:102F20009818002096180020FFF704BAA74B2DE947
:102F3000F0471B780446002B00F06185A44EDFF8B3
:102F4000948233785A1E022A00F25985023B012BE3
:102F5000E7B200F225822046FFF780F8292F81464C
:102F600096F800809C4DB8B22AD1FFF7F7F9B8F176
:102F7000030F18D1994B1B7863B9994B1B7833B960
:102F8000984B1968002902DD5220FFF7E9F94A2021
:102F9000FFF7E4F9012333700023934A2B70137079
:102FA000FFF72EFE29E0914B1B783BB9904B1B7825
:102FB000002BEFD18F4B1B78002BEBD05020E7E795
:102FC00095F800A0BAF1000F24D00024864BB9F187
:102FD000060F1C70884B2C701C600ED1B8F1030FCB
:102FE0000ED17E4C7E4D207800B928787D4B196833
:102FF000FFF7E3FB01232B702370FFF781FE27E02F
:1030000040F24A30FFF7AAF90122794B1A707B4B44
:103010001C70F2E7B9F1020F1DD1734B1B781BB383
:1030200071490A78012A13D873480A2503680132C6
:10303000632BA8BF6323272C08BF002405FB03F3E1
:1030400018BF1D3C2344632BA8BF63230A70036091
:10305000002000F0D5BCB9F10A0FE1D0B9F1060F9C
:1030600002D101232B70F3E700235F4F62483B70CE
:10307000FFF71FF91C2C054634D8122C16D8062C45
:1030800063D0072C39D0B9F10E0F79D1B8F1030F05
:103090006BD1192C07D102233370FFF7B1FDFFF775
:1030A000F7FCFFF791FD00233B70A6E7A4F11303A3
:1030B000092BE8D801A252F823F000BFED30000838
:1030C00087300008873000084B310008873000083F
:1030D000873000088730000887300008FB30000880
:1030E0001731000840F213239C42CCD1B8F1030FF2
:1030F00038D13B4B1320197805E0B8F1030F05D107
:103100000720374B1978FFF783FB01E0FFF7C4FC7A
:103110000123337044E7B8F1030F03D1304B1C2077
:103120001978F0E7FFF7C2FC314B1B78002BEFD189
:10313000304B1B78002BEBD0314B50201968314BB2
:103140001B68C91AFFF70CF9E2E7B8F1030F06D1C3
:10315000234B06201978FFF75BFB0023D9E7FFF725
:10316000B5FCFAE7FFF7B4FCD2E740F219239C4222
:1031700099D103233370FFF743FDFFF7D6FA92E7A7
:10318000B9F1040F17D8B9F1000F8CD0B8F1030FC3
:103190004DD11A2C3AD8042C85D901231A4AA340C0
:1031A0001A40002A3ED144F2200213423FF47BAF82
:1031B0002946012038E0B9F1050F7FF474AFB8F16A
:1031C000030F00F0DD8040F20A20AFE0D6180020A7
:1031D000D5180020D4180020941800208C18002046
:1031E0008D18002090180020951800207D180020D0
:1031F0007F18002080180020C41800207E180020AE
:10320000841800208818002000210004B4F5027FF3
:1032100008D040F21A239C4204D040F205239C427D
:10322000C6D040E729460020FFF77EFD3BE70F2C84
:103230000CD8042C33D9631F0A2B30D8DFE803F0F5
:10324000562F2F412F2F392F97973E0040F21A23E8
:103250009C4236D025D840F205239C4246D01BD84C
:103260001A2C2ED0272C1AD1874B1B78002B5CD11F
:10327000864B1B78002B58D0854B1868854B1B68F4
:10328000C01AFFF76BFB01227F4B1A700023824AA2
:103290001370824A137006E7B4F5027F11D000263E
:1032A0006BE040F221239C4243D040F223239C4216
:1032B000D9E729460020FFF78DFDF4E629460120D5
:1032C000F9E7754B1E787EB9B54209DD2046FFF758
:1032D000D5FA0136F8E7FFF75BFB0134A542FADCCB
:1032E0000122694B1A70DEE60024F7E7664B93F87B
:1032F0000090B9F1000F16D1DFF8908198F80060C6
:1033000076B12846FFF753FB88F8009001225E4B08
:103310001A700022604BE5E72046FFF7AFFA01364E
:10332000B542F9DCF2E70026FAE72046FFF7A6FAF5
:10333000A9E7554C23784BB9544B1B7833B9544B00
:103340001868544B1B68C01AFFF717FB40F2212086
:10335000FFF794FA012300214F4A2370117098E778
:103360002046FFF78BFA0136B542F9DCCEE700269E
:10337000FAE72046FFF782FA0136B542F9DC82E728
:10338000474C484D23780BB995F800A0464B504662
:103390001968FFF728FA00232B700123237082E6B7
:1033A00098F800202046052A33D82A23D340DA078C
:1033B0002FD5FEF769FF292F054698F800302BD14D
:1033C000002B00F01683FFF79BFCFFF78FFC98F8AB
:1033D0000030BBB9DFF8D480D8F80050002D11DDE3
:1033E000334F3B78002B00F00183324B1C784CB9F3
:1033F000314932486A00FDF771FA314BC8F8004094
:103400001D603C703378002B7FF422AEFFF76EFC1A
:103410001EE6FEF723FECEE7072B00F2F581DFE87C
:1034200013F00800F400B901140248028102CD0231
:10343000DF02431E182B00F2DC82DFE813F08E005F
:103440008E008E008E00950088008C004500800064
:103450001900DA0298009F00A300E300B600B6004E
:10346000B600B600B600B600B600B600B600B600AC
:103470000123272C88F8003008BF0023114A18BF09
:10348000A4F11D03136026E07F180020801800209F
:1034900084180020881800207E1800207D18002045
:1034A0008C1800208D18002090180020B0180020E3
:1034B000AC18002096180020B41800209C1800209A
:1034C00098180020C41800200223012288F8003038
:1034D000BF4B1C811A732046FEF7DEFE00283FF426
:1034E00076AF2046FEF7BAFD0138C0B218283FF685
:1034F0006EAFB84BC340DB077FF569AF2046FEF7E0
:10350000ADFD19280CD80123B34A8340134204D1DE
:10351000082805D1A31F012B02D80122AF4B1A7036
:10352000AF4B1B78002B7FF452AFAE4A1368072BCA
:10353000DFBF591C1160AC4A22F8134047E704234F
:10354000012288F80030A24B5C815A73C3E706233E
:1035500088F80030BFE70723FAE72046FFF778FB3B
:103560000121FEF789FFB6E701210E20F9E70121CD
:103570000620FFF70BF800233370ACE72046FFF777
:10358000FAFAF8E740F21920844214BF022003201F
:103590003070FFF735FB032802D1FFF7C6F89AE732
:1035A000FFF776FAFFF710FB95E7A0F1110500276A
:1035B000082D24D8DFE805F02005080F12151A1E83
:1035C0000B00FFF71BFA86E7FFF734FA83E7FFF7F4
:1035D00036FA37707FE7FFF735FAFAE7FFF742FA76
:1035E00079E701211C20FEF7D1FF74E70020FFF7E7
:1035F00091FA70E70120FAE7FFF78FFA6BE7FFF720
:10360000B2FA68E700F002FA65E77148FEF751FE8A
:10361000013D0746182D00F2F78001A353F825F06D
:10362000A3360008A3360008A3360008A336000816
:10363000B13600084F35000857350008C934000876
:103640003F35000809380008853600085D37000856
:10365000673700086F370008B7360008433700089F
:103660003137000807370008113700084D370008C8
:103670004737000853370008213700082B37000868
:1036800017370008524A1368092B3FF724AF0A2165
:10369000272C01FB03F30CBF0021A4F11D010B44F7
:1036A000F0E62046FFF7D4FA3946FEF7E5FE2CE0B7
:1036B00001210E20F9E7FFF723FB4C4B1B68002B81
:1036C0007FF709AF002F7FF706AFFEF769FE0546CB
:1036D00000F09CF9FEF764FE401B00287FF7FBAE6C
:1036E000632595FBF0F5012DB8BF01254FF00109C9
:1036F0004F453FF4F0AE4D453FF4EDAE00F086F996
:1037000009F10109F4E7FFF765F9FFF7F9FAE2E6D5
:10371000FFF778F9F9E7FFF790F900233370F4E742
:1037200001460020FFF7DEF9EFE701460120F9E747
:10373000FFF702FAE9E7FFF716FA0135AF42FADCC4
:10374000E3E70025FAE7FFF78FF9DEE7FFF79EF9D9
:10375000E3E701461C20FEF719FFD6E701460620E5
:10376000FEF714FFD9E72046FFF705FAD5E740F248
:103770001920844214BF022003203070FFF740FA62
:10378000032802D1FEF7D1FFBFE7FFF781F9FFF76A
:103790001BFABAE70E48FEF78CFD013D0246092DE3
:1037A00032D801A353F825F015380008293800084D
:1037B0001538000815380008AB3800084F350008E8
:1037C00009380008F13700080938000833380008C4
:1037D000C4180020FF0BFF010012BE03AC1800202C
:1037E00096180020B0180020B41800209818002067
:1037F000844D2B899C4207D101462046FEF7C6FE28
:103800002B89062B81D188E7FFF77AFAFFF76EFA4A
:10381000FFF797BB2046FFF71BFA7A4D01462F8929
:103820003846FEF759FEEBE701220B21754D28893A
:10383000F7E70323272C88F8003008BF0023714ADC
:1038400018BFA4F11D03536045E6451E0A2DDBD8C1
:1038500001A353F825F000BF85380008A7390008F8
:103860008538000885380008AB3800084F35000857
:103870000938000809380008093800080938000824
:10388000613900082046FFF7E3F95E4D07462846F8
:10389000B5F80890FEF70DFD6B68394603FB00F2A2
:1038A000632AA8BF63224846BBE701220E21554D7B
:1038B000BDE75448FEF7FDFC013D0246092DA3D8A3
:1038C00001A353F825F000BF033900081739000899
:1038D0000339000803390008B73900084F350008DC
:1038E0000938000809380008F138000821390008B3
:1038F000444B5B899C4287D101462046FEF792FEED
:1039000003E7404B20465D89FFF7A2F901462846B0
:10391000FEF7BCFEF9E601220B213A4B5889F7E786
:10392000052387E7451E0A2D3FF66EAF01A353F826
:1039300025F000BF7F390008A73900087F3900084B
:103940007F390008B73900084F35000809380008EA
:1039500009380008093800080938000861390008EA
:10396000284A5368092B3FF7B6AD0A21272C01FBE3
:1039700003F30CBF0021A4F11D010B4463E72046B3
:10398000FFF766F9DFF87C9005464846B9F80A70FB
:10399000FEF78FFCD9F8042029464243632AA8BFCA
:1039A00063223846B4E7174A5368092B3FF793ADB3
:1039B0000A214B4347E701220E21AEE706287FF498
:1039C00023AF104D2B7B13B101220F212FE76B7B0F
:1039D0001BB101220F2168899AE701210F2064E6BB
:1039E00007287FF411AFFFF7C2F88EE6FFF77EF9E4
:1039F00008E5054B1B68002B01DDFFF777F9012077
:103A0000BDE8F087C4180020B0180020F8B50C4DB0
:103A10002C7874B90B4E33685BB101230A4F2B70BD
:103A200033689C4206DB0023084A2B701360084A67
:103A30001370F8BD37F8020BFFF778FA0134EFE79F
:103A400096180020981800209C180020B01800201C
:103A5000AC180020FEF78EBC014B1878704700BFF1
:103A6000D5180020014B1878704700BFD6180020E9
:103A7000024B1878003818BF01207047D418002076
:103A8000034B1B7813B9034B18787047012070471C
:103A9000951800209418002008B5FFF731F9BDE80B
:103AA0000840FFF723B9000008B5054B1870FFF771
:103AB000A7F8FFF725F9BDE80840FFF717B900BFE1
:103AC000D5180020012208B5054B1A70FFF798F8A9
:103AD000FFF716F9FFF70AF90022024B1A7008BD2A
:103AE000D6180020D5180020002208B5044B1A7003
:103AF000FFF706F9FFF7FAF8BDE80840FEF720BC2B
:103B0000D618002008B5FFF7FBF8BDE80840FFF71E
:103B1000EDB800000D49F0B500220D460C4C23789D
:103B2000D6B2B34201D800200CE031F8027B561C1B
:103B3000874208D10120013BDBB2237035F81330F6
:103B400025F81230F0BD3246EAE700BFD818002051
:103B5000D718002070B5C5B2C4042A464FEA102316
:103B600021D503F00F03013BDBB2072B54D82F49BB
:103B7000CC5C502A46D0512A46D0522A46D04F2AF1
:103B800021D10326FCB92A4B9C5DE4B10022294CCB
:103B90009A55A35D33B9284B13F8160005F0D4F9F4
:103BA0000123A35570BD03F00104980748BF44F0FA
:103BB0000204590748BF44F004041B07D9D5502D0F
:103BC00044F008042ED106F06FF820EA040684437E
:103BD000F6B202D0204605F05DFA16B1304605F087
:103BE00062FA284605F0B0F9284605F0F5F916B155
:103BF000304605F04FFA002CD4D02046BDE8704086
:103C000005F051BA0026BDE70126BBE70226B9E759
:103C10000026B8E70126B6E7502DF9D0512DF9D08E
:103C20000024AAE7512DA8D1CDE700BF792A0108C9
:103C3000FD180020F91800208A2A0108A0F1E002EE
:103C4000072A08B506D9292804D000F015FA00F093
:103C5000010008BD0120FAE70E4970B500220D46AB
:103C600004460D480378D6B2B34206D8102B0AD0CA
:103C70005A1C027025F8134004E031F8026B01323F
:103C8000A642F0D170BD05491E22881EFCF7FCFC3F
:103C9000EC83F7E7D8180020D7180020DA180020A6
:103CA00008B506F001F8064B1B781843830705D4C6
:103CB000022005F0EFF90122024B1A7008BD00BF87
:103CC00001190020F8180020E03880B207280BD82E
:103CD000064B1B5C43B10648027811B113430370D5
:103CE000704722EA03020270704700BF812A010870
:103CF00001190020014B1878704700BF01190020FE
:103D00002DE9F041002427460F4D104EDFF840808A
:103D100015F8013B2BB118F8140005F05DF905F812
:103D2000017C0134042C06F8017BF1D1094C237885
:103D300043B1094B1B789B0702D4022005F0B3F96D
:103D400000232370BDE8F081F9180020FD18002041
:103D50008A2A0108F818002001190020FFF77CBF0B
:103D6000FFF7D8BE08B5FFF7C1F80D48FFF7DCF83C
:103D7000FFF7A8FE0020FFF797FE0023094A0A4933
:103D800013700A4A0B701370094A4B701370094A7A
:103D90008B70137053709370CB70D37008BD00BFDD
:103DA000553B000801190020FD180020D7180020FD
:103DB000F8180020F9180020FFF74CBE0B282DE959
:103DC000F84304462FD00D282FD00E282FD00F28CF
:103DD00014BF4FF0FF3503254E7956BBE52C0BD1B0
:103DE000464E337843B1464B1B789F0702D40220DE
:103DF00005F059F900233370681C0BD00027414BA4
:103E0000414E5F55735D2BB1404B13F8150005F023
:103E1000E3F877552046FFF77DFE80F00106F6B205
:103E20003046BDE8F8830025D6E70125D4E7022512
:103E3000D2E7FFF717FE0028F2D0E52C04D1204688
:103E4000FFF70AFF0026EBE7A4F1E003072BE7D911
:103E50002B4F3B7813F0DD0F26D0691C30D0FFF7D5
:103E600007FE68BBFFF7F8FD0128804628D12046F1
:103E7000254CFFF7F1FE635D002BE3D1234B13F8D4
:103E8000150005F061F804F80580DBE7FFF7F8FDA1
:103E9000D0B93B789A06C3D52046FFF7CFFE00285D
:103EA000BED1FFF7FDFEBBE713F0220F0CBFA1460A
:103EB00044F400794846FEF7EFF940B9292C06D0C2
:103EC000FFF7D6FD0028E1D0FFF7E6FDE1E7FFF7B9
:103ED000CFFD80464846FFF729F80028D9D1204673
:103EE000FFF7BAFE6B1CADD0B8F1000FAAD1FFF7F7
:103EF000B3FD012804BF034B5855A3E7F818002071
:103F000001190020FD180020F91800208A2A010854
:103F1000044B1A68044B11781878044B1B7818432B
:103F200005F080BB3C190020DC240020DD240020AB
:103F300070B5042400260E4D35F8020B20B1C0B236
:103F400005F04AF825F8026C013CF5D1D12005F0C6
:103F500043F8D22005F040F8064B1C70064B1C803D
:103F6000064B1878FFF7A0FDBDE87040FFF7C8BE0C
:103F70002819002030190020321900203A19002099
:103F8000174B70B51A7822B30024164E164D1C70CC
:103F90003278E3B29A421DD8144D154C2B7813F0A9
:103FA000010F05D02378D90702D4E02005F014F8DA
:103FB0002B789A0705D523789B0702D4E42005F0D7
:103FC0000BF800230B4A2B7013700B4A23703370CD
:103FD000137070BD15F8130004F0FEFF0134D7E72D
:103FE00020190020061900200819002003190020BC
:103FF00002190020051900200419002038B50546D3
:104000000C4612B90024204638BD90470028F9D04C
:104010006479002CF6D0FFF72BFD28B1FFF73CFDAB
:104020002846FFF79BFEEEE7FFF72AFD0028F5D1B3
:10403000F6E708B50BF048F9012838BF012080B237
:1040400008BD10B50C4628B10BF043F9A04234BFAF
:104050000020012010BD08B50BF0FEF8012838BF84
:10406000012008BD10B50C4628B10BF039F9A0426B
:1040700034BF0020012010BDA0F58043B3F5955F4B
:1040800007D3A0F5A54040381F288CBF0020012091
:1040900070470120704738B5054605F005FE044617
:1040A00005F01EFE284604F0E5FD2046BDE8384038
:1040B00005F010BE4B20FFF7EEBF4E20FFF7EBBF21
:1040C00040F20910FFF7E7BF08B55120FFF7E3FF03
:1040D000BDE808404A20FFF7DEBF08B55220FFF7D1
:1040E000DAFFBDE808404A20FFF7D5BF4F20FFF7B1
:1040F000D2BF5020FFF7CFBF2DE9F84FA34F0446A2
:104100000D4690463A60FFF7A7FC10B10022A04B85
:104110001A6020466979FFF7D7FD392C9D4E44D1AE
:1041200095F805A09C4BDFF87492BAF1000F30D0DF
:1041300001221A70FFF7ECFE337880F0010089F855
:1041400000000BB1FFF71CFF99F80030EBB133789A
:104150000BB1FFF715FF01233370FFF7CBFD00F024
:104160001103003B18BF01238D4A13708D4B00F0E3
:104170000102C0061A7042BFD2B242F002021A70A7
:104180000023894A1370894A13703920FFF7E6FD2E
:10419000DBE099F800B01A7883F800A0BBF1000FBB
:1041A00062D0FFF7EDFE89F800A03378002B00F015
:1041B00099802046FFF760FF0646002840F0928075
:1041C000FF2C00F28F80A4F11E039BB2102B6A79A2
:1041D00062D87749CE5C002A61D1002E14BF3046E8
:1041E00020467449002289468E46DFF8C0C19CF8FB
:1041F00000305FFA82FA534574D939F802AB0132C4
:104200005045F6D100225FFA82F94B450ED931F8BC
:1042100002AB02F10109504540F0F080013BDBB2F6
:104220008CF800303EF813302EF81230C0B204F093
:10423000D3FE002E56D15C4A1378002B52D0013B9E
:10424000DBB21370002B4DD15B4E3378D90749D5C3
:10425000544B1B78DA0745D4E02004F0BDFE3378D8
:1042600023F0010333703DE0002A9ED0FFF7FAFBF4
:10427000474B80F00100C3F800B03B68C0B2DB6A76
:104280001BB19847FFF73CFD8FE710B1FFF71AFC11
:10429000F8E7FFF729FCF5E7002A00F09380DFF844
:1042A0000C9199F800300B2B01D920466EE76EB1C6
:1042B000304604F049FE99F800300B2BF5D85A1C13
:1042C00089F800203B4A22F81360EEE7E02C344BDB
:1042D0003ED0E42C3ED1022101221A70314A1378DB
:1042E0000B43137029462046D8F81C20FFF786FEA2
:1042F00058BB2046FFF7C0FE78B9FFF709FE60B152
:104300003B685B6A002B7BD020469847002877D01B
:104310003B689B6A002B40F0818029462046D8F8F4
:104320002020FFF76BFE064678B93B6895F80580BC
:104330005B88A34240F0AA80204D214CB8F1000FC9
:1043400077D0FFF776FE267028800020BDE8F88F32
:104350000121C1E71B783BB9174D2B7823B9E02029
:1043600004F0F2FD01232B700F4AE0B21378013301
:10437000137004F0E9FD99F800300B2B95D85A1C06
:1043800089F800200B4A22F813408EE73C190020E0
:1043900024190020201900202119002022190020B2
:1043A0000419002002190020051900200619002018
:1043B000922A01080819002003190020381900204A
:1043C00036190020E02C13D0E42C14D16FF0020336
:1043D0000021A64ADEB21170A54A204611780B4092
:1043E0001370FFF7BDFCA34B1A7816401E7079E7D7
:1043F0006FF00103ECE720461646F2E64A4602E774
:104400006B79002B89D0FFF733FB10B1FFF744FB2A
:104410004BE7FFF735FB0028F8D146E720466979DE
:10442000984700283FF479AF6B79002B3FF475AFC4
:104430003BE723785BB1904E308810B1C0B204F0F6
:10444000CBFD0023338000232B8023707DE72B8856
:10445000002BF8D0FFF700FB042802D1FFF768FD1E
:10446000F1E73B68DB686BB9FFF7FCFA0028EAD09C
:10447000FFF7F2FA814B1870FFF742FC0420FFF7B8
:1044800013FBE0E798470028EED1DCE7FFF7E4FAFA
:1044900004280DD1A4F1E003072B2DD8B8F1000FAB
:1044A00006D024F00403E12B3FF4FFAEFFF740FDFC
:1044B000FFF7D8FA002800F0CF803B689B7C002BE8
:1044C00000F0CA80292C40F0C9806B79002B00F0E5
:1044D000C580FFF7C1FA002840F01381FFF70AFCFE
:1044E00010F0DD0F40F00D81830740F1AE8040F207
:1044F0003520FFF7D0FDD8E6FFF7FCFBB8F1000F41
:1045000045D00F2C14D80A2CD0D9A4F10B0300F0FD
:104510002200042BCAD801A252F823F04345000818
:10452000AD4400085145000865450008794500087C
:10453000282C28D02C2CB9D1FFF77BFD504B1880AC
:10454000B3E6CF204F4B188004F0FEFC0B201DE695
:1045500000280CBFCE20DA204A4B588004F0F4FC2F
:104560000D2013E600280CBFCD20D920454B9880A4
:1045700004F0EAFC0E2009E6D020424BD88004F07B
:10458000E3FC0F2002E6D22004F0DEFC8DE60F2CC7
:1045900012D80A2C8CD9A4F10B03042B88D801A2C1
:1045A00052F823F0DD450008B1440008F345000847
:1045B000094600081F460008282C42D02C2C7FF406
:1045C00077AFDFF8C4902E4E99F80030002B31D031
:1045D000D12004F001FD89F8008007E0294E3088E1
:1045E00000283FF465AFC0B204F0F6FC002333802E
:1045F0005EE7244E708800283FF45AAFC0B204F042
:10460000EBFC0023738053E71E4EB08800283FF474
:104610004FAFC0B204F0E0FC0023B38048E7194E6E
:10462000F08800283FF444AFC0B204F0D5FC00236A
:10463000F3803DE73388002BD8D0D12004F022FD51
:10464000D4E7D22004F0C8FC32E7002859D0352046
:10465000FFF721FD292099E5292C52D06B7953BB16
:1046600029462046BDE8F84FFFF7A8BB04190020F3
:104670000219002003190020341900203A190020E3
:104680003219002028190020301900202C4E3068E3
:1046900038B900233360FFF735FA0120FFF704FA39
:1046A000D8E740F6B831FFF7DDFC0028F1D1FFF77D
:1046B000D2FC3060D2E7FFF7D5F90028D0D0FFF761
:1046C000CBF90128CCD13B681B6B002BC8D0FFF77E
:1046D00011FB3B681E6B3788002FC1D0BC420ED146
:1046E000F378B278034032B94BB9FFF70BFA73682D
:1046F000984738464AE5134201D09343F5D008362F
:10470000E9E76B79002BA9D0FFF7ACF90028A5D019
:10471000FFF7F0FA10F0DD0FA0D1FFF79DF9831E2F
:10472000DBB2012B9AD90128B0D1FFF7A1F90028FB
:1047300094D1FFF7B9F9FFF78EFC014B18608DE7B4
:10474000241900200023134A1360134A1370134ADC
:104750001380134A1370134A1380134A1380134AA9
:104760001370134A138053809380D380114A1370BF
:10477000114A1370114A1370114A1370114A1370C1
:10478000114A1370114A1370114A1370114A1360C1
:10479000FFF7E8BA3C1900203A1900203819002028
:1047A0003619002034190020321900203019002059
:1047B000281900202219002021190020201900208A
:1047C00006190020051900200419002003190020F3
:1047D000021900202419002038B51C4CFFF7ECFA10
:1047E0002368002B30D01A4A1088A0B1194D2A78BE
:1047F0008AB9198AFFF725FC68B101232B70236859
:104800009B68F3B19847E0B12368D888124B1880B1
:10481000C0B204F099FBFFF71FF9042814D10F4B25
:10482000188888B10E4D2B7873B92368198AFFF761
:1048300008FC48B10123D1202B70BDE8384004F0BA
:1048400083BB23689888E1E738BD00BF3C1900208E
:1048500038190020361900203419002032190020A0
:1048600030190020024B186800B1808A704700BFE1
:104870003C19002083B990B1022913D0032915D027
:10488000012915D1BAB91046FF2300990A70019A7F
:104890001070029A137070470022FF20F4E7FF2285
:1048A0000346F2E7802218468023EEE7FF22FAE76C
:1048B0001A46FF20E9E7FF221046E6E708B5FFF7B2
:1048C000D1F808B9002008BDFFF7C6F80028F9D1D3
:1048D000054B18680028F6D040F6B831FFF7C2FB48
:1048E00080F00100C0B2EEE724190020F8B50746B9
:1048F0000E461546FFF7E2FF70B10A4B1C6864B123
:10490000A36963B10FB11B0C3B7016B1A3691B0AFD
:1049100033700DB1A3692B70F8BD2046FCE7184633
:10492000FAE700BF3C190020032806D8B422504300
:1049300000F12401014806F037B870474019002003
:10494000032838B50FD80A4C2378012B4FF0000309
:1049500009D16578A84208D1237009B9012038BD72
:10496000FFF7E2FFFAE70020F9E71846F7E700BF94
:104970005C0C0020F7B504460D4608F097FD2B4E61
:104980002B4F7080E0B285424ED90021294A0FE0BA
:104990001CF801EBBEF1FF0F01D0864518D00133A2
:1049A000DBB20F2BF4D10131062902F10F0239D00D
:1049B00094460023ECE7012906D1012B04D1002203
:1049C0007388ADF8002015E07388ADF8000011E0A1
:1049D0003A683AB31E2000FB012232F8131032F875
:1049E0001300090A12F8133040BAE4D1002BEBD1BE
:1049F000ADF800308DF80230009806F053FBC0F39C
:104A000007238DF80400C0F307408DF805308DF8BA
:104A100006009DF8063020469DF804209DF80510FC
:104A200007F048F80134ADE703B0F0BD5C0C00209E
:104A3000F4190020EE0D00202DE9F04105460E4648
:104A40001746002400F12408B44201D1BDE8F081EA
:104A50002B19B3F5347F06D208EB040005F056FF9E
:104A600038550134F0E70020FAE72DE9F04105461A
:104A70000E461746002400F12408B44201D1BDE8D7
:104A8000F0812B19B3F5347F04D2395D08EB0400B3
:104A900005F0A4FF0134F0E741EA020370B40D46CB
:104AA00050EA030104D170BCB4220A48FBF790BE5F
:104AB00000241E260F2306FB04F10648013B13F0D9
:104AC000FF03057042700844F8D10134062CF1D17F
:104AD00070BC704740190020032806D8B422504308
:104AE00000F12401014805F0A7BF704740190020DC
:104AF000074B084A10B51A600023074C23706070FA
:104B000008F0D4FC60806078BDE81040FFF7E4BF97
:104B1000F4190020401900205C0C0020032808B57F
:104B20000CD8074A5070FFF7D7FF08F055FC2D2826
:104B300002D02D2008F04DFC012008BD0020FCE72C
:104B40005C0C0020032808B511D80A4A117871B905
:104B5000012150701170FFF7BFFF08F03DFC2D28B8
:104B600001D1012008BD2D2008F033FCF9E7002019
:104B7000F8E700BF5C0C0020024B1878431E584237
:104B8000584170475C0C002070B5114B1B78012B0D
:104B90001CD1104A126892B11E244878097804FB8F
:104BA00000220D4832F81140054630F8026BA6424B
:104BB00007D103F0070335F8133022F81130012034
:104BC00070BD0133092BF0D10023F6E70020F7E791
:104BD0005C0C0020F4190020782B01084FF434728B
:104BE0002421014805F0E0BE142D010838B5002449
:104BF000064D08F0F1FB15F8013B984204D0013452
:104C0000192CF6D1002038BDE0B2FCE75F2B01087B
:104C100008B5FFF7EBFF00F53E7005F077FE0828BA
:104C200028BF002008BD000038B50446FFF7DEFFAE
:104C3000104B1B78012B07D01922431CDBB2B3FBAE
:104C4000F2F102FB1133D8B20B4B185C207008F064
:104C5000C0FBFFF7DDFF094B13F8104003EB4003E7
:104C60005D7808F023FC294602462046BDE838401E
:104C700008F0F5BB5C0C00205F2B01084A2B0108F3
:104C8000032810B504460AD8FFF726FF2046012165
:104C9000FFF756FE2046BDE81040FFF73FBF10BDAE
:104CA000B4235843C1EB01111144243000EB4100FF
:104CB0007047032838B510D805290ED80E2A0CD80D
:104CC000FFF7EEFF054605F021FE0446681C05F0DF
:104CD0001DFE44EA002080B238BD0020FCE7032816
:104CE00070B51C460FD805290DD80E2A0BD8FFF732
:104CF000D7FF0546E1B205F071FE210A681CBDE848
:104D0000704005F06BBE70BD08B54FF43E7005F005
:104D1000FDFD082828BF002008BD000070B508F080
:104D20005BFB0723144A12F8011B814221D0013B8F
:104D300013F0FF03F7D10724FFF7E6FF0130C0B2FD
:104D4000B0FBF4F304FB13000C4BC4B213F8105087
:104D500003EB40035E7808F0A9FB31460246284683
:104D600008F07DFB21464FF43E7005F0FAFD204629
:104D700070BD0624E0E700BF582B01084A2B01084C
:104D800070B5FFF745FF044607281CBF0B4B1C5CA2
:104D90000B4B13F8145003EB44035E7808F086FBCA
:104DA00031460246284608F05AFBFFF71FFF21460E
:104DB000BDE8704000F53E7005F0D3BD432B0108FF
:104DC0004A2B010870B5FFF723FF044607281CBFD4
:104DD0000B4B1C5C0B4B13F8145003EB44035E7835
:104DE00008F064FB31460246284608F038FBFFF71E
:104DF000FDFE2146BDE8704000F53E7005F0B1BDF6
:104E00003C2B01084A2B01087FB51E4B1B78002B59
:104E100033D000221146104606F0B8FE00250A26BF
:104E200001AC0A22184901A8FBF758FD01F09AF9D4
:104E30000378EAB2B3FBF6F3934200D8FDB901F070
:104E400091F90378312B04D9002396221946207852
:104E50000CE001F087F903461B7820781D2B4FF0FA
:104E6000000387BF962219461A469621013506F09F
:104E700021FE0A2D04F10104D3D104B070BD00233A
:104E80001A46E3E754440020E42A01082DE9F043E0
:104E90000D46144689B00C2848D8DFE810F00D0004
:104EA0004A008100C100460151015F016D01780196
:104EB0008301A501B301BF01C04FC14E38680AF09C
:104EC0000FFA0E2805D90AF0C7F933883860033382
:104ED000338004EB84042C446FF007084725FF2738
:104EE000E4B208FB05F3328803F596631344B3FB81
:104EF000F7F213448DF804308DF805708DF80640F4
:104F0000019806F0CFF8C0F30721C0F307438DF8EE
:104F100008008DF809108DF80A30C2B2DBB22846BD
:104F2000C9B2013506F0C6FD972DDAD109B0BDE84A
:104F3000F083A44FA44E38680AF0D2F90E2805D9A0
:104F40000AF08AF9338838600333338004EB840431
:104F50002C44FF270025E4B233888DF8057003EB5D
:104F6000C503B3FBF7F213448DF804308DF8064007
:104F7000019806F097F8C0F30721C0F307438DF8B6
:104F800008008DF809108DF80A30C2B2DBB205F1C5
:104F90004700C9B2013506F08DFD502DDCD1C5E7C3
:104FA0008A4F8B4E38680AF09BF90E2805D90AF013
:104FB00053F9338838600333338004EB84042C4482
:104FC0004FF00C080025FF27E4B2282DEBB28CBF70
:104FD000283BC3F128033288DBB208FB0323B3FB71
:104FE000F7F213448DF804308DF805708DF8064003
:104FF000019806F057F8C0F30721C0F307438DF876
:1050000008008DF809108DF80A30C2B2DBB205F144
:105010004700C9B2013506F04DFD502DD5D185E7C9
:1050200005220023B1FBF2F2032C8DF809308DF834
:105030000A308DF80D30ADF810308DF813308DF842
:1050400014308DF817308DF818308DF81B30614F03
:105050004FEA51038DF80C208DF81D30A1EB44026E
:105060008DF81E308DF81F3098BF5B4BD2B2386878
:105070008CBF0F241C5D8DF808108DF80B108DF877
:105080000E208DF80F208DF812108DF815208DF858
:1050900016208DF819108DF81A208DF81C200AF0B2
:1050A0001FF9A0424D4E4E4C0FD30AF0D5F84D4A91
:1050B00023781178386069B30133DBB2AB4201D297
:1050C000237002E00023257013704FF047093378F6
:1050D00003EB430320336B4413F8186C13F8177C6D
:1050E00013F8168C2178484601FB08F301FB07F200
:1050F0007143B3FBF5F3B2FBF5F2B1FBF5F1DBB2B3
:10510000D2B2C9B209F1010906F0D4FCB9F1970F86
:10511000E8D10BE70BB1013BD2E7012133781170E5
:105120000B4403F007033370CFE7472400232046E6
:105130001A462946013406F0BDFC972CF6D1F5E657
:1051400005264724B1FBF6F62046002332462946C1
:10515000013406F0AFFC972CF6D1E7E64725A1EB2A
:105160008204E4B22846002322462146013506F097
:10517000A1FC972DF6D1D9E64724002320462A46E4
:105180001946013406F096FC972CF6D1CEE647245A
:1051900020462B462A460021013406F08BFC972C32
:1051A000F6D1C3E64724002220462B46114601349F
:1051B00006F080FC972CF6D1B8E600BF141A002048
:1051C000101A00200C1A0020081A0020041A0020CF
:1051D000001A0020FC190020882B0108F819002073
:1051E000F9190020600C00204725A1EB8204E4B2ED
:1051F0002846234600222146013506F05BFC972D08
:10520000F6D193E647254C082846234622462146F8
:10521000013506F04FFC972DF6D187E64724002391
:1052200020461A461946013406F044FC972CF6D164
:105230007CE600BF38B50C460D4D78B10AF00CF88D
:105240000C4B28601B7883B100F0C2FA58B100F013
:10525000BFFA0022114600F001FA04E028680AF0C3
:105260003FF83228EAD8002038BD2370FBE700BFA2
:105270001C1A002084240020014B1860704700BFD6
:10528000201A002070B500F069FF454C02782378A1
:105290009A4206D000F062FF002203782370414B4F
:1052A0001A6001F04FFD0138C0B2062896BF3E4B90
:1052B000002653F8206000F051FF0378032B06D836
:1052C000DFE803F0024C33070022364B1A6001205E
:1052D00070BD344D2C6894B909F0BEFF334B286083
:1052E0001A78002AF3D01C7000F072FA054600F01C
:1052F0006FFA22460146284602F058F8E7E72046B2
:1053000047F22F5609F0ECFFB042E0D9FFF734FC2A
:105310000028DCD109F0A0FF2860112001F0D4F8AA
:1053200044F620600BF0A9F914E001251D4C1F4B39
:1053300020681D7018B909F08FFF2060C7E709F0D9
:10534000CFFFB042C3D3FFF717FC0028BFD109F04D
:1053500083FF2060012000F073FCB8E7114C236844
:10536000002BE8D000F034FA062809D000F030FA1B
:10537000012805D000F02CFA022801D000F028FA0C
:10538000206809F0ADFF47F22F5398429FD9FFF7ED
:10539000F3FB00289BD109F05FFF2060BDE700BF51
:1053A000191A0020201A00208C2B0108181A00203E
:1053B00007B58DF807100DF10701FFF73BFFFFF769
:1053C00061FF002003B05DF804FB00002B4B2DE9CA
:1053D000F0411B78BBB10F254FF00108284E56F85D
:1053E000041B4B1C0BD021F00F0701F00F0108FA32
:1053F00001F40122214638460CF0F0FBBC61013D6E
:1054000015F0FF05EBD1002280214FF080400CF019
:10541000E5FB00BF00BF00BF00BF00BF00BF00BF73
:1054200000BF00BF00BF00BF00BF00BF00BF00BF84
:1054300000BF00BF00BF00BF00BF00BF00BF00BF74
:1054400000BF302585F31188012207214FF08040ED
:105450000CF0E4FB002484F3118885F31188012209
:105460000C214FF080400CF0D9FB84F31188BDE88B
:10547000F041062123200CF030B900BF8324002026
:10548000A82B0108072804D0122804D1042000F01A
:10549000B7BB0320FBE7704708B54FF080724FF0B1
:1054A00080439A614FF0007240219A610F480022B8
:1054B0000CF094FB002280210C480CF08FFB4FF481
:1054C00080030A4A93610022094B1A70094B1B782A
:1054D0005BB1112000F0F8FF44F620600BF0CDF82E
:1054E000BDE80840022000F08BBB08BD000400406E
:1054F0006D2400208324002010B5084C237863B16C
:1055000000F084FB033801289DBF00230320237093
:105510000220BDE8104000F065BB10BD83240020D0
:1055200010B5044609F098FE3B4B186023780A2B0F
:1055300066D006D8072B36D0082B10D0FF23237057
:1055400018E0212BFAD16278344B002A5FD0A17881
:105550001A78002958D042F080021A700AE0A37825
:10556000013B032BEAD8DFE803F00206091201F041
:10557000E9FBE07010BD0423E370FBE76279217959
:10558000E078FFF796FBA071000AE071F2E7E0789F
:105590002379617940EA032040BAA21D80B2BDE8B8
:1055A0001040FFF749BAA378013B032BC6D8DFE8C8
:1055B00003F0020B101BE0780728DBD801F0CAFBD0
:1055C000BDE8104001F0CEBAE078BDE81040FFF72A
:1055D00057BBE279A3792179E07843EA0223627923
:1055E000BDE81040FFF77BBBE0782379617940EAA2
:1055F000032040BAA21D80B2BDE81040FFF735BAC3
:10560000BDE8104002F062BA61F3C712A5E71B784B
:10561000C3F3C013A370ADE7201A00207644002026
:1056200010B5044609F018FE044B186023780A2BC5
:1056300001D102F04BFA002010BD00BF201A00205B
:1056400008B500F08BFD0378022B03D100F08EFD2E
:10565000007808BD0020FCE700F070BDF8B51546E5
:10566000B0FA80F3B1FA81F25B0952099A42064618
:105670000C4605D000290CBF0120022000F03EFAA4
:105680000F4F3B78A34200D13DB100F067FD0323EB
:10569000037000F06BFD002303703C7004F0F6FC17
:1056A0002946204600F0D6FF2A462146304601F022
:1056B0007DFE2A462146304603F0D8F8F8BD00BFEB
:1056C000371A002037B5044600F048FD0378012B57
:1056D0000DD00025CDE9005500F040FD0378022BE8
:1056E00007D0094B2A4619780846FFF7B7FF03B0E1
:1056F00030BD24B1082221466846FBF7EFF8684622
:1057000000F04AFEF3E700BF371A002037B5044621
:1057100000F024FD0378012B0ED0002500958DF8B4
:10572000045000F01BFD0378022B07D00D4B2A46D6
:1057300019780846FFF792FF03B030BD74B1637863
:105740008DF80030A3788DF80130E3788DF80230C1
:1057500063798DF8033023798DF80430684600F0C2
:1057600077FEE9E7371A002037B5044600F0F6FC6B
:105770000378012B0DD00025ADF8065000F0EEFCAB
:105780000378022B07D0114B2A4619780846FFF7F9
:1057900065FF03B030BD002CFBD0A278637843EAEC
:1057A0000223ADF80630813B022B09D801220DF10E
:1057B000060002FA03F3ADF8063000F035FEE8E724
:1057C0000DF1060000F01AFEE3E700BF371A0020D3
:1057D000014B1878704700BF371A002010B5174CDE
:1057E00000232278032A26D8DFE802F0020C151ED7
:1057F0000A2213490846CB708A7009F065FB012321
:10580000237010BD0E4A9370F6231046D37009F032
:105810005BFB0223F4E7F62209490846CB708A7045
:1058200009F052FB0323EBE7054A93700A23104665
:10583000D37009F049FB0023E2E700BF2E1A0020D5
:10584000281A00207047000010B5FFF7FBFF00F09A
:10585000BBFA00F095FC01F057FB00F06BF9012852
:1058600003D1BDE8104000F06BB900F0B5F968B99C
:10587000074C206809F034FD40F6B733984205D94B
:1058800000F04EFF10B109F0E7FC206010BD00BF32
:10589000241A00202DE9F04F8FB00E2200218146FE
:1058A00002A8FAF795FF00F059FC0378012B0AD003
:1058B00000F054FC0378022B08D05C4B00221978CE
:1058C0000846FFF7CBFE0FB0BDE8F08FB9F1000F2F
:1058D00000F0A3804FF01E0800262022494606A8AB
:1058E000FAF7FCFF524F9DF819300DF119043B7087
:1058F00014F8010FFAF792FC08F1FF38304418F061
:10590000FF08C6B2F4D14B4D4FF0060BAA461AF869
:10591000013F93B300242246D3B29E420BD89AF89B
:105920000030A34218BF8AF8008021E001331E2B0B
:1059300004D11C4607E000230DF1190111F8010FF5
:105940000028F3D0DCB238336B4413F81E0C0192FC
:1059500003F085FA40EAC404E4B2214606A809F03F
:105960007CFB9AF80030019AA34202F10102D3D1E4
:105970000BF1FF3B1BF0FF0BC9D14946202206A8C3
:10598000FAF7ACFF4FF000084FF001095FFA88F317
:105990009E420FD800F0D8FA002844D1244809F0DC
:1059A00081FA02A800F011FD8DE701331E2B04D10E
:1059B0001C4607E000230DF1190212F8011F00290F
:1059C000F3D0DCB238336B4413F81E0C03F047FA03
:1059D00040EAC404E4B2214606A809F03EFB2A4688
:1059E000002312F8011FA14202D021B93B449C7050
:1059F00008F10108CAE70133062BF2D16F2CF7D862
:105A00000EAB03EBD40313F8302C04F0070409FAAF
:105A100004F4144303F8304CEAE7082249460448EA
:105A2000FAF7D6FEB6E7FFF70FFFB3E7371A002005
:105A30002F1A0020301A002008B5064B1B7823B916
:105A4000054B1B780BB1FFF7C9FEBDE80840FFF717
:105A5000FBBE00BF371A00205544002070B5044635
:105A600058B109F00DFA0C4B834205D0184609F0E5
:105A700001FA0122094B1A7070BD00F06FFB037828
:105A8000022BF9D1044D20466B6898472046AB683D
:105A9000BDE87040184700BF640C0020381000209B
:105AA00038B5044688B109F0EBF9114C84421ED098
:105AB0000122104B1A7001F0A1F90F4809F03CFFC8
:105AC0002046BDE8384009F0D5B90B4B1B78042BB4
:105AD00005D1074D6B6898472046AB689847064844
