:020000040800F2
:1000000000040020B9010008BB010008BB01000882
:10001000BB010008BB010008BB010008BB010008D0
:10002000BB010008BB010008BB01000845FF000838
:10003000BB010008BB010008BB0100089F130108B9
:10004000BB010008BB010008BB010008BB010008A0
:10005000BB010008BB01000891100108B91001089C
:10006000E11001080911010831110108BB01000864
:10007000BB010008BB010008311A0108BB010008E0
:1000800059110108BB010008BB010008BB010008B1
:10009000BB010008BB010008BB010008BB01000850
:1000A000BB010008BB0100084516010859160108EC
:1000B000BB010008BB010008BB010008BB01000830
:1000C000BD130108BD110108BB010008BB010008F8
:1000D000BB010008BB010008BB010008BB01000810
:1000E00072B6264880F30888254880F30988254899
:1000F00025490860022080F31488BFF36F8F0FF04A
:1001000055FC0FF00DF84FF0553020491B4A914235
:100110003CBF41F8040BFAE71D49194A91423CBF24
:1001200041F8040BFAE71B491B4A1C4B9A423EBF9D
:1001300051F8040B42F8040BF8E700201849194A5B
:1001400091423CBF41F8040BFAE70FF033FC0FF08B
:100150002EFC154C154DAC4203DA54F8041B8847AD
:10016000F9E709F029FF124C124DAC4203DA54F8BA
:10017000041B8847F9E70FF01BBC000000040020B7
:10018000000C00200000000808ED00E00000002046
:10019000000400205C310108000C00202015002024
:1001A0002015002098490020E0000008E000000829
:1001B000E0000008E000000892E700F000F8FEE729
:1001C0002DE9F04FC1F80CD0C3689D46BDE8F08F13
:1001D000002383F311882846A04700200FF0B8FDC4
:1001E000FEE70FF00FFD00DFFEE7000053B94AB94C
:1001F000002908BF00281CBF4FF0FF314FF0FF302F
:1002000000F09AB9ADF1080C6DE904CE00F01AF8CF
:10021000DDF804E0DDE9022304B07047430803F091
:100220005533C01A830803F0333300F033301844D9
:1002300000EB101000F00F3000EB002000EB00404E
:10024000000E70472DE9F047089D0F4604468E4684
:10025000002B48D18A42164661D9B2FA82F24AB1DD
:10026000C2F1200301FA02FE20FA03F3964043EAAA
:100270000E0E94404FEA164CBEFBFCF1B7B20CFBDD
:1002800011EE01FB07F0230C43EA0E43984209D913
:10029000F31801F1FF3E80F0ED80984240F2EA80D1
:1002A000023933441B1AB3FBFCF00CFB103300FB88
:1002B00007F7A4B244EA0344A74209D9341900F16C
:1002C000FF3380F0D980A74240F2D6803444023810
:1002D00040EA01400021E41B1DB10023D440C5E9E0
:1002E0000043BDE8F0878B4206D90DB1C5E9000196
:1002F00000210846BDE8F087B3FA83F1002947D111
:10030000BB4202D3824200F20481841A67EB0302EB
:1003100001209646002DE4D0C5E9004EE1E7002A11
:1003200000F09080B2FA82F2002A40F0A780881B89
:100330000121370C1FFA86FEB0FBF7FC07FB1C00FF
:10034000230C43EA00430EFB0CF0984207D9F31844
:100350000CF1FF3802D2984200F2E080C4461B1A2A
:10036000B3FBF7F007FB10330EFB00FEA4B244EA28
:100370000344A64507D9341900F1FF3302D2A6453C
:1003800000F2C9801846A4EB0E0440EA0C40A3E733
:10039000C1F120068B4022FA06FC4CEA030C27FA36
:1003A00006FA4FEA1C49BAFBF9F88F4020FA06F327
:1003B00009FB18AA1FFA8CFE3B4300FA01F708FB61
:1003C0000EF01C0C44EA0A44A04202FA01F20BD9D6
:1003D0001CEB040408F1FF3A80F09980A04240F23F
:1003E0009680A8F102086444241A98B2B4FBF9F389
:1003F00009FB134403FB0EFE40EA0444A64508D95A
:100400001CEB040403F1FF307FD2A6457DD9023BEB
:10041000644443EA0840A4EB0E04A0FB028E74453A
:100420004346F14661D35ED055B1FA1A64EB090434
:1004300004FA06F622FA01F31E43CC40C5E9006433
:1004400000214EE743084FEA510C43EAC1710A0C00
:1004500042EA0C428BB2C407B2FBF6F143EA024314
:10046000BCFBF6FCB646304637461F22181A41EA56
:100470000C4161E7714615E7184629E7C2F12003F0
:1004800021FA03F0964024FA03F397403B43370CDC
:10049000B0FBF7F807FB18001FFA86FE190C41EABB
:1004A000004108FB0EF0884204FA02F43AD97118B0
:1004B00008F1FF3C01D288421ED8091AB1FBF7F8B7
:1004C00008FB0EF007FB18119BB243EA014383427D
:1004D0002FD2F31808F1FF31C8D28342C6D2A8F157
:1004E00002013344C2E747459ED2B8EB02036EEBEC
:1004F0000C0E0138F14697E7301A0144A8F1020CBE
:10050000B1FBF7F808FB0EF0DCE7034681E7D046C5
:100510006AE70846FEE63444023834E7ACF1020CE0
:1005200033441CE7091AC446B1FBF7F808FB0EF088
:10053000C8E741469AE700BF704700BF38B5124B85
:1005400004461D682A6B1AB10023C2E9044338BD72
:10055000182000F039FA0246286378B100210B23F5
:1005600001209381C2E90401084B0949094DC2E900
:10057000011300231560C2E9044338BD4621064B30
:10058000064800F0FFF800BF000C0020ECDE05007C
:1005900034126DE60E33CDAB94300108AC30010857
:1005A00038B5194B1C68226B8AB113691749546915
:1005B00003FB01F1164800FB0411A3FB00300133DB
:1005C00041EB0001C2E9043121F0004038BD1820A0
:1005D00000F0FAF90246206388B1012400250B23BC
:1005E0000A480C49C2E90445116001460A4D0B4C0A
:1005F00093810B4BC2E90154C2E9043138BD522149
:10060000084B094800F0BEF8000C00202DF45158AA
:100610002D7F954C0E33CDAB34126DE6ECDE05002C
:100620002E7F954C94300108AC30010820F0030176
:1006300010F00300C0F1000051F8043B00F1040C7D
:100640004FEACC0C6FF000021CBF22FA0CF21343ED
:100650004FF0010C4CEA0C2C4CEA0C4CA3EB0C02B6
:1006600022EA030212EACC1204BF51F8043B043020
:10067000F4D0C2F1000102EA0102B2FA82F2C2F140
:100680001F0200EBD200704788420ED98B188342BC
:100690000BD900EB020C002A6DD0624613F801CD95
:1006A000994202F801CDF9D170470F2A0FD80346BD
:1006B00002F1FF3C002A5ED00CF1010C013B8C449E
:1006C00011F8012B614503F8012FF9D1704740EA79
:1006D00001039B0750D1A2F1100370B501F1200C6A
:1006E00023F00F0501F1100E00F11004AC441B09BA
:1006F0005EF8105C0EF1100E44F8105C5EF81C5CA5
:10070000103444F81C5C5EF8185C44F8185C5EF821
:10071000145CE64544F8145CEAD1013312F00C0F86
:1007200001EB031102F00F0400EB031328D08E46F7
:10073000043C24F003064FEA940C1E441C1F5EF890
:10074000045B44F8045FB442F9D10CF1010402F0F7
:10075000030203EB840301EB840102F1FF3C4AB185
:100760000CF1010C013B8C4411F8012B614503F89D
:10077000012FF9D170BD7047034602F1FF3C9BE7A2
:100780002246EAE7144600B51A460A4B0D461B6896
:1007900085B0DE6803464CB10749019130460749F0
:1007A0000294009500F02EF900F090F804490C46F0
:1007B000F3E700BF000C0020D8300108E830010842
:1007C000E430010808B513460022FFF7DBFF00BF45
:1007D00070B5860747D0541E002A3ED00346CAB2E1
:1007E00001E0013C39D303F8012B9D07F9D1032C1B
:1007F0002CD9CDB205EB05250F2C1A4605EB054586
:1008000034D9A4F1100C2CF00F0603F1100EB644ED
:100810004FEA1C1CC2E90055C2E90255103272456C
:10082000F8D10CF1010214F00C0F03EB021204F0EA
:100830000F0C13D0ACF1040323F00303043313446F
:1008400042F8045B9342FBD10CF003042CB1C9B213
:100850001C4403F8011BA342FBD170BD6446134640
:10086000002CF4D1F9E703461446C0E7A446E1E7BB
:10087000032A30B415D941EA0004A40784460B4684
:1008800004D0541E0FE0043A032A08D919466046E2
:1008900053F8044B5CF8045BA542F4D0F1E76046E2
:1008A0001946541E7AB1431E0139021901E09A42D9
:1008B00009D013F8010F11F801CF6045F7D0A0EB74
:1008C0000C0030BC7047002030BC7047062008B5D3
:1008D00000F042F9012010F05DFA00BF844641EAC1
:1008E000000313F0030349D1403A23D30B6803609C
:1008F0004B6843608B688360CB68C3600B6903619E
:100900004B6943618B698361CB69C3610B6A036285
:100910004B6A43628B6A8362CB6AC3620B6B03636D
:100920004B6B43638B6B8363CB6BC3634030403152
:10093000403ADBD230320BD30B6803604B68436024
:100940008B688360CB68C36010301031103AF3D2EB
:100950000C3205D351F8043B40F8043B043AF9D279
:10096000043208D0D2071CBF11F8013B00F8013B4C
:1009700001D30B8803806046704700BF082A13D359
:100980008B07B1D010F00303AED0C3F10403D21A29
:10099000DB071CBF11F8013B00F8013BA4D331F881
:1009A000023B20F8023B9FE7043AD9D3013A11F801
:1009B000013B00F8013BF9D20B7803704B78437090
:1009C0008B78837060467047024B0146186800F0D0
:1009D000FDBE00BF000C0020024B0146186800F06D
:1009E00075BF00BF000C00200CB400B583B004AB91
:1009F00053F8042B019300F087F903B05DF804EB82
:100A000002B070470EB400B5074A82B003AB01468E
:100A1000106853F8042B019300F076F902B05DF8EA
:100A200004EB03B0704700BF000C002038B5C46B66
:100A30000CB1002038BD8021054600F0C7FE0246FB
:100A4000E86330B1031F7C3243F8044F9342FBD17B
:100A5000EFE74FF0FF3038BD30B51F29054683B0B2
:100A600008D8C36B0C4653B153F8240043F8242034
:100A700003B030BD162303604FF0FF30F8E780214C
:100A8000019200F0A3FE019A0346E8630028F3D028
:100A9000011F00F17C05002041F8040FA942FBD1A1
:100AA000E2E700BF1F2938B505461ED8C26B0C46C9
:100AB0006AB152F8213053B1012B06D0591C10D025
:100AC0000021204642F824109847002038BD2846CF
:100AD00001F070FA224601462846BDE8384001F090
:100AE00055BA162301202B6038BD16234FF0FF3076
:100AF0002B6038BD1F292BD838B5C36B0C46054673
:100B0000A3B153F8242003EB84034AB1511C0BD04A
:100B1000012A07D0002520461D609047284638BD91
:100B2000012038BD032038BD022038BD802100F0EF
:100B30004DFE0346E86340B100201A1F03F17C011B
:100B400042F8040F8A42FBD1DBE74FF0FF3038BD9B
:100B50004FF0FF30704700BF38B5134B1F281D689A
:100B60001DD8EA6B044662B152F820304BB1012B1C
:100B700005D0591C0FD0002142F8201098470020C2
:100B800038BD284601F016FA224601462846BDE83F
:100B9000384001F0FBB9162301202B6038BD162325
:100BA0004FF0FF302B6038BD000C0020114B1F2888
:100BB00070B51E6808D8F36B04460D464BB153F868
:100BC000240043F8245070BD162333604FF0FF30EB
:100BD00070BD8021304600F0F9FD0346F063002827
:100BE000F4D00021021F7C3042F8041F8242FBD166
:100BF000E5E700BF000C002038B50B4B1D68EC6B1F
:100C00000CB1002038BD8021284600F0DFFDE863EC
:100C100038B1031F00F17C0243F8044F9342FBD12B
:100C2000EFE74FF0FF3038BD000C002038B5174B10
:100C30001F281D6826D80446E86BA0B150F8242070
:100C400000EB84034AB1511C0BD0012A07D00025C8
:100C500020461D609047284638BD012038BD03203E
:100C600038BD022038BD8021284600F0AFFDE86382
:100C700040B10021031F00F17C0243F8041F93429E
:100C8000FBD1DBE74FF0FF3038BD00BF000C002088
:100C90009368013B002B936005DAD2F818C06345D6
:100CA00007DB0A2905D01368581C10600846197024
:100CB000704700F069BE00BF9BB1F8B5134406460B
:100CC0000F46541E5D1E01E0AC4208D03A46304645
:100CD00014F8011FFFF7DCFF431CF5D1F8BD00201D
:100CE000F8BD0020704700BF936810B514461BB9CB
:100CF00018460023636010BD00F08CF90023A36048
:100D00000023636010BD00BF2DE9F04FA1B08B46FA
:100D100091461C46049018B1036A002B00F0138121
:100D2000BBF80C30180740F18E80DBF81030002B38
:100D300000F08980002343F220020D9399F80030DF
:100D40000127824E0794ADF83920002B73D04D4611
:100D500003E015F8013F002B7FD0252BF9D1B5EB2F
:100D6000090A7DD12B78002B65D000234FF0FF328C
:100D70000135CDE9092308930B938DF863301E9359
:100D800006E02546089B801B07FA00F00343089302
:100D90002C46052214F8011B304600F0EFF8A1465E
:100DA0000028EED1089BD90644BF20228DF863208D
:100DB0001A0748BF2B22297848BF8DF863202A29BB
:100DC00064D1079A1168043200290792C0F2968014
:100DD0000B9169782E296FD05D4C0322204600F0DC
:100DE000CDF838B14022089B001B8240134309F123
:100DF0000109089319F8011B062256488DF838108E
:100E000000F0BCF800287FD0534B002B69D007A915
:100E100000915A460498514B08A9AFF30080039003
:100E2000039B013307D00D9B039A13440D9399F84C
:100E30000030002B8BD1BBF80C305B060AD40D9828
:100E400021B0BDE8F08F5946049800F037FC002827
:100E50003FF470AF4FF0FF30F2E7B5EB090AEAD08C
:100E600009F1FF3805954546DDF8108001E0A245FF
:100E70003ED92C465A46404615F8011FFFF708FF99
:100E800002340130A4EB0904F1D1D4E7A1F130021E
:100E9000092A88BFA9469DD80B9B00E00134217820
:100EA00003EB830302EB4303A1F13002092AF5D9D6
:100EB0002E29A1460B938FD199F801102A292DD103
:100EC000079B09F102001A680433002A0793B8BF90
:100ED0004FF0FF3399F8021009928146B8BF099389
:100EE0007AE7079B073323F00703083307939AE752
:100EF0000D99059D51442B780D9134E7494243F0FB
:100F000002030B91089364E707A900915A460498DD
:100F1000124B08A900F06CFE039081E70023A1F1B9
:100F20003002092A09F1010909933FF655AF19F872
:100F3000011F03EB830302EB4303A1F13002092AF3
:100F4000F5D9099348E700F0C5FAE9E61831010838
:100F5000203101082431010800000000B90C00080C
:100F60008C4600B586461346034A714610685DF804
:100F700004EB6246FFF7C8BE000C00205FFA81FC5C
:100F8000810744D00346511E22B909E09A0709D0CF
:100F9000013905D31846027801336245F6D170470E
:100FA00000207047184603290CD80029F8D00346C2
:100FB000014401E08B42F3D0184613F8012B62453F
:100FC000F8D1704710B50CEB0C24024604EB044436
:100FD00002E00439032915D9104652F8043B634056
:100FE000A3F1013E2EEA030313F0803FF1D0034644
:100FF000014401E08B4208D0184613F8012B6245EA
:10100000F8D110BD10460029F1D1002010BD1146C5
:10101000C9E700BF9368002B00F0F0802DE9F04F86
:10102000B1F90CC090461CF0080F81460C4683B005
:101030002BD00B694BB31CF00207D8F8006032D0FC
:101040004FF0000A5546D4F828B0216AAB4FC5B11D
:10105000BD422B46524628BF3B464846D84700284B
:1010600040F3C280D8F8083082441B1A2D1AC8F801
:101070000830002B00F0AE80D4F828B0216A002D93
:10108000E6D1D6E900A50836E1E72146484600F05A
:1010900015FB002840F0AD80B4F90CC0D8F8006012
:1010A0001CF00207CCD11CF0010A63D1574623681B
:1010B000A16818468B46002F58D01CF4007F00F022
:1010C000B180B9420A4600F2DD801CF4906F2FD047
:1010D000216962695D1A02EB420202EBD2726B1C5B
:1010E00052103B44934292BF93469B461A461CF4CF
:1010F000806F00F0E6801146484600F067FB00284C
:1011000000F0F5802A4621690190FFF7E7FBA289EC
:10111000019B22F4906242F08002A2815819C4F827
:1011200014B0ABEB05053A46BB462361A5602060D1
:101130003D46002751460192FFF7A6FAA1682368B1
:10114000019AA1EB0B011A44A1602260D8F8083083
:10115000AA445B1BC8F80830002B3BD02368A16869
:1011600018468B46B4F90CC0002FA6D1D6E900A7CB
:1011700008369EE73846BB463D46002D40D0002845
:1011800045D03A46D4E904C32068AA4228BF2A467B
:101190006045A16804D901EB030A524500F382803F
:1011A000934272DC5A464846216AD4F828C0E04788
:1011B000B0F1000A18DDB7EB0A070FD00120D8F80C
:1011C0000830D344A3EB0A03A5EB0A05C8F808309E
:1011D000002BD2D1002003B0BDE8F08F2146484655
:1011E00000F02AFA0028EAD0B4F90C3043F04003AA
:1011F000A3814FF0FF3003B0BDE8F08F00207047AF
:10120000756833460836002DFAD0D3F800B02A4668
:101210000A215846FFF7B2FE002865D00130A0EB46
:101220000B07AEE722699A4214D36569BD4211D813
:101230006FF00043BB4228BF3B4693FBF5F3524699
:1012400005FB03F34846A56A216AA847051ECBDDC6
:101250007F1B7BE7B94228BF39460D4618465146E9
:101260002A46FFF711FAA1682368491B2B44A160A5
:1012700023600029ECD12146484600F0DDF9002822
:10128000E6D0B1E7BB463A4652E759460192FFF72E
:10129000FBF9019AA36892469B1AA3602368134442
:1012A000236088E759465246FFF7EEF92368214646
:1012B00053444846236000F0BFF900283FF47BAF59
:1012C00092E7484600F0D0FB034600287FF426AFA3
:1012D0004846216900F0FAFA0C22B4F90C30C9F83A
:1012E000002023F0800381E76A1C17464AE70C229E
:1012F000B4F90C30C9F8002078E700BF00FCFF7F8C
:1013000000207047024A0349034800F08BBB00BF2E
:10131000500C002039160008040C00200C4B4168CA
:1013200010B59942044601D000F086F9A168094B36
:10133000994202D0204600F07FF9E168064B9942BD
:1013400004D02046BDE8104000F076B910BD00BFC3
:101350002015002088150020F0150020002070477F
:101360002DE9F84300250423294C2A490822C4F812
:10137000381104F15C002946DFF89C90DFF89C806E
:10138000274F284EC4E90335C4E90055C4E9055583
:10139000A5606566FFF71CFA234B0822294604F175
:1013A000C4006367C4E90849C4E90A87C4E91A5557
:1013B000C4E91E5526632567C4F8CC50C4F8805094
:1013C000FFF706FA194B2946C4F8DC30082204F16D
:1013D000680304F59670C4F88830C4E92398C4E91A
:1013E0002576C4E93455C4E93855C4F8D850C4F852
:1013F0003451C4F8E850FFF7EBF904F1D003C4E925
:101400003D98C4E93F76C4F8F030BDE8F88300BFEA
:101410002015002005130008B91F0008E11F00086F
:1014200021200008452000080900010012000200E8
:10143000F8B5254B0646D3F83831002B3CD0234F66
:10144000D7E90134013B04D51DE05A1C04F16804BE
:1014500019D0B4F90C50013B002DF6D11C4B0822D9
:101460002946C4E90155C4E90455E3606566256071
:10147000A56104F15C00FFF7ABF9C4E90D55C4E9BF
:1014800012552046F8BD3D680DB12F46D8E74FF400
:10149000D671304600F09AF9044680B10423056005
:1014A000294625460C304FF4D072A0606360FFF7E8
:1014B0008FF93C602F46C3E7FFF752FFBFE70C23CD
:1014C00038603360DDE700BF20150020500C00209D
:1014D0000100FFFF036A03B17047044B044AD3F8CD
:1014E00038310262002BF7D13AE700BF2015002007
:1014F0001D130008704700BF704700BF0020024A5C
:10150000024900F08FBA00BF500C00200113000800
:101510000020024A024900F085BA00BF500C0020AA
:101520005D130008F8B5B1F90C300C461E070746EC
:1015300039D44A68002A53DDE56A002D31D00022F3
:101540003E683A6013F48052216A55D1012338462F
:10155000A847451C024663D0B4F90C30E56A216AFD
:10156000580705D56368D21A636B0BB1236CD21A86
:1015700000233846A847421C40D0002223696260FD
:101580002360A389DB0400D56065616B3E6041B1D7
:1015900004F14403994202D0384600F097F9002341
:1015A00063630020F8BD0E69002EFAD09B0718BFB8
:1015B00000230D6808BF4B690E60AD1B8B600CE00B
:1015C0002B463246D4F828C03846216AE047B0F1AD
:1015D000000CA5EB0C05664406DD002DF0DCE0E711
:1015E0000A6C002AA8DCDCE7B4F90C3043F04003B5
:1015F0004FF0FF30A381F8BD626DB1E73968B4F9EF
:101600000C301D29F2D80B4ACA40D507EED500226E
:10161000626022692260DA04B7D50029B4D0B4E749
:101620003B68002B98D01D2B01D0162BDCD13E60DF
:10163000B7E700BF010040200B69B3B110B5044605
:1016400082B008B1036A5BB1B1F90C3013B9002064
:1016500002B010BD204602B0BDE81040FFF762BFE7
:101660000191FFF737FF0199EEE70020704700BFB7
:10167000B8B138B50D4A0369044615682BB10DB1F0
:101680002B6A53B1B4F90C300BB9002038BD214698
:101690002846BDE83840FFF745BF2846FFF71AFF48
:1016A000F0E7034A0349044800F0BCB9000C0020ED
:1016B000500C002039160008040C002038B52F4BC0
:1016C00005461B680C4613B11A6A002A4BD0B4F9C0
:1016D0000C3018071CD5226922B313F0010107D082
:1016E00000206169A0604942A1613AB1002038BD83
:1016F000980758BF6169A160002AF7D1190658BF41
:101700001046F4D543F04003A3814FF0FF3038BDBD
:10171000D9062CD55A0712D4226943F00803A381B5
:10172000002ADAD103F42071B1F5007FD5D021462B
:10173000284600F0A3FBB4F90C302269CDE7616BB9
:1017400051B104F14402914204D0284600F0BEF8A1
:10175000B4F90C30002262630021226923F02403D3
:10176000C4E90021D9E71846FFF7B4FEAFE7092224
:1017700043F040032A60A381C7E700BF000C0020AC
:1017800070B5114E054633680C46BBB1214628465C
:101790000FF0E4FA431C01460CD0C41C24F00304EF
:1017A000A04205D02846611A0FF0D8FA013001D0C6
:1017B000204670BD4FF0FF34204670BD19460FF033
:1017C000CDFA3060E2E700BF5C1600202DE9F84357
:1017D000CD1C25F0030508350C2D38BF0C25002D38
:1017E000064618DBA94216D8DFF8DC8000F042FB81
:1017F000D8F80420A2B1144603E0636822467BB106
:101800001C4623685B1BF8D40B2B1FD894426368DB
:1018100054D053600CE00C2333600020BDE8F88303
:1018200029463046FFF7ACFF431C044619D005603B
:10183000304600F021FB04F10B00231D20F00700CF
:10184000C21A1CBF1B1AA350BDE8F8836119944249
:10185000256014BF5160C8F80410635163684B6081
:10186000E6E7D8F804701FB33C467F68002FFBD131
:1018700023683946304604EB03090FF06FFA8145BF
:1018800016D123683046ED1A2946FFF779FF01305B
:101890000ED02368D8F804202B442360536883B10A
:1018A000A34203D01A465B689C42FBD10023B0E7F9
:1018B0000C233046336000F0DFFAAEE7C8F804309E
:1018C000B6E7C8F80470B3E75C160020002950D0D2
:1018D00038B551F8043C0C1F002BB8BFE41805467E
:1018E00000F0C8FA274A13682BB1A3420CD921682B
:1018F000601883422CD0284663601460BDE83840ED
:1019000000F0BABAA3420FD81A465B68002BF9D18F
:1019100011685018844217D02CD363605460284655
:10192000BDE8384000F0A8BA11685018A04214D0A1
:1019300020D8216860188342EFD118685B6808449A
:10194000C4E900035460EAE723680B441360E6E748
:1019500018685B6808442060CDE72068014450188F
:1019600083421160DBD1D3E900040144C2E90014D1
:10197000D5E770470C2328462B60BDE8384000F0BF
:101980007BBA00BF60160020F8B506460D46144627
:1019900010B1036A002B37D0A269A389A2601A078D
:1019A00019D52369BBB122686169D31AEDB2994296
:1019B0002F4620DD0133A1680139A160511C21604F
:1019C000157062699A420DD0A389DB0701D50A2DF3
:1019D00008D03846F8BD21463046FFF76FFE38B9CB
:1019E0002369E0E721463046FFF726FE0028F0D0C5
:1019F0004FF0FF37EDE721463046FFF71DFE002888
:101A0000F6D101232268D6E7FFF764FDC4E700BFE3
:101A100003460A46024908681946FFF7B5BF00BFEA
:101A2000000C00202DE9F8434FF0000980460F46D6
:101A30001646D6E90154013D10D4A389012B08D9DB
:101A4000B4F90E30013304D021464046B84749EA84
:101A50000009013D6B1C04F16804EED13668002ECC
:101A6000E7D14846BDE8F8832DE9F041144641B37B
:101A70000AB306460D4600F0E9FA8442074602D84A
:101A8000B4EB500F13D821463046FFF79FFE804637
:101A900050B1BC422246294628BF3A46FEF71EFFF7
:101AA00029463046FFF712FF4046BDE8F081A846C0
:101AB0004046BDE8F081A046FFF708FF4046BDE87C
:101AC000F0811146BDE8F041FFF780BE2DE9F84FE7
:101AD00092461F460A698B680C469A42B8BF1A465E
:101AE000CAF8002091F843300646DDF8289013B17B
:101AF0000132CAF80020226891065FD5DAF800307A
:101B00000233CAF80030226812F0060F11461DD1C8
:101B1000E1689942D8BF114618DD4FF0000804F182
:101B2000190B05E0E568DAF80030ED1A45450CDDE3
:101B300001235A4639463046C847013008F10108AA
:101B4000F0D14FF0FF30BDE8F88F216894F84330B2
:101B5000003B18BF01238A060AD53021E21882F81B
:101B6000431094F845105A1C2244023382F8431063
:101B70003946304604F14302C8470130E1D0D4E988
:101B800002202368DAF8005003F00603042B2169D1
:101B90001BD08A4220DD4FF00008521A90440025E5
:101BA0001A3401E0454517DA01232246394630460A
:101BB000C847013005F10105F4D1C2E712F0060F64
:101BC0000DD0003B18BF0123D2E7401B8A4220EA18
:101BD000E078E2DC0028E2DC0020BDE8F88FE16874
:101BE000DAF800309942D8BF114696DCAEE700BF64
:101BF0002DE9F04717460A7E84B00C460646984603
:101C00000C9D01F1430C002A35D0A2F15803D9B242
:101C1000202969D8202B67D8DFE813F0E60066009A
:101C20006600660066006600660066006600660084
:101C30006600AC007000660066006600660070001A
:101C4000660066006600660021008300C60066002C
:101C50006600B6006600830066006600EC002B6834
:101C60002268181D6169286010061B6802D452069C
:101C700000F1E08019600023E14623613B462146E4
:101C80003046CDF8008003AAFFF720FF013020D0B6
:101C90004A46394630462369C047013019D0236887
:101CA000E0689B07DDF80C9018D5484516DD002547
:101CB00004F1190A04E0E068A0EB0903AB420DDD72
:101CC0000123524639463046C047013005F101052F
:101CD000F1D14FF0FF3004B0BDE8F0874845B8BF00
:101CE000484604B0BDE8F087012084F8422004F1A2
:101CF00042090023206184F84330BFE72A68236843
:101D0000111D1806296002D4590600F1958010684B
:101D1000014600286268C0F293804FF00A0E5348D3
:101D200015E020682B6810F0800F53F8041B02D1D7
:101D3000400648BF89B26F2A14BF4FF00A0E4FF019
:101D4000080E4A482B600023626884F84330002A5A
:101D5000A26051DB236823F00403236000294BD1E8
:101D6000002A7BD1E146BEF1080F56D0ACEB090347
:101D7000236183E72A680120116804322A6004F194
:101D8000420984F84210B4E72B6800211A1D2A602A
:101D9000D3F8009062684846FFF7F0F8002863D057
:101DA000A0EB09006060A4E7236843F020032360F0
:101DB00078222F4884F845202A6813F0800F52F8C3
:101DC000041B03D113F0400F18BF89B22A60DA0751
:101DD00044BF43F02003236019B9236823F0200394
:101DE00023604FF0100EAEE75823204884F84530AA
:101DF0002368E1E72368DBE77546E146B1FBF5F3CD
:101E00000A4605FB131A194610F80A30AA4209F8C7
:101E1000013DF3D2BEF1080FA8D12368DD07A5D597
:101E2000626823699A42A1DC302309F1FF3989F8FD
:101E300000309BE719801EE7B2F90010084668E7FA
:101E40002D20002AA26084F8430002DB23F0040363
:101E500023600A250548AE464942CEE7037804F1DF
:101E6000420984F842307EE7606842E72C3101087D
:101E700040310108704700BF704700BF70B5B1F92D
:101E80000C300C46990796B007D5012204F14703A0
:101E9000C4E90432236016B070BDB4F90E100546D3
:101EA000002929DB6A460EF066FF002822DB4FF48A
:101EB00080612846019EFFF789FC88B3A38906F458
:101EC000704643F08003A3814FF48063B6F5005F52
:101ED000C4E904032060DED12846B4F90E100EF0E8
:101EE00056FF0028D7D0A38923F0030343F0010352
:101EF000A381D0E7B4F90C3013F0800F14BF402653
:101F00004FF4806628463146FFF760FC40B1A38954
:101F1000C4E9040643F080032060A38116B070BDBD
:101F2000B4F90C309A05B6D4012123F0030304F16F
:101F3000470243F00203C4E90421A3812260AAE717
:101F400070B50C46B1F90E10154600291E4696B024
:101F50000FDB6A460EF00FFF00280ADB019B4FF4EF
:101F6000806203F47043A3F50053B3FA83F35B0973
:101F700007E0A289002312F0800F14BF40224FF423
:101F80008062002033602A6016B070BD70B50026F4
:101F9000074D0446084611462E600EF003FF431C11
:101FA00000D070BD2B68002BFBD0236070BD00BF3C
:101FB000641600200EF0FEBE10B50C46B1F90E10EE
:101FC0000EF0C1FE002803DB636D0344636510BDA2
:101FD000A38923F48053A38110BD00BF0020704764
:101FE0002DE9F0410C46B1F90C101F46CB05054612
:101FF00016460BD421F48051A1813B463246284637
:10200000B4F90E10BDE8F0410EF0A4BEB4F90E1004
:10201000022300220EF09CFEB4F90C10EAE700BF88
:1020200010B50C46B1F90E100EF092FEB4F90C305A
:10203000421C0EBF23F4805343F480536065A38198
:1020400010BD00BFB1F90E100EF086BE51F8043C71
:10205000181F002BBCBF0B58C0187047372875D805
:10206000032803D800207047042070470438332821
:10207000F8D801A353F820F04D22000831220008BF
:102080003D2200083D22000831220008652000089A
:1020900049210008312200084D22000831220008A1
:1020A0003122000831220008652000086520000860
:1020B0004D220008752200086520000865200008F0
:1020C0007D220008652000085922000851220008DE
:1020D00031220008612200083D2200086520000826
:1020E0004522000845220008452200084522000834
:1020F0004522000845220008452200084522000824
:102100004522000885220008652000086520000897
:10211000652000086520000865200008652000088B
:10212000652000086520000865200008652000087B
:10213000652000086520000865200008652000086B
:10214000652000085522000806207047A0F50170A0
:1021500083B2332B86D8332884D801A353F820F0D8
:102160004D22000831220008692200086D22000873
:10217000312200086520000835220008652000088B
:102180004D2200085D220008652000086520000837
:1021900065200008652000084D220008792200080B
:1021A0006520000865200008492200086520000815
:1021B000652000085122000831220008652200082D
:1021C00071220008392200086520000865200008F7
:1021D00065200008692000086520000881220008A9
:1021E00065200008652000086520000865200008BB
:1021F00065200008652000086520000865200008AB
:10220000652000086520000865200008652000089A
:10221000652000086520000865200008652000088A
:1022200065200008652000084122000841220008BE
:10223000012070470520704707207047082070472D
:10224000092070470A2070470C2070470D20704706
:102250000E2070470F2070471020704711207047E4
:1022600012207047132070471420704715207047C4
:1022700016207047172070471820704719207047A4
:102280000320704702207047A0F11E03092B01D9DB
:10229000FFF7E4BE0B20704708B5FFF7DFFE0038FC
:1022A00018BF012008BD0023036043608360838161
:1022B000704700680128B8BF0120704710B5094C6D
:1022C0002268FF2A0CDC084B1B6813445942C9B230
:1022D000DBB258BF4B420549013221F8130022609E
:1022E00010BD00BF74160020781600207C16002058
:1022F00030B40C4C226892B10B4D0C492B68013A5A
:1023000031F8130001335942C9B2DBB258BF4B4216
:102310002B60074B22601B680BB130BC184730BCE8
:10232000704700BF74160020781600207C1600202D
:1023300068160020014B1860704700BF6816002027
:102340000023034A1360034A1360034A1370704763
:1023500074160020781600206C160020FFF7AEBF20
:1023600038B50C460025A54200DB38BDFFF7A6FFB7
:102370000135F8E7074B1B685BB1074B074A197833
:1023800011B11168814204D0106001221A70FFF768
:10239000AFBF7047741600206C1600207016002026
:1023A0000129B8BF012170B50E460025441E0E2C30
:1023B0000CD8DFE804F0080F1113151518181515BF
:1023C0001B1B1D1F22005020FFF7C8FF0135AE4226
:1023D000EDD170BD5120F7E75220F5E74F20F3E72C
:1023E00040F24F10F0E74FF4A870EDE74A20EBE71A
:1023F0004D20E9E740F24D10E6E74FF4A570E3E722
:102400004B1EDBB20E2B10B5044608D8012AB8BF0C
:1024100001221146094A32F81300FFF7A1FF062CEA
:1024200005D140F21B10BDE81040FFF797BF072C05
:1024300040F21B1018BF4FF48370F4E75A210108D3
:10244000012938B50D46B8BF01251C280C464FF0B0
:102450004A000FD1FFF782FF4A20FFF77FFF40F2CB
:1024600051202946FFF77CFF4FF48370BDE83840C8
:10247000FFF774BFFFF772FF4A20FFF76FFF40F2CC
:102480004D20FFF76BFF012C04DD40F25120691E47
:10249000FFF766FF40F21B10FFF760FF2A20E5E719
:1024A0000B461146A3F10B02012A10B504460AD8C7
:1024B00040F22B2040F237239C4208BF2B20BDE87E
:1024C0001040FFF74BBF013BDBB20E2BF0D8044AA4
:1024D0000129B8BF012132F81300FFF741FFE7E7F8
:1024E0005A21010838B50C4605464A20FFF736FF49
:1024F0004A20FFF733FF012C04DD40F25120611E1A
:10250000FFF72EFF40F2372340F22B209D4208BFF9
:102510002B20BDE83840FFF721BF08B54A20FFF760
:102520001DFFBDE8084040F24D20FFF717BF01290D
:10253000B8BF012100F25120FFF712BF40F24D2039
:10254000FFF70CBF10B51446A8B101290EDD5220CB
:102550000139FFF705FF4A20FFF700FFC4F1010131
:1025600040F25220BDE81040FFF7FABEF3D05120F0
:10257000C1F10101EDE7002903DA51204942FFF7DB
:10258000EFFE4A20FFF7EAFE002C04DD214640F270
:102590005120FFF7E5FEBDE8104040F24D20FFF767
:1025A000DDBE08B540B901290CDD52200139FFF725
:1025B000D7FE4A20FFF7D2FEBDE8084040F24A307D
:1025C000FFF7CCBEF5D05120C1F10101EFE710B506
:1025D0000C4658B14D20FFF7C1FE002C03DA512004
:1025E0006142FFF7BDFE4A20FFF7B8FEBDE810408C
:1025F00040F24D30FFF7B2BE10B5044619B940F2B3
:102600004F20FFF7ABFE132C1AD004D8062C10D0A5
:10261000072C08D010BD1C2CFCD14FF48370FFF7A1
:102620009DFE292001E040F21B10BDE81040FFF79D
:1026300095BE40F21B10FFF791FE4FF40A70F4E7CD
:1026400040F21910EBE71A2837D00DD8053883B2BD
:102650000A2B41D80A283FD8DFE800F0323E3E2F4F
:102660003E3E223E26292C0040F20A23984230D0DA
:1026700009D840F20523984222D0B0F5027F1CD041
:10268000272820D0704740F2212398421ED040F2E4
:102690002323984217D040F21A2398420DD0704756
:1026A0004FF41470FFF75ABE40F25120FAE740F29F
:1026B0005220F7E740F24F20F4E740F24F30F1E7C5
:1026C0004FF45470EEE740F24A20EBE740F24D2021
:1026D000E8E740F24D30E5E770474C20FFF73EBE9B
:1026E0002A20FFF73BBE08B540F24F20FFF736FE29
:1026F000BDE808404C20FFF731BE08B540F24D2040
:10270000FFF72CFEBDE8084040F21B10FFF726BE85
:10271000FFF7F3BF08B540F24D20FFF71FFEBDE8FD
:1027200008404FF48370FFF719BE08B510B1502070
:10273000FFF714FEBDE8084040F21910FFF70EBE87
:1027400008B54D20FFF70AFEBDE808404C20FFF712
:1027500005BE40F21D10FFF701BE4FF48B70FFF76E
:10276000FDBDB0F5017F08B51CD004D8042817D0F2
:10277000122819D008BDB0F5037F0CD040F2122307
:102780009842F7D14A20FFF7E9FD4FF40A70FFF7AE
:10279000E5FD522000E04A20BDE80840FFF7DEBD1D
:1027A0004F20F9E74D20F7E74D20FFF7D7FD4FF415
:1027B0000A70F1E70023034A1360034A1370034AC7
:1027C00013707047801800207D1800207C180020AE
:1027D00027283CD015D80F280ED8042839D9053819
:1027E0000A2836D8DFE800F02F3535313535063583
:1027F000372B2D00012070471A2814BF0020052018
:10280000704740F21A23984227D00DD8B0F5027FC6
:1028100025D040F20A23984223D040F20523C31A60
:1028200058425841C000704740F2212398421AD0C4
:1028300040F2232398420CBF0C2000207047032055
:1028400070470420704707207047092070470B200D
:1028500070470020704702207047062070470A200A
:1028600070470E2070470D207047000008B50548DE
:10287000FFF719FD0023044A1370044A1370044A39
:10288000137008BDB0180020C01800208518002063
:10289000841800206329F8B50B46A8BF632322499A
:1028A000012B0978B8BF012331B11946FFF73FFE6C
:1028B000BDE8F840FFF742BE00B15B426FF0630431
:1028C0001A4F3D682B449C42B8BF1C46642CA8BFDD
:1028D0006424611B00291AD0154E307805DB40B9FD
:1028E000FFF725FEFFF72AFE10E0291B80B101202B
:1028F0000AE0002B07DD224629460020FFF722FED2
:102900000023337002E00020FFF711FE3C60F8BDA9
:10291000002B01DB0120E3E7224629460120FFF7D7
:1029200011FE0123EDE700BF7C1800208018002075
:102930007D18002010B50024084B1C70084B1C703B
:10294000FFF738FFFFF792FF064B1C60064B1C6039
:10295000064B1C70BDE81040FFF7F2BCC218002007
:10296000C11800209C18002088180020861800201C
:10297000FFF7E0BC9C4B2DE9F0471B780446002B89
:1029800000F0DA83994E9A4F33785A1E022A00F2E9
:10299000D383023B012B5FFA84F900F23981204690
:1029A000FFF75CFBB9F1290F80463578914F1FFA8C
:1029B00089F00CD1032D01D1FFF7D0FC0123337036
:1029C00000238D4A3B701370FFF7F4FE1BE097F86D
:1029D00000A0BAF1000F1ED00023874AB8F1060FFD
:1029E0001370864A3B7013600DD1032D0ED1844CB9
:1029F000844D207800B92878834B1968FFF7D1FD02
:102A000001232B702370FFF731FF22E040F24A30A0
:102A1000FFF7A4FCF7E7B8F1020F1CD1764B1B7847
:102A200013B375490A78012A13D874480A25036834
:102A30000132632BA8BF6323272C08BF002405FBAA
:102A400003F318BF1D3C2344632BA8BF63230A7004
:102A50000360002071E3B8F10A0FE2D0B8F1060F6D
:102A600002D101233B70F4E70023634F63483B70BE
:102A7000FFF71FFC1C2C814605D8122C11D8062C00
:102A800040D0072C28D0B8F10E0F61D1032D54D1BE
:102A9000192C03D102233370FFF78CFE00233B7007
:102AA000B1E7A4F11303092BEDD801A252F823F0EA
:102AB000272B0008872A0008872A00081D2B0008FA
:102AC000872A0008872A0008872A0008872A000822
:102AD000D92A0008F32A0008032D05D10720494B05
:102AE0001978FFF789FD01E0FFF712FE012333702B
:102AF0006AE7032D03D1434B1C201978F1E7FFF758
:102B000009FEF3E7032D06D13E4B06201978FFF7A7
:102B100073FD0023EBE7FFF7F0FDFAE7032DF3D099
:102B2000FFF7E1FDF5E7032D03D1364B13201978AC
:102B3000D7E70020FFF7F9FDD8E740F219239C42C0
:102B4000ACD103233370FFF735FEFFF7E6FCA5E7B2
:102B5000B8F1040F14D8B8F1000F9FD0032D3CD169
:102B60001A2C22D8042C99D90123284AA3401A40B0
:102B70003ABB44F22002134290D04946012022E0A1
:102B8000B8F1050F8AD1032D29D11D4C1D4D237895
:102B90000BB995F800A01C4B50461968FFF717FDBC
:102BA00000232B700123237078E7B4F5027F08D04F
:102BB00040F21A239C4204D040F205239C42DCD010
:102BC0006CE749460020FFF765FE67E72046FFF700
:102BD0003AFD0135A945F9DC60E70025FAE7204612
:102BE000FFF731FD5AE700BFC2180020C1180020CE
:102BF000C01800208418002085180020B01800207C
:102C00007C1800207D18002080180020002100047E
:102C10003A782046052A2AD82A23D340DA0726D52F
:102C2000FFF732FBB9F1290F05463B7822D1002B83
:102C300000F07C82FFF71AFE0022A74B1A603B7857
:102C400073B9A54D2C68002C0ADDA44B1F783FB941
:102C5000A349A4486200FDF741FEA34B2F601C600E
:102C60003378002B7FF4F5AE9B4A1360F1E6FFF753
:102C7000F5F9D7E7072B00F26781DFE813F00800CA
:102C8000D3003B018601BA01F3013F025102431E0A
:102C9000182B00F24B82DFE813F05400540054006C
:102CA00054005B004F005200240048001900490204
:102CB0005E0065006900A400770077007700770068
:102CC0007700770077007700770077000123272CC3
:102CD0003B7008BF0023854A18BFA4F11D03136091
:102CE00005E0022301223B70804B1C811A732046B1
:102CF000FFF7D2FA0028A2D02046FFF7AFF901383B
:102D0000C0B218289BD87A4BC340DB0797D5734BCA
:102D10001B78002B93D1704A1368072BDFBF591C17
:102D200011606F4A22F8134089E7042301223B70A7
:102D30006E4B5C815A73DAE706233B70D7E70723B3
:102D4000FBE72046FFF744FD0121FFF729FBCEE713
:102D500001210E20F9E701210620FFF771FB002376
:102D60003370C4E72046FFF7FCFCF8E740F2192176
:102D70008C4214BF022103213170FFF71BFD032990
:102D8000B5D1FFF7CAFBB2E7A0F111054FF000087B
:102D9000082D23D8DFE805F01F0508101316191DAC
:102DA0000B00FFF79AFCA2E7FFF79AFC9FE7FFF7FB
:102DB0009AFC86F800809AE7FFF79FFCF9E7FFF797
:102DC000A7FC94E7FFF7A6FC91E70020FFF7ADFC16
:102DD0008DE70120FAE7FFF7B3FC88E7FFF7B9FCBE
:102DE00085E7DFF8F8A09AF80050002D7FF47FAF58
:102DF000DFF8F480D8F80030002B3FF478AF0123DF
:102E0000DFF8E0908AF80030D8F800309D4203DB0C
:102E100000238AF800306AE739F8020BFFF7AAFDB1
:102E20000135F1E73148FFF744FA013D01460D2D28
:102E300000F28A8001A353F825F000BF932E00080A
:102E4000932E0008932E0008932E00089F2E000852
:102E5000392D00083F2D0008E32C00082B2D000819
:102E6000492F0008752E0008A52E0008B52E000871
:102E7000BD2E00081D4A1368092B3FF738AF0A2101
:102E8000272C01FB03F30CBF0021A4F11D010B440F
:102E900025E72046FFF79CFCFFF782FA07E00121B7
:102EA0000E20F9E70620FFF7CBFA00233370FFF777
:102EB000DDFC1CE72046FFF754FCF6E740F2192141
:102EC0008C4214BF022103213170FFF773FC0329E8
:102ED000EDD1FFF722FBEAE79C18002086180020BE
:102EE000A01800208C18002088180020B01800209E
:102EF000FF0BFF019248FFF7DCF9013D0246092D67
:102F000022D801A353F825F0552F00086B2F000895
:102F1000552F0008552F0008EB2F0008392D000809
:102F2000492F0008312F0008492F0008752F00088D
:102F3000834D2B899C4207D101462046FFF780FA3A
:102F40002B89062BB3D1B0E7FFF790FC00227D4B15
:102F50001A6019E52046FFF73BFC794D0146B5F8AC
:102F600008804046FFF74CFAEAE701220B21744D36
:102F70002889F7E70323272C3B7008BF0023704AFA
:102F800018BFA4F11D035360B1E6451E0A2DDBD81E
:102F900001A353F825F000BFC52F0008E730000853
:102FA000C52F0008C52F0008EB2F0008392D000899
:102FB000492F0008492F0008492F0008492F000811
:102FC000A13000082046FFF703FC5D4D80462846EF
:102FD000B5F80890FFF76DF96B68414603FB00F206
:102FE000632AA8BF63224846BCE701220E21544D44
:102FF000BEE75348FFF75DF9013D0246092DA3D80E
:1030000001A353F825F000BF4330000857300008F3
:103010004330000843300008F7300008392D00081D
:10302000492F0008492F000831300008613000089E
:10303000434B5B899C4287D101462046FFF752FAF9
:1030400035E73F4B20465D89FFF7C2FB0146284626
:10305000FFF726FA2BE701220B21394B5889F7E7B6
:10306000052388E7451E0A2D3FF66EAF01A353F8EE
:1030700025F000BFBF300008E7300008BF3000086F
:10308000BF300008F7300008392D0008492F00082C
:10309000492F0008492F0008492F0008A1300008D7
:1030A000274A5368092B3FF722AE0A21272C01FB40
:1030B00003F30CBF0021A4F11D010B4463E720467C
:1030C000FFF786FBDFF8789005464846B9F80A8096
:1030D000FFF7EFF8D9F8042029464243632AA8BF36
:1030E00063224046B4E7164A5368092B3FF7FFAD09
:1030F0000A214B4347E701220E21AEE706287FF461
:1031000023AF0F4D2B7B13B101220F2130E76B7BD7
:103110001BB101220F2168899AE701210F20BBE62C
:1031200007287FF411AFFFF718FBC0E6054B1A68BC
:10313000002A01DD00221A600120BDE8F08700BFEF
:10314000B01800209C180020FFF714B9014B187824
:10315000704700BFC1180020014B1878704700BFAE
:10316000C2180020024B1878003818BF01207047A1
:10317000C0180020034B1B7813B9034B1878704715
:1031800001207047851800208418002008B5FFF73B
:103190006DFB0022014B1A6008BD00BF9C18002087
:1031A00008B5054B1870FFF705FBFFF75FFB002222
:1031B000024B1A6008BD00BFC11800209C180020F7
:1031C000012208B5054B1A70FFF7F4FAFFF74EFB22
:1031D0000023034A1360034A137008BDC21800207D
:1031E0009C180020C118002010B50024044B1C704E
:1031F000FFF73CFB034B1C60BDE81040FFF7A0B895
:10320000C21800209C18002008B5FFF72FFB0022F1
:10321000014B1A6008BD00BF9C1800200D49F0B595
:1032200000220D460C4C2378D6B2B34201D80020C0
:103230000CE031F8027B561C874208D10120013B8B
:10324000DBB2237035F8133025F81230F0BD32466A
:10325000EAE700BFC4180020C318002070B5C5B24B
:10326000C4042A464FEA102321D503F00F03013B83
:10327000DBB2072B54D82F49CC5C502A46D0512AB8
:1032800046D0522A46D04F2A21D10326FCB92A4BD8
:103290009C5DE4B10022294C9A55A35D33B9284BBB
:1032A00013F8160005F0C0F90123A35570BD03F013
:1032B0000104980748BF44F00204590748BF44F08E
:1032C00004041B07D9D5502D44F008042ED106F074
:1032D0005BF820EA04068443F6B202D0204605F0EB
:1032E00049FA16B1304605F04EFA284605F09CF929
:1032F000284605F0E1F916B1304605F03BFA002CFE
:10330000D4D02046BDE8704005F03DBA0026BDE7A8
:103310000126BBE70226B9E70026B8E70126B6E793
:10332000502DF9D0512DF9D00024AAE7512DA8D164
:10333000CDE700BF78210108E9180020E51800203A
:1033400088210108A0F1E002072A08B506D929283A
:1033500004D000F007FA00F0010008BD0120FAE7F0
:103360000E4970B500220D4604460D480378D6B2CA
:10337000B34206D8102B0AD05A1C027025F813400D
:1033800004E031F8026B0132A642F0D170BD05496C
:103390001E22881EFDF778F9EC83F7E7C418002099
:1033A000C3180020C618002010B5064C237843B976
:1033B000054B1B789B0704D4022005F0DBF90123A1
:1033C000237010BDE4180020ED180020E03880B212
:1033D00007280BD8064B1B5C43B10648027811B195
:1033E00013430370704722EA03020270704700BF64
:1033F00080210108ED180020014B1878704700BFAC
:10340000ED1800202DE9F041002425460D4E0E4F09
:10341000DFF8388016F8013B2BB118F8140005F0DE
:103420004BF906F8015C0134042C07F8015BF1D17B
:10343000074C23781BB1022005F0A5F92570BDE8E3
:10344000F08100BFE5180020E9180020882101085C
:10345000E4180020FFF784BF08B5FFF76BFA0D48AA
:10346000FFF786FAFFF7ACFE0020FFF799FE002376
:10347000094A0A4913700A4A0B701370094A4B70C3
:103480001370094A8B70137053709370CB70D370A4
:1034900008BD00BF5D320008ED180020E9180020CB
:1034A000C3180020E4180020E5180020FFF74CBEE8
:1034B0000B282DE9F84304462AD00D282AD00E28DF
:1034C0002AD00F2814BF4FF0FF3503254E792EBBAD
:1034D000E52C06D1444F3B781BB1022005F053F98F
:1034E0003E70681C0BD00027404B414E5F55735D0A
:1034F0002BB1404B13F8150005F0DEF87755204648
:10350000FFF78CFE80F00106F6B23046BDE8F88386
:103510000025DBE70125D9E70225D7E7FFF71CFEE9
:103520000028F2D0E52C04D12046FFF719FF002631
:10353000EBE7A4F1E003072BE7D92F4F3B7813F01B
:10354000DD0F26D0691C30D0FFF70CFE68BBFFF7FB
:10355000FDFD0128804628D12046254CFFF700FFBD
:10356000635D002BE3D1234B13F8150005F05CF8E5
:1035700004F80580DBE7FFF7FDFDD0B93B789A063C
:10358000C3D52046FFF7DEFE0028BED1FFF70CFFB3
:10359000BBE713F0220F0CBFA14644F40079484664
:1035A000FEF77AFE40B9292C06D0FFF7DBFD002894
:1035B000E1D0FFF7EBFDE1E7FFF7D4FD8046484699
:1035C000FFF7D8F90028D9D12046FFF7C9FE6B1CB8
:1035D000ADD0B8F1000FAAD1FFF7B8FD012804BFA4
:1035E000024B5855A3E700BFE4180020E91800205B
:1035F000E518002088210108ED180020044B1A6806
:10360000044B11781878044B1B78184305F07ABBEB
:1036100028190020C8240020C924002070B50424E3
:1036200000260E4D35F8020B20B1C0B205F044F86B
:1036300025F8026C013CF5D1D12005F03DF8D220EF
:1036400005F03AF8064B1C70064B1C80064B1878A8
:10365000FFF7A6FDBDE87040FFF7D4BE14190020A7
:103660001C1900201E19002026190020174B70B5C8
:103670001A7822B30024164E164D1C703278E3B22D
:103680009A421DD8144D154C2B7813F0010F05D01C
:103690002378D90702D4E02005F00EF82B789A079A
:1036A00005D523789B0702D4E42005F005F8002314
:1036B0000B4A2B7013700B4A23703370137070BD5C
:1036C00015F8130004F0F8FF0134D7E70C190020B7
:1036D000F2180020F4180020EF180020EE18002047
:1036E000F1180020F018002038B505460C4612B934
:1036F0000024204638BD90470028F9D06479002C7A
:10370000F6D0FFF72FFD28B1FFF740FD2846FFF761
:10371000A1FEEEE7FFF72EFD0028F5D1F6E708B58C
:103720000BF042F9012838BF012080B208BD10B566
:103730000C4628B10BF03DF9A04234BF0020012017
:1037400010BD08B50BF0F8F8012838BF012008BDFE
:1037500010B50C4628B10BF033F9A04234BF00205D
:10376000012010BDA0F58043B3F5955F07D3A0F508
:10377000A54040381F288CBF002001207047012041
:10378000704738B5054605F0FFFD044605F018FE04
:10379000284604F0DFFD2046BDE8384005F00ABEAB
:1037A0004B20FFF7EEBF4E20FFF7EBBF40F20910B2
:1037B000FFF7E7BF08B55120FFF7E3FFBDE808407A
:1037C0004A20FFF7DEBF08B55220FFF7DAFFBDE859
:1037D00008404A20FFF7D5BF4F20FFF7D2BF502047
:1037E000FFF7CFBF2DE9F84FA24F04460D46904694
:1037F0003A60FFF7ABFC10B100229F4B1A602046E5
:103800006979FFF7E3FD392C9C4E3ED195F805A070
:103810009B4BDFF87092BAF1000F2AD001221A7088
:10382000FFF7ECFE337880F0010089F800000BB15F
:10383000FFF71CFF99F80030BBB133780BB1FFF7ED
:1038400015FF01233370FFF7D7FD00F011000028AA
:1038500016BF0122002203208B4B1A708B4B8C4A1F
:103860001870002313708B4A13703920FFF7F2FD94
:10387000DEE099F800B01A7883F800A0BBF1000FE1
:1038800066D0FFF7F3FE89F800A03378002B00F034
:103890009D802046FFF766FF0646002840F0968090
:1038A000FF2C00F29380A4F11E039BB2102B6A79C7
:1038B00066D87949CE5C002A65D1002E14BF304607
:1038C00020467649002289468E46DFF8C8C19CF81A
:1038D00000305FFA82FA534578D939F802AB0132E9
:1038E0005045F6D100225FFA82F94B450ED931F8E6
:1038F00002AB02F10109504540F0EF80013BDBB221
:103900008CF800303EF813302EF81230C0B204F0BC
:10391000D3FE002E5AD15E4A1378002B56D0013BBD
:10392000DBB21370002B51D15D4E3378DA074DD5E1
:10393000554B1B78002B49D1544B1B78002B45D19C
:10394000E02004F0B9FE337823F0010333703DE04A
:10395000002A9AD0FFF700FC474B80F00100C3F823
:1039600000B03B68C0B2DB6A1BB19847FFF74AFD65
:103970008BE710B1FFF724FCF8E7FFF735FCF5E71C
:10398000002A00F09380DFF80C9199F800300B2B9F
:1039900001D920466AE76EB1304604F045FE99F839
:1039A00000300B2BF5D85A1C89F800203B4A22F82E
:1039B0001360EEE7E02C344B3DD0E42C3DD10221E6
:1039C00001221A70314A13780B431370294620469E
:1039D000D8F81C20FFF788FE50BB2046FFF7C2FE38
:1039E00070B9FFF70BFE58B13B685B6A002B76D0CD
:1039F00020469847002872D03B689B6A002B7CD1F8
:103A000029462046D8F82020FFF76EFE064678B9F2
:103A10003B6895F805805B88A34240F0A680214D65
:103A2000214CB8F1000F73D0FFF779FE2670288083
:103A30000020BDE8F88F0121C2E71B783BB9184D83
:103A40002B7823B9E02004F0EFFD01232B70104AFE
:103A5000E0B213780133137004F0E6FD99F80030FA
:103A60000B2B96D85A1C89F800200C4A22F81340D8
:103A70008FE700BF28190020101900200C19002022
:103A80000D1900200E190020F0180020EE1800205B
:103A9000F1180020F218002090210108F4180020ED
:103AA000EF1800202419002022190020E02C0ED04D
:103AB000E42C0FD16FF002030021A44A1170A44935
:103AC0000A781A400A70A34A11780B407DE76FF01C
:103AD0000103F1E720461646F3E64A4603E76B7911
:103AE000002B8DD0FFF73EFB10B1FFF74FFB50E7E7
:103AF000FFF740FB0028F8D14BE72046697998474B
:103B000000283FF47DAF6B79002B3FF479AF40E79D
:103B100023785BB1904E308810B1C0B204F0CCFD78
:103B20000023338000232B80237081E72B88002B18
:103B3000F8D0FFF70BFB042802D1FFF76FFDF1E788
:103B40003B68DB686BB9FFF707FB0028EAD0FFF79B
:103B5000FDFA824B1870FFF755FC0420FFF720FB9D
:103B6000E0E798470028EED1DCE7FFF7EFFA0428FA
:103B70000DD1A4F1E003072B2DD8B8F1000F06D02A
:103B800024F00403E12B3FF404AFFFF747FDFFF7F8
:103B9000E3FA002800F0D0803B689B7C002B00F00B
:103BA000CB80292C40F0CA806B79002B00F0C680B6
:103BB000FFF7CCFA002840F01481FFF71DFC10F04D
:103BC000DD0F40F00E81830740F1AF8040F23520D9
:103BD000FFF7D7FDDDE6FFF70FFCB8F1000F46D089
:103BE0000F2C15D80A2CD0D9A4F10B0300F0220019
:103BF000042BCAD801A252F823F000BF233C0008CE
:103C00008B3B0008313C0008453C0008593C00084B
:103C1000282C28D02C2CB8D1FFF781FD504B1880D0
:103C2000B7E6CF204F4B188004F0FEFC0B201DE6BA
:103C300000280CBFCE20DA204A4B588004F0F4FC58
:103C40000D2013E600280CBFCD20D920454B9880CD
:103C500004F0EAFC0E2009E6D020424BD88004F0A4
:103C6000E3FC0F2002E6D22004F0DEFC91E60F2CEC
:103C700012D80A2C8BD9A4F10B03042B87D801A2EC
:103C800052F823F0BD3C00088F3B0008D33C0008ED
:103C9000E93C0008FF3C0008282C42D02C2C7FF483
:103CA00076AFDFF8C4902E4E99F80030002B31D05B
:103CB000D12004F001FD89F8008007E0294E30880A
:103CC00000283FF464AFC0B204F0F6FC0023338058
:103CD0005DE7244E708800283FF459AFC0B204F06D
:103CE000EBFC0023738052E71E4EB08800283FF49F
:103CF0004EAFC0B204F0E0FC0023B38047E7194E9A
:103D0000F08800283FF443AFC0B204F0D5FC002394
:103D1000F3803CE73388002BD8D0D12004F022FD7B
:103D2000D4E7D22004F0C8FC31E7002859D0352070
:103D3000FFF727FD292099E5292C52D06B7953BB39
:103D400029462046BDE8F84FFFF7B2BBF018002027
:103D5000EE180020EF18002020190020261900205E
:103D60001E190020141900201C1900202C4E306848
:103D700038B900233360FFF747FA0120FFF710FA44
:103D8000D8E740F6B831FFF7E3FC0028F1D1FFF7A0
:103D9000D8FC3060D2E7FFF7DFF90028D0D0FFF77A
:103DA000D5F90128CCD13B681B6B002BC8D0FFF79D
:103DB00023FB3B681E6B3788002FC1D0BC420ED15D
:103DC000F378B278034032B94BB9FFF71DFA736844
:103DD000984738464AE5134201D09343F5D0083658
:103DE000E9E76B79002BA9D0FFF7B6F90028A5D039
:103DF000FFF702FB10F0DD0FA0D1FFF7A7F9831E3C
:103E0000DBB2012B9AD90128B0D1FFF7ABF900281A
:103E100094D1FFF7C5F9FFF794FC014B18608DE7CB
:103E2000101900200023134A1360134A1370134A19
:103E30001380134A1370134A1380134A1380134AD2
:103E40001370134A138053809380D380114A1370E8
:103E5000114A1370114A1370114A1370114A1370EA
:103E6000114A1370114A1370114A1370114A1360EA
:103E7000FFF7F2BA28190020261900202419002083
:103E800022190020201900201E1900201C190020D2
:103E9000141900200E1900200D1900200C19002003
:103EA000F2180020F1180020F0180020EF18002070
:103EB000EE1800201019002038B51C4CFFF7F6FA58
:103EC0002368002B30D01A4A1088A0B1194D2A78E7
:103ED0008AB9198AFFF72BFC68B101232B7023687C
:103EE0009B68F3B19847E0B12368D888124B1880DB
:103EF000C0B204F099FBFFF729F9042814D10F4B45
:103F0000188888B10E4D2B7873B92368198AFFF78A
:103F10000EFC48B10123D1202B70BDE8384004F0DD
:103F200083BB23689888E1E738BD00BF28190020CB
:103F30002419002022190020201900201E19002019
:103F40001C190020024B186800B1808A704700BF1E
:103F50002819002083B990B1022913D0032915D064
:103F6000012915D1BAB91046FF2300990A70019AA8
:103F70001070029A137070470022FF20F4E7FF22AE
:103F80000346F2E7802218468023EEE7FF22FAE795
:103F90001A46FF20E9E7FF221046E6E708B5FFF7DB
:103FA000DBF808B9002008BDFFF7D0F80028F9D1E8
:103FB000054B18680028F6D040F6B831FFF7C8FB6B
:103FC00080F00100C0B2EEE710190020F8B50746F6
:103FD0000E461546FFF7E2FF70B10A4B1C6864B14C
:103FE000A36963B10FB11B0C3B7016B1A3691B0A27
:103FF00033700DB1A3692B70F8BD2046FCE718465D
:10400000FAE700BF28190020032806D8B42250433D
:1040100000F12401014806F037B870472C19002040
:10402000032838B50FD80A4C2378012B4FF0000332
:1040300009D16578A84208D1237009B9012038BD9B
:10404000FFF7E2FFFAE70020F9E71846F7E700BFBD
:104050005C0C0020F7B504460D4608F097FD2B4E8A
:104060002B4F7080E0B285424ED90021294A0FE0E3
:104070001CF801EBBEF1FF0F01D0864518D00133CB
:10408000DBB20F2BF4D10131062902F10F0239D036
:1040900094460023ECE7012906D1012B04D100222C
:1040A0007388ADF8002015E07388ADF8000011E0CA
:1040B0003A683AB31E2000FB012232F8131032F89E
:1040C0001300090A12F8133040BAE4D1002BEBD1E7
:1040D000ADF800308DF80230009806F053FBC0F3C5
:1040E00007238DF80400C0F307408DF805308DF8E4
:1040F00006009DF8063020469DF804209DF8051026
:1041000007F048F80134ADE703B0F0BD5C0C0020C7
:10411000E0190020EE0D00202DE9F04105460E4685
:104120001746002400F12408B44201D1BDE8F08113
:104130002B19B3F5347F06D208EB040005F056FFC7
:1041400038550134F0E70020FAE72DE9F041054643
:104150000E461746002400F12408B44201D1BDE800
:10416000F0812B19B3F5347F04D2395D08EB0400DC
:1041700005F0A4FF0134F0E741EA020370B40D46F4
:1041800050EA030104D170BCB4220A48FCF720BBFA
:1041900000241E260F2306FB04F10648013B13F002
:1041A000FF03057042700844F8D10134062CF1D1A8
:1041B00070BC70472C190020032806D8B422504345
:1041C00000F12401014805F0A7BF70472C19002019
:1041D000074B084A10B51A600023074C2370607023
:1041E00008F0D4FC60806078BDE81040FFF7E4BFC1
:1041F000E01900202C1900205C0C0020032808B5D1
:104200000CD8074A5070FFF7D7FF08F055FC2D284F
:1042100002D02D2008F04DFC012008BD0020FCE755
:104220005C0C0020032808B511D80A4A117871B92E
:10423000012150701170FFF7BFFF08F03DFC2D28E1
:1042400001D1012008BD2D2008F033FCF9E7002042
:10425000F8E700BF5C0C0020024B1878431E584260
:10426000584170475C0C002070B5114B1B78012B36
:104270001CD1104A126892B11E244878097804FBB8
:1042800000220D4832F81140054630F8026BA64274
:1042900007D103F0070335F8133022F8113001205D
:1042A00070BD0133092BF0D10023F6E70020F7E7BA
:1042B0005C0C0020E0190020782201084FF43472D1
:1042C0002421014805F0E0BE1424010838B500247B
:1042D000064D08F0F1FB15F8013B984204D001347B
:1042E000192CF6D1002038BDE0B2FCE75F220108AE
:1042F00008B5FFF7EBFF00F53E7005F077FE0828E4
:1043000028BF002008BD000038B50446FFF7DEFFD7
:10431000104B1B78012B07D01922431CDBB2B3FBD7
:10432000F2F102FB1133D8B20B4B185C207008F08D
:10433000C0FBFFF7DDFF094B13F8104003EB400310
:104340005D7808F023FC294602462046BDE8384047
:1043500008F0F5BB5C0C00205F2201084A2201082E
:10436000032810B504460AD8FFF726FF204601218E
:10437000FFF756FE2046BDE81040FFF73FBF10BDD7
:10438000B4235843C1EB01111144243000EB410028
:104390007047032838B510D805290ED80E2A0CD836
:1043A000FFF7EEFF054605F021FE0446681C05F008
:1043B0001DFE44EA002080B238BD0020FCE703283F
:1043C00070B51C460FD805290DD80E2A0BD8FFF75B
:1043D000D7FF0546E1B205F071FE210A681CBDE871
:1043E000704005F06BBE70BD08B54FF43E7005F02F
:1043F000FDFD082828BF002008BD000070B508F0AA
:104400005BFB0723144A12F8011B814221D0013BB8
:1044100013F0FF03F7D10724FFF7E6FF0130C0B226
:10442000B0FBF4F304FB13000C4BC4B213F81050B0
:1044300003EB40035E7808F0A9FB314602462846AC
:1044400008F07DFB21464FF43E7005F0FAFD204652
:1044500070BD0624E0E700BF582201084A22010887
:1044600070B5FFF745FF044607281CBF0B4B1C5CCB
:104470000B4B13F8145003EB44035E7808F086FBF3
:1044800031460246284608F05AFBFFF71FFF214637
:10449000BDE8704000F53E7005F0D3BD4322010831
:1044A0004A22010870B5FFF723FF044607281CBF06
:1044B0000B4B1C5C0B4B13F8145003EB44035E785E
:1044C00008F064FB31460246284608F038FBFFF747
:1044D000FDFE2146BDE8704000F53E7005F0B1BD1F
:1044E0003C2201084A2201087FB51E4B1B78002B95
:1044F00033D000221146104606F0B8FE00250A26E9
:1045000001AC0A22184901A8FCF7E8F901F09AF970
:104510000378EAB2B3FBF6F3934200D8FDB901F099
:1045200091F90378312B04D900239622194620787B
:104530000CE001F087F903461B7820781D2B4FF023
:10454000000387BF962219461A469621013506F0C8
:1045500021FE0A2D04F10104D3D104B070BD002363
:104560001A46E3E744440020E42101082DE9F04322
:104570000D46144689B00C2848D8DFE810F00D002D
:104580004A008100C100460151015F016D017801BF
:104590008301A501B301BF01C04FC14E38680AF0C5
:1045A0000FFA0E2805D90AF0C7F9338838600333AB
:1045B000338004EB84042C446FF007084725FF2761
:1045C000E4B208FB05F3328803F596631344B3FBAA
:1045D000F7F213448DF804308DF805708DF806401D
:1045E000019806F0CFF8C0F30721C0F307438DF818
:1045F00008008DF809108DF80A30C2B2DBB22846E7
:10460000C9B2013506F0C6FD972DDAD109B0BDE873
:10461000F083A44FA44E38680AF0D2F90E2805D9C9
:104620000AF08AF9338838600333338004EB84045A
:104630002C44FF270025E4B233888DF8057003EB86
:10464000C503B3FBF7F213448DF804308DF8064030
:10465000019806F097F8C0F30721C0F307438DF8DF
:1046600008008DF809108DF80A30C2B2DBB205F1EE
:104670004700C9B2013506F08DFD502DDCD1C5E7EC
:104680008A4F8B4E38680AF09BF90E2805D90AF03C
:1046900053F9338838600333338004EB84042C44AB
:1046A0004FF00C080025FF27E4B2282DEBB28CBF99
:1046B000283BC3F128033288DBB208FB0323B3FB9A
:1046C000F7F213448DF804308DF805708DF806402C
:1046D000019806F057F8C0F30721C0F307438DF89F
:1046E00008008DF809108DF80A30C2B2DBB205F16E
:1046F0004700C9B2013506F04DFD502DD5D185E7F3
:1047000005220023B1FBF2F2032C8DF809308DF85D
:104710000A308DF80D30ADF810308DF813308DF86B
:1047200014308DF817308DF818308DF81B30614F2C
:104730004FEA51038DF80C208DF81D30A1EB440297
:104740008DF81E308DF81F3098BF5B4BD2B23868A1
:104750008CBF0F241C5D8DF808108DF80B108DF8A0
:104760000E208DF80F208DF812108DF815208DF881
:1047700016208DF819108DF81A208DF81C200AF0DB
:104780001FF9A0424D4E4E4C0FD30AF0D5F84D4ABA
:1047900023781178386069B30133DBB2AB4201D2C0
:1047A000237002E00023257013704FF0470933781F
:1047B00003EB430320336B4413F8186C13F8177C96
:1047C00013F8168C2178484601FB08F301FB07F229
:1047D0007143B3FBF5F3B2FBF5F2B1FBF5F1DBB2DC
:1047E000D2B2C9B209F1010906F0D4FCB9F1970FB0
:1047F000E8D10BE70BB1013BD2E70121337811700F
:104800000B4403F007033370CFE74724002320460F
:104810001A462946013406F0BDFC972CF6D1F5E680
:1048200005264724B1FBF6F62046002332462946EA
:10483000013406F0AFFC972CF6D1E7E64725A1EB53
:104840008204E4B22846002322462146013506F0C0
:10485000A1FC972DF6D1D9E64724002320462A460D
:104860001946013406F096FC972CF6D1CEE6472483
:1048700020462B462A460021013406F08BFC972C5B
:10488000F6D1C3E64724002220462B4611460134C8
:1048900006F080FC972CF6D1B8E600BF001A002085
:1048A000FC190020F8190020F4190020F01900204C
:1048B000EC190020E819002088220108E4190020E2
:1048C000E5190020600C00204725A1EB8204E4B22A
:1048D0002846234600222146013506F05BFC972D31
:1048E000F6D193E647254C08284623462246214622
:1048F000013506F04FFC972DF6D187E647240023BB
:1049000020461A461946013406F044FC972CF6D18D
:104910007CE600BF38B50C460D4D78B10AF00CF8B6
:104920000C4B28601B7883B100F0C2FA58B100F03C
:10493000BFFA0022114600F001FA04E028680AF0EC
:104940003FF83228EAD8002038BD2370FBE700BFCB
:10495000081A002070240020014B1860704700BF27
:104960000C1A002070B500F069FF454C02782378DE
:104970009A4206D000F062FF002203782370414B78
:104980001A6001F04FFD0138C0B2062896BF3E4BB9
:10499000002653F8206000F051FF0378032B06D85F
:1049A000DFE803F0024C33070022364B1A60012087
:1049B00070BD344D2C6894B909F0BEFF334B2860AC
:1049C0001A78002AF3D01C7000F072FA054600F045
:1049D0006FFA22460146284602F058F8E7E72046DB
:1049E00047F22F5609F0ECFFB042E0D9FFF734FC54
:1049F0000028DCD109F0A0FF2860112001F0D4F8D4
:104A000044F620600BF0A9F914E001251D4C1F4B62
:104A100020681D7018B909F08FFF2060C7E709F002
:104A2000CFFFB042C3D3FFF717FC0028BFD109F076
:104A300083FF2060012000F073FCB8E7114C23686D
:104A4000002BE8D000F034FA062809D000F030FA44
:104A5000012805D000F02CFA022801D000F028FA35
:104A6000206809F0ADFF47F22F5398429FD9FFF716
:104A7000F3FB00289BD109F05FFF2060BDE700BF7A
:104A8000051A00200C1A00208C220108041A0020AC
:104A900007B58DF807100DF10701FFF73BFFFFF792
:104AA00061FF002003B05DF804FB00002B4B2DE9F3
:104AB000F0411B78BBB10F254FF00108284E56F886
:104AC000041B4B1C0BD021F00F0701F00F0108FA5B
:104AD00001F40122214638460CF0F0FBBC61013D97
:104AE00015F0FF05EBD1002280214FF080400CF043
:104AF000E5FB00BF00BF00BF00BF00BF00BF00BF9D
:104B000000BF00BF00BF00BF00BF00BF00BF00BFAD
:104B100000BF00BF00BF00BF00BF00BF00BF00BF9D
:104B200000BF302585F31188012207214FF0804016
:104B30000CF0E4FB002484F3118885F31188012232
:104B40000C214FF080400CF0D9FB84F31188BDE8B4
:104B5000F041062123200CF030B900BF6F24002063
:104B6000A8220108072804D0122804D1042000F04C
:104B7000B7BB0320FBE7704708B54FF080724FF0DA
:104B800080439A614FF0007240219A610F480022E1
:104B90000CF094FB002280210C480CF08FFB4FF4AA
:104BA00080030A4A93610022094B1A70094B1B7853
:104BB0005BB1112000F0F8FF44F620600BF0CDF857
:104BC000BDE80840022000F08BBB08BD0004004097
:104BD000592400206F24002010B5084C237863B1BD
:104BE00000F084FB033801289DBF002303202370BD
:104BF0000220BDE8104000F065BB10BD6F2400200E
:104C000010B5044609F098FE3B4B186023780A2B38
:104C100066D006D8072B36D0082B10D0FF23237080
:104C200018E0212BFAD16278344B002A5FD0A178AA
:104C30001A78002958D042F080021A700AE0A3784E
:104C4000013B032BEAD8DFE803F00206091201F06A
:104C5000E9FBE07010BD0423E370FBE76279217982
:104C6000E078FFF796FBA071000AE071F2E7E078C8
:104C70002379617940EA032040BAA21D80B2BDE8E1
:104C80001040FFF749BAA378013B032BC6D8DFE8F1
:104C900003F0020B101BE0780728DBD801F0CAFBF9
:104CA000BDE8104001F0CEBAE078BDE81040FFF753
:104CB00057BBE279A3792179E07843EA022362794C
:104CC000BDE81040FFF77BBBE0782379617940EACB
:104CD000032040BAA21D80B2BDE81040FFF735BAEC
:104CE000BDE8104002F062BA61F3C712A5E71B7875
:104CF000C3F3C013A370ADE70C1A00206644002074
:104D000010B5044609F018FE044B186023780A2BEE
:104D100001D102F04BFA002010BD00BF0C1A002098
:104D200008B500F08BFD0378022B03D100F08EFD57
:104D3000007808BD0020FCE700F070BDF8B515460E
:104D4000B0FA80F3B1FA81F25B0952099A42064641
:104D50000C4605D000290CBF0120022000F03EFACD
:104D60000F4F3B78A34200D13DB100F067FD032314
:104D7000037000F06BFD002303703C7004F0F6FC40
:104D80002946204600F0D6FF2A462146304601F04B
:104D90007DFE2A462146304603F0D8F8F8BD00BF14
:104DA000231A002037B5044600F048FD0378012B94
:104DB0000DD00025CDE9005500F040FD0378022B11
:104DC00007D0094B2A4619780846FFF7B7FF03B00A
:104DD00030BD24B1082221466846FBF77FFD6846B6
:104DE00000F04AFEF3E700BF231A002037B504465F
:104DF00000F024FD0378012B0ED0002500958DF8DE
:104E0000045000F01BFD0378022B07D00D4B2A46FF
:104E100019780846FFF792FF03B030BD74B163788C
:104E20008DF80030A3788DF80130E3788DF80230EA
:104E300063798DF8033023798DF80430684600F0EB
:104E400077FEE9E7231A002037B5044600F0F6FCA8
:104E50000378012B0DD00025ADF8065000F0EEFCD4
:104E60000378022B07D0114B2A4619780846FFF722
:104E700065FF03B030BD002CFBD0A278637843EA15
:104E80000223ADF80630813B022B09D801220DF137
:104E9000060002FA03F3ADF8063000F035FEE8E74D
:104EA0000DF1060000F01AFEE3E700BF231A002010
:104EB000014B1878704700BF231A002010B5174C1B
:104EC00000232278032A26D8DFE802F0020C151E00
:104ED0000A2213490846CB708A7009F065FB01234A
:104EE000237010BD0E4A9370F6231046D37009F05C
:104EF0005BFB0223F4E7F62209490846CB708A706F
:104F000009F052FB0323EBE7054A93700A2310468E
:104F1000D37009F049FB0023E2E700BF1A1A002012
:104F2000141A00207047000010B5FFF7FBFF00F0D7
:104F3000BBFA00F095FC01F057FB00F06BF901287B
:104F400003D1BDE8104000F06BB900F0B5F968B9C5
:104F5000074C206809F034FD40F6B733984205D974
:104F600000F04EFF10B109F0E7FC206010BD00BF5B
:104F7000101A00202DE9F04F8FB00E22002181463B
:104F800002A8FBF725FC00F059FC0378012B0AD09E
:104F900000F054FC0378022B08D05C4B00221978F7
:104FA0000846FFF7CBFE0FB0BDE8F08FB9F1000F58
:104FB00000F0A3804FF01E0800262022494606A8D4
:104FC000FBF78CFC524F9DF819300DF119043B7022
:104FD00014F8010FFBF722F908F1FF38304418F0FC
:104FE000FF08C6B2F4D14B4D4FF0060BAA461AF893
:104FF000013F93B300242246D3B29E420BD89AF8C5
:105000000030A34218BF8AF8008021E001331E2B34
:1050100004D11C4607E000230DF1190111F8010F1E
:105020000028F3D0DCB238336B4413F81E0C019225
:1050300003F085FA40EAC404E4B2214606A809F068
:105040007CFB9AF80030019AA34202F10102D3D10D
:105050000BF1FF3B1BF0FF0BC9D14946202206A8EC
:10506000FBF73CFC4FF000084FF001095FFA88F3B2
:105070009E420FD800F0D8FA002844D1244809F005
:1050800081FA02A800F011FD8DE701331E2B04D137
:105090001C4607E000230DF1190212F8011F002938
:1050A000F3D0DCB238336B4413F81E0C03F047FA2C
:1050B00040EAC404E4B2214606A809F03EFB2A46B1
:1050C000002312F8011FA14202D021B93B449C7079
:1050D00008F10108CAE70133062BF2D16F2CF7D88B
:1050E0000EAB03EBD40313F8302C04F0070409FAD9
:1050F00004F4144303F8304CEAE708224946044814
:10510000FBF766FBB6E7FFF70FFFB3E7231A0020B4
:105110001B1A00201C1A002008B5064B1B7823B967
:10512000054B1B780BB1FFF7C9FEBDE80840FFF740
:10513000FBBE00BF231A00204544002070B5044682
:1051400058B109F00DFA0C4B834205D0184609F00E
:1051500001FA0122094B1A7070BD00F06FFB037851
:10516000022BF9D1044D20466B6898472046AB6866
:10517000BDE87040184700BF640C002038100020C4
:1051800038B5044688B109F0EBF9114C84421ED0C1
:105190000122104B1A7001F0A1F90F4809F03CFFF1
:1051A0002046BDE8384009F0D5B90B4B1B78042BDD
:1051B00005D1074D6B6898472046AB68984706486D
:1051C0000BF037FB04480BF043FF01F08FF938BDBB
:1051D0003C1000208A4000204449002010B50C4BB0
:1051E00004461A78824204D00128187002D002289E
:1051F00007D010BD0020FFF7A1FF2046FFF7C0FF3A
:10520000F7E70020FFF7BCFF0120FFF797FFF0E76B
:10521000780C0020014B1878704700BF780C0020F4
:1052200010B50E4B0E4C1B78052B13D1206810B90E
:1052300009F082FB206009F0C3FB41F65733984226
:105240000AD9002301202360064BBDE810401870E6
:1052500000F066B80023236010BD00BF4449002061
:10526000241A00204644002010B50B4C2378052B4F
:1052700010D1B4F84C309B0708D509F00DFB28B1CC
:1052800020460BF061FB05480AF067FDBDE81040C1
:1052900009F024BB10BD00BF44490020A0860100D6
:1052A00008B5044B1B78012B01D1FFF7DDFF01206E
:1052B00008BD00BF780C0020014B1878704700BF74
:1052C000301A0020014B1870704700BF301A0020C0
:1052D00008B509F031FB014B186008BD2C1A0020FD
:1052E000014B1870704700BF2A1A0020014B187834
:1052F000704700BF2A1A0020302310B583F31188AD
:1053000000F0AEFD002484F3118872B600F0DEFEDA
:1053100000F034FE04F062FD84F3118862B610BD23
:10532000014B1870704700BF291A002010B5074CB8
:10533000237828B11BB1FFF7CBFF0323237010BDE7
:10534000002BFCD10122024B1A70F8E7301A002022
:10535000291A00200F4B70B51E6801F01FF90E4D81
:10536000044618B900232B7000240AE0FFF7A0FDC3
:1053700018B90A4B1B78042BF4D02B781BB10023EF
:105380002B70204670BD002EEED004F0E9F9B0423B
:10539000EAD3F4E77C0C0020291A002044490020BD
:1053A00008B501F00DF938B1044B186809F008FB95
:1053B000C72894BF0020012008BD00BF2C1A002080
:1053C0000120704708B5FFF7FBFF38B1044B1868A0
:1053D00009F0F6FAC72894BF0020012008BD00BFDD
:1053E0002C1A002070B5FFF763FD044668B9084E1B
:1053F0003578012D09D101F071F8304609F00CFE25
:10540000224621462846FFF799FC012070BD00BFC7
:105410004449002008B5FFF7E5FF38B1044B186890
:1054200009F0CEFAC72894BF0020012008BD00BFB4
:105430002C1A00207047000008B507F011FB003857
:1054400018BF0120044B187007F0FAFA09F03DFA72
:10545000FFF7F0FF08BD00BF281A0020002310B599
:10546000074C2370FFF788FBFFF746FF2378054AB8
:10547000022B18BF03231370FFF7AEFB10BD00BF54
:105480002A1A0020301A002008B5064B1B780BB1F1
:1054900007F0C4FA09F022FA01F02EFDBDE8084039
:1054A00004F064B9281A002010B5154C2378032B9A
:1054B0001BD8DFE803F0020A131BFFF74BFFA0B174
:1054C000FFF706FF012323700FE0FFF769FF60B1CC
:1054D000FFF7B2FFFFF7FCFE0223F4E7FFF772FFCE
:1054E00018B1FFF7F5FEFFF7B9FF10BDFFF792FF08
:1054F0000028FAD0FFF7C8FFFFF7EAFE0023E2E733
:10550000301A0020202938B505460C4610D1FFF787
:1055100081FE012806D122462946BDE838400220F6
:1055200009F0C2BD21462846BDE8384000F0E2BB84
:1055300038BD08F02EBF0000054A064B06495A60E8
:10554000116051609A60DA60002219611A70704728
:1055500018220020341A0020481A00202DE9F041BA
:10556000174C0E466768A56807F59C784545E368C3
:1055700004D19F4206D10020BDE8F08105F1080268
:105580009342F7E70F4B22699A1A312A9CBFA3F284
:10559000CF732361322EEED8236901463246184676
:1055A000FBF79CF9034645453344286023616B6053
:1055B00002D1A7600120DFE70835A560FAE700BF48
:1055C000341A002017220020074A10B5D3689268C9
:1055D000934207D0D3E90014641A2246FBF77EF900
:1055E000204610BD0024FBE7341A0020074BDA6880
:1055F00099688A4208D0596801F59C70824201D1AD
:10560000D96070470832DA60704700BF341A002052
:10561000014B1878704700BF341A0020014B1870F6
:10562000704700BF341A0020034BD8689B68C01A2B
:1056300018BF0120704700BF341A00201049002312
:105640000A4610B50C7C844212D11C2159435018D3
:10565000806850B1FF28515808D048434000411C91
:105660001C2000FB03220120516010BD0131F7E72F
:1056700001330A2B01F11C01E4D10020F5E700BF42
:10568000D00C0020F0B50A4E00253446377C874206
:1056900007D11C2000FB054041760276837601206D
:1056A000F0BD01350A2D06F11C06EFD10020F7E709
:1056B000D00C0020094A30B500231446157C8542E1
:1056C00005D11C22012002FB0344A16030BD01333F
:1056D0000A2B02F11C02F1D10020F7E7D00C0020C8
:1056E000094A30B500231446157C854205D11C2299
:1056F000012002FB0344616030BD01330A2B02F13B
:105700001C02F1D10020F7E7D00C002070B50B4C43
:1057100000232546267C864209D11C204343E818F5
:10572000E95000238260C3604374012070BD0133DF
:105730000A2B04F11C04EDD10020F7E7D00C002067
:1057400070B500252E462B4C6368002B4FD0E068C7
:1057500008BB637CB3FA83F35B09637409F0ECF86C
:10576000D4E900239342E0602BD266606674E66061
:1057700063690BB1207C9847207CFF2824D100224C
:105780001146104605F072FD0735462D04F11C0444
:10579000DAD1012070BD09F013F923689842D8D2FC
:1057A0006368002BE4D0204600F01EFD0028EBD0FB
:1057B000637C207CB3B1FF280CD1A27E217E607E69
:1057C000E0E79B1A6360EBE79628DDD800231A46D2
:1057D000194604E09628D7D8A37E227E617E05F084
:1057E000D9FCD1E7FF28CAD09628CDD8EFE763745B
:1057F000E360C9E7D00C00200246002330B50C1846
:1058000012F8015B2B44A242DBB2F9D1435430BD04
:105810000120704708B5FFF7FBFF08BD08B54FF43E
:10582000E13009F0D7F9FFF787FEBDE808402422F0
:1058300000210148FAF7CCBFAC2300200048704794
:10584000800C002000487047830C002000487047FF
:10585000810C002018B111B189B209F0EBB9704781
:1058600073B5FFF7D5FE03280FD8DFE800F040023C
:105870002D3B774B186809F0A3F80A2805D90022B8
:105880000220744B1A70FFF7C9FE734D734C09F078
:10589000DBF9002856D009F0C3F92A68012A38D06C
:1058A000022A3ED0002A5BD161282FD85F2804D875
:1058B000A0F15A03DBB2032BE9D8012302222B60AB
:1058C000674B20701A70E2E7624A13780133DBB24B
:1058D000282B02D813700020D5E700231370FFF7A0
:1058E00085FEF8E7FFF782FE0020FFF797FE5D4890
:1058F000FFF76AFE01460028C7D05A48FFF7AAFF03
:1059000009F01AF8524B18600120BCE7AF28BED14D
:10591000D3E70223524A2B6013786070013B137067
:10592000B5E72378612B0FD163780D2B18D10A28A6
:1059300016D1FFF76DFE012802D10320FFF76EFE9E
:1059400000232B6002B070BDAF2B09D16378602BB0
:1059500006D103232B60424BA0700130187096E7EC
:105960003F49531C2B600B78A054013BDBB20B70FA
:10597000002B8CD11946394810F8016B01313344A2
:105980008A42DBB2F8D8A25C9A422AD10322364975
:1059900001A8FAF7A3FF032101A809F04BF920465B
:1059A0002978FFF737FF0028CCD02378602B0AD85E
:1059B000592B16D95A3B062B13D8DFE803F01519DB
:1059C0003A3E12124200AF2B0BD1A678202E08D1FE
:1059D000264932462648FAF781FF31462448FFF728
:1059E000A8FD00232B6052E76278224B5A70F8E73B
:1059F0006378313B052BF4D801A252F823F000BFA5
:105A0000195A0008215A0008275A0008E3590008CB
:105A1000E35900082D5A00080122164B1A70E0E7DE
:105A20000222144BFAE70322124BF7E70422114B30
:105A3000F4E762780F4BDA70D3E762780D4B9A7017
:105A4000CFE76078431E58425841FFF76FFCC8E724
:105A500064230020602300205C2300208823002092
:105A600058230020AC230020EF2101088B230020C5
:105A700068230020800C00201FB5002301930293AF
:105A8000ADF80C30A123082201460DF105008DF878
:105A90000430FAF723FF01A80921FFF7ADFE0A2120
:105AA000FFF75CFD05B05DF804FB1FB5044610224E
:105AB00000216846FAF78CFEA2230E2221460DF142
:105AC00001008DF80030FAF709FF68460F21FFF753
:105AD00093FE1021FFF742FD04B010BD002307B56F
