:020000040800F2
:1000000000040020B9010008BB010008BB01000882
:10001000BB010008BB010008BB010008BB010008D0
:10002000BB010008BB010008BB01000891DB000810
:10003000BB010008BB010008BB010008EBEF000892
:10004000BB010008BB010008BB010008BB010008A0
:10005000BB010008BB010008DDEC000805ED00084D
:100060002DED000855ED00087DED0008BB010008EE
:10007000BB010008BB0100087DF60008BB010008B9
:10008000A5ED0008BB010008BB010008BB0100088A
:10009000BB010008BB010008BB010008BB01000850
:1000A000BB010008BB01000891F20008A5F200089E
:1000B000BB010008BB010008BB010008BB01000830
:1000C00009F0000809EE0008BB010008BB010008A8
:1000D000BB010008BB010008BB010008BB01000810
:1000E00072B6264880F30888254880F30988254899
:1000F00025490860022080F31488BFF36F8F0DF04C
:100100007BFA0CF033FE4FF0553020491B4A9142E8
:100110003CBF41F8040BFAE71D49194A91423CBF24
:1001200041F8040BFAE71B491B4A1C4B9A423EBF9D
:1001300051F8040B42F8040BF8E700201849194A5B
:1001400091423CBF41F8040BFAE70DF059FA0DF06B
:1001500054FA154C154DAC4203DA54F8041B884789
:10016000F9E707F059FD124C124DAC4203DA54F88E
:10017000041B8847F9E70DF041BA00000004002095
:10018000000C00200000000808ED00E00000002046
:1001900000040020340C0108000C00202015002071
:1001A00020150020C0460020E0000008E000000804
:1001B000E0000008E000000892E700F000F8FEE729
:1001C0002DE9F04FC1F80CD0C3689D46BDE8F08F13
:1001D000002383F311882846A04700200DF0DEFBA2
:1001E000FEE70DF035FB00DFFEE7000053B94AB92A
:1001F000002908BF00281CBF4FF0FF314FF0FF302F
:1002000000F09AB9ADF1080C6DE904CE00F01AF8CF
:10021000DDF804E0DDE9022304B07047430803F091
:100220005533C01A830803F0333300F033301844D9
:1002300000EB101000F00F3000EB002000EB00404E
:10024000000E70472DE9F047089D0F4604468E4684
:10025000002B48D18A42164661D9B2FA82F24AB1DD
:10026000C2F1200301FA02FE20FA03F3964043EAAA
:100270000E0E94404FEA164CBEFBFCF1B7B20CFBDD
:1002800011EE01FB07F0230C43EA0E43984209D913
:10029000F31801F1FF3E80F0ED80984240F2EA80D1
:1002A000023933441B1AB3FBFCF00CFB103300FB88
:1002B00007F7A4B244EA0344A74209D9341900F16C
:1002C000FF3380F0D980A74240F2D6803444023810
:1002D00040EA01400021E41B1DB10023D440C5E9E0
:1002E0000043BDE8F0878B4206D90DB1C5E9000196
:1002F00000210846BDE8F087B3FA83F1002947D111
:10030000BB4202D3824200F20481841A67EB0302EB
:1003100001209646002DE4D0C5E9004EE1E7002A11
:1003200000F09080B2FA82F2002A40F0A780881B89
:100330000121370C1FFA86FEB0FBF7FC07FB1C00FF
:10034000230C43EA00430EFB0CF0984207D9F31844
:100350000CF1FF3802D2984200F2E080C4461B1A2A
:10036000B3FBF7F007FB10330EFB00FEA4B244EA28
:100370000344A64507D9341900F1FF3302D2A6453C
:1003800000F2C9801846A4EB0E0440EA0C40A3E733
:10039000C1F120068B4022FA06FC4CEA030C27FA36
:1003A00006FA4FEA1C49BAFBF9F88F4020FA06F327
:1003B00009FB18AA1FFA8CFE3B4300FA01F708FB61
:1003C0000EF01C0C44EA0A44A04202FA01F20BD9D6
:1003D0001CEB040408F1FF3A80F09980A04240F23F
:1003E0009680A8F102086444241A98B2B4FBF9F389
:1003F00009FB134403FB0EFE40EA0444A64508D95A
:100400001CEB040403F1FF307FD2A6457DD9023BEB
:10041000644443EA0840A4EB0E04A0FB028E74453A
:100420004346F14661D35ED055B1FA1A64EB090434
:1004300004FA06F622FA01F31E43CC40C5E9006433
:1004400000214EE743084FEA510C43EAC1710A0C00
:1004500042EA0C428BB2C407B2FBF6F143EA024314
:10046000BCFBF6FCB646304637461F22181A41EA56
:100470000C4161E7714615E7184629E7C2F12003F0
:1004800021FA03F0964024FA03F397403B43370CDC
:10049000B0FBF7F807FB18001FFA86FE190C41EABB
:1004A000004108FB0EF0884204FA02F43AD97118B0
:1004B00008F1FF3C01D288421ED8091AB1FBF7F8B7
:1004C00008FB0EF007FB18119BB243EA014383427D
:1004D0002FD2F31808F1FF31C8D28342C6D2A8F157
:1004E00002013344C2E747459ED2B8EB02036EEBEC
:1004F0000C0E0138F14697E7301A0144A8F1020CBE
:10050000B1FBF7F808FB0EF0DCE7034681E7D046C5
:100510006AE70846FEE63444023834E7ACF1020CE0
:1005200033441CE7091AC446B1FBF7F808FB0EF088
:10053000C8E741469AE700BF704700BF38B5124B85
:1005400004461D682A6B1AB10023C2E9044338BD72
:10055000182000F039FA0246286378B100210B23F5
:1005600001209381C2E90401084B0949094DC2E900
:10057000011300231560C2E9044338BD4621064B30
:10058000064800F0FFF800BF000C0020ECDE05007C
:1005900034126DE60E33CDAB6C0B0108840B0108F1
:1005A00038B5194B1C68226B8AB113691749546915
:1005B00003FB01F1164800FB0411A3FB00300133DB
:1005C00041EB0001C2E9043121F0004038BD1820A0
:1005D00000F0FAF90246206388B1012400250B23BC
:1005E0000A480C49C2E90445116001460A4D0B4C0A
:1005F00093810B4BC2E90154C2E9043138BD522149
:10060000084B094800F0BEF8000C00202DF45158AA
:100610002D7F954C0E33CDAB34126DE6ECDE05002C
:100620002E7F954C6C0B0108840B010820F0030110
:1006300010F00300C0F1000051F8043B00F1040C7D
:100640004FEACC0C6FF000021CBF22FA0CF21343ED
:100650004FF0010C4CEA0C2C4CEA0C4CA3EB0C02B6
:1006600022EA030212EACC1204BF51F8043B043020
:10067000F4D0C2F1000102EA0102B2FA82F2C2F140
:100680001F0200EBD200704788420ED98B188342BC
:100690000BD900EB020C002A6DD0624613F801CD95
:1006A000994202F801CDF9D170470F2A0FD80346BD
:1006B00002F1FF3C002A5ED00CF1010C013B8C449E
:1006C00011F8012B614503F8012FF9D1704740EA79
:1006D00001039B0750D1A2F1100370B501F1200C6A
:1006E00023F00F0501F1100E00F11004AC441B09BA
:1006F0005EF8105C0EF1100E44F8105C5EF81C5CA5
:10070000103444F81C5C5EF8185C44F8185C5EF821
:10071000145CE64544F8145CEAD1013312F00C0F86
:1007200001EB031102F00F0400EB031328D08E46F7
:10073000043C24F003064FEA940C1E441C1F5EF890
:10074000045B44F8045FB442F9D10CF1010402F0F7
:10075000030203EB840301EB840102F1FF3C4AB185
:100760000CF1010C013B8C4411F8012B614503F89D
:10077000012FF9D170BD7047034602F1FF3C9BE7A2
:100780002246EAE7144600B51A460A4B0D461B6896
:1007900085B0DE6803464CB10749019130460749F0
:1007A0000294009500F02EF900F090F804490C46F0
:1007B000F3E700BF000C0020B00B0108C00B0108DC
:1007C000BC0B010808B513460022FFF7DBFF00BF92
:1007D00070B5860747D0541E002A3ED00346CAB2E1
:1007E00001E0013C39D303F8012B9D07F9D1032C1B
:1007F0002CD9CDB205EB05250F2C1A4605EB054586
:1008000034D9A4F1100C2CF00F0603F1100EB644ED
:100810004FEA1C1CC2E90055C2E90255103272456C
:10082000F8D10CF1010214F00C0F03EB021204F0EA
:100830000F0C13D0ACF1040323F00303043313446F
:1008400042F8045B9342FBD10CF003042CB1C9B213
:100850001C4403F8011BA342FBD170BD6446134640
:10086000002CF4D1F9E703461446C0E7A446E1E7BB
:10087000032A30B415D941EA0004A40784460B4684
:1008800004D0541E0FE0043A032A08D919466046E2
:1008900053F8044B5CF8045BA542F4D0F1E76046E2
:1008A0001946541E7AB1431E0139021901E09A42D9
:1008B00009D013F8010F11F801CF6045F7D0A0EB74
:1008C0000C0030BC7047002030BC7047062008B5D3
:1008D00000F042F901200EF083F800BF844641EA9F
:1008E000000313F0030349D1403A23D30B6803609C
:1008F0004B6843608B688360CB68C3600B6903619E
:100900004B6943618B698361CB69C3610B6A036285
:100910004B6A43628B6A8362CB6AC3620B6B03636D
:100920004B6B43638B6B8363CB6BC3634030403152
:10093000403ADBD230320BD30B6803604B68436024
:100940008B688360CB68C36010301031103AF3D2EB
:100950000C3205D351F8043B40F8043B043AF9D279
:10096000043208D0D2071CBF11F8013B00F8013B4C
:1009700001D30B8803806046704700BF082A13D359
:100980008B07B1D010F00303AED0C3F10403D21A29
:10099000DB071CBF11F8013B00F8013BA4D331F881
:1009A000023B20F8023B9FE7043AD9D3013A11F801
:1009B000013B00F8013BF9D20B7803704B78437090
:1009C0008B78837060467047024B0146186800F0D0
:1009D000FDBE00BF000C0020024B0146186800F06D
:1009E00075BF00BF000C00200CB400B583B004AB91
:1009F00053F8042B019300F087F903B05DF804EB82
:100A000002B070470EB400B5074A82B003AB01468E
:100A1000106853F8042B019300F076F902B05DF8EA
:100A200004EB03B0704700BF000C002038B5C46B66
:100A30000CB1002038BD8021054600F0C7FE0246FB
:100A4000E86330B1031F7C3243F8044F9342FBD17B
:100A5000EFE74FF0FF3038BD30B51F29054683B0B2
:100A600008D8C36B0C4653B153F8240043F8242034
:100A700003B030BD162303604FF0FF30F8E780214C
:100A8000019200F0A3FE019A0346E8630028F3D028
:100A9000011F00F17C05002041F8040FA942FBD1A1
:100AA000E2E700BF1F2938B505461ED8C26B0C46C9
:100AB0006AB152F8213053B1012B06D0591C10D025
:100AC0000021204642F824109847002038BD2846CF
:100AD00001F070FA224601462846BDE8384001F090
:100AE00055BA162301202B6038BD16234FF0FF3076
:100AF0002B6038BD1F292BD838B5C36B0C46054673
:100B0000A3B153F8242003EB84034AB1511C0BD04A
:100B1000012A07D0002520461D609047284638BD91
:100B2000012038BD032038BD022038BD802100F0EF
:100B30004DFE0346E86340B100201A1F03F17C011B
:100B400042F8040F8A42FBD1DBE74FF0FF3038BD9B
:100B50004FF0FF30704700BF38B5134B1F281D689A
:100B60001DD8EA6B044662B152F820304BB1012B1C
:100B700005D0591C0FD0002142F8201098470020C2
:100B800038BD284601F016FA224601462846BDE83F
:100B9000384001F0FBB9162301202B6038BD162325
:100BA0004FF0FF302B6038BD000C0020114B1F2888
:100BB00070B51E6808D8F36B04460D464BB153F868
:100BC000240043F8245070BD162333604FF0FF30EB
:100BD00070BD8021304600F0F9FD0346F063002827
:100BE000F4D00021021F7C3042F8041F8242FBD166
:100BF000E5E700BF000C002038B50B4B1D68EC6B1F
:100C00000CB1002038BD8021284600F0DFFDE863EC
:100C100038B1031F00F17C0243F8044F9342FBD12B
:100C2000EFE74FF0FF3038BD000C002038B5174B10
:100C30001F281D6826D80446E86BA0B150F8242070
:100C400000EB84034AB1511C0BD0012A07D00025C8
:100C500020461D609047284638BD012038BD03203E
:100C600038BD022038BD8021284600F0AFFDE86382
:100C700040B10021031F00F17C0243F8041F93429E
:100C8000FBD1DBE74FF0FF3038BD00BF000C002088
:100C90009368013B002B936005DAD2F818C06345D6
:100CA00007DB0A2905D01368581C10600846197024
:100CB000704700F069BE00BF9BB1F8B5134406460B
:100CC0000F46541E5D1E01E0AC4208D03A46304645
:100CD00014F8011FFFF7DCFF431CF5D1F8BD00201D
:100CE000F8BD0020704700BF936810B514461BB9CB
:100CF00018460023636010BD00F08CF90023A36048
:100D00000023636010BD00BF2DE9F04FA1B08B46FA
:100D100091461C46049018B1036A002B00F0138121
:100D2000BBF80C30180740F18E80DBF81030002B38
:100D300000F08980002343F220020D9399F80030DF
:100D40000127824E0794ADF83920002B73D04D4611
:100D500003E015F8013F002B7FD0252BF9D1B5EB2F
:100D6000090A7DD12B78002B65D000234FF0FF328C
:100D70000135CDE9092308930B938DF863301E9359
:100D800006E02546089B801B07FA00F00343089302
:100D90002C46052214F8011B304600F0EFF8A1465E
:100DA0000028EED1089BD90644BF20228DF863208D
:100DB0001A0748BF2B22297848BF8DF863202A29BB
:100DC00064D1079A1168043200290792C0F2968014
:100DD0000B9169782E296FD05D4C0322204600F0DC
:100DE000CDF838B14022089B001B8240134309F123
:100DF0000109089319F8011B062256488DF838108E
:100E000000F0BCF800287FD0534B002B69D007A915
:100E100000915A460498514B08A9AFF30080039003
:100E2000039B013307D00D9B039A13440D9399F84C
:100E30000030002B8BD1BBF80C305B060AD40D9828
:100E400021B0BDE8F08F5946049800F037FC002827
:100E50003FF470AF4FF0FF30F2E7B5EB090AEAD08C
:100E600009F1FF3805954546DDF8108001E0A245FF
:100E70003ED92C465A46404615F8011FFFF708FF99
:100E800002340130A4EB0904F1D1D4E7A1F130021E
:100E9000092A88BFA9469DD80B9B00E00134217820
:100EA00003EB830302EB4303A1F13002092AF5D9D6
:100EB0002E29A1460B938FD199F801102A292DD103
:100EC000079B09F102001A680433002A0793B8BF90
:100ED0004FF0FF3399F8021009928146B8BF099389
:100EE0007AE7079B073323F00703083307939AE752
:100EF0000D99059D51442B780D9134E7494243F0FB
:100F000002030B91089364E707A900915A460498DD
:100F1000124B08A900F06CFE039081E70023A1F1B9
:100F20003002092A09F1010909933FF655AF19F872
:100F3000011F03EB830302EB4303A1F13002092AF3
:100F4000F5D9099348E700F0C5FAE9E6F00B010886
:100F5000F80B0108FC0B010800000000B90C0008A8
:100F60008C4600B586461346034A714610685DF804
:100F700004EB6246FFF7C8BE000C00205FFA81FC5C
:100F8000810744D00346511E22B909E09A0709D0CF
:100F9000013905D31846027801336245F6D170470E
:100FA00000207047184603290CD80029F8D00346C2
:100FB000014401E08B42F3D0184613F8012B62453F
:100FC000F8D1704710B50CEB0C24024604EB044436
:100FD00002E00439032915D9104652F8043B634056
:100FE000A3F1013E2EEA030313F0803FF1D0034644
:100FF000014401E08B4208D0184613F8012B6245EA
:10100000F8D110BD10460029F1D1002010BD1146C5
:10101000C9E700BF9368002B00F0F0802DE9F04F86
:10102000B1F90CC090461CF0080F81460C4683B005
:101030002BD00B694BB31CF00207D8F8006032D0FC
:101040004FF0000A5546D4F828B0216AAB4FC5B11D
:10105000BD422B46524628BF3B464846D84700284B
:1010600040F3C280D8F8083082441B1A2D1AC8F801
:101070000830002B00F0AE80D4F828B0216A002D93
:10108000E6D1D6E900A50836E1E72146484600F05A
:1010900015FB002840F0AD80B4F90CC0D8F8006012
:1010A0001CF00207CCD11CF0010A63D1574623681B
:1010B000A16818468B46002F58D01CF4007F00F022
:1010C000B180B9420A4600F2DD801CF4906F2FD047
:1010D000216962695D1A02EB420202EBD2726B1C5B
:1010E00052103B44934292BF93469B461A461CF4CF
:1010F000806F00F0E6801146484600F067FB00284C
:1011000000F0F5802A4621690190FFF7E7FBA289EC
:10111000019B22F4906242F08002A2815819C4F827
:1011200014B0ABEB05053A46BB462361A5602060D1
:101130003D46002751460192FFF7A6FAA1682368B1
:10114000019AA1EB0B011A44A1602260D8F8083083
:10115000AA445B1BC8F80830002B3BD02368A16869
:1011600018468B46B4F90CC0002FA6D1D6E900A7CB
:1011700008369EE73846BB463D46002D40D0002845
:1011800045D03A46D4E904C32068AA4228BF2A467B
:101190006045A16804D901EB030A524500F382803F
:1011A000934272DC5A464846216AD4F828C0E04788
:1011B000B0F1000A18DDB7EB0A070FD00120D8F80C
:1011C0000830D344A3EB0A03A5EB0A05C8F808309E
:1011D000002BD2D1002003B0BDE8F08F2146484655
:1011E00000F02AFA0028EAD0B4F90C3043F04003AA
:1011F000A3814FF0FF3003B0BDE8F08F00207047AF
:10120000756833460836002DFAD0D3F800B02A4668
:101210000A215846FFF7B2FE002865D00130A0EB46
:101220000B07AEE722699A4214D36569BD4211D813
:101230006FF00043BB4228BF3B4693FBF5F3524699
:1012400005FB03F34846A56A216AA847051ECBDDC6
:101250007F1B7BE7B94228BF39460D4618465146E9
:101260002A46FFF711FAA1682368491B2B44A160A5
:1012700023600029ECD12146484600F0DDF9002822
:10128000E6D0B1E7BB463A4652E759460192FFF72E
:10129000FBF9019AA36892469B1AA3602368134442
:1012A000236088E759465246FFF7EEF92368214646
:1012B00053444846236000F0BFF900283FF47BAF59
:1012C00092E7484600F0D0FB034600287FF426AFA3
:1012D0004846216900F0FAFA0C22B4F90C30C9F83A
:1012E000002023F0800381E76A1C17464AE70C229E
:1012F000B4F90C30C9F8002078E700BF00FCFF7F8C
:1013000000207047024A0349034800F08BBB00BF2E
:10131000500C002039160008040C00200C4B4168CA
:1013200010B59942044601D000F086F9A168094B36
:10133000994202D0204600F07FF9E168064B9942BD
:1013400004D02046BDE8104000F076B910BD00BFC3
:101350002015002088150020F0150020002070477F
:101360002DE9F84300250423294C2A490822C4F812
:10137000381104F15C002946DFF89C90DFF89C806E
:10138000274F284EC4E90335C4E90055C4E9055583
:10139000A5606566FFF71CFA234B0822294604F175
:1013A000C4006367C4E90849C4E90A87C4E91A5557
:1013B000C4E91E5526632567C4F8CC50C4F8805094
:1013C000FFF706FA194B2946C4F8DC30082204F16D
:1013D000680304F59670C4F88830C4E92398C4E91A
:1013E0002576C4E93455C4E93855C4F8D850C4F852
:1013F0003451C4F8E850FFF7EBF904F1D003C4E925
:101400003D98C4E93F76C4F8F030BDE8F88300BFEA
:101410002015002005130008B91F0008E11F00086F
:1014200021200008452000080900010012000200E8
:10143000F8B5254B0646D3F83831002B3CD0234F66
:10144000D7E90134013B04D51DE05A1C04F16804BE
:1014500019D0B4F90C50013B002DF6D11C4B0822D9
:101460002946C4E90155C4E90455E3606566256071
:10147000A56104F15C00FFF7ABF9C4E90D55C4E9BF
:1014800012552046F8BD3D680DB12F46D8E74FF400
:10149000D671304600F09AF9044680B10423056005
:1014A000294625460C304FF4D072A0606360FFF7E8
:1014B0008FF93C602F46C3E7FFF752FFBFE70C23CD
:1014C00038603360DDE700BF20150020500C00209D
:1014D0000100FFFF036A03B17047044B044AD3F8CD
:1014E00038310262002BF7D13AE700BF2015002007
:1014F0001D130008704700BF704700BF0020024A5C
:10150000024900F08FBA00BF500C00200113000800
:101510000020024A024900F085BA00BF500C0020AA
:101520005D130008F8B5B1F90C300C461E070746EC
:1015300039D44A68002A53DDE56A002D31D00022F3
:101540003E683A6013F48052216A55D1012338462F
:10155000A847451C024663D0B4F90C30E56A216AFD
:10156000580705D56368D21A636B0BB1236CD21A86
:1015700000233846A847421C40D0002223696260FD
:101580002360A389DB0400D56065616B3E6041B1D7
:1015900004F14403994202D0384600F097F9002341
:1015A00063630020F8BD0E69002EFAD09B0718BFB8
:1015B00000230D6808BF4B690E60AD1B8B600CE00B
:1015C0002B463246D4F828C03846216AE047B0F1AD
:1015D000000CA5EB0C05664406DD002DF0DCE0E711
:1015E0000A6C002AA8DCDCE7B4F90C3043F04003B5
:1015F0004FF0FF30A381F8BD626DB1E73968B4F9EF
:101600000C301D29F2D80B4ACA40D507EED500226E
:10161000626022692260DA04B7D50029B4D0B4E749
:101620003B68002B98D01D2B01D0162BDCD13E60DF
:10163000B7E700BF010040200B69B3B110B5044605
:1016400082B008B1036A5BB1B1F90C3013B9002064
:1016500002B010BD204602B0BDE81040FFF762BFE7
:101660000191FFF737FF0199EEE70020704700BFB7
:10167000B8B138B50D4A0369044615682BB10DB1F0
:101680002B6A53B1B4F90C300BB9002038BD214698
:101690002846BDE83840FFF745BF2846FFF71AFF48
:1016A000F0E7034A0349044800F0BCB9000C0020ED
:1016B000500C002039160008040C002038B52F4BC0
:1016C00005461B680C4613B11A6A002A4BD0B4F9C0
:1016D0000C3018071CD5226922B313F0010107D082
:1016E00000206169A0604942A1613AB1002038BD83
:1016F000980758BF6169A160002AF7D1190658BF41
:101700001046F4D543F04003A3814FF0FF3038BDBD
:10171000D9062CD55A0712D4226943F00803A381B5
:10172000002ADAD103F42071B1F5007FD5D021462B
:10173000284600F0A3FBB4F90C302269CDE7616BB9
:1017400051B104F14402914204D0284600F0BEF8A1
:10175000B4F90C30002262630021226923F02403D3
:10176000C4E90021D9E71846FFF7B4FEAFE7092224
:1017700043F040032A60A381C7E700BF000C0020AC
:1017800070B5114E054633680C46BBB1214628465C
:101790000DF00AF9431C01460CD0C41C24F00304CC
:1017A000A04205D02846611A0DF0FEF8013001D0A4
:1017B000204670BD4FF0FF34204670BD19460DF035
:1017C000F3F83060E2E700BF5C1600202DE9F84333
:1017D000CD1C25F0030508350C2D38BF0C25002D38
:1017E000064618DBA94216D8DFF8DC8000F042FB81
:1017F000D8F80420A2B1144603E0636822467BB106
:101800001C4623685B1BF8D40B2B1FD894426368DB
:1018100054D053600CE00C2333600020BDE8F88303
:1018200029463046FFF7ACFF431C044619D005603B
:10183000304600F021FB04F10B00231D20F00700CF
:10184000C21A1CBF1B1AA350BDE8F8836119944249
:10185000256014BF5160C8F80410635163684B6081
:10186000E6E7D8F804701FB33C467F68002FFBD131
:1018700023683946304604EB03090DF095F881459D
:1018800016D123683046ED1A2946FFF779FF01305B
:101890000ED02368D8F804202B442360536883B10A
:1018A000A34203D01A465B689C42FBD10023B0E7F9
:1018B0000C233046336000F0DFFAAEE7C8F804309E
:1018C000B6E7C8F80470B3E75C160020002950D0D2
:1018D00038B551F8043C0C1F002BB8BFE41805467E
:1018E00000F0C8FA274A13682BB1A3420CD921682B
:1018F000601883422CD0284663601460BDE83840ED
:1019000000F0BABAA3420FD81A465B68002BF9D18F
:1019100011685018844217D02CD363605460284655
:10192000BDE8384000F0A8BA11685018A04214D0A1
:1019300020D8216860188342EFD118685B6808449A
:10194000C4E900035460EAE723680B441360E6E748
:1019500018685B6808442060CDE72068014450188F
:1019600083421160DBD1D3E900040144C2E90014D1
:10197000D5E770470C2328462B60BDE8384000F0BF
:101980007BBA00BF60160020F8B506460D46144627
:1019900010B1036A002B37D0A269A389A2601A078D
:1019A00019D52369BBB122686169D31AEDB2994296
:1019B0002F4620DD0133A1680139A160511C21604F
:1019C000157062699A420DD0A389DB0701D50A2DF3
:1019D00008D03846F8BD21463046FFF76FFE38B9CB
:1019E0002369E0E721463046FFF726FE0028F0D0C5
:1019F0004FF0FF37EDE721463046FFF71DFE002888
:101A0000F6D101232268D6E7FFF764FDC4E700BFE3
:101A100003460A46024908681946FFF7B5BF00BFEA
:101A2000000C00202DE9F8434FF0000980460F46D6
:101A30001646D6E90154013D10D4A389012B08D9DB
:101A4000B4F90E30013304D021464046B84749EA84
:101A50000009013D6B1C04F16804EED13668002ECC
:101A6000E7D14846BDE8F8832DE9F041144641B37B
:101A70000AB306460D4600F0E9FA8442074602D84A
:101A8000B4EB500F13D821463046FFF79FFE804637
:101A900050B1BC422246294628BF3A46FEF71EFFF7
:101AA00029463046FFF712FF4046BDE8F081A846C0
:101AB0004046BDE8F081A046FFF708FF4046BDE87C
:101AC000F0811146BDE8F041FFF780BE2DE9F84FE7
:101AD00092461F460A698B680C469A42B8BF1A465E
:101AE000CAF8002091F843300646DDF8289013B17B
:101AF0000132CAF80020226891065FD5DAF800307A
:101B00000233CAF80030226812F0060F11461DD1C8
:101B1000E1689942D8BF114618DD4FF0000804F182
:101B2000190B05E0E568DAF80030ED1A45450CDDE3
:101B300001235A4639463046C847013008F10108AA
:101B4000F0D14FF0FF30BDE8F88F216894F84330B2
:101B5000003B18BF01238A060AD53021E21882F81B
:101B6000431094F845105A1C2244023382F8431063
:101B70003946304604F14302C8470130E1D0D4E988
:101B800002202368DAF8005003F00603042B2169D1
:101B90001BD08A4220DD4FF00008521A90440025E5
:101BA0001A3401E0454517DA01232246394630460A
:101BB000C847013005F10105F4D1C2E712F0060F64
:101BC0000DD0003B18BF0123D2E7401B8A4220EA18
:101BD000E078E2DC0028E2DC0020BDE8F88FE16874
:101BE000DAF800309942D8BF114696DCAEE700BF64
:101BF0002DE9F04717460A7E84B00C460646984603
:101C00000C9D01F1430C002A35D0A2F15803D9B242
:101C1000202969D8202B67D8DFE813F0E60066009A
:101C20006600660066006600660066006600660084
:101C30006600AC007000660066006600660070001A
:101C4000660066006600660021008300C60066002C
:101C50006600B6006600830066006600EC002B6834
:101C60002268181D6169286010061B6802D452069C
:101C700000F1E08019600023E14623613B462146E4
:101C80003046CDF8008003AAFFF720FF013020D0B6
:101C90004A46394630462369C047013019D0236887
:101CA000E0689B07DDF80C9018D5484516DD002547
:101CB00004F1190A04E0E068A0EB0903AB420DDD72
:101CC0000123524639463046C047013005F101052F
:101CD000F1D14FF0FF3004B0BDE8F0874845B8BF00
:101CE000484604B0BDE8F087012084F8422004F1A2
:101CF00042090023206184F84330BFE72A68236843
:101D0000111D1806296002D4590600F1958010684B
:101D1000014600286268C0F293804FF00A0E5348D3
:101D200015E020682B6810F0800F53F8041B02D1D7
:101D3000400648BF89B26F2A14BF4FF00A0E4FF019
:101D4000080E4A482B600023626884F84330002A5A
:101D5000A26051DB236823F00403236000294BD1E8
:101D6000002A7BD1E146BEF1080F56D0ACEB090347
:101D7000236183E72A680120116804322A6004F194
:101D8000420984F84210B4E72B6800211A1D2A602A
:101D9000D3F8009062684846FFF7F0F8002863D057
:101DA000A0EB09006060A4E7236843F020032360F0
:101DB00078222F4884F845202A6813F0800F52F8C3
:101DC000041B03D113F0400F18BF89B22A60DA0751
:101DD00044BF43F02003236019B9236823F0200394
:101DE00023604FF0100EAEE75823204884F84530AA
:101DF0002368E1E72368DBE77546E146B1FBF5F3CD
:101E00000A4605FB131A194610F80A30AA4209F8C7
:101E1000013DF3D2BEF1080FA8D12368DD07A5D597
:101E2000626823699A42A1DC302309F1FF3989F8FD
:101E300000309BE719801EE7B2F90010084668E7FA
:101E40002D20002AA26084F8430002DB23F0040363
:101E500023600A250548AE464942CEE7037804F1DF
:101E6000420984F842307EE7606842E7040C0108CA
:101E7000180C0108704700BF704700BF70B5B1F97A
:101E80000C300C46990796B007D5012204F14703A0
:101E9000C4E90432236016B070BDB4F90E100546D3
:101EA000002929DB6A460CF08CFD002822DB4FF468
:101EB00080612846019EFFF789FC88B3A38906F458
:101EC000704643F08003A3814FF48063B6F5005F52
:101ED000C4E904032060DED12846B4F90E100CF0EA
:101EE0007CFD0028D7D0A38923F0030343F001032E
:101EF000A381D0E7B4F90C3013F0800F14BF402653
:101F00004FF4806628463146FFF760FC40B1A38954
:101F1000C4E9040643F080032060A38116B070BDBD
:101F2000B4F90C309A05B6D4012123F0030304F16F
:101F3000470243F00203C4E90421A3812260AAE717
:101F400070B50C46B1F90E10154600291E4696B024
:101F50000FDB6A460CF035FD00280ADB019B4FF4CD
:101F6000806203F47043A3F50053B3FA83F35B0973
:101F700007E0A289002312F0800F14BF40224FF423
:101F80008062002033602A6016B070BD70B50026F4
:101F9000074D0446084611462E600CF029FD431CEF
:101FA00000D070BD2B68002BFBD0236070BD00BF3C
:101FB000641600200CF024BD10B50C46B1F90E10CB
:101FC0000CF0E7FC002803DB636D0344636510BD80
:101FD000A38923F48053A38110BD00BF0020704764
:101FE0002DE9F0410C46B1F90C101F46CB05054612
:101FF00016460BD421F48051A1813B463246284637
:10200000B4F90E10BDE8F0410CF0CABCB4F90E10E2
:10201000022300220CF0C2FCB4F90C10EAE700BF66
:1020200010B50C46B1F90E100CF0B8FCB4F90C3038
:10203000421C0EBF23F4805343F480536065A38198
:1020400010BD00BFB1F90E100CF0ACBC51F8043C4F
:10205000181F002BBCBF0B58C0187047032806D8A8
:10206000B422504300F12401014805F03DBE704701
:1020700068160020032838B50FD80A4C2378012BA6
:102080004FF0000309D16578A84208D1237009B93F
:10209000012038BDFFF7E2FFFAE70020F9E7184614
:1020A000F7E700BF5C0C0020F7B504460D4608F0CA
:1020B0009DFB2B4E2B4F7080E0B285424ED9002104
:1020C000294A0FE01CF801EBBEF1FF0F01D0864555
:1020D00018D00133DBB20F2BF4D10131062902F104
:1020E0000F0239D094460023ECE7012906D1012BD9
:1020F00004D100227388ADF8002015E07388ADF894
:10210000000011E03A683AB31E2000FB012232F8C9
:10211000131032F81300090A12F8133040BAE4D150
:10212000002BEBD1ADF800308DF80230009806F0AE
:1021300059F9C0F307238DF80400C0F307408DF868
:1021400005308DF806009DF8063020469DF80420E5
:102150009DF8051006F04EFE0134ADE703B0F0BD6A
:102160005C0C00201C170020EE0D00202DE9F04132
:1021700005460E461746002400F12408B44201D15A
:10218000BDE8F0812B19B3F5347F06D208EB0400CB
:1021900005F05CFD38550134F0E70020FAE72DE941
:1021A000F04105460E461746002400F12408B442CB
:1021B00001D1BDE8F0812B19B3F5347F04D2395D2C
:1021C00008EB040005F0AAFD0134F0E741EA020340
:1021D00070B40D4650EA030104D170BCB4220A4821
:1021E000FEF7F6BA00241E260F2306FB04F106486C
:1021F000013B13F0FF03057042700844F8D101342D
:10220000062CF1D170BC704768160020032806D850
:10221000B422504300F12401014805F0ADBD7047E0
:1022200068160020074B084A10B51A600023074CB7
:102230002370607008F0DAFA60806078BDE81040C2
:10224000FFF7E4BF1C170020681600205C0C00207C
:10225000032808B50CD8074A5070FFF7D7FF08F0DD
:102260005BFA2D2802D02D2008F053FA012008BD7A
:102270000020FCE75C0C0020032808B511D80A4AAE
:10228000117871B9012150701170FFF7BFFF08F08C
:1022900043FA2D2801D1012008BD2D2008F039FA7C
:1022A000F9E70020F8E700BF5C0C0020024B18782B
:1022B000431E5842584170475C0C002070B5114BCA
:1022C0001B78012B1CD1104A126892B11E24487849
:1022D000097804FB00220D4832F81140054630F819
:1022E000026BA64207D103F0070335F8133022F83A
:1022F0001130012070BD0133092BF0D10023F6E726
:102300000020F7E75C0C00201C1700203AFE0008B4
:102310004FF434722421014805F0E6BCA0FF000808
:1023200038B50024064D08F0F7F915F8013B98423E
:1023300004D00134192CF6D1002038BDE0B2FCE7FE
:1023400020FE000808B5FFF7EBFF00F53E7005F032
:102350007DFC082828BF002008BD000038B50446D1
:10236000FFF7DEFF104B1B78012B07D01922431C0F
:10237000DBB2B3FBF2F102FB1133D8B20B4B185CAA
:10238000207008F0C6F9FFF7DDFF094B13F8104085
:1023900003EB40035D7808F029FA294602462046FF
:1023A000BDE8384008F0FBB95C0C002020FE0008B6
:1023B0000BFE0008032810B504460AD8FFF726FFD5
:1023C00020460121FFF756FE2046BDE81040FFF7EA
:1023D0003FBF10BDB4235843C1EB01111144243059
:1023E00000EB41007047032838B510D805290ED8F6
:1023F0000E2A0CD8FFF7EEFF054605F027FC044631
:10240000681C05F023FC44EA002080B238BD00209F
:10241000FCE7032870B51C460FD805290DD80E2AF5
:102420000BD8FFF7D7FF0546E1B205F077FC210A8C
:10243000681CBDE8704005F071BC70BD08B54FF474
:102440003E7005F003FC082828BF002008BD0000EE
:1024500070B508F061F90723144A12F8011B814294
:1024600021D0013B13F0FF03F7D10724FFF7E6FF6C
:102470000130C0B2B0FBF4F304FB13000C4BC4B248
:1024800013F8105003EB40035E7808F0AFF93146C3
:102490000246284608F083F921464FF43E7005F0C5
:1024A00000FC204670BD0624E0E700BF19FE0008CE
:1024B0000BFE000870B5FFF745FF044607281CBF58
:1024C0000B4B1C5C0B4B13F8145003EB44035E786E
:1024D00008F08CF931460246284608F060F9FFF70B
:1024E0001FFF2146BDE8704000F53E7005F0D9BBE6
:1024F00004FE00080BFE000870B5FFF723FF04463A
:1025000007281CBF0B4B1C5C0B4B13F8145003EB40
:1025100044035E7808F06AF931460246284608F01E
:102520003EF9FFF7FDFE2146BDE8704000F53E7024
:1025300005F0B7BBFDFD00080BFE00087FB51E4B84
:102540001B78002B33D000221146104606F0BEFC4B
:1025500000250A2601AC0A22184901A8FEF7BEF997
:1025600001F0B6F90378EAB2B3FBF6F3934200D870
:10257000FDB901F0ADF90378312B04D9002396227F
:10258000194620780CE001F0A3F903461B78207867
:102590001D2B4FF0000387BF962219461A4696213D
:1025A000013506F027FC0A2D04F10104D3D104B053
:1025B00070BD00231A46E3E76C410020A5FD00082A
:1025C0002DE9F0430D46144689B00C2848D8DFE8C1
:1025D00010F00D004A008100C100460151015F0169
:1025E0006D0178018301A501B301BF01C04FC14E48
:1025F00038680AF00BF80E2805D909F0C3FF3388B4
:1026000038600333338004EB84042C446FF00708F4
:102610004725FF27E4B208FB05F3328803F59663EC
:102620001344B3FBF7F213448DF804308DF80570B2
:102630008DF80640019805F0D5FEC0F30721C0F3E0
:1026400007438DF808008DF809108DF80A30C2B2E2
:10265000DBB22846C9B2013506F0CCFB972DDAD1A2
:1026600009B0BDE8F083A44FA44E386809F0CEFF4E
:102670000E2805D909F086FF33883860033333808C
:1026800004EB84042C44FF270025E4B233888DF842
:10269000057003EBC503B3FBF7F213448DF8043068
:1026A0008DF80640019805F09DFEC0F30721C0F3A8
:1026B00007438DF808008DF809108DF80A30C2B272
:1026C000DBB205F14700C9B2013506F093FB502D8E
:1026D000DCD1C5E78A4F8B4E386809F097FF0E288A
:1026E00005D909F04FFF338838600333338004EB9A
:1026F00084042C444FF00C080025FF27E4B2282D59
:10270000EBB28CBF283BC3F128033288DBB208FB55
:102710000323B3FBF7F213448DF804308DF80570F2
:102720008DF80640019805F05DFEC0F30721C0F367
:1027300007438DF808008DF809108DF80A30C2B2F1
:10274000DBB205F14700C9B2013506F053FB502D4D
:10275000D5D185E705220023B1FBF2F2032C8DF8D9
:1027600009308DF80A308DF80D30ADF810308DF845
:1027700013308DF814308DF817308DF818308DF82F
:102780001B30614F4FEA51038DF80C208DF81D303E
:10279000A1EB44028DF81E308DF81F3098BF5B4BC3
:1027A000D2B238688CBF0F241C5D8DF808108DF8EC
:1027B0000B108DF80E208DF80F208DF812108DF86B
:1027C00015208DF816208DF819108DF81A208DF827
:1027D0001C2009F01BFFA0424D4E4E4C0FD309F0B8
:1027E000D1FE4D4A23781178386069B30133DBB2EA
:1027F000AB4201D2237002E00023257013704FF02A
:102800004709337803EB430320336B4413F8186C08
:1028100013F8177C13F8168C2178484601FB08F34F
:1028200001FB07F27143B3FBF5F3B2FBF5F2B1FB29
:10283000F5F1DBB2D2B2C9B209F1010906F0DAFA58
:10284000B9F1970FE8D10BE70BB1013BD2E70121BA
:10285000337811700B4403F007033370CFE747243C
:10286000002320461A462946013406F0C3FA972C65
:10287000F6D1F5E605264724B1FBF6F620460023FF
:1028800032462946013406F0B5FA972CF6D1E7E630
:102890004725A1EB8204E4B22846002322462146C4
:1028A000013506F0A7FA972DF6D1D9E64724002383
:1028B00020462A461946013406F09CFA972CF6D198
:1028C000CEE6472420462B462A460021013406F056
:1028D00091FA972CF6D1C3E64724002220462B46D6
:1028E0001146013406F086FA972CF6D1B8E600BFFF
:1028F0003C17002038170020341700203017002024
:102900002C17002028170020241700204AFE00085A
:102910002017002021170020600C00204725A1EB84
:102920008204E4B22846234600222146013506F0FF
:1029300061FA972DF6D193E647254C0828462346A1
:1029400022462146013506F055FA972DF6D187E645
:102950004724002320461A461946013406F04AFA55
:10296000972CF6D17CE600BF38B50C460D4D78B1FA
:1029700009F008FE0C4B28601B7883B100F0C4FA04
:1029800058B100F0C1FA0022114600F003FA04E049
:10299000286809F03BFE3228EAD8002038BD2370B1
:1029A000FBE700BF44170020AE210020014B186058
:1029B000704700BF4817002070B500F085FF454CF8
:1029C000027823789A4206D000F07EFF0022037836
:1029D0002370414B1A6001F023FE0138C0B2062873
:1029E00096BF3E4B002653F8206000F06DFF037841
:1029F000032B06D8DFE803F0024C33070022364BE6
:102A00001A60012070BD344D2C6894B909F0BAFDEC
:102A1000334B28601A78002AF3D01C7000F074FA47
:102A2000054600F071FA22460146284602F0EEF80B
:102A3000E7E7204647F22F5609F0E8FDB042E0D91B
:102A4000FFF734FC0028DCD109F09CFD2860112040
:102A500001F0F0F844F620600AF0A5FF14E001252B
:102A60001D4C1F4B20681D7018B909F08BFD2060AC
:102A7000C7E709F0CBFDB042C3D3FFF717FC00282E
:102A8000BFD109F07FFD2060012000F075FCB8E7A0
:102A9000114C2368002BE8D000F036FA062809D044
:102AA00000F032FA012805D000F02EFA022801D0F9
:102AB00000F02AFA206809F0A9FD47F22F53984246
:102AC0009FD9FFF7F3FB00289BD109F05BFD206045
:102AD000BDE700BF411700204817002050FE000846
:102AE0004017002007B58DF807100DF10701FFF71B
:102AF0003BFFFFF761FF002003B05DF804FB00001F
:102B00002B4B2DE9F0411B78BBB10F254FF001088D
:102B1000284E56F8041B4B1C0BD021F00F0701F078
:102B20000F0108FA01F40122214638460CF0ECF9B5
:102B3000BC61013D15F0FF05EBD1002280214FF073
:102B400080400CF0E1F900BF00BF00BF00BF00BF34
:102B500000BF00BF00BF00BF00BF00BF00BF00BF7D
:102B600000BF00BF00BF00BF00BF00BF00BF00BF6D
:102B700000BF00BF00BF302585F311880122072167
:102B80004FF080400CF0E0F9002484F3118885F3C5
:102B9000118801220C214FF080400CF0D5F984F30C
:102BA0001188BDE8F041062123200BF02CBF00BFA7
:102BB000AC2100206CFE0008072804D0122804D1A4
:102BC000042000F0B9BB0320FBE7704708B54FF0C5
:102BD00080724FF080439A614FF0007240219A61F9
:102BE0000F4800220CF090F9002280210C480CF0D4
:102BF0008BF94FF480030A4A93610022094B1A7043
:102C0000094B1B785BB1112001F014F844F62060E9
:102C10000AF0C9FEBDE80840022000F08DBB08BDE7
:102C20000004004095210020AC21002010B5084C84
:102C3000237863B100F086FB033801289DBF002391
:102C4000032023700220BDE8104000F067BB10BDD8
:102C5000AC21002010B5044609F094FC3B4B1860F1
:102C600023780A2B66D006D8072B36D0082B10D035
:102C7000FF23237018E0212BFAD16278344B002A0D
:102C80005FD0A1781A78002958D042F080021A70DB
:102C90000AE0A378013B032BEAD8DFE803F0020641
:102CA000091201F0BDFCE07010BD0423E370FBE7E6
:102CB00062792179E078FFF796FBA071000AE07154
:102CC000F2E7E0782379617940EA032040BAA21D57
:102CD00080B2BDE81040FFF749BAA378013B032B4F
:102CE000C6D8DFE803F0020B101BE0780728DBD81A
:102CF00001F09EFCBDE8104001F0A2BBE078BDE809
:102D00001040FFF757BBE279A3792179E07843EAD5
:102D100002236279BDE81040FFF77BBBE07823799E
:102D2000617940EA032040BAA21D80B2BDE810409C
:102D3000FFF735BABDE8104002F010BB61F3C712CF
:102D4000A5E71B78C3F3C013A370ADE748170020B5
:102D50008E41002010B5044609F014FC044B1860A5
:102D600023780A2B01D102F0F9FA002010BD00BF30
:102D70004817002008B500F0A7FD0378022B03D107
:102D800000F0AAFD007808BD0020FCE700F08CBD33
:102D900070470000F8B51546B0FA80F3B1FA81F239
:102DA0005B0952099A4206460C4605D000290CBF21
:102DB0000120022000F03EFA0F4F3B78A34200D1E1
:102DC0003DB100F081FD0323037000F085FD002379
:102DD00003703C7004F0F8FA2946204600F0F0FF3A
:102DE0002A462146304601F011FF2A462146304648
:102DF000FFF7CEFFF8BD00BF5F17002037B50446D0
:102E000000F062FD0378012B0DD00025CDE90055BF
:102E100000F05AFD0378022B07D0094B2A46197897
:102E20000846FFF7B7FF03B030BD24B108222146A2
:102E30006846FDF753FD684600F064FEF3E700BF07
:102E40005F17002037B5044600F03EFD0378012BE4
:102E50000ED0002500958DF8045000F035FD037864
:102E6000022B07D00D4B2A4619780846FFF792FF30
:102E700003B030BD74B163788DF80030A3788DF85D
:102E80000130E3788DF8023063798DF803302379CF
:102E90008DF80430684600F091FEE9E75F170020E6
:102EA00037B5044600F010FD0378012B0DD0002546
:102EB000ADF8065000F008FD0378022B07D0114B47
:102EC0002A4619780846FFF765FF03B030BD002C8D
:102ED000FBD0A278637843EA0223ADF80630813B49
:102EE000022B09D801220DF1060002FA03F3ADF816
:102EF000063000F04FFEE8E70DF1060000F034FE6A
:102F0000E3E700BF5F170020014B1878704700BF50
:102F10005F17002010B5174C00232278032A26D80B
:102F2000DFE802F0020C151E0A2213490846CB7096
:102F30008A7009F05FF90123237010BD0E4A937067
:102F4000F6231046D37009F055F90223F4E7F62270
:102F500009490846CB708A7009F04CF90323EBE766
:102F6000054A93700A231046D37009F043F90023F1
:102F7000E2E700BF561700205017002070470000FE
:102F800010B5FFF7FBFF00F0D5FA00F0AFFC01F041
:102F9000FDFB00F06BF9012803D1BDE8104000F003
:102FA0006BB900F0B5F968B9074C206809F02EFB41
:102FB00040F6B733984205D900F068FF10B109F028
:102FC000E1FA206010BD00BF4C1700202DE9F04F42
:102FD0008FB00E220021814602A8FDF7F9FB00F018
:102FE00073FC0378012B0AD000F06EFC0378022BEF
:102FF00008D05C4B002219780846FFF7CBFE0FB0D3
:10300000BDE8F08FB9F1000F00F0A3804FF01E086B
:1030100000262022494606A8FDF760FC524F9DF885
:1030200019300DF119043B7014F8010FFDF7F6F893
:1030300008F1FF38304418F0FF08C6B2F4D14B4D08
:103040004FF0060BAA461AF8013F93B3002422461C
:10305000D3B29E420BD89AF80030A34218BF8AF828
:10306000008021E001331E2B04D11C4607E0002321
:103070000DF1190111F8010F0028F3D0DCB238333B
:103080006B4413F81E0C019203F0A5F840EAC40447
:10309000E4B2214606A809F076F99AF80030019AC0
:1030A000A34202F10102D3D10BF1FF3B1BF0FF0B56
:1030B000C9D14946202206A8FDF710FC4FF00008B0
:1030C0004FF001095FFA88F39E420FD800F0F2FA40
:1030D000002844D1244809F07BF802A800F02BFD19
:1030E0008DE701331E2B04D11C4607E000230DF1B0
:1030F000190212F8011F0029F3D0DCB238336B44F7
:1031000013F81E0C03F067F840EAC404E4B2214649
:1031100006A809F038F92A46002312F8011FA14237
:1031200002D021B93B449C7008F10108CAE7013381
:10313000062BF2D16F2CF7D80EAB03EBD40313F8A8
:10314000302C04F0070409FA04F4144303F8304C5B
:10315000EAE7082249460448FDF73AFBB6E7FFF7DD
:103160000FFFB3E75F170020571700205817002004
:1031700008B5064B1B7823B9054B1B780BB1FFF73D
:10318000C9FEBDE80840FFF7FBBE00BF5F17002087
:103190006D41002070B5044658B109F007F80C4B9A
:1031A000834205D0184608F0FBFF0122094B1A7034
:1031B00070BD00F089FB0378022BF9D1044D204645
:1031C0006B6898472046AB68BDE87040184700BF61
:1031D000640C00203810002038B5044688B108F08F
:1031E000E5FF114C84421ED00122104B1A7001F0F1
:1031F00073FA0F4809F036FD2046BDE8384008F064
:10320000CFBF0B4B1B78042B05D1074D6B6898473C
:103210002046AB68984706480BF031F904480BF09C
:103220003DFD01F061FA38BD3C100020B23D0020A8
:103230006C46002010B50C4B04461A78824204D02C
:103240000128187002D0022807D010BD0020FFF717
:10325000A1FF2046FFF7C0FFF7E70020FFF7BCFF04
:103260000120FFF797FFF0E7780C0020014B18785A
:10327000704700BF780C002010B50E4B0E4C1B7829
:10328000052B13D1206810B909F07CF9206009F0F2
:10329000BDF941F6573398420AD900230120236033
:1032A000064BBDE81040187000F066B8002323609C
:1032B00010BD00BF6C460020601700206E4100204A
:1032C00010B50B4C2378052B10D1B4F84C309B076C
:1032D00008D509F007F928B120460BF05BF905483D
:1032E0000AF061FBBDE8104009F01EB910BD00BF37
:1032F0006C460020A086010008B5044B1B78012B0A
:1033000001D1FFF7DDFF012008BD00BF780C0020D0
:10331000014B1878704700BF6C170020014B1870E4
:10332000704700BF6C17002008B509F02BF9014B5E
:10333000186008BD68170020014B1870704700BF67
:1033400066170020014B1878704700BF66170020F1
:10335000302310B583F3118800F0C8FD002484F3F6
:10336000118872B600F0F8FE00F04EFE04F066FB25
:1033700084F3118862B610BD014B1870704700BF0E
:103380006517002010B5074C237828B11BB1FFF753
:10339000CBFF0323237010BD002BFCD10122024B75
:1033A0001A70F8E76C170020651700200F4B70B5F6
:1033B0001E6801F0E9F90E4D044618B900232B7080
:1033C00000240AE0FFF7A0FD18B90A4B1B78042B74
:1033D000F4D02B781BB100232B70204670BD002E3B
:1033E000EED003F0EBFFB042EAD3F4E77C0C002010
:1033F000651700206C46002010B5FFF785FD70B9F9
:10340000084B1B785BB9084C2378012B07D001F0DF
:103410006BF920460BF042FC20460BF030F80120FF
:1034200010BD00BFBD2100206C46002008B5FFF78D
:10343000E3FF38B1044B186809F0E8F8C72894BFD7
:103440000020012008BD00BF681700200120704740
:1034500008B5FFF7FBFF38B1044B186809F0D6F840
:10346000C72894BF0020012008BD00BF68170020B6
:1034700070B5FFF749FD044668B9084E3578012D4F
:1034800009D101F029F9304609F0ECFB224621462A
:103490002846FFF77FFC012070BD00BF6C4600206E
:1034A00008B5FFF7E5FF38B1044B186809F0AEF82E
:1034B000C72894BF0020012008BD00BF6817002066
:1034C0007047000008B507F0FBF8003818BF01206E
:1034D000044B187007F0E4F809F01DF8FFF7F0FF4F
:1034E00008BD00BF64170020002310B5074C2370EF
:1034F000FFF76CFBFFF72CFF2378054A022B18BF60
:1035000003231370FFF792FB10BD00BF6617002066
:103510006C17002008B5064B1B780BB107F0AEF80E
:1035200009F002F801F0C0FDBDE8084003F04CBF0F
:103530006417002010B5154C2378032B1BD8DFE847
:1035400003F0020A131BFFF731FFA0B1FFF7ECFEF7
:10355000012323700FE0FFF769FF60B1FFF7B2FFAF
:10356000FFF7E2FE0223F4E7FFF772FF18B1FFF75F
:10357000DBFEFFF7B9FF10BDFFF792FF0028FAD07E
:10358000FFF7C8FFFFF7D0FE0023E2E76C1700202B
:10359000202938B505460C4610D1FFF767FE0128F3
:1035A00006D122462946BDE83840022009F0A2BBD8
:1035B00021462846BDE8384000F0E2BB38BD08F09F
:1035C0000FBD0000054A064B06495A601160516064
:1035D0009A60DA60002219611A707047541F002047
:1035E00070170020841700202DE9F041174C0E467B
:1035F0006768A56807F59C784545E36804D19F4254
:1036000006D10020BDE8F08105F108029342F7E7FA
:103610000F4B22699A1A312A9CBFA3F2CF73236100
:10362000322EEED82369014632461846FDF756F988
:10363000034645453344286023616B6002D1A7608F
:103640000120DFE70835A560FAE700BF701700200A
:10365000531F0020074A10B5D3689268934207D0E1
:10366000D3E90014641A2246FDF738F9204610BD4C
:103670000024FBE770170020074BDA6899688A423C
:1036800008D0596801F59C70824201D1D960704719
:103690000832DA60704700BF70170020014B1878BD
:1036A000704700BF70170020014B1870704700BFB3
:1036B00070170020034BD8689B68C01A18BF012000
:1036C000704700BF70170020104900230A4610B54C
:1036D0000C7C844212D11C2159435018806850B18F
:1036E000FF28515808D048434000411C1C2000FBD3
:1036F00003220120516010BD0131F7E701330A2B8D
:1037000001F11C01E4D10020F5E700BFD00C00203E
:10371000F0B50A4E00253446377C874207D11C207D
:1037200000FB05404176027683760120F0BD01352D
:103730000A2D06F11C06EFD10020F7E7D00C00207F
:10374000094A30B500231446157C854205D11C2258
:10375000012002FB0344A16030BD01330A2B02F1BA
:103760001C02F1D10020F7E7D00C0020094A30B547
:1037700000231446157C854205D11C22012002FB42
:103780000344616030BD01330A2B02F11C02F1D108
:103790000020F7E7D00C002070B50B4C0023254625
:1037A000267C864209D11C204343E818E9500023B7
:1037B0008260C3604374012070BD01330A2B04F1A1
:1037C0001C04EDD10020F7E7D00C002070B50025D7
:1037D0002E462B4C6368002B4FD0E06808BB637CFF
:1037E000B3FA83F35B09637408F0CCFED4E90023D9
:1037F0009342E0602BD266606674E66063690BB149
:10380000207C9847207CFF2824D1002211461046B6
:1038100005F05CFB0735462D04F11C04DAD10120CC
:1038200070BD08F0F3FE23689842D8D26368002B7D
:10383000E4D0204600F0A0FD0028EBD0637C207C83
:10384000B3B1FF280CD1A27E217E607EE0E79B1AF7
:103850006360EBE79628DDD800231A46194604E09A
:103860009628D7D8A37E227E617E05F0C3FAD1E7E1
:10387000FF28CAD09628CDD8EFE76374E360C9E784
:10388000D00C00200246002330B50C1812F8015B62
:103890002B44A242DBB2F9D1435430BD0120704722
:1038A00008B5FFF7FBFF08BD08B54FF4E13008F09D
:1038B000B7FFFFF787FEBDE808402422002101483A
:1038C000FCF786BFE820002000487047800C0020ED
:1038D00000487047830C002000487047810C00208E
:1038E00018B111B189B208F0CBBF704773B5FFF7BB
:1038F000D5FE03280FD8DFE800F040022D3B774BC0
:10390000186808F083FE0A2805D900220220744BAB
:103910001A70FFF7C9FE734D734C08F0BBFF002807
:1039200056D008F0A3FF2A68012A38D0022A3ED0D8
:10393000002A5BD161282FD85F2804D8A0F15A0350
:10394000DBB2032BE9D8012302222B60674B2070E6
:103950001A70E2E7624A13780133DBB2282B02D8EF
:1039600013700020D5E700231370FFF785FEF8E7FA
:10397000FFF782FE0020FFF797FE5D48FFF76AFE23
:1039800001460028C7D05A48FFF7AAFF08F0FAFD01
:10399000524B18600120BCE7AF28BED1D3E7022309
:1039A000524A2B6013786070013B1370B5E723789F
:1039B000612B0FD163780D2B18D10A2816D1FFF790
:1039C0006DFE012802D10320FFF76EFE00232B605D
:1039D00002B070BDAF2B09D16378602B06D10323F1
:1039E0002B60424BA0700130187096E73F49531C82
:1039F0002B600B78A054013BDBB20B70002B8CD1F9
:103A00001946394810F8016B013133448A42DBB260
:103A1000F8D8A25C9A422AD10322364901A8FCF7C1
:103A20005DFF032101A808F02BFF20462978FFF74E
:103A300037FF0028CCD02378602B0AD8592B16D911
:103A40005A3B062B13D8DFE803F015193A3E121241
:103A50004200AF2B0BD1A678202E08D12649324642
:103A60002648FCF73BFF31462448FFF7A8FD00231A
:103A70002B6052E76278224B5A70F8E76378313B4B
:103A8000052BF4D801A252F823F000BFA53A000894
:103A9000AD3A0008B33A00086F3A00086F3A0008E0
:103AA000B93A00080122164B1A70E0E70222144BC3
:103AB000FAE70322124BF7E70422114BF4E762788E
:103AC0000F4BDA70D3E762780D4B9A70CFE76078CE
:103AD000431E58425841FFF755FCC8E7A02000207C
:103AE0009C20002098200020C4200020942000204A
:103AF000E8200020B0FD0008C7200020A4200020FE
:103B0000800C00201FB5002301930293ADF80C3008
:103B1000A123082201460DF105008DF80430FCF7C1
:103B2000DDFE01A80921FFF7ADFE0A21FFF75CFDCC
:103B300005B05DF804FB1FB504461022002168465D
:103B4000FCF746FEA2230E2221460DF101008DF85E
:103B50000030FCF7C3FE68460F21FFF793FE1021EB
:103B6000FFF742FD04B010BD002307B50193A32366
:103B7000022201460DF105008DF80430FCF7AEFE7F
:103B800001A80321FFF77EFE0421FFF72DFD03B0FE
:103B90005DF804FB002307B58DF80630A4238DF8EB
:103BA00004300378022101A88DF80530FFF76AFE82
:103BB0000321FFF719FD03B05DF804FB002307B5EF
:103BC0000093ADF804308DF80630A8230522014695
:103BD0000DF101008DF80030FCF780FE68460621EB
:103BE000FFF750FE0721FFF7FFFC03B05DF804FB71
:103BF00030B5054687B0152200216846FCF7E8FD80
:103C00002846FCF713FDC4B2122C11D8A923224672
:103C100029460DF102008DF800308DF80140FCF7C7
:103C20005DFEA11C6846FFF72DFE1521FFF7DCFCA9
:103C300007B030BD002307B58DF80630A6238DF8F8
:103C40000500022101A88DF80430FFF71BFE0321B7
:103C5000FFF7CAFC03B05DF804FB002307B58DF83D
:103C60000630A7238DF80500022101A88DF8043045
:103C7000FFF708FE0321FFF7B7FC03B05DF804FB74
:103C8000B32307B58DF803209A1A8DF8010010446C
:103C90008DF802108DF80400052168468DF800307B
:103CA000FFF7A2FC03B05DF804FB000007B5032298
:103CB000054901A8FCF712FE032101A8FFF794FCB7
:103CC00003B05DF804FB00BF14FC000830B50C46DF
:103CD0008FB005463122002101A8FCF779FD2E2C7A
:103CE00011D8AB23224629460DF106008DF8043089
:103CF0008DF80540FCF7F2FDA11C01A8FFF7C2FDFD
:103D0000E11CFFF771FC0FB030BD30B50C468FB031
:103D100005463122002101A8FCF75AFD2E2C11D8AE
:103D2000AC23224629460DF106008DF804308DF8AB
:103D30000540FCF7D3FDA11C01A8FFF7A3FDE11C82
:103D4000FFF752FC0FB030BD1FB5002304220293D1
:103D5000ADF80C30AD2340EA014001900DEB0201BB
:103D60000DF109008DF80830FCF7B8FD02A8052117
:103D7000FFF788FD0621FFF737FC05B05DF804FB6F
:103D800030B50C468BB005462422002101A8FCF773
:103D90001FFD202C12D146F2AF13224629460DF109
:103DA0000700ADF804308DF80640FCF797FD23219D
:103DB00001A8FFF767FD2421FFF716FC0BB030BD0B
:103DC00010B50C46062851D8DFE800F004212C3548
:103DD0003E4709001120BDE81040FFF72BBF3020FF
:103DE000FFF728FF002C41D00A212148FFF76EFF82
:103DF00028212048FFF789FF43F22D404EF21A5147
:103E0000FFF7A2FF5220FFF715FF5120E3E7312013
:103E1000FFF710FF54B35220FFF70CFF1648FFF7CF
:103E2000E7FEF2E73220FFF705FFFCB15220FFF773
:103E300001FF1248F3E73320FFF7FCFEB4B1522034
:103E4000FFF7F8FE0E48EAE73420FFF7F3FE6CB107
:103E50005220FFF7EFFE0B48E1E73520FFF7EAFEBF
:103E600024B15220FFF7E6FE0748D8E710BD00BF97
:103E7000A8FE0008B2FE0008B4FD0008BEFD000860
:103E8000C8FD0008D2FD0008DCFD000808B5FFF7FA
:103E900011FC20B95320FFF7CDFE012008BD002002
:103EA000FCE7000010B5C4B20B2C0CBF02200120AF
:103EB000FFF742FA2046FEF77FFE0AF0FEFF4FF0C2
:103EC000FF32014B5A6110BD001800400023054A23
:103ED0000549C2E900130133102B02F10802F8D1A1
:103EE000704700BF28440020A53E00082DE9F0419E
:103EF000FFF7ECFF00254FF001083F4E56F8041B7A
:103F00004A1C0CD021F00F0701F00F0108FA01F450
:103F100021460522384624040AF0F6FFBC6101352B
:103F2000EDB20F2DEAD1062401263027334D55F886
:103F3000040B431C2ED000F00F01202206FA01F1E1
:103F400020F00F000AF0E0FF00BF00BF00BF00BF7D
:103F500000BF00BF00BF00BF00BF00BF00BF00BF69
:103F600000BF00BF00BF00BF00BF00BF00BF00BF59
:103F700000BF00BF00BF00BF87F3118855F8040CD5
:103F8000022200F00F0120F00F000AF0DDFF0023F5
:103F900083F31188013C14F0FF04C8D122464FF48A
:103FA000006117480AF0B0FF00BF00BF00BF00BFAC
:103FB00000BF00BF00BF00BF00BF00BF00BF00BF09
:103FC00000BF00BF00BF00BF00BF00BF00BF00BFF9
:103FD00000BF00BF00BF00BF302383F3118803225E
:103FE0000B2107480AF0B0FF84F31188FEF788FD23
:103FF000BDE8F0410AF042BF38FF000874FF000836
:10400000000800407047000008B508F0AFFE03222A
:10401000214B22499A620C22DA62D1F89020204882
:1040200022F01802C1F8902000229A62DA62D3F8D6
:10403000402C03F5406342F480721A641A6C4FF40A
:10404000006142F002021A6401225A63DA67DA66FA
:1040500008225A615A695A615A6942F001025A614A
:104060009A6C42F4C0629A649A6CDA6C42F008026C
:10407000DA64DA6C9A6C42F480529A649A6CDA6C64
:1040800042F01002DA6440F28232DB6C0AF03CFF4C
:10409000FFF7B8FF08BD00BF000001400004014069
:1040A000000800404FF0E022136910B523F001032F
:1040B0001361234A234B01245A61002200219300FB
:1040C00003F1604303F56143D3F80001012994BF74
:1040D000002000F0010008B1C3F88041013120291F
:1040E000F2D10132082AE9D1174C636843F000731A
:1040F0006360164B1A6802F009021A601A6842F4EB
:104100006C3242F004021A6040F2B3321A62104B71
:1041100043F001039847236943F00403236130BF50
:104120000C4B43F0010398474FF0E022236923F042
:1041300004032361136943F00103136110BD00BF41
:10414000FFFF07000018004000ED00E00000014004
:1041500010FF0008DCFE0008FFF7A4BF38B51A4DB9
:1041600004462B78042B1BD8DFE803F003280E1F2E
:10417000280000231A461946FFF7CAFAFF22322107
:104180002046FFF709FB0BE0FF231A461946FFF70D
:10419000BFFA0322FA212046FFF7FEFA01232B7013
:1041A0002046BDE83840FFF78FBAFF231A4619466C
:1041B000FFF7AEFA01224FF4FA71E1E700232B700A
:1041C000FFF7CCFFECE700BF96210020F8B53B4B92
:1041D00004461D783A4F3B4ECDB13B4B3B4A1B78D2
:1041E00073B100231360012219463270FF223B7025
:1041F000FFF78EFAFF220A212046FFF7CDFA42E0B0
:1042000013600122FF2132703B701A46F0E7FFF77E
:104210005FFB03780F2B42D833783D70C3B32A4637
:104220002B46FF212046FFF773FA01224FF4FA7163
:104230002046FFF7B1FAFFF74BFB03781BBB234D7A
:10424000286818B908F09EF92860E0B108F0DEF996
:1042500046F2A813984216D902F014FB286890B1D0
:1042600008F0D4F946F2905398420CD902F00AFBB8
:1042700000232B600125164B11201D70FFF7DAFC7F
:104280002846FFF779F82046BDE8F840FFF71CBA4A
:104290001A4619462046FFF73BFAFF22C6E70123DC
:1042A0000A4A29463B70156033702A462B46204641
:1042B000FFF72EFAFF224FF496719DE7BD210020F3
:1042C000AD210020870C0020BC21002020210020EF
:1042D000AC210020FF2810B504461CD10E4BD3F8AA
:1042E000143123F07F43B3F5405F0DD1002230231A
:1042F0001146FFF70DFA20460121FFF721FA20466B
:10430000BDE81040FFF7E0B9B3F5401F03D100232B
:1043100030221946EDE710BDD00C002070B51D46C7
:104320000C4B0E465B781446DB060DD50A4B18780D
:1043300001F051FF022808BF3446E0B26B792BB17F
:10434000BDE8704001F0BCBFC0B2F7E7BDE8704007
:1043500001F0FEBF74410020F521002008B5054B97
:1043600000211870FB20FFF701FABDE80840FB2090
:10437000FFF7F4BE9621002010B5037C0446FA2B0B
:104380000AD0FB2B3BD0294B1B78BBB9FDF78EFF26
:1043900080F00100C0B212E0254B1B7873B9234BAB
:1043A0001B785BB9234B1B78DB0607D506F0B4F905
:1043B0001D2805D1627C204B9AB91A70002010BDCF
:1043C00006F0AAF92028F5D0637CB3B1637E53B917
:1043D000237E002BF2D0A37E002BEFD1FF221946C3
:1043E00007E00122E9E7A36913F0FF13E6D11A46BB
:1043F000FF21072004F0FEFCE0E71A46EFE70C4B34
:104400001B78012B0ED0033B012BD7D80B4B1B780D
:10441000002BD3D0437C002BD0D0837E027E417E04
:104420005020E7E7FDF742FFC8E700BFB2210020B8
:104430009621002074410020AA2100207041002014
:10444000014B186802F040BF744100200B8813B57F
:10445000A3F5FC430A2B28D8DFE803F0062A435CC7
:1044600027272727A9277400684B01201A780DF108
:104470000701C2F3420352098DF80730FEF774FAC0
:104480009DF80720042A10D81523D340D9070CD54E
:10449000FEF73AFD01221146FEF77CFC01225C4B3F
:1044A0001A7008F06FF8FEF781FA002002B010BD14
:1044B000564B01201A780DF10701C2F3420352094D
:1044C0008DF80730FEF750FA9DF80720042AECD843
:1044D0001523D340DA07E8D5FEF716FD01220221A5
:1044E000DAE74A4B01201A780DF10701C2F34203C3
:1044F00052098DF80730FEF737FA9DF80720042A95
:10450000D3D81523D340DB07CFD5FEF7FDFC01221E
:104510000321C1E73D4B01201A780DF10701C2F3D9
:10452000420352098DF80730FEF71EFA9DF8073056
:10453000DA1E012A01D9002BB7D1FEF7E5FC0122D2
:104540000621A9E7334B187801F045FE02280CBF7D
:1045500001220022304B1A701BD1002001F09DFD7A
:10456000002002F00CFA0022FF2311461A20FFF768
:10457000CFF88120FFF771FB00211A20FFF7F6F832
:104580000322FA211A20FFF707F91A20FFF79CF8F7
:104590008BE7022001F081FD002002F0F0F9FF23FB
:1045A0001A201A461946FFF7B3F88020E2E7174AA7
:1045B0005178C1F3C00383F0010363F3C30111F029
:1045C0000804164B517016D001221A800023FF21D7
:1045D0001A462420FFF79CF800212420FFF7C6F894
:1045E0000322FA212420FFF7D7F82420FFF76CF8E4
:1045F000FFF726FF59E708221A80FF2324201946D7
:104600001A46FFF785F82146E7E700BF744100200E
:1046100095210020F5210020B0210020EC0D002084
:10462000024B587800F00700704700BF744100202B
:10463000024B5A7860F302025A70704774410020AE
:104640000022174B10B51A700122164C164B1A7027
:104650002368164A1A40164B13432360FF23237125
:10466000FEF752FC237860F343032370FDF750FEFE
:10467000FFF7E6FE0F4B187870B102280CD000202F
:1046800002F07DF9BDE810400B4B1A7842F0800231
:104690001A70188802F011BE01F0FFFCEFE700BFAE
:1046A000A921002074410020EA0D00200E80E0F0D6
:1046B00031270400AB2100208E41002008B502F014
:1046C00000FE044B186018B9BDE80840FFF7B8BFFA
:1046D00008BD00BF744100204FF40032014B9A61C5
:1046E000704700BF000400400222014B9A617047EE
:1046F000000400404FF080434FF080729A6107F051
:10470000EFBE00004FF080434FF4807210B59A6105
:104710004FF4007280219A61174801220AF0F4FBDD
:104720004FF40003144C0122A361402120460AF0FB
:10473000EBFB124B5B7813F0400316D040230022B2
:10474000A3610F4B1A70FEF7DFFB0446FEF7DCFB9C
:10475000002201462046FEF71DFB07F0C2FE07F0CF
:1047600011FFBDE81040FEF721B94FF48002024965
:104770008A61044A1370E6E7000400407441002097
:10478000EA0D0020A92100200120704738B5134D03
:10479000134C2868C8B107F039FF632815D9702079
:1047A000FFF748FA5520FFF745FA5720FFF742FA7E
:1047B0002178002201F00E00B0FA80F0C1F342012E
:1047C0004009FEF7E7FA00232B6021780020BDE8BE
:1047D00038404A09C1F34201FEF784B9C0210020E4
:1047E000744100208C4B73B51880A0F5FC400C463A
:1047F0000A2800F20E81DFE810F034007200930006
:10480000B300D7000C010C010C0114000C011400C2
:10481000824C207806F01AFC00232370002002B09E
:1048200070BD4B79002BF3D0FEF76EFB0446FEF70C
:104830006BFB844209D0FEF767FB0446FEF764FB7E
:10484000002201462046FEF7A5FA744C2378002B7F
:10485000E4D140F6B830704A714906F0E9FB2070A7
:10486000DCE7704B01201A780DF10701C2F3420317
:1048700052098DF80730FEF777F89DF80720042AD3
:1048800026D81523D340D90722D56679634D002E4B
:1048900000F08580FEF738FB012805D0FEF734FBD9
:1048A00000220121FEF776FA2B7833B940F6B830B2
:1048B000594A5B4906F0BCFB2870637943B107F0A5
:1048C00033FE0022584B1A7007F05CFEFEF76EF8BC
:1048D000FF20FFF7AFF90022544B1A709EE7514BAF
:1048E00001201A780DF10701C2F3420352098DF835
:1048F0000730FEF739F89DF80720042AE8D8152379
:10490000D340DA07E4D56679444D002E47D0FEF750
:10491000FBFA0228C8D0FEF7F7FA00220221C1E70D
:10492000404B01201A780DF10701C2F342035209EE
:104930008DF80730FEF718F89DF80720042AC7D82D
:104940001523D340DB07C3D56679344D3EB3FEF75C
:10495000DBFA0328A8D0FEF7D7FA00220321A1E74B
:10496000304B01201A780DF10701C2F342035209BE
:104970008DF80730FDF7F8FF9DF80730DA1E012AA1
:1049800001D9002BA4D16679244D46B1FEF7BCFABB
:10499000062889D0FEF7B8FA0022062182E7287897
:1049A00006F054FB2E7088E71E4B01201A780DF19B
:1049B0000701C2F3420352098DF80730FDF7D4FF17
:1049C0009DF80730DA1E012A01D9002B83D16579C1
:1049D000124CCDB1FEF798FA28B1FEF795FA0022F5
:1049E0001146FEF7D7F9237833B940F6B8300A4AB2
:1049F0000B4906F01DFB207000220B4B1A7007F0CC
:104A0000C1FDFDF7D3FF66E7207806F01FFB257098
:104A1000F2E7012003E700BF1C2100201B2100203A
:104A20004D44000874410020952100209C21002065
:104A3000F8B504460D46FEF747FF0378022B03D175
:104A400007F0A0FDFDF7B2FF47F621039C421BD003
:104A500015D845F2212224F00203934228D16F7920
:104A600097B9FDF723FC78B11B4E337823B1294663
:104A700020463770FDF722FC0123337004E0A4F5D3
:104A8000FC43123B032B13D8FDF710FC10B3A4F525
:104A9000FC43123B032B1CD947F621039C4218D040
:104AA00045F2212024F00204231A5842584110E014
:104AB000FDF7FCFB0028E7D0A4F5A443203B1F2B07
:104AC000E2D96B79002BDFD029462046FDF7F6FBB3
:104AD0000020F8BD0120FCE7704100201E3808B519
:104AE0000B4627286DD8DFE800F0141B1F23272B67
:104AF0002F33373B6C6C6C6C6C3F436C6C6C6C6C28
:104B00006C6C6C6C6C6C474B4E5154575A5D6063C7
:104B100066693A22BE211E20FFF700FC002008BD76
:104B20003B22BD211F20F7E73C22C1212020F3E7D3
:104B30003D22C2212120EFE73E2222201146EBE751
:104B40003F2223201146E7E74022AC212420E3E75F
:104B50004122AE212520DFE74222AB212620DBE7E0
:104B60004322A8212720D7E74422AA212D20D3E7DA
:104B70004522A9212E20CFE7B3223A210846CBE7D0
:104B8000B5223B21FAE7B1223C21F7E7B2223D21D1
:104B9000F4E7AF223E21F1E7AD223F21EEE7AC2260
:104BA0004021EBE7AE224121E8E7AB224221E5E7D5
:104BB000A8224321E2E7AA224421DFE7A9224521D6
:104BC000DCE70120ABE7000073B5154606461C463E
:104BD000019107F0D7FC084B03221860074B6400D3
:104BE0001E60074B01A91D60064B07481C60FBF7C0
:104BF00075FE02B070BD00BF90210020842100200E
:104C00008C210020882100207E210020F7B5474B11
:104C1000474E0D46377814461A70FEF775F9C7F3FC
:104C20004207874213D0FEF76FF9337800F0070090
:104C300060F343033370DAB203F00E032BB10328A1
:104C40009EBF134660F347133370FFF7F9FB062D41
:104C500069D8DFE805F057041C3068684400FF237A
:104C60006CB100228DF80630ADF804200123C82273
:104C70000420019903B0BDE8F040FFF7A5BF8DF80F
:104C800006304FF4FA720123ADF80440F0E7FF2339
:104C90004CB100228DF80630ADF804200123C82263
:104CA00003200199E6E78DF806304FF4FA720123EC
:104CB000ADF80440F4E7FF234CB100228DF8063034
:104CC000ADF804200123C82202200199D2E78DF813
:104CD00006304FF4FA720123ADF80440F4E74FF4C4
:104CE0007F43ADF804303CB10023C8228DF8063074
:104CF000012318460199BDE701234FF4FA728DF89C
:104D00000640F6E74FF6FF73ADF804308DF8063035
:104D100001231CB1C82200200199ABE74FF4FA72BD
:104D200020460199A6E703B0F0BD00BF9421002002
:104D30007441002010B5FEF7C7FD0378022B13D095
:104D4000FEF7E2F818B90A4B1B78042B0AD0FEF7DD
:104D5000DBF80446FEF7D8F8064B01461A782046E1
:104D6000FFF754FF012010BD01F05BFA0020FAE7C5
:104D70006C4600209421002070B5164C2068D0B1FC
:104D800007F044FC144B154D1B68984208D2144B95
:104D900018682B6813F0010313D11A46194614E062
:104DA00007F0F0FB2B68206033B900232360FFF786
:104DB000C1FF0028EBD170BD013B2B60002BE6D179
:104DC000F3E708498B784A780978BDE8704004F029
:104DD00011B800BF902100208C21002088210020E4
:104DE000842100207E21002008B53023FF201A46B0
:104DF0001946FEF78DFC0322FA21FF20FEF7CCFCBA
:104E0000FF20FEF761FC012008BD0000204B2DE9CA
:104E1000F0411B7813B30025DFF878804746002463
:104E20002846E1B202F0C4FD064660B13B7853B9B2
:104E30004DB9012C14D16020FEF7FCFE224605215D
:104E40002846FEF71DFF01340F2C07F8016BE7D150
:104E50000135EDB2062D08F10F08DFD1BDE8F08174
:104E6000022C06D16020FEF7E5FE01220521132069
:104E7000E7E7032C06D16020FEF7DCFE01220521C6
:104E80002720DEE7042CDED1FEF710FFDBE700BFB2
:104E9000AE210020242100204FF080431A692DE923
:104EA000F0411B69584CC2F3C011584E21701206D4
:104EB00003F40041C3F3C033337069D500290CBF3C
:104EC00064256625524F3868002863D107F05AFBE5
:104ED00038602846FEF7AEFE5320FEF7ABFE4D4F7E
:104EE000FFF794FF387801F076F9002858D00228AF
:104EF00056D0DFF8248198F800307BB1474D286800
:104F000007F084FB4F2809D94FF40002444B9A6103
:104F1000002388F8003007F035FB2860DFF80481B3
:104F200098F800307BB1404D286807F06FFBC72828
:104F300009D94FF400023A4B9A61002388F80030F7
:104F400007F020FB2860394D2B7853B9387801F0F1
:104F500042F902280CBF80208120FEF77EFE01234B
:104F60002B70FDF7D1FF324D2B78834207D0FDF730
:104F7000CBFF2870FDF7C8FFFF20FEF75BFE05F0B2
:104F8000CBFB1D280FD12B4B1B788BB1BDE8F081DB
:104F9000652597E707F03AFBB0F57A7F96D89EE74C
:104FA000254B1870A5E705F0B7FB2028EED1EAE7FE
:104FB000224B1A78002AE9D1214B1B78DB06E5D574
:104FC0002578204C6DB1337843B11346FF22194642
:104FD000072003F00FFF01232370D7E71A46FF21B4
:104FE000F6E7FEF775FC03780F2BF4D8237833B976
:104FF0001A461946BDE8F041072003F0FBBE2B46D8
:105000002A46FF21F6E700BFBD210020BC21002079
:1050100014210020F5210020A8210020A421002037
:1050200000040040E90D0020A021002011210020F3
:10503000860C002096210020AB210020B221002008
:1050400074410020AA2100202DE9F3410026FF270A
:10505000144D054400EB80004400E4B28DF800409C
:105060008DF801708DF80270009815F8018B03F02F
:10507000B9F9C0F30721C0F307438DF804008DF898
:1050800005108DF80630C2B2DBB24046C9B2013617
:1050900003F0B0FE0A34052EE4B2DFD102B0BDE861
:1050A000F08100BF880C002038B5FDF72DFF0446C5
:1050B00070B924480578012D0AD14FF40032224BF3
:1050C0009A6107F0CFFD224621462846FDF762FE91
:1050D0001E4C002021781C4D4A09C1F34201FDF706
:1050E00001FD4FF080434FF480729A614FF40072DB
:1050F00040219A611448202209F006FF20228021D5
:10510000114809F001FF012280210F4809F0FCFE3F
:105110004FF400030122AB614021284609F0F4FE60
:10512000637813F0400305D040230022AB61084BA5
:105130001A7038BD4FF4800203498A61054A137022
:10514000F7E700BF6C4600200004004074410020D7
:10515000EA0D0020A9210020F8B5002401270A4EFD
:1051600000252046E9B202F023FC28B1052C03D12A
:1051700015B901253770F4E701350F2DF1D1013450
:10518000E4B2062CECD1F8BDAE2100201A4B07B5D5
:105190001B7873B3194B1B78032B17D8DFE803F088
:1051A000022124274FF47F43ADF80430A0238DF86B
:1051B0000630019803F016F9C0F307238DF80000BC
:1051C000C0F307408DF801308DF802009DF80220F1
:1051D0009DF800109DF8010003B05DF804EB03F0AA
:1051E00075BE4FF65573DFE74FF6AA73DCE7002371
:1051F000DAE703B05DF804FBB2210020B121002002
:105200000A4B9B7803F00703032B0BD8DFE803F06E
:105210000C0206081123064A137070471E23FAE792
:105220002A23F8E73723F6E70823F4E77441002040
:105230009D21002038B5FFF741FA01224FF480711B
:105240004FF0804009F060FE4FF080444FF48073CF
:10525000A3614FF400333B4D0122AB61284602218C
:1052600009F052FE20460022802109F04DFE204622
:1052700020224FF4004109F047FE28462022402119
:1052800009F042FE28462022802109F03DFE2046FA
:1052900001224FF4007109F037FE4FF40073A3614F
:1052A000294CFDF773FD21780022C1F34201012052
:1052B000FDF770FD07F066F9244BFF221860C82146
:1052C000FA20FEF769FAFA20FEF7FEF9FF22C8215C
:1052D000FB20FEF761FAFB20FEF7F6F9FDF714FE5E
:1052E000FF20FEF7A7FC02F08DF8A078C0F3C10004
:1052F000FCF798FF28460122802109F005FE4FF4B3
:10530000000301222846AB61402109F0FDFD6378CE
:1053100013F0400115BF40224FF4800200210948DC
:1053200015BFAA6182610A4A0A4A13F0080F117078
:105330000CBF01220822084B1A80BDE83840FFF755
:105340005FBF00BF0004004074410020C021002066
:10535000EA0D0020A9210020EC0D002008B502F084
:105360000FF803F015FD01F0A5FF044B1880FFF7BF
:105370003BFDBDE80840FFF75DBF00BF8E41002048
:105380002DE9F04106460C46FFF752FB002800F0DD
:105390000B8121463046FFF7A1FB002800F0048175
:1053A00021463046FFF71EFA0746002800F0FC8031
:1053B000B54B1B7823B147F60E639E4240F0F48054
:1053C000DFF8C88298F8003053B1637943B12C2ECE
:1053D00006D000221146104688F8002003F076FD22
:1053E000AB4D2B7813F00E0F40F0D080B6F5F84F90
:1053F00000F07D8100F2A88045F202239E4200F079
:10540000E7827AD87E2E4CD87A2E3FD82C2E00F008
:105410007F813846BDE8F081A6F5FC46053E182E92
:10542000F7D801A353F826F0B95900081D56000813
:105430003D58000813540008015700081354000891
:10544000E75A0008AB570008F15700083556000826
:10545000DF560008AD550008E1550008975A0008CE
:10546000255A00085D5A00087D5A000813540008A8
:10547000135400081354000813540008355700084B
:105480005B570008795700086B5600087C3EE02007
:105490006379022E00F2EF80DFE816F006010F01BB
:1054A0001801E72E16D8E02EB3D9E13E062EB0D86B
:1054B00001A353F826F000BF235C00081354000832
:1054C000B55B000813540008235C0008135400085F
:1054D000E75B0008B6F5A44F9BD16379002B63D03E
:1054E0006C4B187800F077FE02285DD1002000F0A8
:1054F000D4FD002001F043FA56E047F213039E4228
:1055000000F0A180A6F5F046203EB3B20A2B80D869
:105510000A2E3FF67EAF01A353F826F097570008F6
:10552000295B000813540008895B00081354000825
:105530009759000875590008C55800080D5900080A
:10554000555800088958000847F61D639E423FF6EB
:1055500060AF47F604639E423FF65EAF47F60343F3
:105560009E4200F0308247F616439E427FF451AFD0
:105570006279494B002A49D0484A1278002A0CBF68
:10558000292035201A7000F00DFD0DE0FEF79CF982
:105590000378032B7FF42AAF331FA02B04D9A6F185
:1055A000E003072B3FF622AF002732E7EB7803F04A
:1055B0000F030C2BF8D06379002BF5D0AB7803F0F8
:1055C0000702032A08D8013262F30203AB70FFF727
:1055D00017FEFEF735FFE7E7042AF8D00422F3E7C9
:1055E000EB7803F00F030C2BDED06379002BDBD0BC
:1055F000AB785E0703D1AB7823F00703E6E7DA1D4B
:1056000062F302035C07AB70E1D1F4E71B78002B77
:105610000CBF2920352000F0DBFCC5E76379002BA7
:10562000C2D06B78C3F3001282F0010262F304135C
:105630006B70CEE763791A4C002B00F0C78106F03F
:10564000A1FF2060B0E76379002B3FF4E2AE0023B6
:1056500030211A46FF20FEF75BF80121FF20FEF7FC
:105660006FF8FF20FEF730F8D3E662790D4B02B1F8
:1056700001221A7098E71BB100F094FC1B2082E70E
:1056800000F0A6FC1B20C6E7AE210020B2210020BE
:1056900074410020F52100201A210020AF210020B4
:1056A000B42100206D4100201BB100F07BFC0620DE
:1056B00069E700F08DFC0620ADE71BB100F072FC3D
:1056C000192060E700F084FC1920A4E71BB100F06A
:1056D00069FC092057E700F07BFC09209BE7637910
:1056E000002B3FF496AE6220FEF7A4FA91E66379B0
:1056F000002B3FF48EAE01F0BAFD06F09FFF88E666
:105700006379002B3FF450AF012388F800304BE75A
:1057100098F80030002B3FF47CAE6379002B3FF407
:1057200043AFB24A13780133DBB2032B88BF0023A7
:10573000137039E763794BB1FCF7B8FD30B9E2205B
:1057400000F0BEFD2B2000F0BBFD62E6E22000F081
:10575000FFFD2B2000F0FCFD5BE663793BB1FCF71D
:10576000A5FD20B9E32000F0ABFD0B20EBE7E32023
:1057700000F0EEFD0B20EDE763793BB1FCF796FD01
:1057800020B9E32000F09CFD0720DCE7E32000F0D7
:10579000DFFD0720DEE76379002B3FF405AF2B78B0
:1057A000DA4362F300032B7013E76379904CEBB19B
:1057B0002178D9B96B78402243F040036B70012502
:1057C0008C4B1D708C4B9A618C4A107828B11170EB
:1057D000FEF736FE01232370E6E680229A6106F08A
:1057E000D1FE874B1860874B1D70F1E70023F2E76D
:1057F0006379854EFBB13578EDB9802201247E4B6B
:105800009A61824B1C7006F0BDFE814B1860FF232D
:1058100046201A461946FDF77BFF29464620FDF72C
:10582000A5FF0322FA214620FDF7B6FF4620FDF72B
:105830004BFF3470B8E600233370B5E66379002B74
:105840003FF4B2AE2B78C3F3001282F0010262F390
:105850000413A8E7FCF72AFD054600287FF4A4AE50
:105860006379002B3FF4D5AD05F046F8D6287FF6D6
:10587000D0AD29461120FDF779FF0322FA2113202C
:10588000FDF78AFF1320EDE6FCF710FD00287FF4FA
:105890008BAE6479002C7FF4BCAD05F02DF85F2849
:1058A0003FF6B7AD21461320FDF760FF0322FA2132
:1058B0001120FDF771FF1120FDF706FF372005F0DD
:1058C00013F871E6FCF7F2FC054600287FF46CAE95
:1058D0006379002B3FF49DAD04F088FF10F0800F3A
:1058E0004C4C0ED029461220FDF740FF0322FA212E
:1058F0001520FDF751FF1520FDF7E6FEA023A3704C
:1059000087E504F073FF2030A07082E5FCF7CEFC41
:10591000054600287FF448AE6379002B3FF479AD4B
:1059200004F064FF20281FD829461520FDF71EFF2C
:105930000322FA211220FDF72FFF1220FDF7C4FEEB
:1059400006F042FCC0F34004800703D50022314B2F
:105950009A705EE5002320461A461946013403F08A
:1059600049FA972CF6D1F1E704F040FF294B203893
:1059700098704EE56379002B3FF416AE04F0CCFE30
:10598000022805D16B7823F020036B70FEF758FDD9
:10599000FCF7B2FD08E66379002B3FF405AE04F096
:1059A000BBFE022805D16B7823F020036B70FEF755
:1059B00047FDFCF77FFDF7E52B78174A13F00E0340
:1059C00018BF6379B4E66379144C35E62360EBE5E0
:1059D0006379002B3FF4E8AD114B187800F0FBFB26
:1059E00002283FF4E1AD022081E500BFB121002093
:1059F00019210020A921002000040040EA0D002008
:105A0000A4210020A821002018210020E90D002059
:105A1000A0210020714100206C410020B82100200D
:105A2000F52100206379002B3FF4BEADA87800215A
:105A3000C0F3C100FCF71EFB0020AB7823F0180375
:105A4000AB70FCF7E3FBFEF7FBFCA878C0F3C100EA
:105A5000FCF7FEFB0020FEF781FCA5E56379002B37
:105A60003FF4A2ADA8780021C0F3C100FCF702FB0F
:105A70000120AB7860F3C403AB70E2E76379002BDD
:105A80003FF492ADA8780021C0F3C100FCF7F2FA10
:105A90000220AB78EEE76379002B3FF485AD04F08C
:105AA0003BFE2D287FF480ADFCF700FC0446A8786F
:105AB0005E4DC0F3C1007CB9FCF7DEFB5C4B1C7093
:105AC00006F060FD2246286021462046FCF77EFB5A
:105AD0000320FEF743FC7CE5002401212C60FCF749
