:020000040800F2
:1000000000040020B9010008BB010008BB01000882
:10001000BB010008BB010008BB010008BB010008D0
:10002000BB010008BB010008BB0100083D0E010830
:10003000BB010008BB010008BB01000897220108B2
:10004000BB010008BB010008BB010008BB010008A0
:10005000BB010008BB010008891F0108B11F01088E
:10006000D91F01080120010829200108BB0100084F
:10007000BB010008BB01000829290108BB010008D9
:1000800051200108BB010008BB010008BB010008AA
:10009000BB010008BB010008BB010008BB01000850
:1000A000BB010008BB0100083D25010851250108DE
:1000B000BB010008BB010008BB010008BB01000830
:1000C000B5220108B5200108BB010008BB010008EA
:1000D000BB010008BB010008BB010008BB01000810
:1000E00072B6264880F30888254880F30988254899
:1000F00025490860022080F31488BFF36F8F10F049
:10010000D1FB0FF089FF4FF0553020491B4A914237
:100110003CBF41F8040BFAE71D49194A91423CBF24
:1001200041F8040BFAE71B491B4A1C4B9A423EBF9D
:1001300051F8040B42F8040BF8E700201849194A5B
:1001400091423CBF41F8040BFAE710F0AFFB10F00E
:10015000AAFB154C154DAC4203DA54F8041B884732
:10016000F9E70AF0A5FE124C124DAC4203DA54F83E
:10017000041B8847F9E710F097BB0000000400203B
:10018000000C00200000000808ED00E00000002046
:100190000004002070400108000C00202015002001
:1001A00020150020184B0020E0000008E0000008A7
:1001B000E0000008E000000892E700F000F8FEE729
:1001C0002DE9F04FC1F80CD0C3689D46BDE8F08F13
:1001D000002383F311882846A047002010F034FD47
:1001E000FEE710F08BFC00DFFEE7000053B94AB9D0
:1001F000002908BF00281CBF4FF0FF314FF0FF302F
:1002000000F09AB9ADF1080C6DE904CE00F01AF8CF
:10021000DDF804E0DDE9022304B07047430803F091
:100220005533C01A830803F0333300F033301844D9
:1002300000EB101000F00F3000EB002000EB00404E
:10024000000E70472DE9F047089D0F4604468E4684
:10025000002B48D18A42164661D9B2FA82F24AB1DD
:10026000C2F1200301FA02FE20FA03F3964043EAAA
:100270000E0E94404FEA164CBEFBFCF1B7B20CFBDD
:1002800011EE01FB07F0230C43EA0E43984209D913
:10029000F31801F1FF3E80F0ED80984240F2EA80D1
:1002A000023933441B1AB3FBFCF00CFB103300FB88
:1002B00007F7A4B244EA0344A74209D9341900F16C
:1002C000FF3380F0D980A74240F2D6803444023810
:1002D00040EA01400021E41B1DB10023D440C5E9E0
:1002E0000043BDE8F0878B4206D90DB1C5E9000196
:1002F00000210846BDE8F087B3FA83F1002947D111
:10030000BB4202D3824200F20481841A67EB0302EB
:1003100001209646002DE4D0C5E9004EE1E7002A11
:1003200000F09080B2FA82F2002A40F0A780881B89
:100330000121370C1FFA86FEB0FBF7FC07FB1C00FF
:10034000230C43EA00430EFB0CF0984207D9F31844
:100350000CF1FF3802D2984200F2E080C4461B1A2A
:10036000B3FBF7F007FB10330EFB00FEA4B244EA28
:100370000344A64507D9341900F1FF3302D2A6453C
:1003800000F2C9801846A4EB0E0440EA0C40A3E733
:10039000C1F120068B4022FA06FC4CEA030C27FA36
:1003A00006FA4FEA1C49BAFBF9F88F4020FA06F327
:1003B00009FB18AA1FFA8CFE3B4300FA01F708FB61
:1003C0000EF01C0C44EA0A44A04202FA01F20BD9D6
:1003D0001CEB040408F1FF3A80F09980A04240F23F
:1003E0009680A8F102086444241A98B2B4FBF9F389
:1003F00009FB134403FB0EFE40EA0444A64508D95A
:100400001CEB040403F1FF307FD2A6457DD9023BEB
:10041000644443EA0840A4EB0E04A0FB028E74453A
:100420004346F14661D35ED055B1FA1A64EB090434
:1004300004FA06F622FA01F31E43CC40C5E9006433
:1004400000214EE743084FEA510C43EAC1710A0C00
:1004500042EA0C428BB2C407B2FBF6F143EA024314
:10046000BCFBF6FCB646304637461F22181A41EA56
:100470000C4161E7714615E7184629E7C2F12003F0
:1004800021FA03F0964024FA03F397403B43370CDC
:10049000B0FBF7F807FB18001FFA86FE190C41EABB
:1004A000004108FB0EF0884204FA02F43AD97118B0
:1004B00008F1FF3C01D288421ED8091AB1FBF7F8B7
:1004C00008FB0EF007FB18119BB243EA014383427D
:1004D0002FD2F31808F1FF31C8D28342C6D2A8F157
:1004E00002013344C2E747459ED2B8EB02036EEBEC
:1004F0000C0E0138F14697E7301A0144A8F1020CBE
:10050000B1FBF7F808FB0EF0DCE7034681E7D046C5
:100510006AE70846FEE63444023834E7ACF1020CE0
:1005200033441CE7091AC446B1FBF7F808FB0EF088
:10053000C8E741469AE700BF704700BF38B5124B85
:1005400004461D682A6B1AB10023C2E9044338BD72
:10055000182000F039FA0246286378B100210B23F5
:1005600001209381C2E90401084B0949094DC2E900
:10057000011300231560C2E9044338BD4621064B30
:10058000064800F0FFF800BF000C0020ECDE05007C
:1005900034126DE60E33CDABA83F0108C03F010811
:1005A00038B5194B1C68226B8AB113691749546915
:1005B00003FB01F1164800FB0411A3FB00300133DB
:1005C00041EB0001C2E9043121F0004038BD1820A0
:1005D00000F0FAF90246206388B1012400250B23BC
:1005E0000A480C49C2E90445116001460A4D0B4C0A
:1005F00093810B4BC2E90154C2E9043138BD522149
:10060000084B094800F0BEF8000C00202DF45158AA
:100610002D7F954C0E33CDAB34126DE6ECDE05002C
:100620002E7F954CA83F0108C03F010820F0030130
:1006300010F00300C0F1000051F8043B00F1040C7D
:100640004FEACC0C6FF000021CBF22FA0CF21343ED
:100650004FF0010C4CEA0C2C4CEA0C4CA3EB0C02B6
:1006600022EA030212EACC1204BF51F8043B043020
:10067000F4D0C2F1000102EA0102B2FA82F2C2F140
:100680001F0200EBD200704788420ED98B188342BC
:100690000BD900EB020C002A6DD0624613F801CD95
:1006A000994202F801CDF9D170470F2A0FD80346BD
:1006B00002F1FF3C002A5ED00CF1010C013B8C449E
:1006C00011F8012B614503F8012FF9D1704740EA79
:1006D00001039B0750D1A2F1100370B501F1200C6A
:1006E00023F00F0501F1100E00F11004AC441B09BA
:1006F0005EF8105C0EF1100E44F8105C5EF81C5CA5
:10070000103444F81C5C5EF8185C44F8185C5EF821
:10071000145CE64544F8145CEAD1013312F00C0F86
:1007200001EB031102F00F0400EB031328D08E46F7
:10073000043C24F003064FEA940C1E441C1F5EF890
:10074000045B44F8045FB442F9D10CF1010402F0F7
:10075000030203EB840301EB840102F1FF3C4AB185
:100760000CF1010C013B8C4411F8012B614503F89D
:10077000012FF9D170BD7047034602F1FF3C9BE7A2
:100780002246EAE7144600B51A460A4B0D461B6896
:1007900085B0DE6803464CB10749019130460749F0
:1007A0000294009500F02EF900F090F804490C46F0
:1007B000F3E700BF000C0020EC3F0108FC3F0108FC
:1007C000F83F010808B513460022FFF7DBFF00BF22
:1007D00070B5860747D0541E002A3ED00346CAB2E1
:1007E00001E0013C39D303F8012B9D07F9D1032C1B
:1007F0002CD9CDB205EB05250F2C1A4605EB054586
:1008000034D9A4F1100C2CF00F0603F1100EB644ED
:100810004FEA1C1CC2E90055C2E90255103272456C
:10082000F8D10CF1010214F00C0F03EB021204F0EA
:100830000F0C13D0ACF1040323F00303043313446F
:1008400042F8045B9342FBD10CF003042CB1C9B213
:100850001C4403F8011BA342FBD170BD6446134640
:10086000002CF4D1F9E703461446C0E7A446E1E7BB
:10087000032A30B415D941EA0004A40784460B4684
:1008800004D0541E0FE0043A032A08D919466046E2
:1008900053F8044B5CF8045BA542F4D0F1E76046E2
:1008A0001946541E7AB1431E0139021901E09A42D9
:1008B00009D013F8010F11F801CF6045F7D0A0EB74
:1008C0000C0030BC7047002030BC7047062008B5D3
:1008D00000F042F9012011F0D9F900BF844641EA45
:1008E000000313F0030349D1403A23D30B6803609C
:1008F0004B6843608B688360CB68C3600B6903619E
:100900004B6943618B698361CB69C3610B6A036285
:100910004B6A43628B6A8362CB6AC3620B6B03636D
:100920004B6B43638B6B8363CB6BC3634030403152
:10093000403ADBD230320BD30B6803604B68436024
:100940008B688360CB68C36010301031103AF3D2EB
:100950000C3205D351F8043B40F8043B043AF9D279
:10096000043208D0D2071CBF11F8013B00F8013B4C
:1009700001D30B8803806046704700BF082A13D359
:100980008B07B1D010F00303AED0C3F10403D21A29
:10099000DB071CBF11F8013B00F8013BA4D331F881
:1009A000023B20F8023B9FE7043AD9D3013A11F801
:1009B000013B00F8013BF9D20B7803704B78437090
:1009C0008B78837060467047024B0146186800F0D0
:1009D000FDBE00BF000C0020024B0146186800F06D
:1009E00075BF00BF000C00200CB400B583B004AB91
:1009F00053F8042B019300F087F903B05DF804EB82
:100A000002B070470EB400B5074A82B003AB01468E
:100A1000106853F8042B019300F076F902B05DF8EA
:100A200004EB03B0704700BF000C002038B5C46B66
:100A30000CB1002038BD8021054600F0C7FE0246FB
:100A4000E86330B1031F7C3243F8044F9342FBD17B
:100A5000EFE74FF0FF3038BD30B51F29054683B0B2
:100A600008D8C36B0C4653B153F8240043F8242034
:100A700003B030BD162303604FF0FF30F8E780214C
:100A8000019200F0A3FE019A0346E8630028F3D028
:100A9000011F00F17C05002041F8040FA942FBD1A1
:100AA000E2E700BF1F2938B505461ED8C26B0C46C9
:100AB0006AB152F8213053B1012B06D0591C10D025
:100AC0000021204642F824109847002038BD2846CF
:100AD00001F070FA224601462846BDE8384001F090
:100AE00055BA162301202B6038BD16234FF0FF3076
:100AF0002B6038BD1F292BD838B5C36B0C46054673
:100B0000A3B153F8242003EB84034AB1511C0BD04A
:100B1000012A07D0002520461D609047284638BD91
:100B2000012038BD032038BD022038BD802100F0EF
:100B30004DFE0346E86340B100201A1F03F17C011B
:100B400042F8040F8A42FBD1DBE74FF0FF3038BD9B
:100B50004FF0FF30704700BF38B5134B1F281D689A
:100B60001DD8EA6B044662B152F820304BB1012B1C
:100B700005D0591C0FD0002142F8201098470020C2
:100B800038BD284601F016FA224601462846BDE83F
:100B9000384001F0FBB9162301202B6038BD162325
:100BA0004FF0FF302B6038BD000C0020114B1F2888
:100BB00070B51E6808D8F36B04460D464BB153F868
:100BC000240043F8245070BD162333604FF0FF30EB
:100BD00070BD8021304600F0F9FD0346F063002827
:100BE000F4D00021021F7C3042F8041F8242FBD166
:100BF000E5E700BF000C002038B50B4B1D68EC6B1F
:100C00000CB1002038BD8021284600F0DFFDE863EC
:100C100038B1031F00F17C0243F8044F9342FBD12B
:100C2000EFE74FF0FF3038BD000C002038B5174B10
:100C30001F281D6826D80446E86BA0B150F8242070
:100C400000EB84034AB1511C0BD0012A07D00025C8
:100C500020461D609047284638BD012038BD03203E
:100C600038BD022038BD8021284600F0AFFDE86382
:100C700040B10021031F00F17C0243F8041F93429E
:100C8000FBD1DBE74FF0FF3038BD00BF000C002088
:100C90009368013B002B936005DAD2F818C06345D6
:100CA00007DB0A2905D01368581C10600846197024
:100CB000704700F069BE00BF9BB1F8B5134406460B
:100CC0000F46541E5D1E01E0AC4208D03A46304645
:100CD00014F8011FFFF7DCFF431CF5D1F8BD00201D
:100CE000F8BD0020704700BF936810B514461BB9CB
:100CF00018460023636010BD00F08CF90023A36048
:100D00000023636010BD00BF2DE9F04FA1B08B46FA
:100D100091461C46049018B1036A002B00F0138121
:100D2000BBF80C30180740F18E80DBF81030002B38
:100D300000F08980002343F220020D9399F80030DF
:100D40000127824E0794ADF83920002B73D04D4611
:100D500003E015F8013F002B7FD0252BF9D1B5EB2F
:100D6000090A7DD12B78002B65D000234FF0FF328C
:100D70000135CDE9092308930B938DF863301E9359
:100D800006E02546089B801B07FA00F00343089302
:100D90002C46052214F8011B304600F0EFF8A1465E
:100DA0000028EED1089BD90644BF20228DF863208D
:100DB0001A0748BF2B22297848BF8DF863202A29BB
:100DC00064D1079A1168043200290792C0F2968014
:100DD0000B9169782E296FD05D4C0322204600F0DC
:100DE000CDF838B14022089B001B8240134309F123
:100DF0000109089319F8011B062256488DF838108E
:100E000000F0BCF800287FD0534B002B69D007A915
:100E100000915A460498514B08A9AFF30080039003
:100E2000039B013307D00D9B039A13440D9399F84C
:100E30000030002B8BD1BBF80C305B060AD40D9828
:100E400021B0BDE8F08F5946049800F037FC002827
:100E50003FF470AF4FF0FF30F2E7B5EB090AEAD08C
:100E600009F1FF3805954546DDF8108001E0A245FF
:100E70003ED92C465A46404615F8011FFFF708FF99
:100E800002340130A4EB0904F1D1D4E7A1F130021E
:100E9000092A88BFA9469DD80B9B00E00134217820
:100EA00003EB830302EB4303A1F13002092AF5D9D6
:100EB0002E29A1460B938FD199F801102A292DD103
:100EC000079B09F102001A680433002A0793B8BF90
:100ED0004FF0FF3399F8021009928146B8BF099389
:100EE0007AE7079B073323F00703083307939AE752
:100EF0000D99059D51442B780D9134E7494243F0FB
:100F000002030B91089364E707A900915A460498DD
:100F1000124B08A900F06CFE039081E70023A1F1B9
:100F20003002092A09F1010909933FF655AF19F872
:100F3000011F03EB830302EB4303A1F13002092AF3
:100F4000F5D9099348E700F0C5FAE9E62C40010815
:100F5000344001083840010800000000B90C0008C6
:100F60008C4600B586461346034A714610685DF804
:100F700004EB6246FFF7C8BE000C00205FFA81FC5C
:100F8000810744D00346511E22B909E09A0709D0CF
:100F9000013905D31846027801336245F6D170470E
:100FA00000207047184603290CD80029F8D00346C2
:100FB000014401E08B42F3D0184613F8012B62453F
:100FC000F8D1704710B50CEB0C24024604EB044436
:100FD00002E00439032915D9104652F8043B634056
:100FE000A3F1013E2EEA030313F0803FF1D0034644
:100FF000014401E08B4208D0184613F8012B6245EA
:10100000F8D110BD10460029F1D1002010BD1146C5
:10101000C9E700BF9368002B00F0F0802DE9F04F86
:10102000B1F90CC090461CF0080F81460C4683B005
:101030002BD00B694BB31CF00207D8F8006032D0FC
:101040004FF0000A5546D4F828B0216AAB4FC5B11D
:10105000BD422B46524628BF3B464846D84700284B
:1010600040F3C280D8F8083082441B1A2D1AC8F801
:101070000830002B00F0AE80D4F828B0216A002D93
:10108000E6D1D6E900A50836E1E72146484600F05A
:1010900015FB002840F0AD80B4F90CC0D8F8006012
:1010A0001CF00207CCD11CF0010A63D1574623681B
:1010B000A16818468B46002F58D01CF4007F00F022
:1010C000B180B9420A4600F2DD801CF4906F2FD047
:1010D000216962695D1A02EB420202EBD2726B1C5B
:1010E00052103B44934292BF93469B461A461CF4CF
:1010F000806F00F0E6801146484600F067FB00284C
:1011000000F0F5802A4621690190FFF7E7FBA289EC
:10111000019B22F4906242F08002A2815819C4F827
:1011200014B0ABEB05053A46BB462361A5602060D1
:101130003D46002751460192FFF7A6FAA1682368B1
:10114000019AA1EB0B011A44A1602260D8F8083083
:10115000AA445B1BC8F80830002B3BD02368A16869
:1011600018468B46B4F90CC0002FA6D1D6E900A7CB
:1011700008369EE73846BB463D46002D40D0002845
:1011800045D03A46D4E904C32068AA4228BF2A467B
:101190006045A16804D901EB030A524500F382803F
:1011A000934272DC5A464846216AD4F828C0E04788
:1011B000B0F1000A18DDB7EB0A070FD00120D8F80C
:1011C0000830D344A3EB0A03A5EB0A05C8F808309E
:1011D000002BD2D1002003B0BDE8F08F2146484655
:1011E00000F02AFA0028EAD0B4F90C3043F04003AA
:1011F000A3814FF0FF3003B0BDE8F08F00207047AF
:10120000756833460836002DFAD0D3F800B02A4668
:101210000A215846FFF7B2FE002865D00130A0EB46
:101220000B07AEE722699A4214D36569BD4211D813
:101230006FF00043BB4228BF3B4693FBF5F3524699
:1012400005FB03F34846A56A216AA847051ECBDDC6
:101250007F1B7BE7B94228BF39460D4618465146E9
:101260002A46FFF711FAA1682368491B2B44A160A5
:1012700023600029ECD12146484600F0DDF9002822
:10128000E6D0B1E7BB463A4652E759460192FFF72E
:10129000FBF9019AA36892469B1AA3602368134442
:1012A000236088E759465246FFF7EEF92368214646
:1012B00053444846236000F0BFF900283FF47BAF59
:1012C00092E7484600F0D0FB034600287FF426AFA3
:1012D0004846216900F0FAFA0C22B4F90C30C9F83A
:1012E000002023F0800381E76A1C17464AE70C229E
:1012F000B4F90C30C9F8002078E700BF00FCFF7F8C
:1013000000207047024A0349034800F08BBB00BF2E
:10131000500C002039160008040C00200C4B4168CA
:1013200010B59942044601D000F086F9A168094B36
:10133000994202D0204600F07FF9E168064B9942BD
:1013400004D02046BDE8104000F076B910BD00BFC3
:101350002015002088150020F0150020002070477F
:101360002DE9F84300250423294C2A490822C4F812
:10137000381104F15C002946DFF89C90DFF89C806E
:10138000274F284EC4E90335C4E90055C4E9055583
:10139000A5606566FFF71CFA234B0822294604F175
:1013A000C4006367C4E90849C4E90A87C4E91A5557
:1013B000C4E91E5526632567C4F8CC50C4F8805094
:1013C000FFF706FA194B2946C4F8DC30082204F16D
:1013D000680304F59670C4F88830C4E92398C4E91A
:1013E0002576C4E93455C4E93855C4F8D850C4F852
:1013F0003451C4F8E850FFF7EBF904F1D003C4E925
:101400003D98C4E93F76C4F8F030BDE8F88300BFEA
:101410002015002005130008B91F0008E11F00086F
:1014200021200008452000080900010012000200E8
:10143000F8B5254B0646D3F83831002B3CD0234F66
:10144000D7E90134013B04D51DE05A1C04F16804BE
:1014500019D0B4F90C50013B002DF6D11C4B0822D9
:101460002946C4E90155C4E90455E3606566256071
:10147000A56104F15C00FFF7ABF9C4E90D55C4E9BF
:1014800012552046F8BD3D680DB12F46D8E74FF400
:10149000D671304600F09AF9044680B10423056005
:1014A000294625460C304FF4D072A0606360FFF7E8
:1014B0008FF93C602F46C3E7FFF752FFBFE70C23CD
:1014C00038603360DDE700BF20150020500C00209D
:1014D0000100FFFF036A03B17047044B044AD3F8CD
:1014E00038310262002BF7D13AE700BF2015002007
:1014F0001D130008704700BF704700BF0020024A5C
:10150000024900F08FBA00BF500C00200113000800
:101510000020024A024900F085BA00BF500C0020AA
:101520005D130008F8B5B1F90C300C461E070746EC
:1015300039D44A68002A53DDE56A002D31D00022F3
:101540003E683A6013F48052216A55D1012338462F
:10155000A847451C024663D0B4F90C30E56A216AFD
:10156000580705D56368D21A636B0BB1236CD21A86
:1015700000233846A847421C40D0002223696260FD
:101580002360A389DB0400D56065616B3E6041B1D7
:1015900004F14403994202D0384600F097F9002341
:1015A00063630020F8BD0E69002EFAD09B0718BFB8
:1015B00000230D6808BF4B690E60AD1B8B600CE00B
:1015C0002B463246D4F828C03846216AE047B0F1AD
:1015D000000CA5EB0C05664406DD002DF0DCE0E711
:1015E0000A6C002AA8DCDCE7B4F90C3043F04003B5
:1015F0004FF0FF30A381F8BD626DB1E73968B4F9EF
:101600000C301D29F2D80B4ACA40D507EED500226E
:10161000626022692260DA04B7D50029B4D0B4E749
:101620003B68002B98D01D2B01D0162BDCD13E60DF
:10163000B7E700BF010040200B69B3B110B5044605
:1016400082B008B1036A5BB1B1F90C3013B9002064
:1016500002B010BD204602B0BDE81040FFF762BFE7
:101660000191FFF737FF0199EEE70020704700BFB7
:10167000B8B138B50D4A0369044615682BB10DB1F0
:101680002B6A53B1B4F90C300BB9002038BD214698
:101690002846BDE83840FFF745BF2846FFF71AFF48
:1016A000F0E7034A0349044800F0BCB9000C0020ED
:1016B000500C002039160008040C002038B52F4BC0
:1016C00005461B680C4613B11A6A002A4BD0B4F9C0
:1016D0000C3018071CD5226922B313F0010107D082
:1016E00000206169A0604942A1613AB1002038BD83
:1016F000980758BF6169A160002AF7D1190658BF41
:101700001046F4D543F04003A3814FF0FF3038BDBD
:10171000D9062CD55A0712D4226943F00803A381B5
:10172000002ADAD103F42071B1F5007FD5D021462B
:10173000284600F0A3FBB4F90C302269CDE7616BB9
:1017400051B104F14402914204D0284600F0BEF8A1
:10175000B4F90C30002262630021226923F02403D3
:10176000C4E90021D9E71846FFF7B4FEAFE7092224
:1017700043F040032A60A381C7E700BF000C0020AC
:1017800070B5114E054633680C46BBB1214628465C
:1017900010F060FA431C01460CD0C41C24F0030472
:1017A000A04205D02846611A10F054FA013001D049
:1017B000204670BD4FF0FF34204670BD194610F032
:1017C00049FA3060E2E700BF5C1600202DE9F843DB
:1017D000CD1C25F0030508350C2D38BF0C25002D38
:1017E000064618DBA94216D8DFF8DC8000F042FB81
:1017F000D8F80420A2B1144603E0636822467BB106
:101800001C4623685B1BF8D40B2B1FD894426368DB
:1018100054D053600CE00C2333600020BDE8F88303
:1018200029463046FFF7ACFF431C044619D005603B
:10183000304600F021FB04F10B00231D20F00700CF
:10184000C21A1CBF1B1AA350BDE8F8836119944249
:10185000256014BF5160C8F80410635163684B6081
:10186000E6E7D8F804701FB33C467F68002FFBD131
:1018700023683946304604EB030910F0EBF9814543
:1018800016D123683046ED1A2946FFF779FF01305B
:101890000ED02368D8F804202B442360536883B10A
:1018A000A34203D01A465B689C42FBD10023B0E7F9
:1018B0000C233046336000F0DFFAAEE7C8F804309E
:1018C000B6E7C8F80470B3E75C160020002950D0D2
:1018D00038B551F8043C0C1F002BB8BFE41805467E
:1018E00000F0C8FA274A13682BB1A3420CD921682B
:1018F000601883422CD0284663601460BDE83840ED
:1019000000F0BABAA3420FD81A465B68002BF9D18F
:1019100011685018844217D02CD363605460284655
:10192000BDE8384000F0A8BA11685018A04214D0A1
:1019300020D8216860188342EFD118685B6808449A
:10194000C4E900035460EAE723680B441360E6E748
:1019500018685B6808442060CDE72068014450188F
:1019600083421160DBD1D3E900040144C2E90014D1
:10197000D5E770470C2328462B60BDE8384000F0BF
:101980007BBA00BF60160020F8B506460D46144627
:1019900010B1036A002B37D0A269A389A2601A078D
:1019A00019D52369BBB122686169D31AEDB2994296
:1019B0002F4620DD0133A1680139A160511C21604F
:1019C000157062699A420DD0A389DB0701D50A2DF3
:1019D00008D03846F8BD21463046FFF76FFE38B9CB
:1019E0002369E0E721463046FFF726FE0028F0D0C5
:1019F0004FF0FF37EDE721463046FFF71DFE002888
:101A0000F6D101232268D6E7FFF764FDC4E700BFE3
:101A100003460A46024908681946FFF7B5BF00BFEA
:101A2000000C00202DE9F8434FF0000980460F46D6
:101A30001646D6E90154013D10D4A389012B08D9DB
:101A4000B4F90E30013304D021464046B84749EA84
:101A50000009013D6B1C04F16804EED13668002ECC
:101A6000E7D14846BDE8F8832DE9F041144641B37B
:101A70000AB306460D4600F0E9FA8442074602D84A
:101A8000B4EB500F13D821463046FFF79FFE804637
:101A900050B1BC422246294628BF3A46FEF71EFFF7
:101AA00029463046FFF712FF4046BDE8F081A846C0
:101AB0004046BDE8F081A046FFF708FF4046BDE87C
:101AC000F0811146BDE8F041FFF780BE2DE9F84FE7
:101AD00092461F460A698B680C469A42B8BF1A465E
:101AE000CAF8002091F843300646DDF8289013B17B
:101AF0000132CAF80020226891065FD5DAF800307A
:101B00000233CAF80030226812F0060F11461DD1C8
:101B1000E1689942D8BF114618DD4FF0000804F182
:101B2000190B05E0E568DAF80030ED1A45450CDDE3
:101B300001235A4639463046C847013008F10108AA
:101B4000F0D14FF0FF30BDE8F88F216894F84330B2
:101B5000003B18BF01238A060AD53021E21882F81B
:101B6000431094F845105A1C2244023382F8431063
:101B70003946304604F14302C8470130E1D0D4E988
:101B800002202368DAF8005003F00603042B2169D1
:101B90001BD08A4220DD4FF00008521A90440025E5
:101BA0001A3401E0454517DA01232246394630460A
:101BB000C847013005F10105F4D1C2E712F0060F64
:101BC0000DD0003B18BF0123D2E7401B8A4220EA18
:101BD000E078E2DC0028E2DC0020BDE8F88FE16874
:101BE000DAF800309942D8BF114696DCAEE700BF64
:101BF0002DE9F04717460A7E84B00C460646984603
:101C00000C9D01F1430C002A35D0A2F15803D9B242
:101C1000202969D8202B67D8DFE813F0E60066009A
:101C20006600660066006600660066006600660084
:101C30006600AC007000660066006600660070001A
:101C4000660066006600660021008300C60066002C
:101C50006600B6006600830066006600EC002B6834
:101C60002268181D6169286010061B6802D452069C
:101C700000F1E08019600023E14623613B462146E4
:101C80003046CDF8008003AAFFF720FF013020D0B6
:101C90004A46394630462369C047013019D0236887
:101CA000E0689B07DDF80C9018D5484516DD002547
:101CB00004F1190A04E0E068A0EB0903AB420DDD72
:101CC0000123524639463046C047013005F101052F
:101CD000F1D14FF0FF3004B0BDE8F0874845B8BF00
:101CE000484604B0BDE8F087012084F8422004F1A2
:101CF00042090023206184F84330BFE72A68236843
:101D0000111D1806296002D4590600F1958010684B
:101D1000014600286268C0F293804FF00A0E5348D3
:101D200015E020682B6810F0800F53F8041B02D1D7
:101D3000400648BF89B26F2A14BF4FF00A0E4FF019
:101D4000080E4A482B600023626884F84330002A5A
:101D5000A26051DB236823F00403236000294BD1E8
:101D6000002A7BD1E146BEF1080F56D0ACEB090347
:101D7000236183E72A680120116804322A6004F194
:101D8000420984F84210B4E72B6800211A1D2A602A
:101D9000D3F8009062684846FFF7F0F8002863D057
:101DA000A0EB09006060A4E7236843F020032360F0
:101DB00078222F4884F845202A6813F0800F52F8C3
:101DC000041B03D113F0400F18BF89B22A60DA0751
:101DD00044BF43F02003236019B9236823F0200394
:101DE00023604FF0100EAEE75823204884F84530AA
:101DF0002368E1E72368DBE77546E146B1FBF5F3CD
:101E00000A4605FB131A194610F80A30AA4209F8C7
:101E1000013DF3D2BEF1080FA8D12368DD07A5D597
:101E2000626823699A42A1DC302309F1FF3989F8FD
:101E300000309BE719801EE7B2F90010084668E7FA
:101E40002D20002AA26084F8430002DB23F0040363
:101E500023600A250548AE464942CEE7037804F1DF
:101E6000420984F842307EE7606842E7404001085A
:101E700054400108704700BF704700BF70B5B1F90A
:101E80000C300C46990796B007D5012204F14703A0
:101E9000C4E90432236016B070BDB4F90E100546D3
:101EA000002929DB6A460FF0E2FE002822DB4FF40E
:101EB00080612846019EFFF789FC88B3A38906F458
:101EC000704643F08003A3814FF48063B6F5005F52
:101ED000C4E904032060DED12846B4F90E100FF0E7
:101EE000D2FE0028D7D0A38923F0030343F00103D7
:101EF000A381D0E7B4F90C3013F0800F14BF402653
:101F00004FF4806628463146FFF760FC40B1A38954
:101F1000C4E9040643F080032060A38116B070BDBD
:101F2000B4F90C309A05B6D4012123F0030304F16F
:101F3000470243F00203C4E90421A3812260AAE717
:101F400070B50C46B1F90E10154600291E4696B024
:101F50000FDB6A460FF08BFE00280ADB019B4FF473
:101F6000806203F47043A3F50053B3FA83F35B0973
:101F700007E0A289002312F0800F14BF40224FF423
:101F80008062002033602A6016B070BD70B50026F4
:101F9000074D0446084611462E600FF07FFE431C95
:101FA00000D070BD2B68002BFBD0236070BD00BF3C
:101FB000641600200FF07ABE10B50C46B1F90E1071
:101FC0000FF03DFE002803DB636D0344636510BD25
:101FD000A38923F48053A38110BD00BF0020704764
:101FE0002DE9F0410C46B1F90C101F46CB05054612
:101FF00016460BD421F48051A1813B463246284637
:10200000B4F90E10BDE8F0410FF020BEB4F90E1087
:10201000022300220FF018FEB4F90C10EAE700BF0B
:1020200010B50C46B1F90E100FF00EFEB4F90C30DD
:10203000421C0EBF23F4805343F480536065A38198
:1020400010BD00BFB1F90E100FF002BE51F8043CF4
:10205000181F002BBCBF0B58C0187047372875D805
:10206000032803D800207047042070470438332821
:10207000F8D801A353F820F04D22000831220008BF
:102080003D2200083D22000831220008652000089A
:1020900049210008312200084D22000831220008A1
:1020A0003122000831220008652000086520000860
:1020B0004D220008752200086520000865200008F0
:1020C0007D220008652000085922000851220008DE
:1020D00031220008612200083D2200086520000826
:1020E0004522000845220008452200084522000834
:1020F0004522000845220008452200084522000824
:102100004522000885220008652000086520000897
:10211000652000086520000865200008652000088B
:10212000652000086520000865200008652000087B
:10213000652000086520000865200008652000086B
:10214000652000085522000806207047A0F50170A0
:1021500083B2332B86D8332884D801A353F820F0D8
:102160004D22000831220008692200086D22000873
:10217000312200086520000835220008652000088B
:102180004D2200085D220008652000086520000837
:1021900065200008652000084D220008792200080B
:1021A0006520000865200008492200086520000815
:1021B000652000085122000831220008652200082D
:1021C00071220008392200086520000865200008F7
:1021D00065200008692000086520000881220008A9
:1021E00065200008652000086520000865200008BB
:1021F00065200008652000086520000865200008AB
:10220000652000086520000865200008652000089A
:10221000652000086520000865200008652000088A
:1022200065200008652000084122000841220008BE
:10223000012070470520704707207047082070472D
:10224000092070470A2070470C2070470D20704706
:102250000E2070470F2070471020704711207047E4
:1022600012207047132070471420704715207047C4
:1022700016207047172070471820704719207047A4
:102280000320704702207047A0F11E03092B01D9DB
:10229000FFF7E4BE0B20704708B5FFF7DFFE0038FC
:1022A00018BF012008BD0023036043608360838161
:1022B000704700680128B8BF01207047074910B572
:1022C0000B68FF2B08DC064A064C12681A44D2B28F
:1022D000013324F812000B6010BD00BF74160020FB
:1022E000781600207C1600200A4910B40A6872B1E2
:1022F000094C0A482368013A30F813000133DBB275
:102300002360074B0A601B680BB110BC184710BC58
:10231000704700BF74160020781600207C1600203D
:1023200068160020014B1860704700BF6816002037
:102330000023034A1360034A1360034A1370704773
:1023400074160020781600206C160020FFF7B6BF28
:1023500038B50C460025A54200DB38BDFFF7AEFFBF
:102360000135F8E7074B1B685BB1074B074A197843
:1023700011B11168814204D0106001221A70FFF778
:10238000B3BF7047741600206C1600207016002032
:10239000014B1868704700BF7416002008B5FFF79E
:1023A000F7FFC0F1FA0020EAE07008BD70B50C1E1E
:1023B000054616460DDDFFF7F1FF811B21EAE171AD
:1023C000A142A8BF214621B12846BDE87040FFF7D1
:1023D000BFBF70BD70B5154604460E46FFF7DEFF61
:1023E000012DB8BF0125811B91FBF5F10129B8BF73
:1023F0000121012C2046B8BF01208842A8BF084611
:1024000070BD0000F8B505460138C0B20E280C4674
:10241000114634D81F4A204F32F810601F4A125616
:1024200038561A4401442046FFF7D4FF0E2D0446C7
:102430001ED00F2D25D0022D04D0032D0BD0014628
:10244000304605E04A20FFF781FF40F25120611C31
:10245000FFF77EFF13E04A20FFF778FF4D20FFF7DC
:1024600075FF4F20FFF772FF40F25220611CEFE72B
:102470004A20FFF76BFF40F24D30FFF767FF204621
:10248000F8BD4D20FFF762FF4F20FFF75FFF40F2DE
:102490004A30F2E77030010860300108513001081D
:1024A0000022014B1A7070477C18002070B5012281
:1024B0000446084690424FF00001B8BF1046FFF7AF
:1024C00089FF00250646013C0E2C0CD8DFE804F0FD
:1024D000080F11131515181815151B1B1D1F2200A9
:1024E0005020FFF733FF0135AE42EDD170BD5120D2
:1024F000F7E75220F5E74F20F3E740F24F10F0E7FF
:102500004FF4A870EDE74A20EBE74D20E9E740F2F1
:102510004D10E6E74FF4A570E3E70000F8B5044678
:102520000846012AB8BF0122851EEBB2012B1146D5
:102530000ED9A0F10E03012B8CBF002301232C4ADE
:10254000062C1F46137005D143BB0023012212E065
:102550000123F4E71C2CF8D10B2D07D8DFE805F098
:102560000909201E1E06061E1E06061E0023022244
:1025700001E001230322FFF745FF062C064611D197
:1025800040F21B10FFF7E2FE87B34FF40A70FFF72B
:10259000DDFE5020BDE8F840FFF7D8BE0023E9E794
:1025A0000123E4E71C2C1ED14FF48370FFF7CEFE0D
:1025B0002920FFF7CBFE0B2D18D8DFE805F011110D
:1025C000060C0C17170C0C17170F31465020BDE8DE
:1025D000F840FFF7BDBE4FF4A870DBE74A20D9E70B
:1025E0005220711CF3E740F21B10D3E7F8BD00BF87
:1025F0007C18002038B501290446B8BF012101220A
:10260000264B1C2C08461A701CD102220421FFF70D
:10261000E1FE04464A20FFF799FE4A20FFF796FEA6
:10262000214640F25120FFF793FE4FF48370FFF7ED
:102630008DFE2920FFF78AFE2146BDE83840522052
:10264000FFF786BE062C14BF04210621FFF7C2FE49
:1026500005464A20FFF77AFE4A20FFF777FE40F250
:102660004D20FFF773FE40F24F20FFF76FFE012D64
:1026700004D040F25120691EFFF76AFE40F21B10A1
:10268000FFF764FE062C08D14FF40A70FFF75EFED8
:10269000BDE838405020FFF759BE38BD7C180020F7
:1026A00070B50129054640F23723B8BF01219D428C
:1026B00008464FF002020BBF062105212B2640F2EF
:1026C0002B26FFF787FE0446012C4FF04A0006D167
:1026D000FFF73CFE3046BDE87040FFF737BEFFF71E
:1026E00035FE4A20FFF732FE214640F25120FFF727
:1026F0002FFE3046FFF72AFE2920FFF727FE21464E
:102700005220FFF725FE4A20FFF720FE40F2372334
:102710009D4201D14F20DEE770BD70B540F23723F6
:10272000012A40F22B24B8BF0122984208BF2B2473
:102730004B1E0E4615460E2B3FD8DFE803F0080F60
:1027400011083E3E3E3E3E3E08080D382D00012158
:10275000BDE87040FFF7A4BF2946F9E7691CF7E719
:10276000062101222846FFF735FE05464A20FFF7DD
:10277000EDFD4D20FFF7EAFD4F20FFF7E7FD40F2AA
:102780005220691CFFF7E4FD2046FFF7DFFDBDE89E
:1027900070402920FFF7DABD4D20FFF7D7FD4F200D
:1027A000FFF7D4FD40F24A30FFF7D0FDECE74A20B6
:1027B000FFF7CCFD40F24D30F6E700230222294618
:1027C0003046FFF71FFEDFE708B54A20FFF7BEFDE2
:1027D000BDE8084040F24D20FFF7B8BD012210B51A
:1027E0000446084690424FF00001B8BF1046FFF77C
:1027F000F1FD014604F25120BDE81040FFF7A8BDED
:1028000040F24D20FFF7A2BD40F24A20FFF79EBDE7
:1028100010B51446B8B1012910DD0122522001394A
:10282000FFF7C4FD4A20FFF791FDC4F1010100222A
:10283000BDE8104040F25220FFF7B8BDF2D00122AF
:102840005120511AECE7002904DA022251204942B2
:10285000FFF7ACFD4A20FFF779FD002C05DD0122D2
:10286000214640F25120FFF7A1FDBDE8104040F2A3
:102870004D20FFF76BBD08B548B901290DDD0122D8
:1028800052200139FFF792FD4A20FFF75FFDBDE8B6
:10289000084040F24A30FFF759BDF5D001225120DF
:1028A000511AEFE710B50C4660B14D20FFF74EFD11
:1028B000002C04DA022251206142FFF777FD4A2002
:1028C000FFF744FDBDE8104040F24D30FFF73EBD3C
:1028D0001C2810B5044602D0831F012B08D8012202
:1028E000154B1A7041B940F24F20FFF72FFD01E060
:1028F0000029F8D0132C1BD0132C04D8062C10D090
:10290000072C08D010BD1C2CFCD14FF48370FFF7AE
:102910001DFD292001E040F21B10BDE81040FFF72B
:1029200015BD40F21B10FFF711FD4FF40A70F4E7DC
:1029300040F21910EBE700BF7C1800201A2808B5F8
:1029400029D00DD8053883B20A2B17D80A2815D8F4
:10295000DFE800F030141421141424142A2D3A0056
:1029600040F20A23984232D009D840F20523984217
:1029700020D0B0F5027F0ED027281ED008BD40F22F
:10298000212398421CD040F22323984215D040F2D4
:102990001A239842F2D140F24F3001E04FF4147004
:1029A000BDE80840FFF7D2BC40F25120F8E740F202
:1029B0005220F5E74FF45470F2E740F24A20EFE777
:1029C00040F24D20FFF7C2FC40F24F20E8E740F212
:1029D0004D30E5E738B505460C462920FFF7B6FC33
:1029E000691E00225020FFF7E1FC611B0022BDE8B8
:1029F00038404FF414700231FFF7D8BC38B50546A3
:102A00000C462920FFF7A2FC691E00224F20FFF789
:102A1000CDFC611B0022BDE8384040F24F2002315E
:102A2000FFF7C4BC10B504462920FFF78FFC5020E7
:102A3000611E0122FFF7BAFCBDE8104040F24A20B7
:102A4000FFF784BC10B504462920FFF77FFC611E08
:102A50000022BDE810404F20FFF7A8BC08B54FF496
:102A60001470FFF773FC40F24F30FFF76FFCBDE8C6
:102A7000084040F24F20FFF769BC0122904210B598
:102A80004FF00201B8BF1046FFF7A4FC044629200E
:102A9000FFF75CFC4FF41470FFF758FC2146BDE8CB
:102AA00010404FF45470FFF753BC0000002208B5EB
:102AB000094B1A70012290421146B8BF1046FFF729
:102AC00089FC014640F24F20FFF742FCBDE8084078
:102AD00040F21B10FFF73ABC7C1800200120FFF7E2
:102AE000E5BF0000002208B50B4B02211A7001223D
:102AF0009042B8BF1046FFF76DFC01464FF41470CA
:102B0000FFF726FC4FF48370FFF720FCBDE8084078
:102B10002A20FFF71BBC00BF7C1800200120FFF714
:102B2000E1BFFFF7C3BFFFF7D9BF0000002208B520
:102B3000054B40F24D201A70FFF708FCBDE8084035
:102B400040F21B10FFF702BC7C180020FFF7EEBF1D
:102B50000022104B10B51A7001229042B8BF1046E7
:102B60000221FFF737FC044640F24D20FFF7EEFB51
:102B7000012C08D040F25120611EFFF7E9FB40F222
:102B80004D20FFF7E3FBBDE8104040F21B10FFF7BC
:102B9000DDBB00BF7C180020FFF7DABF40F24F20FA
:102BA000FFF7D4BB0022034B40F21B101A70FFF753
:102BB000CDBB00BF7C180020002208B5054B4FF4A8
:102BC00083701A70FFF7C2FBBDE808402920FFF7A9
:102BD000BDBB00BF7C180020FFF7E4BF08B540F282
:102BE0001910FFF7B3FBBDE808402920FFF7AEBB83
:102BF0000129B8BF012138B504460846BCB90D4BC0
:102C00001B78591C0122FFF7E5FB054644B9094B27
:102C10001B7813B14D20FFF799FB4F20FFF796FB70
:102C20002946BDE8384040F21910FFF791BB00215A
:102C3000E8E700BF7C1800200121FFF7D9BF08B5E5
:102C40004D20FFF783FB2C20FFF780FB4C20FFF784
:102C50007DFBBDE808405020FFF778BB0228B8BFD5
:102C6000022038B5441EFFF799FB0328D4BF01208A
:102C700080108442A8BF044600250135FFF7DFFF1E
:102C8000AC42FAD138BD40F21D10FFF75FBB4FF4E4
:102C90008B70FFF75BBBB0F5017F08B51CD004D883
:102CA000042817D0122819D008BDB0F5037F0CD026
:102CB00040F212239842F7D14A20FFF747FB4FF426
:102CC0000A70FFF743FB522000E04A20BDE80840AD
:102CD000FFF73CBB4F20F9E74D20F7E74D20FFF70A
:102CE00035FB4FF40A70F1E70022074B07491A60E1
:102CF00001230B6006490B7006490A70064A1370DF
:102D0000064A1370704700BF8818002084180020FE
:102D1000801800207F1800207E1800207D180020D9
:102D200000230A4A0A4913600A4A13700A4A1370B8
:102D30000A4A13600A4A136001220A7009490A709C
:102D4000094A1370094A1370704700BF9018002099
:102D5000801800208D1800208C1800208818002072
:102D6000841800207F1800207E1800207D18002085
:102D700027283CD015D80F280ED8042839D9053873
:102D80000A2836D8DFE800F02F35353135350635DD
:102D9000372B2D00012070471A2814BF0020052072
:102DA000704740F21A23984227D00DD8B0F5027F21
:102DB00025D040F20A23984223D040F20523C31ABB
:102DC00058425841C000704740F2212398421AD01F
:102DD00040F2232398420CBF0C20002070470320B0
:102DE00070470420704707207047092070470B2068
:102DF00070470020704702207047062070470A2065
:102E000070470E2070470D20704700000023044AD1
:102E10001360044A1370044A1370044A1370704715
:102E20006819002066190020651900206419002027
:102E300008B50548FFF737FA0023044A1370044A1F
:102E40001370044A137008BD2C1A00203C1A00208D
:102E500095180020941800206329A8BF632101223F
:102E6000F8B50446084690424FF00301B8BF10463B
:102E7000FFF7B0FA244B01461B786BB12046FFF7F1
:102E8000ADFC224B1B781BB1BDE8F840FFF7BCBC82
:102E9000BDE8F840FFF7B4BC04B141426FF06304F1
:102EA0001B4F3D686B189C42B8BF1C46642CA8BFE2
:102EB0006424611B00291AD0144E307805DB40B918
:102EC000FFF78CFCFFF79CFC10E0291B80B1012070
:102ED0000AE0002B07DD224629460020FFF798FC78
:102EE0000023337002E00020FFF778FC3C60F8BD5F
:102EF000002B01DB0120E3E7224629460120FFF7F2
:102F000087FC0123EDE700BF8C1800208D180020FE
:102F1000901800206329A8BF63212DE9F84F0122F2
:102F20008146084600243E4B9042B8BF104602211D
:102F30001C70FFF74FFA3B4B82461A7862B1A145ED
:102F400014BF0F250B25544501DBBDE8F88F28463B
:102F5000FFF7F4FC0134F6E7334EDFF8D080346835
:102F6000D8F80050324F281B3B78B9F1000F2BD016
:102F700083B15544642DE8DC1446544505DBC8F89C
:102F800000503A782B4B1A70DFE70F20FFF7D6FC82
:102F90000134F2E75444AC4214DB0134642CD4DC39
:102FA0005146FFF72BFD0123013D3560C8F8004075
:102FB0003B70E6E70F20FFF7C1FC01355545F9DB13
:102FC0003460DEE71D46F9E763B9A4EB0A0414F1A7
:102FD000640FBADB1D465545F2DA0B20FFF7AEFC55
:102FE0000135F8E7A5EB0A0BA34514DC013DA5EB81
:102FF0000A0515F1640FA8DB51460134FFF7EAFC1E
:10300000C8F80040356087F80090BAE70B20FFF75A
:1030100095FC09F10109D145F8DBC8F800B0B0E72B
:103020007D1800207F1800208818002084180020B8
:10303000801800207E1800200F28F8B504460D46A1
:103040000CD8042833D9431F0A2B30D8DFE803F00B
:103050006D2F2F4C2F2F452FC6A94A0040F21A235F
:10306000984241D031D840F2052398425DD01BD818
:103070001A2839D027281AD15F4B1B78002B75D11D
:103080005E4B1B78002B71D05D4B18685D4B1B6845
:10309000C01AFFF7C7FC0122574B1A7000235A4A87
:1030A00013705A4A13702EE0B0F5027F1CD02846E8
:1030B00001220021FFF78EF900260546AE42EADA2A
:1030C0002046FFF73BFC0136F8E740F22123984207
:1030D00050D040F223239842CDE70020BDE8F840CD
:1030E000FFF718BF0120F9E7474B1E7886B1284645
:1030F00003220021FFF76EF900250446A54203DBF9
:1031000001223D4B1A70F8BDFFF7A8FC0135F5E729
:10311000284601223146FFF75DF90546AE42EFDA57
:103120002046FFF70BFC0136F8E7334B01221F78EE
:103130007FB9324E337863B102212846FFF74AF94E
:10314000FFF79BFC377001222B4B1A7000222E4B8D
:10315000D8E728460021FFF73DF900260546AE4294
:10316000F1DA2046FFF7EAFB0136F8E72046FFF7E1
:10317000E5FB90E7204C23784BB9204B1B7833B903
:103180001F4B18681F4B1B68C01AFFF75BFC40F20F
:103190002120FFF7D3FB012300211B4A237011706C
:1031A0007FE7154B1C785CB9144B1B7843B1292081
:1031B000FFF7CCF84FF41470FFF7C8F8134B1C70EE
:1031C000284601220221FFF705F900250446A54201
:1031D000B9DA0E20FFF7B2FB0135F8E728460122E5
:1031E0000021FFF7F7F800250446A542ABDA0D20D1
:1031F000FFF7A4FB0135F8E77F18002080180020B6
:1032000084180020881800207E1800207D180020D7
:10321000094B10B51B7853B9084A13683F2B07DCDC
:10322000074C24F813000748C1540133136010BD44
:103230000122054B1A70FAE79D180020681900203A
:10324000AC1900206C1900206519002038B50E4B10
:103250001B78BBB90D4D2C68002C0BDD0C496200AE
:103260000C48FDF73BFB22460B490C48FDF736FBAB
:103270000B4B1C6000230B4A2B6013700A4A13701F
:103280000A4A136038BD00BF9D180020681900204D
:10329000AC190020E41800206C190020A4180020AC
:1032A000A018002066190020651900209818002039
:1032B00038B5114B1B78F3B9104B1B78DBB9104CA8
:1032C000237833B10F4B1D781DB95020FFF73EF81E
:1032D00025700D4B1B68002B09DD0C4B1B7833B19F
:1032E0000B4B1B781BB9BDE83840FFF7AFBFBDE8FB
:1032F0003840FFF78BBD38BD9D1800203D1A0020D7
:10330000641900209C18002068190020661900200C
:103310006519002010B50024094B1C70094B1C7066
:10332000FFF7FEFCFFF784FDFFF770FD064B1C6006
:10333000064B1C70FEF7FCFFBDE81040FFF7B0B86D
:103340003E1A00203D1A0020A01800209D180020E1
:10335000FEF7E8BFFFF706B8014B1878704700BFCB
:103360003D1A0020014B1878704700BF3E1A00201C
:10337000024B1878003818BF012070473C1A002013
:10338000034B1B7813B9034B187870470120704723
:103390009518002094180020012810B5044601D18A
:1033A000FFF786FF044B1C70FFF7BAFCFFF740FDE8
:1033B000BDE81040FFF72ABD3D1A00202DE9F04F6F
:1033C0009C4B04461B78B3B08BB19B4EDFF86C82EC
:1033D000337883B9E3B2292B05D0994B1B7813B10D
:1033E0000122984B1A7000212046FFF711FF01209F
:1033F00033B0BDE8F08F032BF9D8023B012B5FFA05
:1034000084FA00F281812046FEF728FEBAF1290FE6
:10341000804635788C4F1FFA8AF032D1FEF796FF3E
:10342000032D21D1894B1B78ABB9894B1B787BB914
:10343000884B1C68002C0BDDFEF7B0FF811E21EAD3
:10344000E171A142A8BF214611B15220FEF780FFD1
:103450004A20FEF77BFF0123337000237E4A3B7036
:103460001370FFF75DFC28E07C4B1B783BB97C4B6D
:103470001B78002BEFD17B4B1B78002BEBD050201F
:10348000E7E797F80090B9F1000F23D00024724BC2
:10349000B8F1060F1C70744B3C701C600DD1032DED
:1034A0000ED16A4C6A4D207800B92878694B1968AA
:1034B000FFF7E1F901232B702370FFF7B9FC27E038
:1034C00040F24A30FEF742FF0122654B1A70674B0B
:1034D0001C70F2E7B8F1020F1CD15F4B1B7813B3DD
:1034E0005D490A78012A13D85F480A25036801322A
:1034F000632BA8BF6323272C08BF002405FB03F31D
:1035000018BF1D3C2344632BA8BF63230A700360CC
:1035100000206DE7B8F10A0FE2D0B8F1060F02D132
:1035200001233B70F4E700234B4F4F483B70FEF7FD
:10353000C0FE1C2C014633D8122C16D8062C5FD0A6
:10354000072C37D0B8F10E0F40F09680032D66D1CE
:10355000192C07D102233370FFF7E2FBFFF71EFBA4
:10356000FFF7C2FB00233B70A7E7A4F11303092B6D
:10357000E8D801A252F823F0A93500084535000823
:103580004535000801360008453500084535000876
:103590004535000845350008B5350008CF35000829
:1035A00040F213239C42CDD1032D35D1284B13205B
:1035B000197804E0032D05D10720254B1978FFF772
:1035C00087F901E0FFF7EEFA0123337049E7032D95
:1035D00003D11F4B1C201978F1E7FFF7EDFA204BC0
:1035E0001B78002BF0D11F4B1B78002BECD0204B0D
:1035F000502019681F4B1B68C91AFEF7A9FEE3E7A4
:10360000032D06D1124B06201978FFF761F900232C
:10361000DBE7FFF7E1FAFAE7FFF7E0FAD4E740F279
:1036200019239C429ED103233370FFF779FBFFF7E8
:10363000CBF897E73E1A00203D1A00203C1A0020E4
:103640006619002064190020941800208C180020AE
:103650008D18002090180020951800207D1800205B
:103660007F180020801800202C1A00207E180020CF
:103670008418002088180020B8F1040F16D8B8F17B
:10368000000F3FF46FAF032D36D11A2C24D8042C31
:103690007FF668AF0123A84AA3401A4042BB44F218
:1036A000200213423FF45EAF012022E0B8F1050F83
:1036B0007FF458AF032D23D1A04CA14D23780BB933
:1036C00095F800909F4B48461968FFF7EBF80023E8
:1036D0002B700123237045E7B4F5027F08D040F238
:1036E0001A239C4204D040F205239C42DCD039E7E7
:1036F0000020FFF7B1FB35E72046FFF79DFC31E7DF
:10370000012140F20A20F8E798F800902046B9F12C
:10371000050F29D82A2323FA09F3DA0724D5FEF75F
:10372000B3FDBAF1290F074621D198F80030002BDC
:1037300000F0E183FFF77CFBFFF768FB98F80030AF
:10374000002B7FF4E5AE804B1B68002B7FF7E0AECB
:103750003378002B3FF4DCAE7C4B1B78002B00F061
:10376000C683FFF773FDD3E6FEF778FCD9E7204662
:10377000FEF774FC0F2898F8003006D193B1012BA6
:1037800000F0F280FFF754FB3EE0072B00F2B78217
:10379000DFE813F00800EA008A02D60209034203B8
:1037A0008E03A0037B1E182B00F2A583DFE813F025
:1037B00075007500750075007C006F0073002500B2
:1037C00067001900A3037F0086008A00D5019D00D1
:1037D0009D009D009D009D009D009D009D009D0001
:1037E0009D000123272C88F8003008BF0023584A89
:1037F00018BFA4F11D03136006E00223012288F81C
:103800000030534B1C811A732046FEF745FD0028FB
:1038100094D02046FEF722FC0138C0B218288DD87B
:103820004C4BC340DB0789D52046FEF717FC19280F
:103830000CD80123484A8340134204D1082805D1FB
:10384000A31F012B02D80122404B1A70B9F1050FBA
:1038500000F24B83012101FA09F111F0150F40F03C
:103860003F8311F02A0106D02046FEF70DFD0B28FC
:1038700014BF002101212046FFF7CAFC5EE70423A4
:10388000012288F80030324B5C815A73BCE7062372
:1038900088F80030B8E70723FAE72046FFF768FA10
:1038A0000121FEF703FEAFE701210E20F9E7012118
:1038B0000620FEF79FFE00233370A5E72046FFF7A2
:1038C000EAF9F8E740F21920844214BF02200320ED
:1038D0003070FFF725FA032802D1FEF775FF93E752
:1038E000FFF75CF9FFF700FA8EE7113F0025082F7C
:1038F00037D8DFE807F03305080F12151A1E0B0042
:10390000FFF7ECF880E7FFF709F97DE7FFF70BF920
:10391000357079E7FFF70AF9FAE7FFF717F973E768
:1039200001211C20FEF766FE6EE70020FFF784F9F8
:103930006AE70120FAE700BF002100048C1800208C
:103940008D180020901800206819002066190020AA
:103950002C1A0020FF1BFF010032BE03FFF76FF996
:1039600052E7FFF790F94FE7C748FEF7A2FC013F87
:103970000546182F00F2C38101A353F827F000BFBA
:10398000033A0008033A0008033A0008033A000823
:10399000113A00088F38000897380008FB370008F4
:1039A0007F380008FF3C0008E5390008513C00085A
:1039B0005B3C0008633C0008173A0008213C000803
:1039C0001B3C0008F53B0008FB3B0008413C00089D
:1039D0003B3C0008473C00080B3C0008153C000835
:1039E000013C0008A84A1368092B3FF70DAF0A21D4
:1039F000272C01FB03F30CBF0021A4F11D010B4494
:103A0000F9E62046FFF7B4F92946FEF74FFDB9E67F
:103A100001210E20F9E7FFF70BFA9C4B1A68002AE8
:103A20007FF7F2AE002D7FF7EFAEDFF864B2002330
:103A3000594611F8017B002F00F0858001339A422E
:103A4000F7D1DFF850A2DAF80030002B00F3C28083
:103A5000FEF79EFC0190FFF7D9F901238E4A092D4C
:103A6000137006DD0A2095FBF0F01D3080B2FFF7E1
:103A7000A5FC0A2295FBF2F302FB1353002B00F086
:103A8000B1801D339FB23846FFF798FC012000F04B
:103A90003FFA0023804A1370337813B90120FFF7EF
:103AA0007BFCFEF775FC019BC01ADAF800309842E7
:103AB00005DDFEF76DFC019BC01ACAF80000734BD0
:103AC0001A68002A39DD092D40F38E800A2395FB00
:103AD000F3F31D33ADF8483001238DF8083032A9D7
:103AE00001EB430121F8807C01215D1CC8336B444C
:103AF00003F8C01C002369481BF8011B61B930F8AA
:103B000013C032AF07EB450727F880CC05F1C80793
:103B10006F4407F8C01C013501339A4201D0402D93
:103B2000EAD16A0012A95D48FCF7D8FE2A46584837
:103B300002A9FCF7D3FE554B1D600023584A1360C1
:103B4000584A137060E6554A32F81300FEF786FAB9
:103B50000D287FF476AF012D03D1012000F008FA83
:103B600052E6FEF715FC8246384600F001FA074699
:103B7000FEF70EFCA0EB0A0ABAF1000F7FF744AE85
:103B8000FEF70CFC421E92FBFAF2002A1ADD6223B9
:103B900093FBFAF3012BB8BF01239342A8BF13464E
:103BA0009D42A8BF1D464FF0010A05F1FF3BDA45D3
:103BB0000ADB012DD1D1002F3FF426AE5020FEF7B5
:103BC000C5FB21E60123EBE7002000F0D1F90AF163
:103BD000010AECE7FEF7E2FBDAF800309842BFF6A4
:103BE00037AF11E627274EE7012D01D0002376E7F6
:103BF00000257FE7FEF75AFFC4E5FEF773FFC1E536
:103C0000FEF78FFF00233370BCE501460020FEF76E
:103C1000EFFFB7E501460120F9E7FFF71FF8B1E52F
:103C200001220021FEF7D6FB00250746AF427FF7B1
:103C3000A9ADFFF728F80135F8E7FEF789FFA1E500
:103C4000FEF7AAFFDEE701461C20FEF7D3FC99E54C
:103C500001460620FEF7CEFCD4E72046FFF71BF80E
:103C6000D0E740F21920844214BF022003203070B4
:103C7000FFF756F8032802D1FEF7A6FD82E5FEF70E
:103C80008DFFFFF731F87DE52C1A0020A0180020E9
:103C9000A4180020981800209D180020E418002087
:103CA00068190020661900209748FEF702FB013FC3
:103CB0000246092F23D801A353F827F00B3D000833
:103CC0001F3D00080B3D00080B3D00089F3D00080C
:103CD0008F380008FF3C0008E53C0008FF3C000866
:103CE000293D0008884D2B899C4208D10146204679
:103CF000FEF780FC2B89062B7FF444AD82E7FFF7AB
:103D000097F8FFF783F8FFF763BB2046FFF730F81B
:103D10007D4D01462F893846FEF700FCEAE7012277
:103D20000B21794D2889F7E70323272C88F80030E9
:103D300008BF0023744A18BFA4F11D03536063E554
:103D4000013F0A2FDBD801A353F827F0793D000883
:103D50009B3E0008793D0008793D00089F3D000822
:103D60008F380008FF3C0008FF3C0008FF3C0008BB
:103D7000FF3C0008553E00082046FEF7F9FF624D63
:103D800007462846B5F808A0FEF793FA6B6839464F
:103D900003FB00F2632AA8BF63225046BCE701225E
:103DA0000E21594DBEE75848FEF783FA013F0246FF
:103DB000092FA4D801A353F827F000BFF73D00084E
:103DC0000B3E0008F73D0008F73D0008AB3E000839
:103DD0008F380008FF3C0008FF3C0008E53D000864
:103DE000153E0008484B5B899C4288D1014620461D
:103DF000FEF756FCC6E4444B20465D89FEF7B8FF4B
:103E000001462846FEF789FCBCE401220B213E4B0B
:103E10005889F7E7052388E7013F0A2F3FF66FAF80
:103E200001A353F827F000BF733E00089B3E000833
:103E3000733E0008733E0008AB3E00088F38000850
:103E4000FF3C0008FF3C0008FF3C0008FF3C000866
:103E5000553E00082C4A5368092B3FF7D5AC0A2180
:103E6000272C01FB03F30CBF0021A4F11D010B441F
:103E700064E72046FEF77CFFDFF88CA0054650463D
:103E8000BAF80A70FEF715FADAF804202946424318
:103E9000632AA8BF63223846B4E71B4A5368092B3C
:103EA0003FF7B2AC0A214B4348E701220E21AEE7AF
:103EB000062F7FF424AF144D2B7B13B101220F2169
:103EC00030E76B7B1BB101220F2168899AE7012142
:103ED0000F209AE5072F7FF412AFFEF7D8FE51E4CA
:103EE0002046FEF7BBF80A28C2E40021C3E4FEF72F
:103EF0008DFFFFF70DBB054B1B68002B7FF777AAE3
:103F0000FEF784FFFFF773BA2C1A0020681900200F
:103F10002DE9F041054600240F4E104FDFF8408098
:103F20003368A34201DCBDE8F08115B10D4B1B5D88
:103F300063B998F8003037F814004BB90A4B1B7876
:103F400013B10122094B1A70FEF700FA0134E7E7BA
:103F5000FFF734FAFAE700BFA0180020E4180020A9
:103F60003D1A0020A41800206619002064190020C2
:103F70002DE9F047DFF88480044698F800501DB121
:103F800000252846BDE8F0871D4B1B68002BF7D0A5
:103F90001C4E3368002B2BDCFEF7FAF94FF0010AB8
:103FA00007460020FEF732FF88F800A0FFF7B0FFB9
:103FB000002388F80030144B93F80090B9F1000FFB
:103FC0000CD1124BDFF84880504684F001041D7874
:103FD00088F80040FFF7E0F988F80090FEF7D8F97C
:103FE00000230C4AC01B13600B4A30601370C8E7F3
:103FF000FEF7D4F933689842CEDAC1E79D18002065
:10400000A0180020981800203D1A002064190020F4
:104010009C1800206819002066190020012208B5AC
:10402000054B1A70FEF77CFEFEF702FFFEF7EEFE70
:104030000022024B1A7008BD3E1A00203D1A0020D3
:10404000002208B5044B1A70FEF7F2FEFEF7DEFE02
:10405000BDE80840FEF76CB93E1A002008B5FFF72E
:1040600027F9FEF7E5FEBDE80840FEF7CFBEFFF7F3
:10407000F5BF00000D49F0B500220D460C4C237829
:10408000D6B2B34201D800200CE031F8027B561CB6
:10409000874208D10120013BDBB2237035F8133091
:1040A00025F81230F0BD3246EAE700BF401A002082
:1040B0003F1A002070B5C5B2C4042A464FEA102347
:1040C00021D503F00F03013BDBB2072B54D82F4956
:1040D000CC5C502A46D0512A46D0522A46D04F2A8C
:1040E00021D10326FCB92A4B9C5DE4B10022294C66
:1040F0009A55A35D33B9284B13F8160005F010FA52
:104100000123A35570BD03F00104980748BF44F094
:104110000204590748BF44F004041B07D9D5502DA9
:1041200044F008042ED106F0ABF820EA04068443DC
:10413000F6B202D0204605F099FA16B1304605F0E5
:104140009EFA284605F0ECF9284605F031FA16B13A
:10415000304605F08BFA002CD4D02046BDE87040E4
:1041600005F08DBA0026BDE70126BBE70226B9E7B8
:104170000026B8E70126B6E7502DF9D0512DF9D029
:104180000024AAE7512DA8D1CDE700BF8E30010849
:10419000651A0020611A00209E300108A0F1E0029B
:1041A000072A08B506D9292804D000F015FA00F02E
:1041B000010008BD0120FAE70E4970B500220D4646
:1041C00004460D480378D6B2B34206D8102B0AD065
:1041D0005A1C027025F8134004E031F8026B0132DA
:1041E000A642F0D170BD05491E22881EFCF74CFA8C
:1041F000EC83F7E7401A00203F1A0020421A002003
:1042000008B506F03DF8064B1B781843830705D424
:10421000022005F02BFA0122024B1A7008BD00BFE4
:10422000691A0020601A0020E03880B207280BD8F5
:10423000064B1B5C43B10648027811B1134303706F
:10424000704722EA03020270704700BF96300108EF
:10425000691A0020014B1878704700BF691A0020C6
:104260002DE9F041002427460F4D104EDFF8408025
:1042700015F8013B2BB118F8140005F099F905F871
:10428000017C0134042C06F8017BF1D1094C237820
:1042900043B1094B1B789B0702D4022005F0EFF9CC
:1042A00000232370BDE8F081611A0020651A002008
:1042B0009E300108601A0020691A0020FFF77CBFB9
:1042C000FFF7D8BE08B5FFF725F80D48FFF740F80F
:1042D000FFF7A4FE0020FFF75FF80023094A0A4910
:1042E00013700A4A0B701370094A4B701370094A15
:1042F0008B70137053709370CB70D37008BD00BF78
:10430000B5400008691A0020651A00203F1A0020F5
:10431000601A0020611A0020FFF71CB80B282DE955
:10432000F84304462FD00D282FD00E282FD00F2869
:1043300014BF4FF0FF3503254E7956BBE52C0BD14A
:10434000464E337843B1464B1B789F0702D4022078
:1043500005F095F900233370681C0BD00027414B02
:10436000414E5F55735D2BB1404B13F8150005F0BE
:104370001FF977552046FFF77DFE80F00106F6B263
:104380003046BDE8F8830025D6E70125D4E70225AD
:10439000D2E7FEF7E7FF0028F2D0E52C04D1204653
:1043A000FFF70AFF0026EBE7A4F1E003072BE7D9AC
:1043B0002B4F3B7813F0DD0F26D0691C30D0FEF771
:1043C000D7FF68BBFEF7C8FF0128804628D12046EA
:1043D000254CFFF7F1FE635D002BE3D1234B13F86F
:1043E000150005F09DF804F80580DBE7FEF7C8FF2F
:1043F000D0B93B789A06C3D52046FFF7CFFE0028F8
:10440000BED1FFF7FDFEBBE713F0220F0CBFA146A4
:1044100044F400794846FDF73FFF40B9292C06D007
:10442000FEF7A6FF0028E1D0FFF721FEE1E7FEF747
:104430009FFF80464846FEF7C1FF0028D9D120469D
:10444000FFF7BAFE6B1CADD0B8F1000FAAD1FEF792
:1044500083FF012804BF034B5855A3E7601A0020CF
:10446000691A0020651A0020611A00209E30010898
:10447000044B1A68044B11781878044B1B781843C6
:1044800005F0BCBBAC1A00204C2600204D260020B5
:1044900070B5042400260E4D35F8020B20B1C0B2D1
:1044A00005F086F825F8026C013CF5D1D12005F025
:1044B0007FF8D22005F07CF8064B1C70064B1C8060
:1044C000064B1878FEF768FFBDE87040FFF7C8BEDE
:1044D000981A0020A01A0020A21A0020AA1A002070
:1044E000174B70B51A7822B30024164E164D1C7067
:1044F0003278E3B29A421DD8144D154C2B7813F044
:10450000010F05D02378D90702D4E02005F050F838
:104510002B789A0705D523789B0702D4E42005F071
:1045200047F800230B4A2B7013700B4A237033702B
:10453000137070BD15F8130005F03AF80134D7E791
:10454000881A00206E1A0020701A00206B1A0020B2
:104550006A1A00206D1A00206C1A002038B5054632
:104560000C4612B90024204638BD90470028F9D0E7
:104570006479002CF6D0FEF7FBFE28B1FFF777FD3B
:104580002846FFF79BFEEEE7FEF7FAFE0028F5D17E
:10459000F6E708B50BF084F9012838BF012080B296
:1045A00008BD10B50C4628B10BF07FF9A04234BF0E
:1045B0000020012010BD08B50BF03AF9012838BFE2
:1045C000012008BD10B50C4628B10BF075F9A042CA
:1045D00034BF0020012010BDA0F58043B3F5955FE6
:1045E00007D3A0F5A54040381F288CBF002001202C
:1045F00070470120704738B5054605F041FE044676
:1046000005F05AFE284604F021FE2046BDE8384059
:1046100005F04CBE4B20FFF7EEBF4E20FFF7EBBF7F
:1046200040F20910FFF7E7BF08B55120FFF7E3FF9D
:10463000BDE808404A20FFF7DEBF08B55220FFF76B
:10464000DAFFBDE808404A20FFF7D5BF4F20FFF74B
:10465000D2BF5020FFF7CFBF2DE9F84FA54F04463A
:104660000D4690463A60FEF777FE10B10022A24B4D
:104670001A6020466979FFF7D7FD392C9F4E44D147
:1046800095F805B09E4BDFF87C92BBF1000F30D05F
:1046900001221A70FFF7ECFE337880F0010089F8F0
:1046A00000000BB1FFF71CFF99F80030EBB1337835
:1046B0000BB1FFF715FF01233370FFF7CBFD00F0BF
:1046C0001103003B18BF01238F4A13708F4B00F07A
:1046D0000102C0061A7042BFD2B242F002021A7042
:1046E00000238B4A13708B4A13703920FFF7E6FDC5
:1046F000DEE099F800A01A7883F800B0BAF1000F54
:1047000062D0FFF7EDFE89F800B03378002B00F09F
:104710009C802046FFF760FF0646002840F0958009
:10472000FF2C00F29280A4F11E039BB2102B6A7939
:1047300065D87949CE5C002A64D1002E14BF30467A
:1047400020467649002289468E46DFF8C8C19CF88B
:1047500000305FFA82FA534577D939F802AB01325B
:104760005045F6D100225FFA82F94B450ED931F857
:1047700002AB02F10109504540F0F680013BDBB28B
:104780008CF800303EF813302EF81230C0B204F02E
:104790000FFF002E59D15E4A1378002B55D0013BF4
:1047A000DBB21370002B50D15D4E3378D9074CD556
:1047B000564B1B78DA0748D4E02004F0F9FE337832
:1047C00023F00103337040E0002A9ED0FEF7CAFDBB
:1047D000494B80F00100C3F800A0524BC0B283F8EF
:1047E00000A03B68DB6A1BB19847FFF739FD8CE7F7
:1047F00010B1FFF713FCF8E7FFF722FCF5E7002AFA
:1048000000F09680DFF80C9199F800300B2B01D95D
:1048100020466BE76EB1304604F082FE99F8003016
:104820000B2BF5D85A1C89F800203C4A22F813605B
:10483000EEE7E02C344B3ED0E42C3ED102210122A5
:104840001A70324A13780B43137029462046D8F861
:104850001C20FFF783FE58BB2046FFF7BDFE78B94A
:10486000FFF706FE60B13B685B6A002B7ED02046F6
:10487000984700287AD03B689B6A002B40F08480E0
:1048800029462046D8F82020FFF768FE064678B96A
:104890003B6895F805805B88A34240F0AD80224DCF
:1048A000224CB8F1000F7AD0FFF773FE26702880F3
:1048B0000020BDE8F88F0121C1E71B783BB9184DF6
:1048C0002B7823B9E02004F02BFE01232B70104A33
:1048D000E0B213780133137004F022FE99F800302F
:1048E0000B2B95D85A1C89F800200C4A22F813404B
:1048F0008EE700BFAC1A0020941A0020881A00200E
:10490000891A00208A1A00206C1A00206A1A0020D6
:104910006D1A00206E1A0020A6300108701A0020BF
:104920006B1A0020901A0020A81A0020A61A002056
:10493000E02C13D0E42C14D16FF002030021AB4A19
:10494000DEB21170AA4A204611780B401370FFF7AF
:10495000B7FCA84B1A7816401E7076E76FF001037B
:10496000ECE720461646ECE64A46FCE66B79002B5F
:1049700086D0FEF7FDFC10B1FFF779FB48E7FEF7A4
:10498000FFFC0028F8D143E72046697998470028C2
:104990003FF476AF6B79002B3FF472AF38E72378A2
:1049A0005BB1954E308810B1C0B204F001FE002317
:1049B000338000232B8023707AE72B88002BF8D0DC
:1049C000FEF7CAFC042802D1FFF762FDF1E73B685D
:1049D000DB686BB9FEF7C6FC0028EAD0FEF7BCFC2A
:1049E000864B1870FFF73CFC0420FEF7D5FCE0E78F
:1049F00098470028EED1DCE7FEF7AEFC04280DD185
:104A0000A4F1E003072B2ED8B8F1000F06D024F054
:104A10000403E12B3FF4FCAEFFF73AFDFEF7A2FCE6
:104A2000002800F0D1803B689B7C002B00F0CC80FC
:104A3000292C40F0CB806B79002B00F04581FEF7EC
:104A40008BFC002840F03D81FFF704FC10F0DD0FE7
:104A500040F03781830740F1B08040F23520FFF706
:104A6000CAFD292042E6FFF7F5FBB8F1000F46D05A
:104A70000F2C15D80A2CCFD9A4F10B0300F022007B
:104A8000042BC9D801A252F823F000BFB34A000892
:104A9000194A0008C14A0008D54A0008E94A000836
:104AA000282C28D02C2CB7D1FFF773FD544B18803D
:104AB000AEE6CF20534B188004F032FD0B2015E6F4
:104AC00000280CBFCE20DA204E4B588004F028FD81
:104AD0000D200BE600280CBFCD20D920494B988033
:104AE00004F01EFD0E2001E6D020464BD88004F0D5
:104AF00017FD0F20FAE5D22004F012FD88E60F2CF6
:104B000012D80A2C8AD9A4F10B03042B86D801A24F
:104B100052F823F04D4B00081D4A0008634B000873
:104B2000794B00088F4B0008282C42D02C2C7FF4A6
:104B300075AFDFF8D490324E99F80030002B31D0A9
:104B4000D12004F035FD89F8008007E02D4E308833
:104B500000283FF463AFC0B204F02AFD0023338085
:104B60005CE7284E708800283FF458AFC0B204F0CC
:104B70001FFD0023738051E7224EB08800283FF4C8
:104B80004DAFC0B204F014FD0023B38046E71D4EC4
:104B9000F08800283FF442AFC0B204F009FD0023C2
:104BA000F3803BE73388002BD8D0D12004F056FDAA
:104BB000D4E7D22004F0FCFC30E7002800F081802C
:104BC0003520FFF718FD23E6292C7AD06B79002BCE
:104BD00051D129462046BDE8F84FFFF79FBBFFF7AC
:104BE000EAFC3060292004F031FBEFE76C1A00206A
:104BF0006A1A00206B1A0020A41A0020AA1A0020AA
:104C0000A21A0020981A0020A01A0020FEF7AAFB82
:104C10000028DBD0FFF71EFB10F0DD0FD6D1FEF72A
:104C20009BFB831EDBB2012BD0D901280AD1FEF7F2
:104C30009FFB0028CAD1FEF7AFFBFFF7BCFC324B4D
:104C40001860C3E7304C206838B900232360FFF7B1
:104C500005FA0120FEF7A0FB03E740F6B831FFF7A5
:104C6000B1FC0028F1D10122284B1A70FFF7A3FCF8
:104C7000274B1860F5E6FEF775FB0028A9D0FEF774
:104C80006BFB0128A5D13B681B6B002BA1D0FFF764
:104C9000E1FA3B681E6B3788002F9AD0BC420ED1D8
:104CA000F378B278034032B94BB9FFF7D7F973689C
:104CB000984738461AE5134201D09343F5D0083699
:104CC000E9E76B79002BA1D1104B1A78002A3FF449
:104CD0007DAF4FF0000883F80080FEF743FB00280B
:104CE0003FF474AF0A4BC8211868FFF76BFC064EFF
:104CF00000283FF474AFC6F80080FFF7AFF9012039
:104D0000FEF74AFB62E700BF941A0020901A0020C9
:104D10008C1A00200023144A1360144A1370144A9A
:104D20001380144A1370144A1380144A1380144ACF
:104D30001370144A138053809380D380124A1370E7
:104D4000124A1370124A1370124A1370124A1370E7
:104D5000124A1370124A1370124A1370124A1360E7
:104D6000124A1370FFF7AEBAAC1A0020AA1A00203C
:104D7000A81A0020A61A0020A41A0020A21A0020B7
:104D8000A01A0020981A00208A1A0020891A0020F0
:104D9000881A00206E1A00206D1A00206C1A00205C
:104DA0006B1A00206A1A0020941A0020901A002022
:104DB00038B51C4CFFF7B0FA2368002B30D01A4AE4
:104DC0001088A0B1194D2A788AB9198AFFF7E9FB32
:104DD00068B101232B7023689B68F3B19847E0B159
:104DE0002368D888124B1880C0B204F099FBFEF7F4
:104DF000B3FA042814D10F4B188888B10E4D2B78C4
:104E000073B92368198AFFF7CCFB48B10123D1207D
:104E10002B70BDE8384004F083BB23689888E1E735
:104E200038BD00BFAC1A0020A81A0020A61A002026
:104E3000A41A0020A21A0020A01A0020024B186811
:104E400000B1808A704700BFAC1A002083B990B1CE
:104E5000022913D0032915D0012915D1BAB910465A
:104E6000FF2300990A70019A1070029A137070471C
:104E70000022FF20F4E7FF220346F2E780221846D3
:104E80008023EEE7FF22FAE71A46FF20E9E7FF2238
:104E90001046E6E708B5FEF765FA08B9002008BD38
:104EA000FEF75AFA0028F9D1054B18680028F6D009
:104EB00040F6B831FFF786FB80F00100C0B2EEE7A4
:104EC000941A0020F8B507460E461546FFF7E2FF94
:104ED00070B10A4B1C6864B1A36963B10FB11B0CBC
:104EE0003B7016B1A3691B0A33700DB1A3692B7017
:104EF000F8BD2046FCE71846FAE700BFAC1A0020D0
:104F0000032806D8B422504300F12401014806F0DA
:104F100037B87047B01A0020032838B50FD80A4CAC
:104F20002378012B4FF0000309D16578A84208D1FE
:104F3000237009B9012038BDFFF7E2FFFAE700202E
:104F4000F9E71846F7E700BF5C0C0020F7B5044608
:104F50000D4608F097FD2B4E2B4F7080E0B2854236
:104F60004ED90021294A0FE01CF801EBBEF1FF0FDA
:104F700001D0864518D00133DBB20F2BF4D10131BB
:104F8000062902F10F0239D094460023ECE70129EB
:104F900006D1012B04D100227388ADF8002015E062
:104FA0007388ADF8000011E03A683AB31E2000FBA8
:104FB000012232F8131032F81300090A12F81330E4
:104FC00040BAE4D1002BEBD1ADF800308DF80230BF
:104FD000009806F053FBC0F307238DF80400C0F3DC
:104FE00007408DF805308DF806009DF80630204604
:104FF0009DF804209DF8051007F048F80134ADE74E
:1050000003B0F0BD5C0C0020641B0020EE0D0020FE
:105010002DE9F04105460E461746002400F124080C
:10502000B44201D1BDE8F0812B19B3F5347F06D22B
:1050300008EB040005F056FF38550134F0E7002076
:10504000FAE72DE9F04105460E461746002400F127
:105050002408B44201D1BDE8F0812B19B3F5347FA7
:1050600004D2395D08EB040005F0A4FF0134F0E739
:1050700041EA020370B40D4650EA030104D170BC4A
:10508000B4220A48FBF7A4BB00241E260F2306FB0C
:1050900004F10648013B13F0FF0305704270084419
:1050A000F8D10134062CF1D170BC7047B01A002041
:1050B000032806D8B422504300F12401014805F02A
:1050C000A7BF7047B01A0020074B084A10B51A60F6
:1050D0000023074C2370607008F0D4FC6080607877
:1050E000BDE81040FFF7E4BF641B0020B01A0020A9
:1050F0005C0C0020032808B50CD8074A5070FFF755
:10510000D7FF08F055FC2D2802D02D2008F04DFCCB
:10511000012008BD0020FCE75C0C0020032808B536
:1051200011D80A4A117871B9012150701170FFF736
:10513000BFFF08F03DFC2D2801D1012008BD2D2026
:1051400008F033FCF9E70020F8E700BF5C0C002012
:10515000024B1878431E5842584170475C0C00209F
:1051600070B5114B1B78012B1CD1104A126892B1FB
:105170001E244878097804FB00220D4832F81140BB
:10518000054630F8026BA64207D103F0070335F855
:10519000133022F81130012070BD0133092BF0D1FA
:1051A0000023F6E70020F7E75C0C0020641B0020DA
:1051B0008C3101084FF434722421014805F0E0BE1F
:1051C0002833010838B50024064D08F0F1FB15F826
:1051D000013B984204D00134192CF6D1002038BD8F
:1051E000E0B2FCE77331010808B5FFF7EBFF00F50B
:1051F0003E7005F077FE082828BF002008BD00009B
:1052000038B50446FFF7DEFF104B1B78012B07D0A3
:105210001922431CDBB2B3FBF2F102FB1133D8B20B
:105220000B4B185C207008F0C0FBFFF7DDFF094B4B
:1052300013F8104003EB40035D7808F023FC294687
:1052400002462046BDE8384008F0F5BB5C0C002063
:10525000733101085E310108032810B504460AD8ED
:10526000FFF726FF20460121FFF756FE2046BDE846
:105270001040FFF73FBF10BDB4235843C1EB0111ED
:105280001144243000EB41007047032838B510D892
:1052900005290ED80E2A0CD8FFF7EEFF054605F0BB
:1052A00021FE0446681C05F01DFE44EA002080B281
:1052B00038BD0020FCE7032870B51C460FD805292F
:1052C0000DD80E2A0BD8FFF7D7FF0546E1B205F03F
:1052D00071FE210A681CBDE8704005F06BBE70BD10
:1052E00008B54FF43E7005F0FDFD082828BF0020EA
:1052F00008BD000070B508F05BFB0723144A12F8E4
:10530000011B814221D0013B13F0FF03F7D1072499
:10531000FFF7E6FF0130C0B2B0FBF4F304FB13006B
:105320000C4BC4B213F8105003EB40035E7808F046
:10533000A9FB31460246284608F07DFB21464FF482
:105340003E7005F0FAFD204670BD0624E0E700BF80
:105350006C3101085E31010870B5FFF745FF044666
:1053600007281CBF0B4B1C5C0B4B13F8145003EBB2
:1053700044035E7808F086FB31460246284608F072
:105380005AFBFFF71FFF2146BDE8704000F53E7055
:1053900005F0D3BD573101085E31010870B5FFF744
:1053A00023FF044607281CBF0B4B1C5C0B4B13F858
:1053B000145003EB44035E7808F064FB3146024668
:1053C000284608F038FBFFF7FDFE2146BDE8704097
:1053D00000F53E7005F0B1BD503101085E310108A5
:1053E0007FB51E4B1B78002B33D000221146104690
:1053F00006F0B8FE00250A2601AC0A22184901A8C9
:10540000FBF76CFA01F09AF90378EAB2B3FBF6F312
:10541000934200D8FDB901F091F90378312B04D9FA
:1054200000239622194620780CE001F087F9034604
:105430001B7820781D2B4FF0000387BF962219465A
:105440001A469621013506F021FE0A2D04F10104C9
:10545000D3D104B070BD00231A46E3E7C445002051
:10546000F83001082DE9F0430D46144689B00C28A8
:1054700048D8DFE810F00D004A008100C100460165
:1054800051015F016D0178018301A501B301BF01E5
:10549000C04FC14E38680AF00FFA0E2805D90AF03D
:1054A000C7F9338838600333338004EB84042C4419
:1054B0006FF007084725FF27E4B208FB05F33288A1
:1054C00003F596631344B3FBF7F213448DF80430ED
:1054D0008DF805708DF80640019806F0CFF8C0F3FE
:1054E0000721C0F307438DF808008DF809108DF8E7
:1054F0000A30C2B2DBB22846C9B2013506F0C6FD99
:10550000972DDAD109B0BDE8F083A44FA44E3868D6
:105510000AF0D2F90E2805D90AF08AF933883860E2
:105520000333338004EB84042C44FF270025E4B2CA
:1055300033888DF8057003EBC503B3FBF7F2134412
:105540008DF804308DF80640019806F097F8C0F306
:105550000721C0F307438DF808008DF809108DF876
:105560000A30C2B2DBB205F14700C9B2013506F01C
:105570008DFD502DDCD1C5E78A4F8B4E38680AF07F
:105580009BF90E2805D90AF053F9338838600333A4
:10559000338004EB84042C444FF00C080025FF27D3
:1055A000E4B2282DEBB28CBF283BC3F1280332882C
:1055B000DBB208FB0323B3FBF7F213448DF804308E
:1055C0008DF805708DF80640019806F057F8C0F385
:1055D0000721C0F307438DF808008DF809108DF8F6
:1055E0000A30C2B2DBB205F14700C9B2013506F09C
:1055F0004DFD502DD5D185E705220023B1FBF2F2F8
:10560000032C8DF809308DF80A308DF80D30ADF887
:1056100010308DF813308DF814308DF817308DF868
:1056200018308DF81B30614F4FEA51038DF80C2074
:105630008DF81D30A1EB44028DF81E308DF81F301F
:1056400098BF5B4BD2B238688CBF0F241C5D8DF8BD
:1056500008108DF80B108DF80E208DF80F208DF8A6
:1056600012108DF815208DF816208DF819108DF870
:105670001A208DF81C200AF01FF9A0424D4E4E4C06
:105680000FD30AF0D5F84D4A23781178386069B302
:105690000133DBB2AB4201D2237002E0002325705C
:1056A00013704FF04709337803EB430320336B4407
:1056B00013F8186C13F8177C13F8168C21784846E9
:1056C00001FB08F301FB07F27143B3FBF5F3B2FBF7
:1056D000F5F2B1FBF5F1DBB2D2B2C9B209F10109C1
:1056E00006F0D4FCB9F1970FE8D10BE70BB1013B01
:1056F000D2E70121337811700B4403F007033370B4
:10570000CFE74724002320461A462946013406F0F5
:10571000BDFC972CF6D1F5E605264724B1FBF6F63D
:105720002046002332462946013406F0AFFC972C70
:10573000F6D1E7E64725A1EB8204E4B22846002330
:1057400022462146013506F0A1FC972DF6D1D9E677
:105750004724002320462A461946013406F096FCC9
:10576000972CF6D1CEE6472420462B462A46002128
:10577000013406F08BFC972CF6D1C3E647240022B7
:1057800020462B461146013406F080FC972CF6D1BA
:10579000B8E600BF841B0020801B00207C1B00207B
:1057A000781B0020741B0020701B00206C1B002045
:1057B0009C310108681B0020691B0020600C002040
:1057C0004725A1EB8204E4B2284623460022214665
:1057D000013506F05BFC972DF6D193E647254C0882
:1057E0002846234622462146013506F04FFC972DD8
:1057F000F6D187E64724002320461A46194601348D
:1058000006F044FC972CF6D17CE600BF38B50C4678
:105810000D4D78B10AF00CF80C4B28601B7883B161
:1058200000F0C2FA58B100F0BFFA0022114600F0B1
:1058300001FA04E028680AF03FF83228EAD800208C
:1058400038BD2370FBE700BF8C1B0020F42500202F
:10585000014B1860704700BF901B002070B500F02E
:1058600069FF454C027823789A4206D000F062FF27
:10587000002203782370414B1A6001F04FFD01387C
:10588000C0B2062896BF3E4B002653F8206000F0B9
:1058900051FF0378032B06D8DFE803F0024C3307EF
:1058A0000022364B1A60012070BD344D2C6894B92B
:1058B00009F0BEFF334B28601A78002AF3D01C7021
:1058C00000F072FA054600F06FFA224601462846BB
:1058D00002F058F8E7E7204647F22F5609F0ECFFB0
:1058E000B042E0D9FFF734FC0028DCD109F0A0FF7A
:1058F0002860112001F0D4F844F620600BF0A9F9DB
:1059000014E001251D4C1F4B20681D7018B909F0CB
:105910008FFF2060C7E709F0CFFFB042C3D3FFF786
:1059200017FC0028BFD109F083FF2060012000F0A0
:1059300073FCB8E7114C2368002BE8D000F034FA70
:10594000062809D000F030FA012805D000F02CFA22
:10595000022801D000F028FA206809F0ADFF47F2D4
:105960002F5398429FD9FFF7F3FB00289BD109F0F2
:105970005FFF2060BDE700BF891B0020901B002057
:10598000A0310108881B002007B58DF807100DF124
:105990000701FFF73BFFFFF761FF002003B05DF851
:1059A00004FB00002B4B2DE9F0411B78BBB10F2508
:1059B0004FF00108284E56F8041B4B1C0BD021F069
:1059C0000F0701F00F0108FA01F4012221463846C1
:1059D0000CF0F0FBBC61013D15F0FF05EBD100229E
:1059E00080214FF080400CF0E5FB00BF00BF00BFFE
:1059F00000BF00BF00BF00BF00BF00BF00BF00BFAF
:105A000000BF00BF00BF00BF00BF00BF00BF00BF9E
:105A100000BF00BF00BF00BF00BF302585F3118865
:105A2000012207214FF080400CF0E4FB002484F3B6
:105A3000118885F3118801220C214FF080400CF071
:105A4000D9FB84F31188BDE8F041062123200CF036
:105A500030B900BFF3250020BC310108072804D06D
:105A6000122804D1042000F0B7BB0320FBE77047E5
:105A700008B54FF080724FF080439A614FF000728A
:105A800040219A610F4800220CF094FB00228021F3
:105A90000C480CF08FFB4FF480030A4A93610022FC
:105AA000094B1A70094B1B785BB1112000F0F8FF0D
:105AB00044F620600BF0CDF8BDE80840022000F06D
:105AC0008BBB08BD00040040DD250020F32500202D
:105AD00010B5084C237863B100F084FB033801282B
