:100000000004002091010000E1120100E31C010046
:100010009301000093010000930100009301000090
:100020009301000093010000930100009301000080
:10003000930100009301000093010000311D0100B5
:100040009301000093010000930100002948000083
:10005000930100004D48000061480000B9480000CD
:100060009301000093010000A548000093010000E7
:1000700093010000930100009149000069480000CD
:100080007D480000914800009301000093010000AA
:100090009301000093010000930100009301000010
:1000A0009301000093010000930100009301000000
:1000B0009301000093010000930100004122010020
:1000C00072B6244880F30888234880F30988022008
:1000D00080F31488BFF36F8F10F0FEF80FF0F1FC7F
:1000E0001E481F491B4A914202DA08600431FAE7B0
:1000F0001C49194A914202DA08600431FAE71A49A8
:100100001A4A1B4B9A4204DA086810600431043220
:10011000F8E700201749184A914202DA08600431D2
:10012000FAE710F0DDF810F0D8F8144C144DAC429A
:1001300003DA216888470434F9E70BF0E1F8114C41
:10014000114DAC4203DA216888470434F9E70F49BE
:100150000847000000040020000C002055555555AC
:100160000000002000040020F4370100000C0020F3
:100170000013002000130020E0320020C000000027
:10018000C0000000C0000000C0000000DD0201004F
:1001900096E700F000F8FEE7F0B544464D465646B7
:1001A0005F46F0B46B46CB60C3689D46F0BCA0468A
:1001B000A946B246BB46F0BD62B6281CA047002047
:1001C00011F048F8FEE710F0A9FF024A024B136055
:1001D000FEE7C04604ED00E00000008002B4714676
:1001E00049084900095649008E4402BC7047C04680
:1001F00002B4714649084900095C49008E4402BCBA
:100200007047C04603B47146490840004900095E82
:1002100049008E4403BC704703B47146490840004E
:100220004900095A49008E4403BC70470022430824
:100230008B4274D303098B425FD3030A8B4244D3AE
:10024000030B8B4228D3030C8B420DD3FF220902F0
:1002500012BA030C8B4202D31212090265D0030BAF
:100260008B4219D300E0090AC30B8B4201D3CB03A5
:10027000C01A5241830B8B4201D38B03C01A5241E7
:10028000430B8B4201D34B03C01A5241030B8B42E9
:1002900001D30B03C01A5241C30A8B4201D3CB02D4
:1002A000C01A5241830A8B4201D38B02C01A5241B9
:1002B000430A8B4201D34B02C01A5241030A8B42BC
:1002C00001D30B02C01A5241CDD2C3098B4201D3D4
:1002D000CB01C01A524183098B4201D38B01C01A52
:1002E000524143098B4201D34B01C01A52410309C9
:1002F0008B4201D30B01C01A5241C3088B4201D378
:10030000CB00C01A524183088B4201D38B00C01A24
:10031000524143088B4201D34B00C01A5241411A4B
:1003200000D20146524110467047FFE701B5002058
:1003300000F0F0F802BDC0460029F7D076E770471C
:1003400003460B437FD4002243088B4274D3030936
:100350008B425FD3030A8B4244D3030B8B4228D3D7
:10036000030C8B420DD3FF22090212BA030C8B42FD
:1003700002D31212090265D0030B8B4219D300E09D
:10038000090AC30B8B4201D3CB03C01A5241830B22
:100390008B4201D38B03C01A5241430B8B4201D3D2
:1003A0004B03C01A5241030B8B4201D30B03C01AFB
:1003B0005241C30A8B4201D3CB02C01A5241830A75
:1003C0008B4201D38B02C01A5241430A8B4201D3A4
:1003D0004B02C01A5241030A8B4201D30B02C01ACE
:1003E0005241CDD2C3098B4201D3CB01C01A524135
:1003F00083098B4201D38B01C01A524143098B42BE
:1004000001D34B01C01A524103098B4201D30B01A6
:10041000C01A5241C3088B4201D3CB00C01A5241CB
:1004200083088B4201D38B00C01A524143088B4290
:1004300001D34B00C01A5241411A00D20146524129
:10044000104670475DE0CA0F00D04942031000D348
:100450004042534000229C4603098B422DD3030A9D
:100460008B4212D3FC22890112BA030A8B420CD3AD
:10047000890192118B4208D3890192118B4204D3D6
:1004800089013AD0921100E08909C3098B4201D356
:10049000CB01C01A524183098B4201D38B01C01A90
:1004A000524143098B4201D34B01C01A5241030907
:1004B0008B4201D30B01C01A5241C3088B4201D3B6
:1004C000CB00C01A524183088B4201D38B00C01A63
:1004D0005241D9D243088B4201D34B00C01A52413A
:1004E000411A00D20146634652415B10104601D3C7
:1004F0004042002B00D54942704763465B1000D351
:10050000404201B5002000F005F802BD0029F8D0F6
:1005100016E770477047C046844608006146FFE70B
:100520001FB500F00FFB002801D40021C8421FBDF9
:1005300010B500F097FA4042013010BD10B500F040
:1005400001FB002801DB002010BD012010BDC046CA
:1005500010B500F0F7FA002801DD002010BD0120E1
:1005600010BDC04610B500F0A5FA002801DC00203F
:1005700010BD012010BDC04610B500F09BFA002848
:1005800001DA002010BD012010BDC0461C2101234E
:100590001B04984201D3000C10391B0A984201D366
:1005A000000A08391B09984201D30009043902A244
:1005B000105C40187047C0460403020201010101AB
:1005C0000000000000000000002B11D1002A0FD114
:1005D000002900D1002802D00021C943080007B437
:1005E000024802A14018029003BDC04629FFFFFF48
:1005F00003B4684601B5029800F052F8019B9E468C
:1006000002B00CBC7047C046F0B5CE469946030C0C
:100610009C46130447461B0C1D000E006146040453
:10062000240C80B50700100C4B43654341436043E5
:100630002C0CC01824188C46A34203D980235B02DB
:100640009846C444494679435643230C2D042D0C47
:100650008919634424046019C918C0BCB946B0465E
:10066000F0BDC04670B500220C4B04000D0002F036
:1006700043FA002804D12000290002F033F970BDAC
:10068000064B00222000290001F0F4FC02F02AF9B8
:1006900080231B069C466044F1E7C0460000E04111
:1006A000F0B557464E464546DE46E0B504000D001F
:1006B0009246994683B08B4230D82DD04946504659
:1006C00002F024FA29000600200002F01FFA331A73
:1006D0009846203B34D49B4653465A469340424664
:1006E0001F00534693401E00AF423BD8AF4200D19B
:1006F00079E05B46A41BBD41002B00DA76E00022C6
:1007000000230092019301235A4693400193012351
:1007100042469340009329E08242CFD90022002331
:10072000009201930C9B002B01D01C605D6000982F
:10073000019903B0F0BCBB46B246A946A046F0BD45
:1007400042469B4620239B1A5246DA4041461300FC
:100750004A468A40170042461F43534693401E00B4
:10076000AF42C3D900220023009201934346002BDD
:10077000D8D0FB0772081A4346467B080EE0AB420E
:1007800001D1A2420CD8A41A9D41012024196D4127
:100790000021013E24184D41002E06D0AB42EED977
:1007A000013E24196D41002EF8D1009801995B4655
:1007B00000196941002B24DB2B005A464646D340E2
:1007C0002A001C00F2405B461500002B2ADB2600A5
:1007D0009E40330026004746BE403200801A9941B1
:1007E000009001919EE7A342BCD882E742462023B5
:1007F00000219B1A0022009101920122DA4001920D
:1008000085E7424620239B1A2A0046469A40230049
:10081000F340464613432A001C00F2405B46150095
:10082000002BD4DA202342462F009B1B9740260042
:10083000DE403B003343CDE7F0B546464F46D64653
:100840004502C0B5C30F470098460E1C6D0A3F0E07
:100850005BD0FF2F21D08023ED00DB041D4300235C
:1008600099469A467F3F74027300640A1B0EF60F86
:10087000002B20D0FF2B43D080220020E400D204A4
:1008800014437F3B4246FF1A4B4672400F2B00D960
:100890009DE071499B00CB589F46002D5AD10823FB
:1008A0009946063B74029A467300FF27640A1B0EA2
:1008B000F60F002BDED1002C3BD1012342464946E6
:1008C000724019430E2918D86448890041588F4650
:1008D0005346022B00D1B8E0032B6ED042462C00C9
:1008E000012B40D100200024C0052043D207104333
:1008F000E0BCBA46B146A846F0BDFF200024F3E7AD
:10090000002C20D10223FF3FD8E7002D05D104237E
:100910009946033B00279A46A5E72800FFF736FED5
:100920007627431F9D4000237F4299469A463F1AEF
:1009300099E72000FFF72AFE431F9C4076235B4285
:100940001B1A00209EE703234A461A4391460320C0
:10095000FC3397E70C239946093BFF279A4682E729
:1009600003282CD0320038007F30002847DD630791
:1009700004D00F232340042B00D00434230103D5DB
:100980003800374B80301C40FE28B6DCA401640AD6
:10099000C0B2A9E780240022FF20E403A4E780235B
:1009A000DB031D4201D01C420BD08024E4032C4306
:1009B00064024246FF20640A96E746462C008023E4
:1009C000DB031C4364023200FF20640A8CE76D01E4
:1009D000600185422DD21B230024013F01262900FE
:1009E00064006D00002901DB854201D32D1A3443D8
:1009F000013B002BF3D16B1E9D412C43B3E7012338
:100A00001B1A1B2B00DD6DE721009E37D940BC402F
:100A10000B00611E8C412343590704D00F2119405C
:100A2000042900D00433590113D49B0100205C0A2F
:100A30005AE71A2301242D1AD0E7981E4342584141
:100A4000404232000024C0B24EE74246FF2000245C
:100A50004AE70120002447E74829010088290100CE
:100A6000FFFFFFF770B542004E024C0045026D0AD1
:100A7000120EC30F760A240EC90FFF2A10D0FF2CC6
:100A80000CD00120A2420AD1B54208D18B420FD02E
:100A9000002A04D12800431E984100E0012070BDC7
:100AA0000120FF2CFBD13543F9D14B401800F6E76C
:100AB0000020F4E730B5420044024D02C30F480065
:100AC000640A120E6D0A000EC90FFF2A18D0FF2803
:100AD0000AD0002A1ED100280AD1002D29D0002CCE
:100AE0002DD14800013830BD002D25D1002A01D17B
:100AF000002CF6D08B4219D001205B421843F2E75C
:100B0000002C19D1FF28F7D1002D15D100208B42E0
:100B1000F2D1E8E70028EFD08B42EDD18242EBDC46
:100B200004DBAC42E8D80020AC42DCD258000138EB
:100B3000D9E7002CD7D0DFE702204042D3E78B4231
:100B4000DAD1EEE730B5420044024D02C30F48004F
:100B5000640A120E6D0A000EC90FFF2A17D0FF2873
:100B60000AD0002A1BD100280AD1002D1DD0002C4C
:100B70002DD14800013811E0002D0ED1002A01D1FD
:100B8000002CF6D08B420CD15800013806E0002C26
:100B900003D1FF2805D1002D15D0022030BD00283B
:100BA00006D101205B421843F8E7002CF6D0F8E7A5
:100BB0008B42F6D18242F4DCE6DBAC42F1D8002075
:100BC000AC42EBD2E0E700208B42EAD1E6E78B4271
:100BD000E7D1F2E770B5002812D0C317C5185D4001
:100BE000C40F2800FFF7D2FC9E231B1A962B0FDCA4
:100BF000082838D0083885406D026D0AD8B202E066
:100C0000002400200025C0052843E407204370BDD0
:100C1000992B14DC421F95402A00154911405507B5
:100C20001CD00F252A40042A18D00431CA084901D3
:100C300015D59F235202181A550AC0B2E3E70200E5
:100C400029001B3291404A1E91410522121AD540BB
:100C50002A000A43064911405507E2D1CA08520248
:100C6000550AD8B2CFE76D026D0A8E30CBE7C04689
:100C7000FFFFFFFBF0B54F464646D646C0B50D0315
:100C800082B0009201934E00C300CC0F690A450F59
:100C90009C46009A019B0D435F001903D80F009BEF
:100CA000490A5B0F1943009B760D7F0DDA00F31B99
:100CB000844258D0002B13DD002F00D088E00800BC
:100CC000104300D159E1581E012B00D1C2E2B14FAF
:100CD000BB4200D141E1382800DD6AE2030064E153
:100CE000002B00D1B1E0BB1B002E00D0E1E1644637
:100CF0002C4300D176E25C1E012B00D1E8E2A54E28
:100D0000B34200D1B7E2382C00DC6BE3541EA242A0
:100D1000924152428D1AA0461E0004002A0268D455
:100D200043461F1D47459B415B42ED182B0200D4F3
:100D30009DE3984A0136964200D1EBE0964A73054E
:100D40002A405B0D5107FF0852020F43120B1B058F
:100D50001343E40723433800190002B0E0BCBA464D
:100D6000B146A846F0BD002B00DCD7E0002F00D034
:100D70009AE00800104300D1FFE0581E012B00D17B
:100D800048E2844FBB4200D1E7E0382800DCB8E2FB
:100D900080221204154200D149E31E0000231500F1
:100DA00098467C4B01369E4200D1B3E07A4B01213C
:100DB0001D4043465A081940EF070A4317436D0880
:100DC0007B07B3D00F233B40042BAFD0B846A7E737
:100DD0007048864200D1C0E0382B00DCE2E00123FD
:100DE0005B4263449C45804140422D1A98462B0249
:100DF00096D501235B429846684D2800FFF7C6FB55
:100E00000300083B20214046CA1AD0400200404659
:100E10009D4098402A438046B34200DA72E1981B15
:100E200043460130091A45468B40C5405E1EB3411A
:100E300017008F402B431F43C2403B001500002684
:100E40001343BDD10027002281E7554F731C3B425D
:100E500000D01BE163460F002B431743002E00D048
:100E6000C4E1002B00D145E2002F00D107E1634629
:100E70009B1A9846C445B6416B1A76429B1B802646
:100E80003604334200D1CBE26346D31A9A429241F0
:100E90001F00491B52428A1A9C46174300D0EDE2BC
:100EA00004000023002252E73A48864255D0382BEE
:100EB00000DD48E18020000401431F2B00DDE3E159
:100EC0002027F81A824608005746B840814610008D
:100ED0004F46D840074338005746BA40D940571EBE
:100EE000BA416D18104360448046E045804140425D
:100EF0002D182B0200D554E743465B0700D1B9E219
:100F00000F2342461340042B00D009E7330042462A
:100F1000D20834E033000022002718E7002B00D16C
:100F20008FE0BB1B002E00D033E16046284300D188
:100F300040E2581E012B00D10AE2164EB34200D106
:100F400085E2382800DC87E280252D04294200D183
:100F50009CE21E000023984623E763466E07D808EC
:100F60000643ED0837002F4311D0802212032A4395
:100F700012033700074B120BE9E66246D2086E07F0
:100F80001643044AED089342ECD03700D6E0014BFB
:100F90000022DCE6FF070000FFFF7FFFFFFF7F006E
:100FA000FE0700008020000401431F2B00DDB1E09C
:100FB0002027F81A824608005746B840814610009C
:100FC0004F46D840074338005746BA40D940571ECD
:100FD000BA416D1A104363461B1A9C4580419846DE
:100FE00040422D1A2B0287D56D026D0A002D00D0CC
:100FF00003E74046FFF7CAFA030018331F2B00DC53
:1010000000E74246083882409E4200DD91E09B1B8B
:10101000581C1F2800DCF8E117001F3BDF40202888
:1010200005D040231B1A9A40531E9A411743002FA4
:101030003CD000267B0700D0C4E63500B84633001C
:1010400065E7CB48731C034200D085E063462B4321
:10105000002E00D092E10F001743002B00D1D8E101
:10106000002F0CD06244624580416D1840422D181B
:101070002B0200D5F2E1170094462F4316D06346A9
:101080006F07D80807430023ED0857E063469B1A13
:101090009846C445BF416B1A7F42DB1B1F0200D537
:1010A000AEE047461D001F43A0D1002400230022CC
:1010B0004DE6B04CA74200D1DDE0382B00DD85E0E5
:1010C0008024240425431F2B00DDECE02026F41AA5
:1010D000A1462C004E46B4406646DE403443A0464E
:1010E00066464C46A640DD40741EA6414446491B58
:1010F0003443131B9A4292415242984604003E00E8
:101100008D1A6FE7F61A03009B4D15405B0700D060
:10111000F6E6FBE618000F002038C740202B03D06E
:101120004020C31A99400A43531E9A411000384385
:1011300051E79149F31A0A405707D5082A035B057E
:10114000120B5B0D03E680231B041D4200D1BBE0A4
:101150001D000023984624E68648834200D1DAE643
:10116000624462458041691840420918C807520824
:10117000104380464D08520705D00F221E00024042
:10118000042A00D0CCE542466F07D20817430D0968
:10119000D4E77848874200D1D5E0382B00DCB2E0B4
:1011A00080252D04294200D14CE100233E009846C1
:1011B000F7E50122524262449445804140422D1A93
:1011C00090461E002A0200D513E6A9E5531E9A4256
:1011D000924152428D1A984604003E002B0200D5DF
:1011E00007E69DE504000D00D208C8E6002B00D0FC
:1011F000E3E0002F3FD1802200245E4B1203A6E5DE
:101200006346D31A9A4292414D1B524298460400BB
:10121000AD1AEBE662441600664580416A1840420A
:101220001218130200D49DE0534973080A40D107F5
:10123000194357085B0700D1FEE00F230B40042B36
:1012400000D1F9E00B1D98468845AD416D4202235F
:10125000ED195CE663469B1A9C4580416D1A40423D
:101260002D1A98462B020DD443466F07DB081F4307
:10127000ED08012362E74E07D20804001643CD08AB
:1012800070E604000126AFE618000F002038C740C2
:10129000202B03D04020C31A99400A43531E9A4181
:1012A000100038431FE61C002E00203CE640202B97
:1012B00005D04024E31A9D4063462B439C46644678
:1012C000631E9C41344314E701236344984627E599
:1012D0006346D31A9A4292414D1B5242AD1A984628
:1012E0002B02CED443466F07DB081F4304000123C3
:1012F000ED0823E7002F00D1D7E604000D00944647
:10130000BDE60300D9E58020000405431F2B6BDCFC
:101310002020C01A804628004646B0406646DE407F
:101320000643B14660464646B040DD40461EB041E9
:101330004E4649193043804690449045924152426E
:101340003E005518D5E54E07D2081643CD0809E6EC
:1013500063469E1896429241691852428A181302B7
:1013600000D561E75707F60801233743D508E5E6BE
:10137000FE070000FF070000FFFF7FFF002BE2D009
:101380006346DE086B071E430B00ED08134300D1D4
:10139000E8E580231B031D4206D0C808184203D18C
:1013A0000500D60849070E43730FF600F6085B07E1
:1013B0001E43D7E50D00D208E1E56346DE086B0762
:1013C0001E43ED08002F00D1CCE580231B031D42F6
:1013D000EAD0CF081F42E7D1D608490704003D00F4
:1013E0000E43E1E723006EE618002E002038C640C9
:1013F000202B05D04020C31A9D4063462B439C46BA
:101400006046431E9841304395E720210023091A86
:101410000EE50023002F00D1BAE50D00904676E5D9
:1014200047461F4300D140E61D00C44627E601227F
:10143000624490461E0073E4C9087F0702230F43ED
:1014400015097BE6531C98460D003E0068E4D6085B
:101450004B071E43CD0885E5030057E7114BD20823
:101460002B405F0717435A02120B01236FE433002E
:10147000B8464CE54346DA08330080E532420AD0EC
:10148000084B04001A40674601235BE40132904692
:101490000D001E0044E4DB0857071F43040000232F
:1014A000D5084BE6FFFF7FFFF0B5DE4645465746C1
:1014B0004E46E0B587B0009201930B031B0B9B4691
:1014C000CA0F4B00040080465B0D029200D1BFE0C2
:1014D0008F4A934238D05946420FC9000A438021AF
:1014E00009041143C20090468A4A894692469A44AA
:1014F000002300240393009E019F3B031B0B7A00F3
:1015000030009B46520DFD0F002A00D17FE0804B3A
:101510009A426ED05946730FC9000B4380210904CB
:1015200019438B467B49F3008C46514662448A1A24
:1015300092460021029E6E40F6B20F2C00D9F9E0CF
:10154000754AA400125997465A460243914600D064
:10155000B6E09A460223904608240393CBE72E0078
:1015600000210023002288461B051343F60733435E
:101570004046190007B0F0BCBB46B246A946A0469B
:10158000F0BDCB464346029D0399022900D1FAE102
:10159000032900D1A1E00129E1D0604A52449046DC
:1015A0004446002C00DC00E25A0704D00F221A4007
:1015B000042A00D07FE22E00DA085B46DB0106D564
:1015C0005946574B802419408B46E4005444554BF0
:1015D0009C4209DC5B465B07134398465B46640507
:1015E0005A02120B630DBFE7002100228846484BC8
:1015F000BAE75B46009A13434B4A9446E244002BF9
:1016000059D10222144300220221934692E75B46FD
:10161000009A134349D05B46002B00D1A4E1584601
:10162000FEF7B4FF030002000B3B1D27009EFB1AD0
:1016300011005846DE4008398840330003439B467A
:10164000009B8B40394952448A460021924471E7FD
:101650005B460343994621D05B46002B00D171E1E4
:101660005846FEF793FF0B235B429C4602008444DE
:1016700066461D239B1B260011005846DE40083994
:10168000884033000343994623008B409846284BFB
:1016900000249B1A9A46002303932CE700239846C4
:1016A0009A4601330424039325E7012214430022C0
:1016B000012193463EE7032303211C43330039E70E
:1016C0009A460323D9460C24039314E7002380226F
:1016D000984600260E4B120346E780225946120315
:1016E0000A43120398462E00094B120B3CE7802256
:1016F00049461203114202D059461142F0D08022CD
:101700004B4612031A431203029E014B120B2BE7A6
:10171000FF07000001FCFFFFC4290100FF030000D8
:10172000FFFFFFFEFE07000001F8FFFFF3030000CC
:101730000DFCFFFFCB4500D2FAE000D1F5E001221D
:10174000524294460022444648469046E2445A4655
:101750001F0E12021B020293130C994617433B04FF
:101760001B0C49460093FEF7E7FD009A0B04424329
:10177000210C050019438A4207D9C919013D8F423E
:1017800003D88A4201D9851EC919881A4946FEF72D
:10179000D3FD009A240442430904240C03000C43A3
:1017A000A24204D9E419013BA74200D8F7E002990C
:1017B000A01A2D040C0C09041D43090C2A0C2B043F
:1017C000AB460D001B0C5D430591634351430494EC
:1017D00062435B182C0CE318994203D9802149021B
:1017E0008C466244190C2D041B042D0C8A185D19BB
:1017F000904200D287E000D182E043465D1BA845BD
:101800009B41801A5B42C01AB14B534498461C005E
:10181000874200D10CE14946FEF78EFD0200009B95
:1018200003905A430B04290C19438A420AD9030036
:10183000C919013B03938F4204D88A4202D9831EFF
:101840000393C919881A4946FEF776FD0A00120467
:1018500094462A0465460099120C414303002A432A
:10186000914207D9D2190138974203D8914201D940
:10187000981ED219039B521A1B0403430598190C96
:1018800005008C461904090C4D43894661460095B4
:101890006546484304994D43AC464D464D4329188F
:1018A000009D2D0CA9464944884203D9802040025E
:1018B0008146CC44009D080C2D0409042D0C604485
:1018C0004D1982420FD30BD001221343814A924516
:1018D0006CDB1A1D9A429B415B42D2089B446CE62A
:1018E000002D00D193E0591EBA188C46BA4200D29E
:1018F00085E0824200D2C7E000D1D5E00B00E3E7EB
:10190000A84500D379E75B46591E029B9C46E044FC
:101910001C0098459B415B42DB19C018874238D2B6
:10192000824278D875D08B4667E7434500D906E7F1
:101930004A46D40750084246520814434246D2074A
:10194000904604E7FEF722FE15239C4684440200DD
:10195000634620321C2B00DC8AE6230008388340D3
:1019600099460023984692E6FEF710FE0300020017
:10197000153320321C2B00DC57E6009908388140D3
:1019800000238B465EE600212E0000228846524B43
:10199000EAE58742C7D14445C2D98B462DE7A2422A
:1019A00000D804E7831EE41901E72E000122414616
:1019B000521A382A00DDD3E51F2A3FDC47481C00B5
:1019C0005044594683408140D440581E83412143AE
:1019D0000B435946D1400A00590709D00F2119403D
:1019E000042905D0191D99429B415B42D2180B0076
:1019F000110268D50021012300228846B4E50B00BE
:101A0000824200D060E7029A954200D05CE7350040
:101A1000C6E5454587D902235B429C46029BE344C9
:101A20009C46E04498459B415B42DB19C018E4E6C4
:101A3000002B36DD012300229B44BEE51F214046DA
:101A40004942091A5846C8400100202A04D0584685
:101A5000234A5244904003435A1E934107200B43AC
:101A6000010000221940184209D00F211940042911
:101A70001FD0181D98428941030049424907DB08DD
:101A80000B43984600236FE50299023B49008C46C0
:101A900002998C4589414942C919521861460291FF
:101AA000AEE701235B4281E70299A942ECD363468A
:101AB000A9E70021E3E71A1D9A429B415B422E00F1
:101AC000D2089B4479E551075202120BD7E7C04672
:101AD000FF03000002FCFFFFFF0700001E040000E0
:101AE0003E040000F0B557464E464546DE46E0B59A
:101AF0001F000B031B0B16009846CA0F4B00040077
:101B0000924685B05B0D00D1C2E1CC4A934200D130
:101B100028E14146420FC9000A43802109041143CC
:101B2000C2009146C64A884693469B44002300253E
:101B300001933C037A00FB0F3000240B520D0093FD
:101B400000D185E1BD4B9A4200D160E1BC4B9C467F
:101B5000624493440A2D00DD14E1730FE4001C433A
:101B600080231B042343F0005246009900264A407C
:101B70009246022D11DD0122AA40A6211400C900BF
:101B80000C400A4200D0FDE0902189000A4200D0BA
:101B9000D4E18821114200D0EFE049464A460904C9
:101BA000140C090C020C0F0015000004000C654316
:101BB00047430195B9462F000D0006005543AC463A
:101BC0004D4666432D0CB4446544AE4205D93E00F3
:101BD00080277F02BC46664401964F463F043F0C77
:101BE0002E0C2D04ED1902951D0C1B041B0C0095E9
:101BF0001D001F0065434F43AC46009D69436C4385
:101C00003D0CA946614449448C4503D980256D02A9
:101C1000AC4664443F040D0C3F0C0904C919AC46A2
:101C20007518039545462E04360C2F0C3500454398
:101C30007843804638006444AC462D0CA946504396
:101C4000724342444A44904503D980256D02A84618
:101C50004044150CA84665462D042D0CAC463500B5
:101C60005D4312046244AC467B43009D4044984669
:101C70002B006E4365467B4346442D0CAD191F0077
:101C80000093A84504D980235B02984647440097F7
:101C9000039B019E98462B044644984663468E4219
:101CA00089411B041B0C4344B61849421B195F1899
:101CB00096429241BC465242804691468C458941AB
:101CC000A3429B41E044C14449425B429145924159
:101CD0000B43804589412D0C494252420A435B190E
:101CE0009B18009A029994464A4663445B02D20DBF
:101CF0001A43904672020A43511E8A41F60D16435A
:101D00004A4652021643B146DB0154D44D4A5A4466
:101D1000002A00DC18E133005B0715D00F215B4679
:101D20003140042910D04946081D48458941814663
:101D3000494288444146C90106D54146424A1140BC
:101D400080228846D2009A18404B9A4200DD2BE14F
:101D500041464B464C07DB081C4352054B021B0B0C
:101D6000520D1AE042460243914600D0E0E09B4605
:101D70000223904608250193DBE6009A9846924696
:101D800081460196019B022B00D10DE1032B35D03A
:101D9000012B1BD100220023002412051A435346B5
:101DA000DB071A432000110005B0F0BCBB46B24669
:101DB000A946A046F0BD01227308324013434246B3
:101DC000D2071343994643465B08984680225B46F8
:101DD000D2005A440133002A00DCB6E049464907E4
:101DE000A8D00F214846014004299CD1A2E70F2D1D
:101DF00000D1FDE0009BA0469A46B14680234246B2
:101E00001B0313431B034C460C4A1B0BC5E70B4932
:101E100033008C462343E344002B77D1022129432E
:101E20000A29AFDC5046009C60408246002D00D15C
:101E30000EE10D00002002269DE6C046FF070000CF
:101E400001FCFFFFFF030000FFFFFFFEFE07000095
:101E5000230033434BD0002C00D1BBE02000FEF721
:101E600095FB030002000B3B1D20C31A3000D84035
:101E700011000300300008398C4088402343594644
:101E80008A1A78498B4693440A2D00DC6CE679E780
:101E900043460343994623D04346002B00D187E0B5
:101EA0004046FEF773FB0B235B429C4602008444D2
:101EB00011004046083988401D23804660461B1AA1
:101EC0002000D840030040460343984623008B403F
:101ED0009946644B00259B1A9B460023019328E6F4
:101EE000002398469B4601330425019321E60122F5
:101EF00015430A2D00DD45E7524600994A409246B7
:101F0000022D00DC46E70020012634E603231D43B2
:101F10000A2D00DD6BE75346009A882153400122C9
:101F2000AA409A4603262300114200D135E624E751
:101F30009B46032381460C250193FAE500239A462C
:101F40008023494A1B0328E75B460121891A382967
:101F500000DD1FE71F295ADD1F204042821A40463C
:101F6000D040202908D0414A9446424663449A40D2
:101F700013004A461A4391464A460721531E9A4186
:101F80000C00024300231440114209D008311140D3
:101F9000042960D0111D9142A4410A0064426407E3
:101FA000D20814430022F8E6002300242E4AF4E667
:101FB000FEF7ECFA15239C46844402006346203267
:101FC0001C2B00DC74E7002399462300083883406B
:101FD00098467EE7FEF7DAFA030002001533203256
:101FE0001C2B00DC40E7330008388340002046E724
:101FF000802342461B031A4200D1FFE61C4200D058
:10200000FCE6009A234392463400174AC5E6184A74
:10201000404694464A4663449840CA4010434A4664
:102020009A40531E9A4143460243CB40510709D080
:102030000F211140042905D0111D914292415242B5
:102040009B180A00190208D5012200230024A4E6E7
:1020500000230024A1E60024A2E75C075B021B0B1F
:102060009EE7C0460DFCFFFFFF0700003E04000096
:102070001E040000F0B54E464546DE465746E0B524
:1020800083B0009001910D034E000199760DCC0FA5
:10209000690A009D6D0F0D43009900920193C800DD
:1020A0001903019BCB4A5B005B0D9946019B83465C
:1020B000DB0F98464B0A0099490F1943009BDB0040
:1020C0009C469A46914500D173E0012347465F4004
:1020D0004B46B846F31ABC4216D0002B00DC9AE2FD
:1020E0004F46002F00D082E067460F4300D13AE10F
:1020F0005F1E012B00D1A4E2934200D12EE1382FC4
:1021000000DD43E23B003EE1002B00DCD7E24F461E
:10211000002F00D0F8E067460F4300D123E15F1E97
:10212000012B00D157E2934200D117E1382F00DC98
:1021300004E380221204154200D1AAE31E00150018
:102140000027A44B01369E4200D103E10122A24B9D
:102150003A401D4079081143EA070A436D085307C6
:1021600009D00F231340042B05D017003A1DBA42A3
:10217000BF417F42ED192B0200D477E39549013628
:102180008E4200D1E6E0944973050D405B0D69076E
:10219000D2086D020A432D0B1B052B43E407234392
:1021A0001000190003B0F0BCBB46B246A946A046D9
:1021B000F0BD8A4BF21863460B434CD0444550D0D7
:1021C000002A6CD0002E00D17DE1634644464F07C3
:1021D000DA081743C8083A00024300D1CDE0802551
:1021E0002D0305432D033A007A4B2D0BD4E796427D
:1021F00000D1B3E0382B00DCC2E0471EB84280417A
:1022000040422D1A2B02B1D50127754D7F4228007F
:10221000FEF7BCF90838202339001A1A8540D1404E
:1022200087402943B04200DA45E1801B01301B1A88
:102230003D009F40C5407A1E97410A009A402F43B7
:102240003A43C14013000D0000260B4300D086E73F
:1022500000220025A0E7474601235F40B8464445D9
:10226000AED1002A00D1EFE0002E00D088E14B462D
:102270002A00024300D1A0E25A1E012B00D1B7E28E
:10228000544EB34200D17BE1382A00DC12E38025B2
:102290002D04294200D112E31E00002751E7514AC4
:1022A000731C134200D0F4E062462B000A43034340
:1022B000002E00D074E1002B00D123E2002A00D1CF
:1022C000E0E06346C71AB842924180266B1A524238
:1022D0009B1A3604334200D1C1E26346181A844582
:1022E00092414D1B5242AD1A0124020043462A433B
:1022F0001C40002A00D1DBE0354200D1E9E2364B38
:1023000002001D40012342E7964227D0382B00DD12
:1023100011E18022120411431F2B00DDA1E12022D4
:102320000F00D21A914697406246DA401743B846EA
:1023300062464F46BA40D940571EBA4147466D18CB
:1023400017433F188742804140422D182B0200D589
:10235000F7E634E03300002500221DE7C0086F07D0
:102360000743E80837E7C7086A071743194AE80828
:10237000934200D12FE73A00D8E0164B00250BE737
:102380008022120411431F2B00DDB7E020220F0032
:10239000D21A914697406246DA401743B8466246E1
:1023A0004F46BA40D940571EBA4147466D1A1743A7
:1023B000C71BB842804140422D1A2B0216D47B071E
:1023C00000D179E20F233B40042B00D0CEE633004E
:1023D000FF08C9E7FF070000FFFF7FFF01F8FFFFCD
:1023E000FFFF7F00FE070000444601266D026D0AD4
:1023F000002D00D00BE73800FEF7C8F803001830B6
:102400001F2800DC07E73900083B9940864200DDC1
:1024100087E0831B581C1F2800DC14E20A001F3BC6
:10242000DA40202805D040231B1A99404B1E9941C1
:102430000A43002A3CD00026530700D091E617003B
:1024400035003300FF088FE7CA4A731C13427AD164
:102450002B000343002E00D092E162460A43002B7A
:1024600000D1F4E1002A0DD06346C71887428041AD
:102470006D1840422D182B0200D512E23A00BB46DF
:102480002A4315D05B466A07DF083A430023E80871
:102490004CE06346C71AB84292416B1A52429B1AEB
:1024A0001A0200D587E03A001D001A43A0D100248B
:1024B0000023002570E6B04D361A0D407B0700D092
:1024C00080E7330084E74B462A0002437ED05A1E41
:1024D000012B00D11FE1A94CA34200D198E1382A79
:1024E00000DC9CE16246571EBC45924152428D1A67
:1024F00044461E002A0200D586E637E61A000F0081
:10250000203AD740B846202B05D04022D31A994014
:1025100063460B439A4657467B1E9F4143461F43E3
:1025200046E7954A331A11404A07C80805035B0578
:102530002D0B5B0D30E680231B041D4200D1FBE018
:102540001D000027FDE58D4A934200D103E7624656
:10255000821882428041691840420818C707520811
:1025600017434508520700D4AEE10F221E003A403F
:10257000042A00D0FAE5FF086A073A430009D5E7C4
:1025800063464F07DA081743C80824E6471EB842D7
:10259000804140422D1A1E002A0200D534E6E5E5AE
:1025A000002B00D00DE1002A00D069E18025002435
:1025B000724B2D03F0E563461F1ABC45924101247E
:1025C00043464D1B5242AD1A1C4011E76246444639
:1025D0000D00D708C8E66346C618864280416918D0
:1025E000404209180B0200D40CE1634B70081940FB
:1025F000CB0703434A08400700D43BE10F201840B3
:10260000042800D136E11F1D9F42AD416D420223D7
:10261000AD18FF08A8E6002B00D140E64B469B1BF7
:10262000002E00D150E7382B2EDD63465F1EBC45DF
:10263000924152428D1A44464E462B0200D5E3E5A4
:1026400094E56346C71AB84280416D1A40422D1A7C
:102650002B0200D5C9E66A07FF0801233A43E808C0
:1026600064E71A000F00203AD740B846202B05D067
:102670004022D31A994063460B439A4657467B1E25
:102680009F4143461F435CE680223C0012041543F1
:102690001F2B26DC20222F00D21A060090409740E4
:1026A000DE40421E9041DD4037430743491B6346ED
:1026B000DF1BBC45924152424E468D1A7DE6002BEF
:1026C00000D1C1E64B469B1B002E00D1D0E5382B34
:1026D00036DD80252D04294200D1DDE04E4600275D
:1026E0002FE51A002E00203AD640202B05D040229C
:1026F000D31A9D402F000743BB465F467B1E9F4178
:102700003743D4E7002A00D1D1E6012443460D0027
:10271000E3461C40B6E663461F1ABC4592414D1B7A
:102720005242AD1A2B0200D55EE66A07FF08444606
:1027300001233A43E808F9E6471C17E53B00EBE5BF
:102740008022120415431F2B6CDC20222F00D21A8A
:10275000060090409740DE40421E9041DD403743E6
:102760000743491967446745924152424E465518FE
:10277000ECE5C046FE070000FFFF7FFFFF070000FB
:10278000002B00D1FCE6C7086B071F436346E8082F
:102790000B4300D11FE580231B03184207D0CA0852
:1027A0001A4204D163461000DF0849070F437B0F2C
:1027B000FF00FF085B071F430DE562460D00D708C9
:1027C000D2E5C7086B071F43E808002A00D102E5DD
:1027D00080231B031842EAD0CA081A42E7D1634695
:1027E0000124DF084346490710000F431C40DEE781
:1027F00060446045924169185242891806000B02F4
:1028000000D5F2E64A07F60801233243C8088DE6F0
:102810006346DF084B0744461F43C808DBE44446D1
:10282000130035E71A002E00203AD640202B05D0A1
:102830004022D31A9D402F000743BB465F467B1EB4
:102840009F4137438EE7202300271B1AF5E400231E
:10285000002A00D192E567460D00FF0884E53A00A2
:102860001A4300D123E61D00BB460BE617003300D8
:10287000FF0879E5DB0852071A430809022355E6E9
:1028800063460124DA0843464F071743C8081C4033
:10289000A1E41E00471C69E467460D004E4601375F
:1028A00064E40F4BFF081D406A076D0201233A43A1
:1028B0002D0B71E4130046E73300FF0854E567462B
:1028C0000D001E00013751E46A07FF083A43000972
:1028D0002CE6C0086A0702430023E80826E6C04643
:1028E000FFFF7FFF0B00020070B5164D0C0382B096
:1028F0004900002000920193240B490DDE0FA942EC
:1029000004DD1148814203DD104BF01802B070BDA8
:102910008020400320430E4C641A1F2C08DD0D4B11
:102920005B1AD84003005842002EEFD11800EDE7A3
:10293000094B009A9C46030061448B40E2401343DC
:10294000F1E7C046FE0300001D040000FFFFFF7F0B
:102950003304000013040000EDFBFFFF70B50028F6
:1029600016D0C317C5185D40C40F2800FDF70EFE32
:10297000104B1B1A5B055B0D0A2814DC02002E00AD
:10298000153296400B22121AD5402D032D0B03E071
:1029900000240023002500261B052B43E4072343C6
:1029A0003000190070BD0B3885402D0300262D0B1B
:1029B000F2E7C0461E04000010B5041E10D0FDF75B
:1029C000E5FD0E4B1B1A5B055B0D0A280FDC0B2285
:1029D0002100121AD14015300A038440120B01E085
:1029E000002300221B0513432000190010BD220004
:1029F0000B38824012030024120BF3E71E04000080
:102A000070B542024300C40FFE201B0E591C550A2C
:102A100008420CD0E02189008C466D07120B6344FC
:102A20001B051343E40723432800190070BD002B46
:102A300014D1002D1BD02800FDF7A8FD0A281CDCAE
:102A40000B232A001B1ADA40030015339D400E4B5E
:102A500012031B1A5B05120B5B0DE1E7002D09D079
:102A6000130B802212031A436D07084BD8E700238B
:102A70000022D5E70022054BD2E703002A000B3BDA
:102A80009A400025E3E7C04689030000FF070000E5
:102A90008446100062468C461900634600E0C0463A
:102AA0001FB500F0F5F8002801D40021C8421FBD71
:102AB00010B500F037F84042013010BD10B500F0FD
:102AC000E7F8002801DB002010BD012010BDC04642
:102AD00010B500F0DDF8002801DD002010BD012058
:102AE00010BDC04610B500F063F8002801DC0020DE
:102AF00010BD012010BDC04610B500F059F80028E7
:102B000001DA002010BD012010BDC04610B500291B
:102B100003D1FDF73BFD203002E00800FDF736FD54
:102B200010BDC046F0B55746DE464E464546E0B5B8
:102B30000D000400E80F83460903D80F090B8246F5
:102B40001A488C461F0369005E00490D3F0B760D45
:102B500081421AD0864211D00120B1420FD1BC452A
:102B60000DD1A2420BD1D3451ED0002907D1614619
:102B700011430A00531E9A41100000E00120F0BCEE
:102B8000BB46B246A946A046F0BD01208E42F6D112
:102B9000614639430F0017432743F0D15B46524645
:102BA000981A431E9841EAE70020E8E7FF07000073
:102BB000F0B557464E464546DE46E0B50D000E03DD
:102BC0004900490D8A46DF0FE90FBC4683B02F4FFD
:102BD000040080460191580019039146360B090BF9
:102BE000400DBA451DD0B8420DD05746002F2AD10E
:102BF0003443002824D10A4336D0002C41D1634607
:102C00005800013815E0114338D15346002B01D14B
:102C10002643F4D0019B634507D1019B580001383E
:102C200007E026432AD1504521D00120019B5F4275
:102C3000384303B0F0BCBB46B246A946A046F0BD3F
:102C4000002CDCD0E6E70028EFD0019B6345ECD1F7
:102C50008245EADCE1DB8E42E7D8DED1C845E4D824
:102C60000020C845E5D2D8E7002CE2D0DDE71143CB
:102C700004D1019B6345D8D10020DAE7022040420D
:102C8000D7E7019B6345E6D0CFE7C046FF070000CA
:102C9000F0B557464E464546DE46E0B50D000E03FC
:102CA0004900490D8A46DF0FE90FBC4683B02E4F1D
:102CB000040080460191580019039146360B090B18
:102CC000400DBA451ED0B8420DD05746002F27D12F
:102CD0003443002833D10A4334D0002C40D163461A
:102CE0005800013815E0114312D15346002B01D191
:102CF0002643F4D0019B63451DD00120019B5F4218
:102D0000384306E0264303D15045F6D111431CD089
:102D1000022003B0F0BCBB46B246A946A046F0BDB7
:102D20000028EAD0019B6345E7D18245E5DC02DB60
:102D30008E42E2D80ED0019B58000138E9E7002C02
:102D4000CDD0D7E7002CE4D0D7E7019B0020634526
:102D5000DFD0D2E7C845D0D80020C845D9D2EAE7AD
:102D6000019B6345E4D0C8E7FF070000114B70B535
:102D70001C680500236B002B03D000221D615A61E3
:102D800070BD182000F064F9031E20630CD00A4ABD
:102D900000210260094A4260094A82600B22828156
:102DA000012018615961E8E700224621054B0648D9
:102DB00000F0A8F8000C00200E33CDAB34126DE605
:102DC000ECDE05002C37010044370100184B70B5CC
:102DD0001D682C6B002C0ED020696169154A164BBA
:102DE000FDF712FC0122002312184B415800400845
:102DF0002261636170BD182000F02AF9041E286367
:102E00000FD00E4B012203600D4B43600D4B8360CE
:102E10000B23838100230261436107480A4A064B62
:102E2000E6E700225221094B094800F06BF8C04642
:102E3000000C00202D7F954C2DF451580E33CDAB56
:102E400034126DE6ECDE05002E7F954C2C37010028
:102E500044370100F0B588420AD98B18984207D24E
:102E6000531E002A03D0CA5CC254013BFBD2F0BD02
:102E700005000F2A0AD8561E002AF8D00023CC5C81
:102E80001A00EC5401339642F9D1F0E703273E00D3
:102E90000D430C0003002E402F422DD11500103D94
:102EA0002D09AC462F013F1825681D6065685D60DF
:102EB000A5689D60E5681034DD601D001033BD42DB
:102EC000F2D165460F230C2401352D014919134019
:102ED0004519144213D0043B9B0801339B008C59C5
:102EE000AC5104369E42FAD103231A40AD19891918
:102EF000561E002AC2D1BAE70500561EBEE71A00C8
:102F0000B9E7C04670B514001A000A4B06001B68EA
:102F100084B0D868002C0AD0074B084D019300916B
:102F200033002900029400F0B3F800F089F8044B54
:102F30001C00F2E7000C0020703701008037010010
:102F40007C370100130010B50022FFF7DBFFC046FD
:102F5000F0B50500830749D0541E002A45D0030070
:102F60000326CAB202E00135013C3ED301332A7088
:102F70003342F8D1032C30D9FF220A401502AD1894
:102F80002A04AD180F2C34D92700103F3F093E0109
:102F9000B4461E001A0010366644156055609560F0
:102FA000D56010329642F8D101373F01DB190F2767
:102FB0000C22274022403C00002A0ED03E1FB608BB
:102FC000B400A4461A001C1D644420C2A242FCD1D5
:102FD00003240136B6009B193C40002C05D0C9B231
:102FE0001C19197001339C42FBD1F0BD0300140081
:102FF000C0E72700E2E7C04630B5032A1AD90B0024
:1030000003439B0711D0551E002303E05A1C9D4229
:1030100013D01300C25CCC5CA242F7D0101B0DE0B1
:10302000043A04300431032A04D904680B689C4232
:10303000F6D0E8E7551E002AE6D1002030BDC04694
:10304000062010B500F00EF901200FF065FCC04617
:1030500010B5034B0100186800F074FF10BDC046A6
:10306000000C002010B5034B0100186800F0F2FFBF
:1030700010BDC046000C00200CB400B583B004ABFA
:1030800004CB019300F0C8F903B008BC02B01847A4
:103090000EB400B582B003AB0100054804CB006854
:1030A000019300F0B9F902B008BC03B01847C0465C
:1030B000000C0020F0B505000F2A31D903273E008F
:1030C0000D430C0003002E402F4234D11500103D5B
:1030D0002D09AC462F013F1865685D60A5689D60AD
:1030E000E568DD60256810341D601D001033BD42A9
:1030F000F2D165460F230C2401352D0149191340E7
:10310000451914421AD0043B9B0801339B008C598B
:10311000AC5104369E42FAD10323AD1989191A40E5
:10312000561E002A06D00023CC5C1A00EC54013352
:103130009642F9D1F0BD0500561EF4E71A00EFE7FC
:10314000C36B10B50400002B01D0002010BD8021FE
:1031500000F0F8FEE063002806D002000023803271
:1031600008C09042FCD1F0E701204042EEE7C046A3
:1031700070B505000C0016001F2907D8C06B002889
:1031800009D0A40004192068266070BD16230360CE
:1031900001204042F9E78021280000F0D3FE010021
:1031A00003000022E86380310028F1D004C38B4281
:1031B000FCD1E6E770B505000C001F291ED8C36BD3
:1031C000002B0ED08A009B181A68002A09D0012A09
:1031D00005D0511C0ED0002120001960904700201E
:1031E00070BD280001F0BEFA22000100280001F0A5
:1031F000A5FAF5E7162303600120F1E71623036023
:1032000001204042ECE7C04670B505000C001F29C4
:1032100024D8C36B002B14D0A2009B181A68002A74
:1032200009D0511C0BD0012A07D0002120001960C1
:103230009047002070BD0120FCE70320FAE7022040
:10324000F8E7802100F07EFE031EE86306D000212F
:103250000200803002C28242FCD1DDE70120404200
:10326000E8E7C046144B70B504001D681F281DD840
:10327000EB6B002B0DD082009B181A68002A08D037
:10328000012A04D0511C0DD0002119609047002064
:1032900070BD280001F066FA22000100280001F04C
:1032A0004DFAF5E7162301202B60F1E716230120E4
:1032B0002B604042ECE7C046000C0020114B70B57B
:1032C00004000E001D681F2807D8E86B002809D0ED
:1032D000A40004192068266070BD16232B6001200D
:1032E0004042F9E78021280000F02CFE0100030095
:1032F0000022E86380310028F1D004C39942FCD158
:10330000E6E7C046000C00200C4B10B51C68E36BD0
:10331000002B01D0002010BD8021200000F012FE03
:10332000E063002806D002000023803208C09042EB
:10333000FCD1EFE701204042EDE7C046000C002041
:10334000174B70B504001D681F2825D8EB6B002BA8
:1033500014D0A2009B181A68002A09D0511C0BD067
:10336000012A07D00021200019609047002070BD7D
:103370000120FCE70320FAE70220F8E7802128007B
:1033800000F0E0FD031EE86306D00021020080305B
:1033900002C29042FCD1DCE701204042E7E7C04690
:1033A000000C0020936810B5013B9360002B04DAF9
:1033B0009469A34207DB0A2905D01368581C1060E2
:1033C0000800197010BD00F0A1FEFBE7F8B506007B
:1033D0000F00002B0DD01400D51802E00134AC42D0
:1033E00007D03A0030002178FFF7DCFF431CF5D10D
:1033F000F8BD0020FCE7C04610B514009268002319
:10340000002A05D0220000F08BF900220300A26000
:1034100000221800626010BDF0B54E464546DE46FB
:103420005746E0B58146884614001E009FB000282C
:1034300003D0036A002B00D11FE143469B891B0781
:1034400000D48FE043461B69002B00D18AE00023A3
:1034500006AD6B6120336B761033AB765346A346D3
:10346000874F059603935B461B78002B00D19BE0AA
:103470005C4603E063780134002B7DD0252BF9D125
:103480005B46E31A9A465C457BD12378002B00D13A
:103490008AE0012300225B42069207930022002368
:1034A0000892099300234332AB54AB6501339B462A
:1034B000013406E05A46C01B82401C0029680A43BA
:1034C0002A6005223800217800F0F0F8631C1E0005
:1034D0000028EFD12A68D10602D543212030685454
:1034E000110702D543212B20685421782A2967D15E
:1034F000059B191D1B680591002B00DA98E0EB6015
:1035000061782E2900D172E05E4C0322200000F089
:10351000CDF8002806D04023001B83402A680136DE
:1035200013432B603178731C062257489B4629763B
:1035300000F0BCF8002800D180E0544B002B67D08D
:1035400005AA0092290042464846514B00E000BFC0
:103550000390039B013327D0039A6B69944663441D
:103560006B6180E74146484600F062FC002800D1CC
:103570006DE7012040421CE05B46E31A9A465C4539
:1035800012D03B0000264746A0464C46994602E032
:103590000136B24543D95B463A002000995DFFF7FA
:1035A00001FF0130F4D1B84643469B895B06E0D465
:1035B00068691FB0F0BCBB46B246A946A046F0BD44
:1035C00008003038260009289BD8EA68140000E07B
:1035D0000133A2001219197852001418080030386B
:1035E0000928F5D91E00EC602E2900D08CE77178EF
:1035F0002A292DD1059BB01C1A1D1B6805926B60F2
:10360000002B02DA01235B426B60B17806007BE796
:103610000722059B07339343083305939CE74B46EA
:103620006A69A146524444466A61B8461F002CE7C5
:103630005B42EB6002231A432A6061E705AA00920D
:10364000290042464846124B00F0BCFE039080E73A
:1036500008000023303801366B60092800D953E791
:103660001A0093009B1871785B001A180800303814
:1036700001360928F5D96A6046E700F0D7FADCE69A
:10368000B0370100B8370100BC370100000000006E
:10369000CD33000010B504001300034A10680A007F
:1036A0002100FFF7B9FE10BD000C002070B5CCB2B0
:1036B00083070DD0531E002A0FD0032504E00130EC
:1036C000284206D0013B08D30278A242F7D170BD50
:1036D0001300032B03D8002B14D10020F7E7FF229F
:1036E0000A401502AD182A040B4EAD1803E0043B46
:1036F0000430032BEFD9026808496A4051189143FE
:103700003142F4D0C31802E001309842E5D002788B
:10371000A242F9D1DBE7C04680808080FFFEFEFE3A
:10372000F0B54E46DE4657464546E0B5936883B051
:103730000C0091460090002B5FD00C23CA5E13074B
:1037400063D50B69002B60D04B461F68930723D5C8
:10375000A36A00269A46B34B00259846216A002D9D
:1037600016D02B00454500D9AE4B32000098D0470B
:10377000002859DD4B464A469B6836181B1A2D1AFD
:103780009360002B39D0A36A216A9A46002DE8D1B4
:103790003E687D680837E2E7D30762D50023B84664
:1037A00000209A4600261F00002E45D000284CD04D
:1037B0003B00B3469E4200D99B4620682269A5681B
:1037C0006369904203D9ED18AB4500DDFEE05B452F
:1037D00000DDEEE0A56A5246216A0098A847051E62
:1037E00022DD01207F1B19D04B464A469B68AA4424
:1037F0005B1B761B9360002BD6D1002003B0F0BC7E
:10380000BB46B246A946A046F0BD2100009800F094
:103810000FFB00280DD10C23E25E95E721000098F4
:1038200000F0C2FA0028DFD00C22A35E402213432E
:10383000A38101204042E1E70822434694465E68A6
:10384000E044002EF8D01B689A4632000A21504608
:10385000FFF72CFF002800D1DBE053460130C71AE8
:10386000A6E7002380219A4689008B465646554696
:103870002068A36884469846002D5CD059460A42C9
:103880005DD09A46AB4200D990E09023DB001A420B
:1038900032D02169431A6069019343001B18D80F85
:1038A000C3185810019B824601335B19834201D92A
:1038B0009A461800520500D497E00100009800F0E5
:1038C00041FB8046031E00D1A6E0019A2169FFF763
:1038D000F1FBA389544A134080221343A38143463A
:1038E0002361019B1A004244944622605246A84636
:1038F000AA46D31A6261A360524631006046FFF7C0
:10390000A9FA4246A8460025A36820689B1A50449D
:10391000A36020604B4642469B6846449B1A4A4639
:10392000936000D169E70C23E25E2068A3688446B7
:103930009846002DA2D13E687D6808379AE7226933
:1039400082421BD362699046AA4217D8802328007E
:103950001B069D4200D335484146FCF7F1FC434627
:10396000A26A43439046216A32000098C04700286B
:1039700000DC59E780464346ED1ACBE79846AB4258
:1039800000D9A84642463100FFF764FA4246A368D0
:1039900020689B1A4044A3602060002BEBD12100DB
:1039A000009800F001FA0028E5D03DE7A846AA46B5
:1039B000A2E75A465146FFF74DFA5A46A3685D46BC
:1039C0009B1AA36023685B4423600AE751462A00E0
:1039D000FFF740FA236821005B190098236000F08C
:1039E000E3F9002800D1FCE61EE70200009800F091
:1039F00009FC8046002800D071E7009D216928005D
:103A000000F028FB8022A3899343743A1BB22A60FA
:103A10000CE7731C1F00CCE6009A0C3313600C22D9
:103A2000A35E03E700FCFF7F7FFBFFFFFFFFFF7F3D
:103A30000020704710B5034A0349044800F0C0FB5A
:103A400010BDC046500C0020A93D0000040C002011
:103A500041680B4B10B50400994201D000F0A4F965
:103A6000A168084B994202D0200000F09DF9E1685E
:103A7000054B994202D0200000F096F910BDC046D7
:103A8000041300206C130020D41300200020704782
:103A9000F8B5CE464746344C344B354A2000002515
:103AA00080B51A600423082200215C30256065601F
:103AB000A560656625616561A561E360FFF748FA69
:103AC0002C4B2000994663622B4B2C4F9846A362E7
:103AD000CC23E5502A4B2B4E63678023082200211C
:103AE000C430E550E7622663A566E5662567A567ED
:103AF000E5672462FFF72CFA220088236832E2503F
:103B00004A460433E250424620000433E250043374
:103B1000E7500433E6503833E5500433E5500433BE
:103B2000E550194A5C33E550583BE2500433E55008
:103B30002D300433E550082204330021FF30E550D6
:103B4000FFF706FA2200F023D032E2504A4604334F
:103B5000E25042460433E2500433E7500433E65067
:103B6000C0BCB946B046F8BD0413002000130020C5
:103B7000353A00006D47000099470000D947000022
:103B8000090001000948000012000200F8B5244BAA
:103B900007001B68002B3BD0224E7368B468013BC2
:103BA00003D51BE06834013B18D30C22A55E002D21
:103BB000F8D120001C4B08220021E36065662560D7
:103BC000A560656025616561A5615C30FFF7C0F99E
:103BD0006563A563A564E5642000F8BD3568002D24
:103BE00001D02E00D9E7D6213800490000F0AAF90B
:103BF000041E10D00423D0220560250043600C3041
:103C00000021A0605200FFF7A3F934602E00C4E742
:103C1000FFF73EFFC0E70C2330603B60DCE7C046A7
:103C200000130020500C00200100FFFF036A10B5B4
:103C3000002B00D010BD044B0362044B1B68002B0B
:103C4000F8D1FFF725FFF5E7513A000000130020F7
:103C50007047C0467047C04610B50020024A03496D
:103C600000F0AEFA10BDC046500C0020313A000002
:103C700010B50020024A034900F0A2FA10BDC04668
:103C8000500C00208D3A0000F0B5C64600B50C225D
:103C90008B5E07000C001A073CD44A68002A5CDDE2
:103CA000E66A002E32D000223D68216A3A60DA04CA
:103CB00057D4002201233800B0470200431C65D0CE
:103CC0000C21635EE66A216A5B0706D56368D21A37
:103CD000636B002B01D0236CD21A00233800B0474D
:103CE000431C40D00023636023692360A389DB0465
:103CF0004AD4616B3D60002908D0230044339942C7
:103D000002D0380000F0A6F900236363002080BCD5
:103D1000B846F0BD0E69002EF8D00D680022AD1B2C
:103D20000E609B0700D14A69A260002D04DCEDE71C
:103D300036182D1A002DE9DDA36A320098463800A6
:103D40002B00216AC0470028F2DC4022A3891343DC
:103D50001BB20120A3814042D9E70A6C002A9FDCF4
:103D6000D4E7626DB0E739680C22A35E1D2916D82E
:103D70000C4ACA40D20712D5002262602269226032
:103D8000DB04B6D50029B4D16065B2E73B68002BEF
:103D900096D01D2B01D0162BD7D13D60B6E740221F
:103DA0001343D6E7010040200B6970B505000C00F5
:103DB000002B08D0002802D0036A002B0AD00C2266
:103DC000A35E002B01D1002070BD21002800FFF769
:103DD0005BFFF9E7FFF72AFFF1E7C04670B5041E65
:103DE00018D00F4B1D680369002B08D0002D02D09E
:103DF0002B6A002B0AD00C22A35E002B01D10020DD
:103E000070BD21002800FFF73FFFF9E72800FFF70A
:103E10000DFFF0E7034A0449044800F0D1F9EFE749
:103E2000000C0020500C0020A93D0000040C0020D4
:103E3000314B70B5050018680C00002802D0026AEA
:103E4000002A4FD00C22A35E1A071DD52269002A32
:103E500024D0D90708D50021A1606169002049421A
:103E6000A161002A08D070BD0021980700D46169C3
:103E70000020A160002AF6D11A06F4D5402213438F
:103E8000A38101204042EEE7DA062ED55A0714D46A
:103E9000226908210B43A381002ADAD1A0218020C6
:103EA0008900800019408142D3D02100280000F011
:103EB000BDFB0C22A35E2269CBE7616B00290AD00F
:103EC00022004432914204D0280000F0C3F80C22B2
:103ED000A35E00226263242293430022626022696F
:103EE0002260D6E7FFF7A2FEACE709222A60402253
:103EF0001343A381C5E7C046000C002070B5104EE7
:103F0000050033680C00002B15D0210028000EF0AE
:103F1000E8FC431C0CD00323C41C9C43A04205D0E6
:103F2000211A28000EF0DDFC013001D0200070BD08
:103F300001246442FAE700210EF0D3FC3060E4E78C
:103F40003C140020F8B50323CE464746CD1C9D43C4
:103F50000835060080B50C2D1ED20C25A9421DD8AF
:103F6000300000F05FFB3A4F7A68002A1AD0140044
:103F700004E063682200002B14D01C0023685B1B44
:103F8000F7D40B2B27D96119256094425BD051607F
:103F90000B6063684B600DE0002DDFDA0C2300201E
:103FA000336014E029003000FFF7A8FF0400431C31
:103FB00019D00560300000F037FB200007220B30DD
:103FC000231D9043C21A984201D01B1AA350C0BCB3
:103FD000B946B046F8BD6368944202D05360E9E741
:103FE00043467B60E6E77B689846002B24D0444636
:103FF00063689846002BFAD1236800219946300067
:10400000A1440EF06EFC814516D123683000ED1AF4
:104010002900FFF773FF01300ED023687A685B191F
:1040200023605368002B02D1DAE71A005B689C42D8
:10403000FBD100235360BDE70C233000336000F058
:10404000F3FA0020C3E779600B6063684B60B1E767
:104050003C14002070B50500002915D00C1F236802
:10406000002B23DB280000F0DDFA274A1368002B21
:1040700005D0A3420BD92168601883422CD02800B8
:104080006360146000F0D0FA70BDA34210D81A002B
:104090005B68002BF9D1106811188C4218D02CD312
:1040A00063605460280000F0BFFAEDE7E418D9E738
:1040B00011685018A04214D01FD82168601883429C
:1040C000EED118685B684118216063605460E9E7CD
:1040D00023681B181360E5E718685B6841182160C6
:1040E000CDE720680918501811608342DAD11868AA
:1040F0005B68411811605360D4E70C2328002B60E3
:1041000000F092FAC0E7C04640140020F8B5050060
:104110000E001400002802D0036A002B41D0A369CE
:10412000A360A3891B071BD52369002B18D0FF228E
:10413000F7B2616916402268D31A99421FDD013334
:10414000A1680139A160511C2160177062699A420F
:104150001ED0A389DB0701D50A2E19D03000F8BD87
:1041600021002800FFF764FE002817D1FF222369F1
:10417000F7B2616916402268D31A9942DFDC210048
:104180002800FFF711FE002808D101232268D7E795
:1041900021002800FFF708FE0028DFD00126764224
:1041A000DCE7FFF743FDBAE7030010B50A00034957
:1041B00008681900FFF7AAFF10BDC046000C0020D8
:1041C000F8B54746CE46884680B58146170000269A
:1041D0007D68BC68013D0DD4A389012B07D90E224F
:1041E000A35E013303D021004846C047064368342C
:1041F000013DF1D23F68002FEAD13000C0BCB94682
:10420000B046F8BDF0B5C64607000E00140000B574
:1042100000292DD0002A27D000F0FCFA80468442E5
:1042200003D835004308A34210D321003800FFF71C
:1042300089FE051E0AD0220044450BD83100280013
:10424000FEF738FF31003800FFF704FF280080BC7C
:10425000B846F0BD310042462800FEF72BFF310082
:104260003800FFF7F7FEF1E7FFF7F4FE0025EDE772
:104270001100FFF767FE0500E8E7C046F8B55746AE
:104280004E464546DE46E0B51F000A9B92469846DC
:104290000A698B6806000C009A4200DA1A0053463D
:1042A0001A604323E35C002B02D0514601320A60BE
:1042B0002268910661D55346524606201B68023398
:1042C000136022681100104208D100208146193085
:1042D0008346E168A344994247DC11004323E35C31
:1042E0005A1E934189060AD53020E11843310870DF
:1042F00045215A1C615CA21843320233117022001E
:10430000390030004332C04701301DD053460625E6
:104310001B68E1689C462368A26820692B40042B37
:1043200031D0824239DD00239946121A914400258A
:104330001A3402E001354D452FDA012322003900FD
:104340003000C0470130F5D101204042F0BCBB46EF
:10435000B246A946A046F8BD01239C465346E568EF
:104360001B68E144ED1A4D4524DD01235A4639000E
:104370003000C0470130EFD1E6E7062111420ED0F0
:104380005A1E9341BBE76346C91ACB43DB170B4068
:1043900099468242C9DC0029C9DC0020D6E700200A
:1043A00053468146193083461B68E168A34499420D
:1043B000DBDC92E743232168E35C5A1E93418906C4
:1043C00092D49CE7F0B54E46994643239C46574607
:1043D0004546DE468C446346E0B587B002930C0048
:1043E000097E90460700109A002914D00B00583B14
:1043F000DBB2202B48D888489B00C3589F461368DF
:1044000021681D1D606915601B680E0602D44906EF
:1044100000D5DCE018600023029D23614B4621009B
:1044200000933800434605AAFFF728FF01301ED04D
:104430002A00414638002369C847013017D0236855
:10444000E068059E9B071BD5B04219DD19239A46EB
:104450000025A24404E0E0680135831BAB420FDD78
:104460000123524641463800C8470130F3D10120AC
:10447000404207B0F0BCBB46B246A946A046F0BDDC
:10448000B042F6DA3000F4E725004223012042353D
:10449000E154432300222061E254BFE713682168FE
:1044A000181D10600D0602D44D0600D594E01A6860
:1044B00016006368002A00DA92E0584A93460A22FE
:1044C00003924BE01368206840CB050601D44006F8
:1044D0007FD41360514B9B466F2900D191E00A2392
:1044E000039337E013682500191D11601A684223F1
:1044F00001204235E254CCE71368191D11601D6894
:10450000002128006268FFF7D1F8002800D181E07F
:10451000401B6060BDE7202321680B4323604521D9
:10452000782060543E498B46116840C9180603D470
:10453000580601D53604360C1160DA0702D5202260
:1045400013432360002E03D120222368934323606A
:104550001023039343230022E2546368A360002BDB
:1045600018DB042122688A432260002E12D1029DAA
:10457000002B49D1039B082B1ED0029B5B1B2361A0
:104580004CE745235821E154244923688B46CBE767
:104590002368C4E7039B9A46029D30005146FBF70F
:1045A000CBFE5B465B5C013D2B7033000600534540
:1045B000F3D2039B082BE0D12368DB07DDD56268CB
:1045C00023699A42D9DC3023013D2B70D5E718804E
:1045D00021E73604360C7CE700269E5F320068E750
:1045E00043222D20A054A360002B02DB0423994317
:1045F00021600A239A46094B76429B460A2303937D
:10460000CAE708230393A5E75B4625001B784235DC
:104610002B70AFE760683CE7082B0100C43701004E
:10462000D83701007047C0467047C046F0B50C232C
:10463000CD5E06000C0097B0AA0707D523004733CC
:10464000236023610123636117B0F0BD0E23C95EAF
:1046500000292BDB6A460EF051F9002824DB802765
:10466000FF0039003000019DFFF76CFC002833D0BB
:104670008022A38920601343A381F0231B021D40E5
:104680008023206167619B019D42DDD130000E23B4
:10469000E15E0EF03FF90028D6D00322A3899343B0
:1046A00001221343A381CFE70C23E55E0F4B2D06B8
:1046B000ED171D408023DB009C4665442900300037
:1046C000FFF740FC002807D08022A3892060134315
:1046D000A38120616561B7E70C22A35E9A05B3D47C
:1046E0000322934302221343A381A7E740FCFFFF69
:1046F00070B50C001E000E23C95E150096B000298F
:1047000014DB6A460EF0FAF800280FDBF02301995B
:104710001B021940084B9C4661444B42594180237F
:10472000DB00002031602B6016B070BDA389002132
:104730001B06F4D54023F4E700E0FFFF002370B52B
:10474000074D0400080011002B600EF0EDF8431C2B
:1047500000D070BD2B68002BFBD02360F9E7C0466A
:104760004414002010B50EF0E7F810BD70B50C0031
:104770000E25495F0EF0AAF8002803DB636D1B18B5
:10478000636570BDA389024A1340A381F9E7C0465F
:10479000FFEFFFFF00207047F8B50C001F000C234F
:1047A000C95E05001600CB050AD40A4B3200194039
:1047B0002800A1810E23E15E3B000EF08EF8F8BDCB
:1047C0000E23E15E002202230EF085F80C23E15E49
:1047D000EBE7C046FFEFFFFF70B50C000E25495F09
:1047E0000EF079F8431C07D08023A2895B011343A4
:1047F0001BB26065A38170BDA389024A13401BB23E
:10480000F8E7C046FFEFFFFF10B50E23C95E0EF0BC
:1048100066F810BD0B1F1B68181F002B00DB7047CC
:104820000B58C018FBE7C0468023064A1B06D16C14
:104830000B43D3648023044A9B0351690B435361A8
:104840007047C046001402400004014010B5034BFD
:1048500070461A695A610CF055FD10BD0004014004
:1048600010B5FFF7F3FF10BD802310B5DB05DA6943
:1048700070461A620CF046FD10BD000010B5034BE7
:104880007046DA691A620CF03DFD10BD000400406C
:1048900010B5034B7046DA691A620CF033FD10BD97
:1048A0000008004010B5034B70461A6E5A660CF0B3
:1048B00029FD10BD000002402D4B70B51A697546E8
:1048C0005A612C4B1978002912D110231A420FD0AB
:1048D000294C2278002A0BD0284A10789022D20541
:1048E0001268002808D1110019401A4200D1217025
:1048F00028000CF007FD70BD16001E401A4210D0B3
:104900002378012BF4D1013323701D4C4022200069
:10491000FEF71EFB802221005201402001F0A0FC86
:10492000E6E72378022BE3D1164B15481B78027873
:10493000002B07D07F2313403B2B03D101F0D6FD82
:104940002670D5E70A2A04D101F0D0FD0023237098
:10495000CEE70D4A13780133DBB21370022B02D974
:1049600000231370F3E701230100084A2370D4E702
:1049700000040140020D002058200020D61F002016
:10498000182000207E190020D71F0020D81F0020EB
:104990007346F7B50193BC4BBC49DA691A620B78D0
:1049A000002B12D0BA4A13780133DBB2092B01D89D
:1049B00013700AE0002313709023DB05186810239E
:1049C00004001C4018421AD10C70B24B1B78022B09
:1049D00009D0B14B1A78002A13D05B79002B10D183
:1049E000092001F053FDAD49087800283AD0AC4ABF
:1049F000138801339BB2312B06D8138007E00523BF
:104A0000D6E701F08FFCEEE7002313800B70A54A78
:104A100013780133DBB2022B00D974E01370A24A81
:104A200013780133DBB2042B00D97FE013709F4C65
:104A30009F4D23882A8801339BB223809A420DD848
:104A400000232380944B1B78002B07D1112001F009
:104A50001DFD002802D12B880A3B238001980CF011
:104A600051FCF7BD934A9449137809780133DBB2BE
:104A7000002923D0032B01D81370C8E78F4B107087
:104A8000DB6F04221C008E4D14401342BFD18D48B1
:104A90002F6D03788C495E007752AE690133324343
:104AA000DBB2AA61092B01D80370B0E714220470AD
:104AB0008648FEF7FFFA00F095FDA8E7132BDBD937
:104AC0007E4B1170DB6F04221C007D4D144013429D
:104AD0000DD17C482F6D03787B495E007752AE691B
:104AE00001333243DBB2AA61092B04D80370784A40
:104AF0001388013381E7142204707448FEF7DAFA50
:104B000000F004FEF3E7002313700AF0F9FA714C89
:104B1000A04200D183E7002800D180E70AF0F0FA34
:104B20006D4B186020000AF0E5FA78E700216B4B26
:104B300011701A788A4202D0197000F091FA684B0D
:104B40001B78002B01D000F0A5FA664A13780133D8
:104B5000DBB2FF2B00D100231370634A13780133BB
:104B6000DBB2FF2B00D1002360494A4C0878137058
:104B7000002806D15E4A138801339BB2312B2BD813
:104B8000138096215B4A4900138801339BB28B4204
:104B90002BD21380584B594D00931B78002B19D002
:104BA00096222B88520001339BB22B8093422ED346
:104BB000534B1B78002B0BD19023DB051A68102375
:104BC00016001E401A4203D14E4B1B78002B12D107
:104BD00091235B002B801AE00123108022780B7058
:104BE000002ACED1484A1370CBE70023138001225C
:104BF000464B1A70CEE70123454F062231002000B4
:104C00003B7001F0E1F8009B3E701E702E8023780F
:104C1000022B2FD03C4B1A78002A04D000221020FF
:104C20001A7001F0B7FB00223A4B1A703A4B1A681F
:104C30000023920608D590238022DB051B68920191
:104C400013405A42534101339621344A49001370AC
:104C5000334A138801339BB28B426BD21380962167
:104C6000304A4900138801339BB28B4200D3A6E03F
:104C70001380DCE62C4B2D4A197B5B7B1B020B431C
:104C8000138001222A4BD0E700100040020D0020C3
:104C9000D51F00205D0C0020681400207F14002028
:104CA000801400205B1400205A14002058140020A7
:104CB000000D0020861400208314002004240140ED
:104CC00000240140891400209E1400208A14002032
:104CD00084140020942B010070140020781400200C
:104CE000D41F002057140020561400205F14002009
:104CF0005C1400207A140020B7140020B4140020A3
:104D000058200020B21400208214002079140020C2
:104D1000B61400205E140020000800487C14002017
:104D20005414002052140020003802407614002051
:104D300074140020002325781380022D8FD02C4A74
:104D40001178994247D12B4B1B78002B08D12A4B65
:104D50001B78002B04D1294B1B78002B00D17EE758
:104D6000002D00D07BE76478012C0CD1214B1A7800
:104D7000002A00D173E7002205201A7001F00AFB17
:104D80001F4B1C706BE7022C0DD11B4B1A78002AAD
:104D900000D164E7002206201A7001F0FBFA01221C
:104DA000174B1A705BE7032C00D058E7134B1A78A7
:104DB000002A00D153E7002207201A70EDE70021F6
:104DC000104B11801A788A4200D130E60122197006
:104DD0000D4B1A702BE6002DC5D0012D00D03EE7FB
:104DE0000420137001F0D6FA054B1D7037E7C0465A
:104DF0006614002065140020641400206314002051
:104E000067140020621400206114002070B52D4C3E
:104E100006220021200000F0B9FF23786678A578EB
:104E2000E07821796279FF2B1FD12B0033400340BA
:104E30000B401340FF2B33D102232370013B32225E
:104E40006370E3700023A2702371637101F05EFD53
:104E50001D4B18701D4B1870012828D0022828D02F
:104E6000002801D10223237070BD002B16D1002E23
:104E700018D12B0003430B431343DDD0642D01D91C
:104E80006423A370012801D90123E370012901D90A
:104E900000232371012AD9D90023D6E7022B01D997
:104EA00002232370032EE9D903236370E6E7207001
:104EB000DAE7002323706378013B022BD4D9012366
:104EC0006370D1E75D0C0020501400204F140020C7
:104ED00010B5084C2378DB090BD104F00FFF8023B9
:104EE00022785B42134301222370034BDA7000F0F7
:104EF000ADFF10BDEC2F00205D0C002010B5084C5C
:104F000023787F2B0AD904F0F9FE7F2223781340FF
:104F100000222370034BDA7000F098FF10BDC046EA
:104F2000EC2F00205D0C002037B56B460400DD1D22
:104F30002A000121006809F0DDF92368287801338F
:104F400023603EBD0520704710B509F06EF910BD15
:104F500010B509F086F910BDF7B509F064F9002520
:104F6000002413E0E3B2EFB21900F2B2380001936B
:104F700004F096F9F2B2030001993800013609F005
:104F800070F9102EEED10134062C01D00026E9E78D
:104F90000135052DE4D1F7BD10B509F07BF910BD41
:104FA00010B509F08EF910BD1020704710B509F04A
:104FB0009EF980B210BD10B509F09CF910BD10B576
:104FC00009F0B0F910BD10B509F02EF909F0C2F9D9
:104FD00010BD0000F7B505000F2815D809F087F9B6
:104FE00001AE32000121013809F084F93478002C37
:104FF0000AD109F07CF90700002D06D12A00310002
:105000000948019409F066FDF7BDBC42FCD02000C0
:105010003200012109F06EF933780134002BF4D10C
:10502000013DEDB2E8E7C046294F00000020044BE7
:1050300010B51B68834201D01B68984710BDC0465D
:1050400070140020054B10B51B68002B04D05A6962
:10505000002A01D05B69984710BDC046701400203B
:105060000B4A10B51378012B0DD0022B0DD0002B5D
:1050700008D15078022803D0032801D0012801D19B
:1050800001F088F910BD0020FAE70820F8E7C046D3
:105090005D0C002010B50D4C2378022B0CD0032B97
:1050A00012D01220012B08D0032B04D90123002297
:1050B0002370074B1A7010BD132001F06BF9237891
:1050C0000133DBB22370EFE71420F6E7FE0C00207B
:1050D000D41F0020F0B591B005000E0001F050F88B
:1050E000041E1FD137003D2E00D93D27402200214C
:1050F0006846FDF72DFF082E16D16B4632002900B9
:10510000D81CFDF7D7FF0B2469461C4B1C4A1B78A3
:105110001C489B010A80C01840228C70FDF7CAFF12
:1051200001F04EF811B0F0BD287802380428EBD811
:10513000FBF754F81B0B13EA03006B463A002900F7
:10514000D81CFDF7B7FF0C24DEE76B463A002900B8
:10515000D81CFDF7AFFF0F24D6E76B463A002900B5
:10516000D81CFDF7A7FF0E24CEE76B463A002900B6
:10517000D81CFDF79FFF0D24C6E7C046D21F0020B4
:105180000A400000E02A0020084B10B51B780400FC
:10519000012B02D80821FFF79DFF054B1B68002B50
:1051A00002D020005B68984710BDC0465D0C00200F
:1051B00070140020084B10B51B780400012B02D896
:1051C0002021FFF787FF054B1B68002B02D0200032
:1051D0009B68984710BDC0465D0C002070140020ED
:1051E000084B10B51B780400012B02D80621FFF7ED
:1051F00071FF054B1B68002B02D02000DB6898472D
:1052000010BDC0465D0C002070140020084B10B586
:105210001B780400012B02D80321FFF75BFF054B2D
:105220001B68002B02D020001B69984710BDC046A8
:105230005D0C0020701400208023074ADB00D16B36
:105240000B43D3630222054B19680A431A600122FB
:1052500019680A431A607047001002400028024093
:1052600080230B4ADB01D16B10B50B43D3630BF0EA
:1052700031FE7F23074A1370074A013B13702F2228
:10528000064BA0331A600BF031FD0BF007FE10BD8A
:10529000001002408038024082380240003802404C
:1052A00010B50BF00BFE0BF029FD8022064BD2014E
:1052B000196B0A431A631A6B04490A401A63DA6BC2
:1052C0000A40DA6310BDC04600100240FFBFFFFF76
:1052D000F7B50222604B0400986802439A600122ED
:1052E000986802439A605D4B5D48DA690240DA6172
:1052F0001822D8690243DA61186C5A4A1040902289
:10530000D20002431A64487B07211A6A8A43024387
:105310001A620131032801D8534B195C534B1868AA
:10532000FAF784FF524B984200D98AE08022236B1F
:10533000D2051B021B0A134380222363A36FD200F2
:105340001B0B1B031343A367A36F4A4A134001229D
:10535000A367A3691343A361E3681342FCD08023CE
:10536000E16F454ADB0411400B43E3670423A16965
:105370001943A161E118C86F1842FCD1276DE06F95
:105380001040A022D2040243E267A2691343A36142
:105390000423CA6F1A42FCD10F20BFB27843256D97
:1053A000ADB2401BFBF716FC3449FBF745FA061C6F
:1053B000FDF726FB009001910021301CFBF7D2F88D
:1053C00000222F4B002842D000980199FBF752FC95
:1053D00000900191E81BFBF7FDFB011C2948FBF73E
:1053E0002BFAFDF70DFB0022254BFBF743FCFBF7E7
:1053F00039F9A66F80B2360B36033043A0670098A8
:105400000199FDF76FFAA56F1A4B00041D40054383
:10541000A567E369124A012013401822E361E3699A
:105420009343E361236C0F4A134007222364236AEA
:1054300093432362236B1B021B0A2363124B63619A
:10544000FEBD8022236B12061B021B0A73E7009825
:105450000199FCF70FFEBBE7001402400024014055
:10546000FFDFFFFF3FF8FFFFAC2B0100D43000202F
:10547000001BB700FFFF00FFFFFFFFF800006041C7
:105480000000E03F0000604AFEFF0000002337B547
:1054900004000D00084801A901930BF019F8019BC5
:1054A00029002000013303D1FFF712FF01203EBD88
:1054B0000BF0ECFBFBE7C04674080000002330B59E
:1054C00087B00293039304930593033369460193D2
:1054D00018480D3300930BF071FA8023164A174CCD
:1054E000516C174D9B000B43536429002000FFF7BC
:1054F000CDFF8022E36AD2051B021B0A1343E3623D
:10550000290020000BF08CFB0123E2681A42FCD03A
:105510000F22236C93432364226C0A4B1A40E0232E
:105520009B00134323640423A2691343A36107B0C0
:1055300030BDC04600080048001002400024014071
:10554000B02B01003FF8FFFF0023490041188842BB
:1055500000D1704703800230F9E70000134B10B50B
:105560001A680123920606D5114B124A9B781370D4
:10557000114A137000230024104A0A211370104BA3
:1055800010481C70104B1C70104B1C80104B1C7072
:10559000104B1C70FFF7D8FF0A210F48FFF7D4FF0C
:1055A00001220E4B1C800E4B1A7010BD00080048E3
:1055B0005D0C002088140020871400208314002034
:1055C000861400209E1400208914002084140020DA
:1055D0007E1400207D1400208A14002080140020F6
:1055E0007F14002000223A4B70B510001D001100FE
:1055F0004E002C889E5BA64200D2110046009E5BA6
:10560000A64200D910000132D2B202350A2AEFD1E7
:105610000024220081421DD108321988013A641801
:10562000D2B2A4B20233002AF7D12A4B2A4D9C42AF
:105630004CD82A4B9C421AD96420294AE3089B186B
:1056400058432849FAF77CFE274BC0B29C4230D918
:10565000002333E0914204D0904202D01D886419A7
:10566000A4B20132D2B202330A2AF3D1DDE72B7899
:105670000133DBB2032B16D82B7000201B4B1870A4
:105680001B4B18701B4B9A78824202D0987000F026
:10569000DDFB0023184A1370184A1370184A138050
:1056A000184A137070BD002301222B70164B1A701C
:1056B000E3E72B780133DBB2092B01D82B70DDE750
:1056C000002301222B70104B1A70D7E76420BFE72C
:1056D0008A140020D74F00007D1400204F3A0000AC
:1056E000B7F8FFFFB20200008F40000088140020CE
:1056F000871400205D0C00208914002086140020EF
:1057000084140020831400207E140020F0B5674B21
:1057100085B01B780193664B02939B780393019BA2
:10572000022B15D1634A62331370634A1370039AD4
:105730009A4206D0029A93700122604B1A7000F0D0
:1057400085FB00225E4B1A705E4B1A7005B0F0BDEF
:1057500000235D4A18001400190017004E00258828
:10576000F65BAE4200D219004600BE5BAE4200D9E5
:1057700018000133DBB202340A2BEFD100242300DE
:10578000814243D108331188013B6418DBB2A4B2D3
:105790000232002BF7D14D4B464E474F494D9C42AC
:1057A0005DD84B4B9C4261D964204A4AE3089B1860
:1057B00058434949FAF7C4FD019BC0B2012B38D1C7
:1057C000031C002800D10123D8B23B78434A83420E
:1057D0003FD2434B1188994208D900213378118078
:1057E000622B02D80133DBB233703B700022344BA2
:1057F0002A701A703378039A9342A7D0029A937052
:1058000001222E4B1A7000F021FB9FE7994204D031
:10581000984202D015886419A4B20133DBB2023277
:105820000A2BF3D1B7E7002301222B70244B1A7007
:1058300025E02C4B9C4217D82B780133DBB2092B87
:1058400001D82B701CE0002301222B701C4B1A7016
:1058500016E000231380C9E7019B1380CAE7019B70
:105860006320012BB1D001300023EAE7019B012B1B
:10587000A9D02B780133DBB2042BD4D82B700020B5
:10588000019B002BA1D13B78144A8342E4D9144BED
:1058900011889942AED9019933781180002B02D03A
:1058A000013BDBB233703B70A4E7C0467C140020A0
:1058B0005D0C002088140020871400208214002032
:1058C0007E1400207D1400208A140020D74F000091
:1058D0004F3A0000B7F8FFFFB20200008414002026
:1058E000C30900008F40000010B586B0040001918C
:1058F00072B60AF075FD6A4604230294E4431382EB
:1059000002A801AB059303940AF0B2FD0AF07EFDF4
:1059100062B6012006B010BD0200F820E02370B589
:105920001D4C0D002168400201405B025B1A1E689D
:10593000F02321685B0201405B1A1B68002B13D126
:10594000164BF318591E8B41F82026682168400237
:105950000E335B03014006409E1B5B1A10495B1827
:105960009E4209D9802014E0AB20002E11D10B49B2
:105970005B1859424B41E7E7316801310AD1F823FE
:1059800020685B021104184029438019FFF7ACFF1F
:10599000012070BD0436E3E700140240121111111A
:1059A000FC1F00001FB5040072B60AF019FD009438
:1059B000E443684601940AF039FD0AF027FD62B617
:1059C0001FBD70B5E024F02564026D022000FFF7D2
:1059D000E9FF80239B00E418AC42F7D1E0200021CE
:1059E0004002FFF781FFF02460020134E4B2FFF7C8
:1059F000D9FF002CF8D170BD10B5FFF7E2FF0021F0
:105A00000248034AFDF7A4FA10BDC046BC140020AA
:105A1000C2040000F7B5754B01931B78D9B2002B77
:105A20004BD1F827724D734A2B687F02724E3B4070
:105A3000136013683000714AFDF78AFAE022F02102
:105A40002B6852023B40D31A1C682B6849023B402A
:105A5000CB1A1B68002C31D0002B00D0ACE0F82012
:105A60002B682A6840020340024090206449C0002D
:105A7000C91A644B9B1A994244D8634B9C4258D034
:105A8000013400D0A1E0E024F02764027F0220006E
:105A9000FFF788FF80239B00E418BC42F7D1F8226F
:105AA000DF212B685202134049024022C91A3000FC
:105AB000FDF700FB0123019A1370F7BD90202A68BF
:105AC00052493A408A1A29689446514A3940521A32
:105AD000C00094450CD8002BC1D0013349D1F0242B
